:020000040000FA
:10000000020DA5022003FFFFFFFFFF02200BFFFFF1
:10001000FFFFFF020583FFFFFFFFFF02201BFFFF23
:10002000FFFFFF022023FFFFFFFFFF02202BFFFF48
:10003000FFFFFF022033FFFFFFFFFF0205A7FFFFC7
:10004000FFFFFF022043FFFFFFFFFF02204BFFFFE8
:10005000FFFFFF022053FFFFFFFFFF02205BFFFFB8
:10006000FFFFFF022063FFFFFFFFFF02206BFFFF88
:10007000FFFFFF022073FFFFFFFFFF02207BFFFF58
:10008000FFFFFF022083FFFFFFFFFF02208B902076
:1000900000000100000000C80300FFFFFFFF000098
:1000A000040074F7120B3178007900801B749225DC
:1000B00008F582740312024C90041212025D40058E
:1000C000900412E4F01202439004121201B560078A
:1000D000C3E89CE99D40D6E8FAE9FB7F02020C9652
:1000E00074F5120B31900496E0FEA3E0FF8F08EE4A
:1000F000C39508F895E0F9EFC39EE8500B1203454D
:10010000700B78007900801312034F50F57A007B52
:1001100000803BE004F0D2E9120243C3E89CE99D71
:1001200050288A828B83E0C0E0900497E0FE74162A
:100130002E12032CD0E0120335900498E4F09004C2
:1001400097E0C3947F40CCE480CBE8FAE9FB7F04DE
:10015000020C968003120166A28B40F9A2E95005B9
:1001600012018F80F722C082C083E5C1C28BC0E03C
:10017000900413E0F8749228F5827403120330D0CF
:10018000E0F09004131202564002E4F002056A7493
:10019000F7120B31C2E99004961201B5601474167F
:1001A000250812032CE0F5C1900496120256400275
:1001B000E4F00200DBE0F508A3E065082274F71222
:1001C0000B317800790090051BE0705BA3E070575D
:1001D00075F900C28FC284A28340FCA28F4004A2A2
:1001E0008350F8E5F9C28FA2835004D2848038C0CE
:1001F000E0E0FE749B2EF5827404120330D0E0F030
:1002000090051C12025640D3E4F080CF749B250861
:10021000F582740412024C90051B12025D40059099
:10022000051BE4F012024390051B1201B56007C3E1
:10023000E89CE99D40D6E8497006E4F090051BF083
:100240000200D7E8240108E93400F922120330E063
:100250008A828B83F022E004F0C3948022E00412AF
:100260000339C394802274F8120B3190059EE0FF8D
:100270008F82A88290059DE0FEEFC39EE0500DC3E3
:1002800098F895E0F91203447012800CC398F89521
:10029000E0F9E812034F4004EC4D70077A007B0050
:1002A0000203278A828B83E0F5F9A3AA82AB8378C5
:1002B0000179008006E004F0120243C3E89CE99D46
:1002C00050278A828B83E0C0E090059EE0FE741D7B
:1002D0002EF5827405120330D0E012033590059E8E
:1002E000E0C3947F40CFE480CEC28FA28340FCC2A3
:1002F00084A28F4004A28350F890059D12035CE015
:10030000F5F9C28F90059DE0FAA3E06A90059D7013
:100310000512035C80051202564002E4F0A28350ED
:10032000D0D284E8FAE9FB7F01020C96F5827404CE
:100330003400F5832212033922F08A828B83A3AA28
:1003400082AB8322E824FF18E934FFF9E84922242C
:100350007FF8E93400F9C3E89CE99D22E0FA741DB6
:100360002AF58274051203302274FF120D43120421
:10037000A21206D8E9700302043D7E00900390E0CB
:1003800064017011C2849003917401F07508388E75
:10039000098E0A8009D2AF8E088E09750A268E0B47
:1003A000900390E070031201537C017D0085188258
:1003B000851983AA82AB8312053D8B0DEA450D603A
:1003C00012E06410602CE064EF70088E088E098ED5
:1003D0000A8E0B85080C85090D850A0E850B0F907A
:1003E00005AB7808120D6EE50C450D450E450F70F6
:1003F000AF0E900390E064017009D284900391E401
:10040000F08002C2AFEEA2E05033900390E06401AE
:10041000700C75F800C2AB539AF7D2EA800C75865F
:1004200000C2AAC28B539AFBC2E990000174CDF0BE
:10043000022000C2AF75C9AB75C95B80FE750800AC
:10044000750900750A00750B00794E12048C900333
:1004500090E07004D2AF8003E070031201531205E4
:10046000C8E960F41206D8E960EEE0701512015395
:100470009005A37808120D6E9005AF7808120CD67F
:1004800050EBC2AF75C9AB75C95B80FE781075B60D
:100490000FE5B4A2E750FAE5BBC39940F118E87044
:1004A000ED22C082C08353BEFBE59DA2E650FA0058
:1004B00078F879010012034470FA75C6807480657B
:1004C0009E70FA43BE049062707408F0794A120478
:1004D0008C90000174F5F07403F5D575D488A2A052
:1004E000E433900390F0A2E05029D28453F3F75301
:1004F000F3EF53FDF743FD10538FF753F7DF43FC42
:100500002043F10253F5DF75F82043F4F0D2FED218
:10051000AB802853FF3F85FFFF53F1FE43F30C539D
:10052000F2F375868075C480900499E4F0A3F075A9
:10053000C2D875C50B75C402438640802DC082C0E9
:1005400083900390E070051200A2801E900391E05A
:100550006015A28F500BE5F98A828B83F07A0180B7
:10056000027A007B0080031201BDD083D08222C0BA
:1005700082C083900390E070051200E080031202B5
:100580006680E7C0E074F2120B97900001E064CD42
:100590007005122013800BE064F57005120166806F
:1005A00001007F01020BF6C0E074F2120B9790007D
:1005B00001E064CD700512203B800BE064F570050E
:1005C00012018F80010080DA74F7120B3174FF1270
:1005D0000D437E008033900384E0F88518828519EE
:1005E00083E068700D900382E0644D700512083D51
:1005F000E9FE900385E4F0900387F0851882851961
:1006000083E0F8900384E068F07C017D0085188227
:10061000851983AA82AB8312053D8B09EA450970CF
:10062000030206CCE0C0E0900387E0F8900385E089
:10063000FAE82AF8E434001209D9D0E0F0900387F0
:10064000E0601114602014603E14604E1460641465
:10065000608480A7851882851983E064FE709C9071
:10066000038774018094900384E4F08518828519CF
:1006700083E0900386F0C394809003874004E402F3
:1006800005FA74020205FA851882851983E0900341
:1006900082F090038774030205FA85188285198316
:1006A000E0900383F0900386E06019900387740460
:1006B0000205FA900385E004F0F8900386E0686094
:1006C000030205FB90038774050205FAEEF9740135
:1006D000120D107F02020C9674ED120B3174FB1296
:1006E0000D437508047509007808120D9474021200
:1006F0000DD0AC82AD837A907B007904120A2F74FE
:1007000002120D10851882E0F47003A3E0F4600F6C
:10071000851882851983E0F8A3E0F9E8497003029F
:1007200008317402120DD0E0687003A3E069700311
:1007300002080B7508007510007511207512007500
:100740001300800A90059F7810120D59604C750AAD
:1007500001750B00780A120D947406120DD0AC824C
:10076000AD8385100A85110BAA0AE50B5407FB8A95
:100770000C85110D85120E85130F740B780C120D5C
:100780002AA90C120A2F7402120D10E0F9AA08AB64
:10079000091209F38A088B09800C751093751120D2
:1007A0007512007513009005A37810120D6E900558
:1007B000A77810120CD6508CE4F91209F3E4F91260
:1007C00009F37402120DD0EAF0A3EBF0750801757D
:1007D00009007808120D947402120DD0AC82AD831A
:1007E0007A247B08120AB47402120D10750804787A
:1007F00008120D947402120DD0AC82AD837A907BF6
:10080000007904120A2F7402120D101209E5120D5C
:10081000D0E0687003A3E06970178518828519839A
:10082000E0F47003A3E0F46008E849600479018013
:100830000279007405120D107F0C020C9674F312ED
:100840000B3174FC120D43900306E0FAA3E0F8E4C8
:10085000C8F9EA2400FEE93408FF750A018809880E
:10086000088E0C8F0D7409780C120DB4A90CEEF5DE
:100870000CEF5401F50D900383E014600914602C13
:10088000146069020985EA450D7003120B1A750C94
:1008900010750D00780C120D947C087D03EEFAEFB4
:1008A000FB120AB47402120D10020985E9C394798F
:1008B0004006750901020985750A40750B00780A22
:1008C000120D947C097D037402780C120D81AA0C20
:1008D000AB0D120A2F7402120D10900307E0A3F063
:1008E000900306E0A3F0750A43020985750C0475B0
:1008F0000D00780C120D947402120DD0AC82AD83F1
:100900007A907B007904120A2F7402120D1074027F
:10091000120DD0E0F8A3E0F9851882851983E0680C
:100920007003A3E06960471209E5120DD0E8F0A357
:10093000E9F0750C01780C120D947402120DD0AC14
:1009400082AD837A247B08120AB47402120D1075EA
:100950000C04780C120D947402120DD0AC82AD838D
:100960007A907B007904120A2F7402120D1012097A
:10097000E5120DD0E0687003A3E069700575080109
:100980008003750907900305E0D2E7F0E509A3F0BD
:10099000E50A900303F0744D650AF5097404250A0D
:1009A000FB7A038004E062090AEAF83395E0120951
:1009B000D9EAC39BA2D265D03340EAE509F07401BD
:1009C0002AFC3395E0FD7A027B0312056FA90874B7
:1009D00004120D107F06020C96F9740228F5827439
:1009E0000339F58322851882851983E0F8A3E0F99D
:1009F000740222C008C0097C088A088B09740F7829
:100A000008120DB4EAC333FAEB33FBE9A2E7500452
:100A100074014AFAE508A2E0500874216AFA7410D9
:100A20006BFBE9C333F91CEC70CFD009D0082274FA
:100A3000F5120B318908740F5508F50A750B00740F
:100A40000B780A120D81EA2400F8EB3480F9E824CF
:100A500000E9350BF9E5C7F509A2AFE433F50AC2A1
:100A6000AFE508C4540FFAE5C754F84AF5C7740B4C
:100A7000120DD0E0FAA3E0FB801C88828983E08C11
:100A8000828D83F088828983A3A882A9838C828D3A
:100A900083A3AC82AD83EAFEEBFFEE24FF1AEF34B2
:100AA000FFFBEE4F70D48509C7E50AA2E092AF7F45
:100AB00004020C9674F7120B31ED900388F0ECA34E
:100AC000F0A37462F0A37473F0A3E0541FF07409F0
:100AD000120DD0E0F508A3E0F509E508333354FC26
:100AE00090038DF074067808120DB4E50890038C1D
:100AF000F090038E7412F0A37442F075D1FE75D697
:100B000001EA906271F0EBA3F0906270E0D2E1F044
:100B1000E0A2E740FB7F02020C96C082C083E9C3DB
:100B200033906272F0906270E0D2E0F0D083D082B5
:100B3000222518C582C0E0E51934FFC583C0E0E571
:100B400018C3958224F910AF08858319858218800F
:100B500008858319858218D2AFCEF0A3E520F0A3D3
:100B60007808E608F0A3DEFAEFF0A3E58124FBF8AD
:100B7000E608F0A3E608F0A30808E608F0A3E608F4
:100B8000F0A315811581D0E0FED0E0F81581158124
:100B9000E8C0E0EEC0E022C0D02518C582C0E0E584
:100BA0001934FFC583C0E0E518C3958224F310AF64
:100BB000088583198582188008858319858218D253
:100BC000AFC8F0A3E9F0A3EAF0A3EBF0A37908E73C
:100BD00009F0A3D8FAECF0A3EDF0A3EEF0A3EFF048
:100BE000A3D0E0F0A3D0E0F0A3D0E0F0A3E520F0A4
:100BF000A3E5F0F0A322851983851882E0C0E0A365
:100C0000E0F9A3E0FAA3E0FBA37808E0F608A3DF8D
:100C1000FAE0FCA3E0FDA3E0FEA3E0FFA3E0C0E058
:100C2000A3E0C0E0A3E0F5D0A3E0F520A3E0A3F5A6
:100C3000F010AF088583198582188008858319858F
:100C40008218D2AFD082D083D0E0F8D0E032120D3B
:100C5000DFB90003020C90E4900302789E790380D0
:100C600002F0A3D8FCD9FA90059FAA82AB8390002A
:100C70008E781579018015E493A3AC82AD838A82C6
:100C80008B83F0A3AA82AB838C828D83D8E9D9E7CA
:100C9000120369120DDA851983851882E0A3FEE03C
:100CA000A3F5207808E0A3F608DFFAE0A3FFE0A3AD
:100CB000C0E0E0A3C0E0E0A3C0E0E0A3C0E010AF6C
:100CC000088582188583198008858218858319D242
:100CD000AFD083D08222C008C3E096F50808A3E015
:100CE00096420808A3E096420808A3E096450870DB
:100CF00001D3D008222518F58210AF08F51840025C
:100D000015198008F51840021519D2AF85198322EC
:100D1000C0D0251810AF08F518500205198008F545
:100D20001850020519D2AFD0D0226016080808C6A4
:100D3000C313C618C613C618C613C618C613C6D51D
:100D4000E0EA22251810AF08F518400215198008AE
:100D5000F51840021519D2AF22E066701008A3E022
:100D600066700A08A3E066700408A3E06622E02625
:100D7000F608A3E036F608A3E036F608A3E036F658
:100D800022700422600D18C6C333C608C633C6D508
:100D9000E0F4182274028000C0E0F404120CF5D0D4
:100DA000E0120DC32275D00075813F7518027519C8
:100DB00003020C4E600C08C6C313C618C613C6D572
:100DC000E0F422CAC0E0E6F0A308DAFAD0E0FA22A2
:100DD0002518F582E43519F5832200000080FB799F
:100DE0000122FFFFFFFFFFFFFFFFFFFFFFFFFFFFEE
:100DF000FFFFFFFFFFFFFFFFFFFFFFFFFFFFFFFF03
:100E0000FFFFFFFFFFFFFFFFFFFFFFFFFFFFFFFFF2
:100E1000FFFFFFFFFFFFFFFFFFFFFFFFFFFFFFFFE2
:100E2000FFFFFFFFFFFFFFFFFFFFFFFFFFFFFFFFD2
:0400000500000DA545
:00000001FF
