:020000040000FA
:10000000020DA5022003FFFFFFFFFF02200BFFFFF1
:10001000FFFFFF020583FFFFFFFFFF02201BFFFF23
:10002000FFFFFF022023FFFFFFFFFF02202BFFFF48
:10003000FFFFFF022033FFFFFFFFFF0205A7FFFFC7
:10004000FFFFFF022043FFFFFFFFFF02204BFFFFE8
:10005000FFFFFF022053FFFFFFFFFF02205BFFFFB8
:10006000FFFFFF022063FFFFFFFFFF02206BFFFF88
:10007000FFFFFF022073FFFFFFFFFF02207BFFFF58
:10008000FFFFFF022083FFFFFFFFFF02208B902076
:1000900000000100000000C80300FFFFFFFF000098
:1000A000040074F7120B3178007900801B749225DC
:1000B00008F582740312024C90041212025D40058E
:1000C000900412E4F01202439004121201B560078A
:1000D000C3E89CE99D40D6E8FAE9FB7F02020C9652
:1000E00074F5120B31900496E0FEA3E0FF8F08EE4A
:1000F000C39508F895E0F9EFC39EE8500B1203454D
:10010000700B78007900801312034F50F57A007B52
:1001100000803BE004F0D2E9120243C3E89CE99D71
:1001200050288A828B83E0C0E0900497E0FE74162A
:100130002E12032CD0E0120335900498E4F09004C2
:1001400097E0C3947F40CCE480CBE8FAE9FB7F04DE
:10015000020C968003120166A28B40F9A2E95005B9
:1001600012018F80F722C082C083E5C1C28BC0E03C
:10017000900413E0F8749228F5827403120330D0CF
:10018000E0F09004131202564002E4F002056A7493
:10019000F7120B31C2E99004961201B5601474167F
:1001A000250812032CE0F5C1900496120256400275
:1001B000E4F00200DBE0F508A3E065082274F71222
:1001C0000B317800790090051BE0705BA3E070575D
:1001D00075F900C28FC284A28340FCA28F4004A2A2
:1001E0008350F8E5F9C28FA2835004D2848038C0CE
:1001F000E0E0FE749B2EF5827404120330D0E0F030
:1002000090051C12025640D3E4F080CF749B250861
:10021000F582740412024C90051B12025D40059099
:10022000051BE4F012024390051B1201B56007C3E1
:10023000E89CE99D40D6E8497006E4F090051BF083
:100240000200D7E8240108E93400F922120330E063
:100250008A828B83F022E004F0C3948022E00412AF
:100260000339C394802274F8120B3190059EE0FF8D
:100270008F82A88290059DE0FEEFC39EE0500DC3E3
:1002800098F895E0F91203447012800CC398F89521
:10029000E0F9E812034F4004EC4D70077A007B0050
:1002A0000203278A828B83E0F5F9A3AA82AB8378C5
:1002B0000179008006E004F0120243C3E89CE99D46
:1002C00050278A828B83E0C0E090059EE0FE741D7B
:1002D0002EF5827405120330D0E012033590059E8E
:1002E000E0C3947F40CFE480CEC28FA28340FCC2A3
:1002F00084A28F4004A28350F890059D12035CE015
:10030000F5F9C28F90059DE0FAA3E06A90059D7013
:100310000512035C80051202564002E4F0A28350ED
:10032000D0D284E8FAE9FB7F01020C96F5827404CE
:100330003400F5832212033922F08A828B83A3AA28
:1003400082AB8322E824FF18E934FFF9E84922242C
:100350007FF8E93400F9C3E89CE99D22E0FA741DB6
:100360002AF58274051203302274FF120D43120421
:10037000A21206D8E9700302043D7E00900390E0CB
:1003800064017011C2849003917401F07508388E75
:10039000098E0A8009D2AF8E088E09750A268E0B47
:1003A000900390E070031201537C017D0085188258
:1003B000851983AA82AB8312053D8B0DEA450D603A
:1003C00012E06410602CE064EF70088E088E098ED5
:1003D0000A8E0B85080C85090D850A0E850B0F907A
:1003E00005AB7808120D6EE50C450D450E450F70F6
:1003F000AF0E900390E064017009D284900391E401
:10040000F08002C2AFEEA2E05033900390E06401AE
:10041000700C75F800C2AB539AF7D2EA800C75865F
:1004200000C2AAC28B539AFBC2E990000174CDF0BE
:10043000022000C2AF75C9AB75C95B80FE750800AC
:10044000750900750A00750B00794E12048C900333
:1004500090E07004D2AF8003E070031201531205E4
:10046000C8E960F41206D8E960EEE0701512015395
:100470009005A37808120D6E9005AF7808120CD67F
:1004800050EBC2AF75C9AB75C95B80FE781075B60D
:100490000FE5B4A2E750FAE5BBC39940F118E87044
:1004A000ED22C082C08353BEFBE59DA2E650FA0058
:1004B00078F879010012034470FA75C6807480657B
:1004C0009E70FA43BE049062707408F0794A120478
:1004D0008C90000174F5F07403F5D575D488A2A052
:1004E000E433900390F0A2E05029D28453F3F75301
:1004F000F3EF53FDF743FD10538FF753F7DF43FC42
:100500002043F10253F5DF75F82043F4F0D2FED218
:10051000AB802853FF3F85FFFF53F1FE43F30C539D
:10052000F2F375868075C480900499E4F0A3F075A9
:10053000C2D875C50B75C402438640802DC082C0E9
:1005400083900390E070051200A2801E900391E05A
:100550006015A28F500BE5F98A828B83F07A0180B7
:10056000027A007B0080031201BDD083D08222C0BA
:1005700082C083900390E070051200E080031202B5
:100580006680E7C0E074F2120B97900001E064CD42
:100590007005122013800BE064F57005120166806F
:1005A00001007F01020BF6C0E074F2120B9790007D
:1005B00001E064CD700512203B800BE064F570050E
:1005C00012018F80010080DA74F7120B3174FF1270
:1005D0000D437E008033900384E0F88518828519EE
:1005E00083E068700D900382E0644D700512083D51
:1005F000E9FE900385E4F0900387F0851882851961
:1006000083E0F8900384E068F07C017D0085188227
:10061000851983AA82AB8312053D8B09EA450970CF
:10062000030206CCE0C0E0900387E0F8900385E089
:10063000FAE82AF8E434001209D9D0E0F0900387F0
:10064000E0601114602014603E14604E1460641465
:10065000608480A7851882851983E064FE709C9071
:10066000038774018094900384E4F08518828519CF
:1006700083E0900386F0C394809003874004E402F3
:1006800005FA74020205FA851882851983E0900341
:1006900082F090038774030205FA85188285198316
:1006A000E0900383F0900386E06019900387740460
:1006B0000205FA900385E004F0F8900386E0686094
:1006C000030205FB90038774050205FAEEF9740135
:1006D000120D107F02020C9674ED120B3174FB1296
:1006E0000D437508047509007808120D9474021200
:1006F0000DD0AC82AD837A907B007904120A2F74FE
:1007000002120D10851882E0F47003A3E0F4600F6C
:10071000851882851983E0F8A3E0F9E8497003029F
:1007200008317402120DD0E0687003A3E069700311
:1007300002080B7508007510007511207512007500
:100740001300800A90059F7810120D59604C750AAD
:1007500001750B00780A120D947406120DD0AC824C
:10076000AD8385100A85110BAA0AE50B5407FB8A95
:100770000C85110D85120E85130F740B780C120D5C
:100780002AA90C120A2F7402120D10E0F9AA08AB64
:10079000091209F38A088B09800C751093751120D2
:1007A0007512007513009005A37810120D6E900558
:1007B000A77810120CD6508CE4F91209F3E4F91260
:1007C00009F37402120DD0EAF0A3EBF0750801757D
:1007D00009007808120D947402120DD0AC82AD831A
:1007E0007A247B08120AB47402120D10750804787A
:1007F00008120D947402120DD0AC82AD837A907BF6
:10080000007904120A2F7402120D101209E5120D5C
:10081000D0E0687003A3E06970178518828519839A
:10082000E0F47003A3E0F46008E849600479018013
:100830000279007405120D107F0C020C9674F312ED
:100840000B3174FC120D43900306E0FAA3E0F8E4C8
:10085000C8F9EA2400FEE93408FF750A018809880E
:10086000088E0C8F0D7409780C120DB4A90CEEF5DE
:100870000CEF5401F50D900383E014600914602C13
:10088000146069020985EA450D7003120B1A750C94
:1008900010750D00780C120D947C087D03EEFAEFB4
:1008A000FB120AB47402120D10020985E9C394798F
:1008B0004006750901020985750A40750B00780A22
:1008C000120D947C097D037402780C120D81AA0C20
:1008D000AB0D120A2F7402120D10900307E0A3F063
:1008E000900306E0A3F0750A43020985750C0475B0
:1008F0000D00780C120D947402120DD0AC82AD83F1
:100900007A907B007904120A2F7402120D1074027F
:10091000120DD0E0F8A3E0F9851882851983E0680C
:100920007003A3E06960471209E5120DD0E8F0A357
:10093000E9F0750C01780C120D947402120DD0AC14
:1009400082AD837A247B08120AB47402120D1075EA
:100950000C04780C120D947402120DD0AC82AD838D
:100960007A907B007904120A2F7402120D1012097A
:10097000E5120DD0E0687003A3E069700575080109
:100980008003750907900305E0D2E7F0E509A3F0BD
:10099000E50A900303F0744D650AF5097404250A0D
:1009A000FB7A038004E062090AEAF83395E0120951
:1009B000D9EAC39BA2D265D03340EAE509F07401BD
:1009C0002AFC3395E0FD7A027B0312056FA90874B7
:1009D00004120D107F06020C96F9740228F5827439
:1009E0000339F58322851882851983E0F8A3E0F99D
:1009F000740222C008C0097C088A088B09740F7829
:100A000008120DB4EAC333FAEB33FBE9A2E7500452
:100A100074014AFAE508A2E0500874216AFA7410D9
:100A20006BFBE9C333F91CEC70CFD009D0082274FA
:100A3000F5120B318908740F5508F50A750B00740F
:100A40000B780A120D81EA2400F8EB3480F9E824CF
:100A500000E9350BF9E5C7F509A2AFE433F50AC2A1
:100A6000AFE508C4540FFAE5C754F84AF5C7740B4C
:100A7000120DD0E0FAA3E0FB801C88828983E08C11
:100A8000828D83F088828983A3A882A9838C828D3A
:100A900083A3AC82AD83EAFEEBFFEE24FF1AEF34B2
:100AA000FFFBEE4F70D48509C7E50AA2E092AF7F45
:100AB00004020C9674F7120B31ED900388F0ECA34E
:100AC000F0A37462F0A37473F0A3E0541FF07409F0
:100AD000120DD0E0F508A3E0F509E508333354FC26
:100AE00090038DF074067808120DB4E50890038C1D
:100AF000F090038E7412F0A37442F075D1FE75D697
:100B000001EA906271F0EBA3F0906270E0D2E1F044
:100B1000E0A2E740FB7F02020C96C082C083E9C3DB
:100B200033906272F0906270E0D2E0F0D083D082B5
:100B3000222518C582C0E0E51934FFC583C0E0E571
:100B400018C3958224F910AF08858319858218800F
:100B500008858319858218D2AFCEF0A3E520F0A3D3
:100B60007808E608F0A3DEFAEFF0A3E58124FBF8AD
:100B7000E608F0A3E608F0A30808E608F0A3E608F4
:100B8000F0A315811581D0E0FED0E0F81581158124
:100B9000E8C0E0EEC0E022C0D02518C582C0E0E584
:100BA0001934FFC583C0E0E518C3958224F310AF64
:100BB000088583198582188008858319858218D253
:100BC000AFC8F0A3E9F0A3EAF0A3EBF0A37908E73C
:100BD00009F0A3D8FAECF0A3EDF0A3EEF0A3EFF048
:100BE000A3D0E0F0A3D0E0F0A3D0E0F0A3E520F0A4
:100BF000A3E5F0F0A322851983851882E0C0E0A365
:100C0000E0F9A3E0FAA3E0FBA37808E0F608A3DF8D
:100C1000FAE0FCA3E0FDA3E0FEA3E0FFA3E0C0E058
:100C2000A3E0C0E0A3E0F5D0A3E0F520A3E0A3F5A6
:100C3000F010AF088583198582188008858319858F
:100C40008218D2AFD082D083D0E0F8D0E032120D3B
:100C5000DFB90003020C90E4900302789E790380D0
:100C600002F0A3D8FCD9FA90059FAA82AB8390002A
:100C70008E781579018015E493A3AC82AD838A82C6
:100C80008B83F0A3AA82AB838C828D83D8E9D9E7CA
:100C9000120369120DDA851983851882E0A3FEE03C
:100CA000A3F5207808E0A3F608DFFAE0A3FFE0A3AD
:100CB000C0E0E0A3C0E0E0A3C0E0E0A3C0E010AF6C
:100CC000088582188583198008858218858319D242
:100CD000AFD083D08222C008C3E096F50808A3E015
:100CE00096420808A3E096420808A3E096450870DB
:100CF00001D3D008222518F58210AF08F51840025C
:100D000015198008F51840021519D2AF85198322EC
:100D1000C0D0251810AF08F518500205198008F545
:100D20001850020519D2AFD0D0226016080808C6A4
:100D3000C313C618C613C618C613C618C613C6D51D
:100D4000E0EA22251810AF08F518400215198008AE
:100D5000F51840021519D2AF22E066701008A3E022
:100D600066700A08A3E066700408A3E06622E02625
:100D7000F608A3E036F608A3E036F608A3E036F658
:100D800022700422600D18C6C333C608C633C6D508
:100D9000E0F4182274028000C0E0F404120CF5D0D4
:100DA000E0120DC32275D00075813F7518027519C8
:100DB00003020C4E600C08C6C313C618C613C6D572
:100DC000E0F422CAC0E0E6F0A308DAFAD0E0FA22A2
:100DD0002518F582E43519F5832200000080FB799F
:100DE0000122FFFFFFFFFFFFFFFFFFFFFFFFFFFFEE
:100DF000FFFFFFFFFFFFFFFFFFFFFFFFFFFFFFFF03
:100E0000FFFFFFFFFFFFFFFFFFFFFFFFFFFFFFFFF2
:100E1000FFFFFFFFFFFFFFFFFFFFFFFFFFFFFFFFE2
:100E2000FFFFFFFFFFFFFFFFFFFFFFFFFFFFFFFFD2
:10200000022ABF0221EEFFFFFFFFFFFFFFFFFFFFDE
:10201000FFFFFFFFFFFFFFFFFFFFFFFFFFFFFFFFD0
:10202000FFFFFFFFFFFFFFFFFFFFFF0227B2FFFFE2
:10203000FFFFFFFFFFFFFFFFFFFFFFFFFFFFFFFFB0
:10204000FFFFFF022655FFFFFFFFFFFFFFFFFFFF20
:10205000FFFFFF02212AFFFFFFFFFFFFFFFFFFFF40
:10206000FFFFFFFFFFFFFFFFFFFFFF02278AFFFFCA
:10207000FFFFFFFFFFFFFFFFFFFFFFFFFFFFFFFF70
:10208000FFFFFF02218A01FFFFFFFFFFFFFFFFFFAE
:102090001020102001FF01010503010F10FEFF7D3C
:1020A000357D357D357D3521341B347D353C4A0009
:1020B000000000D44900000000FF000000FF000104
:1020C00000002338000000006F374339BD37B938AE
:1020D0000000AB370000000000000000000000001E
:1020E00000000000FF0101003907000000E803B410
:1020F00007E80364006400B801020200080000055C
:1021000002070101051E02051E020A0A0103B80B9F
:1021100002803E0102FEFFE8030A050001FFFF0AFC
:1021200001E0965118000206FFFFC0E074F212248D
:1021300072A2AFE433FED2AFE5A7FFE5A1F5085FD9
:102140005410600612425B75A1EFE5085F54086009
:102150000812426175A1F78024E508A2E092F0EF31
:10216000A2E082F05017906198E0F8900C97E0C3DD
:1021700098A2D265D0335002E8F075A1FE751A001E
:10218000EEA2E092AF7F010224D1C0E074F21224EB
:1021900072A2AFE433FED2AF9061A4E0F8759B0069
:1021A000E59158540860087591F71242B58023E50F
:1021B0009158541060087591EF1242BB8014E5915C
:1021C000A2E092F0E8A2E082F05007E0C2E0F01254
:1021D000440B9061A3E0F8E5E9585404600E124303
:1021E000E175E9FB906193E0A2E640F2808FC0E0E8
:1021F00074F2122472A2AFE433FED2AF9061A5E074
:10220000F8E5BF585404600675BFFB124423022151
:102210007DC3E498F8E499F91222528026C3E49A27
:10222000FAE49BFBE920E7E9122252E498F8E499EA
:10223000F922C3E498F8E499F9122252E498F8E4F8
:1022400099F9C3E49AFAE49BFB22EB20E7CFE9205B
:10225000E7E0B90010BB0008E88AF084F8AAF02291
:10226000E4FBC8FA22EB70227B10C833C8C933C91B
:10227000335007C39AC3DBF280069A50012ADBEA87
:10228000C833F4C8C933F4C9FA2275F008E4C83376
:10229000C8C933C933C99AC99B5004C92AC93BD597
:1022A000F0ECFBC833F4C8E4C9FA22080808EAC015
:1022B000E0EBC0E086F0E7A4FA180986F0E7A42A6C
:1022C000FA180986F0E7A42AFA180986F0E7A42A82
:1022D000FA1986F0E7A4FBE5F02AFA190886F0E778
:1022E000A42BFBE5F03AFA190886F0E7A42BFBE5EE
:1022F000F03AFA18180986F0E7A4C5F02BFBE43A87
:10230000FA1908E7C5F0C6A426F6E5F03BFBE43A67
:10231000FA1886F0E7A4F6E5F00826F6E43B08F69E
:10232000E43A08F6D0E0FBD0E0FA22E4CFC0E0E4E3
:10233000CEC0E0E4CDC0E0E4CCC0E075F020C3E660
:1023400033F608E633F608E633F608E633F61818EF
:1023500018EC33FCED33FDEE33FEEF33FFC3EC97A7
:1023600009ED9709EE9709EF97191919400FFFEC3E
:1023700097FC09ED97FD09EE97FE191906D5F0BEF9
:10238000ECF709EDF709EEF709EFF7191919D0E0A5
:10239000FCD0E0FDD0E0FED0E0FF222518C582C0D1
:1023A000E0E51934FFC583C0E0E518C3958224F841
:1023B00010AF088583198582188008858319858266
:1023C00018D2AFCEF0A3E520F0A37808E608F0A37A
:1023D000DEFAEFF0A3E58124FAF8E608F0A3E608B8
:1023E000F0A3E608F0A30808E608F0A3E608F0A3C7
:1023F00015811581D0E0FED0E0F815811581158199
:10240000E8C0E0EEC0E022122B21B9000302245CF8
:10241000E49004D1780F79108002F0A3D8FCD9FAA7
:10242000781A9020867A01BA00028007E493A3F616
:1024300008DAF99013DFAA82AB8390209478977919
:10244000018015E493A3AC82AD838A828B83F0A3D1
:10245000AA82AB838C828D83D8E9D9E77582BD755A
:1024600083FC740512287675820D758348740012FA
:102470002876C0D02518C582C0E0E51934FFC58391
:10248000C0E0E518C3958224F310AF088583198551
:1024900082188008858319858218D2AFC8F0A3E915
:1024A000F0A3EAF0A3EBF0A37908E709F0A3D8FAC8
:1024B000ECF0A3EDF0A3EEF0A3EFF0A3D0E0F0A3D7
:1024C000D0E0F0A3D0E0F0A3E520F0A3E5F0F0A386
:1024D00022851983851882E0C0E0A3E0F9A3E0FA21
:1024E000A3E0FBA37808E0F608A3DFFAE0FCA3E092
:1024F000FDA3E0FEA3E0FFA3E0C0E0A3E0C0E0A3F3
:10250000E0F5D0A3E0F520A3E0A3F5F010AF088537
:1025100083198582188008858319858218D2AFD0E7
:1025200082D083D0E0F8D0E032E4730575F0108EED
:10253000218F22858226858325851882851983E04F
:10254000CEA3E0CF852682852583EBC9EAC8EDCBF3
:10255000ECCAC3E833C8E933C9EA33CAEB33CBC3A7
:10256000EA9EF524EB9FF523B35004AB23AA24EC99
:1025700033CCED33CDD5F0DAAE21AF2222D083D0EB
:1025800082ECC0E0EDC0E0E493A3FCE493A3FDED96
:102590004C600D122698EC24FFFCED34FFFD80EF1B
:1025A000E493A3FCE493A3FDED4C600D122735ECFE
:1025B00024FFFCED34FFFD80EFD0E0FDD0E0FCE433
:1025C00093A3C0E0E493C0E022851983851882E0DC
:1025D000A3FEE0A3F5207808E0A3F608DFFAE0A365
:1025E000FFE0A3C0E0E0A3C0E0E0A3C0E0E0A3C040
:1025F000E0E0A3C0E010AF08858218858319800849
:10260000858218858319D2AFD083D08202287CD0EE
:1026100083D082E9C0E0E493A3C386F0C5F095F0CF
:10262000F908E493A386F0C5F095F0700BE493A34A
:10263000C3994005E9048002A3E475F002A4258251
:10264000F582E5F03583F583D0E0F9E493A3C0E0AB
:10265000E493C0E022C0E074F2122472A2AFE4332B
:10266000FED2AFC2C09012D7E0700BE5D1A2E45009
:102670001D1241B98018E5D1A2E3500675D1F712B9
:10268000418FE5D1A2E4500675D1EF124195EEA23B
:10269000E092AF7F010224D1C0E0C3E493960874B6
:1026A00001939618400FE4936670080874019366CE
:1026B0001870007019A3A3C3E4939608740193964D
:1026C00018A3A3400DD0E0D0E0D0E00225B9A3A329
:1026D000A3A3A3A3D0E0227404800474028000CCDE
:1026E000C0E0EDC0E0E518C39CCCAD1950011D1051
:1026F000AF068C188D1980068C188D19D2AF122751
:10270000F8D0E0FDD0E0FC2274028000CCC0E0ED07
:10271000C0E0E518C39CCCAD1950011D10AF068C6C
:10272000188D1980068C188D19D2AF1227D6D0E0DB
:10273000FDD0E0FC22C0E0C0F088F0E493667008B1
:102740000874019366187000A8F0A3A3700BD0F072
:10275000D0E0D0E0D0E00225B9A3A3D0F0D0E022B1
:10276000D083D082CCC0E0E493A360061228381452
:1027700070FAE493A3600612292F1470FAD0E0FCDB
:10278000E493A3C0E0E493C0E022C0E074F212241A
:1027900072758900C2C59012D7E0700E7A007B1066
:1027A0009006B2E0F9123AC380031246997F010203
:1027B00024D1C0E0C0D0E8C0E0E9C0E0E5A8D2AFD5
:1027C000C2C7751A00A2E7A2E792AFD0E0F9D0E045
:1027D000F8D0D0D0E032CAC0E0E493A3C582CCC523
:1027E00082C583CDC583F0A3C582CCC582C583CD08
:1027F000C583DAE5D0E0CA22CAC0E0E0A3C582CC36
:10280000C582C583CDC583F0A3C582CCC582C583EF
:10281000CDC583DAE6D0E0CA22C008C3E096F50849
:1028200008A3E096420808A3E096420808A3E096B1
:1028300045087001D3D00822C0E0E493A3D39C5094
:1028400010E493A3C39C400AD0E0D0E0D0E002277C
:102850007DA3A3A3D0E022700908080822601618FF
:102860001818C6C333C608C633C608C633C608C65A
:1028700033C6D5E0EA22C09FF59FE473D09F22D0F3
:1028800083D082C09FE493C0E0740193C0E07402DF
:1028900093F59F222518F58210AF08F51840021510
:1028A000198008F51840021519D2AF8519832274D2
:1028B00004800A74038006740280027401C0E0F48C
:1028C00004122894D0E0122AFC22BB0102E722C0A5
:1028D00082C08389828A83BB0003E08002E493D0B4
:1028E00083D08222C0D0251810AF08F518500205F9
:1028F000198008F51850020519D2AFD0D022601601
:10290000080808C6C313C618C613C618C613C618C7
:10291000C613C6D5E0EA22C3E0C696F608A3E0C611
:1029200096F608A3E0C696F608A3E0C696F622C07F
:10293000E0E493A36C7009D0E0D0E0D0E002277D02
:10294000A3A3D0E022251810AF08F51840021519EE
:102950008008F51840021519D2AF22C3E09608A3EB
:10296000E09608A3E09608A3E096A2D265D03322B1
:10297000E066701008A3E066700A08A3E0667004C1
:1029800008A3E06622E76670100809E766700A0887
:1029900009E76670040809E76622C3E096F008A319
:1029A000E096F008A3E096F008A3E096F022C3E6D4
:1029B00097F60809E697F60809E697F60809E697F4
:1029C000F622C3E4939608740193960874029396D2
:1029D000087403939622E627F60809E637F60809F5
:1029E000E637F60809E637F622700422600D18C6AD
:1029F000C333C608C633C6D5E0F41822E647F60846
:102A000009E647F60809E647F60809E647F622E62A
:102A100057F60809E657F60809E657F60809E65793
:102A2000F622E056F608A3E056F608A3E056F608AC
:102A3000A3E056F622E056F008A3E056F008A3E023
:102A400056F008A3E056F022E026F608A3E036F69A
:102A500008A3E036F608A3E036F622E026F008A345
:102A6000E036F008A3E036F008A3E036F022E4C335
:102A700096F608E496F608E496F608E496F62260E0
:102A80000D08C6A2E713C618C613C6D5E0F322C6C2
:102A9000F4C608C6F4C608C6F4C608C6F4C622C3FF
:102AA000E7960809E7960809E7960809E79622C31A
:102AB000E09608A3E09608A3E09608A3E0962275A6
:102AC000D0007581407518D175190400022407E003
:102AD000F608A3E0F608A3E0F608A3E0F622600CEF
:102AE00008C6C313C618C613C6D5E0F422E6F0081C
:102AF000A3E6F008A3E6F008A3E6F022CAC0E0E6E9
:102B0000F0A308DAFAD0E0FA22E0FAA3E0FBA3E0AF
:102B1000FCA3E0FD22EAF0A3EBF0A3ECF0A3EDF0C0
:102B200022E5C754F84401F5C77901222518F5823A
:102B3000E43519F58322C2AF75D69F020000221238
:102B4000287F2AA60312287FEBA60312287F92A7CC
:102B50000312287FE8A70312287F26A80312287FE4
:102B600050A80312287FCEA80312287F27A903129A
:102B7000287F88A90312287FF7AB0312287FAEAD08
:102B80000312287F72AE0312287FBCAF0312287F86
:102B90009FB20312287F98B50312287FA7B50312AE
:102BA000287F38B60312287FF5B60312287F3DB779
:102BB0000312287F86B70312287FC3B70312287F2A
:102BC00027B80312287F93B80312287FAFB80312E7
:102BD000287FE3B80312287F2EB90312287F2BBA6F
:102BE0000312287FE2BA0312287F71BD0312287FE7
:102BF000B6BE0312287F63BF0312287FF3BF031200
:102C0000287F88C00312287FC6C00312287F3DC1D9
:102C10000312287F9CC20312287F49C30312287F16
:102C200061C30312287F13C40312287FD9C603127D
:102C3000287F6DC80312287F91C80312287F008067
:102C40000212287F12800212287F6A800212287FD7
:102C5000D0800212287F5A810212287F1D82021220
:102C6000287F65820212287F91820212287FD182FA
:102C70000212287F38830212287FAD830212287F38
:102C8000C6830212287FEC830212287F2A84021254
:102C9000287F7F840212287FA6840212287F038562
:102CA0000212287FCA850212287F63860212287FBB
:102CB000E6860212287FAE870212287FF78702126B
:102CC000287F13880212287F45880212287FF38903
:102CD0000212287FBF8A0212287FE48A0212287F0C
:102CE000118B0212287F3C8B0212287F4B8B021221
:102CF000287F568B0212287F018C0212287F688C55
:102D00000212287FEB8C0212287FF38C0212287F9C
:102D10007B8D0212287FE38D0212287F228E021201
:102D2000287F63900212287F4A910212287F7D91AA
:102D30000212287F3F920212287FFB920212287F04
:102D40002D930212287F93930212287FB8930212C8
:102D5000287FC9930212287F3C940212287FD494C2
:102D60000212287F2D950212287F0B960212287FCF
:102D700030960212287F3B970212287F5997021241
:102D8000287F6C970212287FC4970212287FD3975E
:102D90000212287F5B980212287F9C980212287FDB
:102DA000A9980212287FB2980212287FBD9A0212B7
:102DB000287F1B9C0212287F2B9C0212287F719D6A
:102DC0000212287FD89D0212287F149F0212287FAA
:102DD000569F0212287F929F0212287FBAA00212E9
:102DE000287F2EA30212287F42A30212287F4CA321
:102DF0000212287F56A30212287F60A30212287FA6
:102E00006AA30212287F83A30212287F8DA30212D5
:102E1000287F97A30212287FA1A30212287FABA3C9
:102E20000212287FD3A30212287F21A40212287F36
:102E30002BA40212287F36A40212287F5AA4021261
:102E4000287F7EA40212287FEEA40212287F3AA5D2
:102E50000212287F56A50212287FBCA50212287FE5
:102E600003A60212287F4FA60212287FBAA60212DA
:102E7000287F6AA70212287F3DA90212287FABA9EA
:102E80000212287FE8AA0212287F0EAB0212287FC6
:102E900081AC0212287F24B00212287F1EB20212D7
:102EA000287FFEB30212287F97B40212287FCBB688
:102EB0000212287F6EB70212287FC0B70212287F45
:102EC00044B80212287F5CB80212287F99BA021215
:102ED000287F83BB0212287FE2BC0212287F41BDFB
:102EE0000212287FDABD0212287FACBF0212287FAF
:102EF000EEC00212287F0DC10212287F62C10212A9
:102F0000287F63C20212287F8BC20212287FEEC282
:102F10000212287FE6C30212287F62C40212287FB1
:102F20008CC50212287FF7C50212287F35C702120E
:102F3000287F97C90212287FC8C90212287F73CC44
:102F40000212287FC5CC0212287F83CD0212287F6F
:102F50003FCE0212287FA3CE0212287F64CF021236
:102F6000287F06D00212287F6BD00212287FAAD0B9
:102F70000212287FDBD00212287F45D20212287F5E
:102F800002810112287F44810112287F47840112A7
:102F9000287F86840112287FD2840112287FDE8553
:102FA0000112287F42860112287F82860112287F23
:102FB000D0870112287F008B0112287F4D8C0112CF
:102FC000287FAB970112287F41980112287F3E9BF2
:102FD0000112287F7A9C0112287FDD9C0112287F34
:102FE0000B9E0112287F5F9F0112287F48A00112CB
:102FF000287FC8A20112287FC5A40112287F56A5E8
:103000000112287F32A60112287FCAA60112287F4A
:10301000D4A60112287F02A70112287FB7A70112A8
:10302000287F95A80112287F6CA90112287FF9A991
:103030000112287F0FAA0112287F70AA0112287F8F
:1030400099AA0112287FC6AA0112287FF7AC0112A3
:10305000287FD6AD0112287F1AAE0112287F85AED7
:103060000112287F44AF0112287F76AF0112287F1A
:10307000BDAF0112287FF0AF0112287F45B00112C9
:10308000287F9AB00112287F9FB00112287FF3B0E9
:103090000112287F3BB10112287F3FB20112287F25
:1030A000A4B20112287F00B30112287F71B301126C
:1030B000287F66B60112287F6DB70112287FF0B80D
:1030C0000112287FDFBB0112287F9FBC0112287FDD
:1030D000E8BE0112287F8BBF0112287FC9BF0112F1
:1030E000287F9AC10112287FADC10112287FB6C185
:1030F0000112287FBFC10112287FD4C10112287F8D
:10310000F3C10112287F23C40112287F78C4011261
:10311000287F82C40112287F8CC40112287FE8C452
:103120000112287F3DC50112287F65C60112287F44
:10313000CDC60112287F2FC80112287F80C8011236
:10314000287F2CC90112287F4ACA0112287FF5CA9C
:103150000112287F0FCC0112287F36CD0112287F63
:1031600038CE0112287F4FCE0112287F8CCE01125B
:10317000287F96CE0112287FA0CE0112287FABCEE9
:103180000112287FC9CE0112287F0BCF0112287FA0
:1031900068CF0112287F8DCF0112287FA7CF01129F
:1031A000287F26D00112287F63D00112287F95D175
:1031B0000112287FE8D10112287F02D30112287F53
:1031C00038D30112287FCCD30112287F47D40112B3
:1031D000287FBBD50112287FEED60112287FA0D709
:1031E0000112287F67D80112287F0CD90112287F8D
:1031F0007AD90112287F2FDA0112287F83DA01128F
:10320000287FF1DA0112287FBCDB0112287FDFDB87
:103210000112287FA9DC0112287FCDDC0112287F52
:10322000EFDC0112287F50DD0112287F90DF0112B0
:10323000287F7AE00112287F25E10112287F4AE3E6
:103240000112287F98E30112287FDBE30112287F17
:1032500033E40112287F91E40112287FBEE40112B9
:10326000287FE2E40112287F15E50112287F3FE55F
:103270000112287F86E50112287FE5E50112287FEB
:1032800041E60112287F3EE70112287FA6E80112DD
:10329000287FE4E80112287F0DE90112287FA7E9C1
:1032A0000112287FF1E90112287F15EA0112287F17
:1032B0006AEA0112287F85EA0112287F3CEB01129D
:1032C000287F75EB0112287FCDEB0112287F23ECBC
:1032D0000112287F24EF0112287F57EF0112287F67
:1032E00015F00112287F12F10112287F9BF10112C3
:1032F000287F00800512287F38800512287F59809A
:103300000512287F9B800512287FFD800512287FEB
:1033100007810512287F17810512287F4E8105122B
:10332000287F10850512287FD1860512287FF38813
:103330000512287FB2890512287F7F8A0512287F0F
:1033400056800412287F99800412287F5981041224
:10335000287F78820412287F9F830412287F5A8551
:103360000412287FCD850412287F98860412287FB6
:10337000A9870412287F10880412287F4C88041221
:10338000287FAB880412287FE4880412287F3989BB
:103390000412287FC2890412287F678A0412287FBA
:1033A000388B0412287F128C0412287F9C8C041204
:1033B000287FC28C0412287FEF8C0412287F298D6D
:1033C0000412287F298E0412287F398E0412287F48
:1033D000898E0412287F968E0412287FAB8E0412E9
:1033E000287FB48E0412287F0E8F0412287F708FDE
:1033F0000412287FBA8F0412287FD58F0412287FE9
:10340000FC8F0412287F19900412287F2590041243
:10341000287FCE910412287FE7910412287F6D92B5
:103420000412287F80920412287F92920412287F2F
:103430003E930412287FA9940412287F60960412F8
:10344000287FE6960412287FE8960412287F50977A
:103450000412287F6E970412287F04980412287F94
:1034600041980412287F44980412287F6F98041210
:10347000287FCC980412287FF0980412287F0E9998
:103480000412287F5C990412287FB59A0412287FC1
:103490000D9B0412287F5A9B0412287FE19B041283
:1034A000287F099C0412287F3F9C0412287F4E9C91
:1034B0000412287FAC9C0412287F1D9D0412287FD3
:1034C0005A9D0412287F959D0412287FC09D0412E6
:1034D000287FDA9D0412287FF49D0412287FC89E5D
:1034E0000412287FD29E0412287F0E9F0412287F88
:1034F0001E9F0412287F279F0412287F879F041293
:10350000287F9B9F0412287FA5A00412287FB8A0C3
:103510000412287FCFA00412287FE4A00412287F81
:1035200089A10412287F05A20412287FA8A20412F0
:10353000287FB4A20412287FFAA30412287F16A4BD
:103540000412287F6EA40412287FAAA40412287FE4
:10355000C4A40412287F26A50412287FC5A504123E
:10356000287F10A60412287F5CA80412287F03A9D4
:103570000412287F9FA90412287FC5AB0412287F5C
:10358000DDAB0412287FE0AB0412287FECAB041201
:10359000287F00AC0412287F08AC0412287F48ACB6
:1035A0000412287F41AD0412287FC4AD0412287F85
:1035B00046AE0412287FC0AE0412287F92AF0412D8
:1035C000287FB4AF0412287F50B00412287F5CB06B
:1035D0000412287F87B00412287F8AB00412287F43
:1035E000B7B00412287FCCB00412287F3BB104127C
:1035F000287F9EB20412287FB5B30412287F40B4FE
:103600000412287F7DB50412287F4FB60412287F4C
:1036100080B60412287FACB60412287FB5B6041217
:10362000287FE4B60412287F94B70412287F4EB88E
:103630000412287FC2B80412287F5EB90412287FC2
:10364000E6B90412287F1CBA0412287F61BA04125A
:10365000287F96BA0412287F69F00212287FB8F0FA
:103660000212287FF0F00212287F5CF10212287FFC
:10367000ACF10212287F30F20212287F78F4021295
:10368000287F69F60212287F18FA0212287FBCFAF6
:103690000212287FF7FA0212287F15FB0212287FF8
:1036A00075FB0212287F9DFB0212287FCDFB0212C0
:1036B000287FFEFB0212287F35FC0212287F86FC41
:1036C0000212287FD2FC0212287F2D8B0512287F40
:1036D000A98B0512287FCF8B0512287F078C051236
:1036E000287F618D0512287F7D8D0512287FC28D70
:1036F0000512287F518E0512287FAA8E0512287F79
:103700008A8F0512287F5A900512287FA1900512F2
:10371000287F02910512287F92910512287FE89157
:103720000512287F31920512287FD0920512287F3A
:10373000CE930512287F12940512287F60940512FB
:10374000287F82940512287F29950512287FD69517
:103750000512287F09DF0512287F6EDF0512287FFA
:103760001AE00512287F53E00512287FDCF10112D0
:10377000287F85F20112287F9FF30112287F22F40F
:103780000112287F5AF40112287F27F70112287F9F
:10379000DAF80112287F95F90112287F06FA011242
:1037A000287F26FD0112287FBCFE0112287F7A8423
:1037B0000612287FA2840612287F96850612287F8B
:1037C000D8C10512287F5DC20512287F74C2051278
:1037D000287FE9C20512287F47C30512287F70C3DE
:1037E0000512287FEDC30512287F90C40512287F9B
:1037F000F5C40512287F59C50512287F7AC5051220
:10380000287FABC50512287FC9C50512287FF0C5E2
:103810000512287F20C60512287F66C60512287F5C
:10382000CCC60512287F9DF30412287F4CF40412A5
:10383000287F6CF40412287F8CF40412287FA0F4F3
:103840000412287F00F50412287F30F50412287F27
:10385000ADF60412287F56F70412287F38F80412B8
:10386000287F87F80412287FCBF80412287F30F9CC
:103870000412287F9CF90412287FBDF90412287FC6
:1038800040FA0412287FF5FB0412287F65FC04121D
:10389000287F0BFE0412287FDCFE0412287F22FF03
:1038A0000412287F7CFF0412287F27F60512287F48
:1038B00031F60512287F52F60512287F0FE7041211
:1038C000287F24E90412287F5AEA0412287F41EC59
:1038D0000412287F99EC0412287F68ED0412287FD7
:1038E000A8ED0412287FF2ED0412287FB1EE041235
:1038F000287F64A10312287F26EF0412287F28EF77
:103900000412287F2AEF0412287F47EF0412287F31
:1039100067EF0412287F91EF0412287FADEF0412A5
:10392000287F31F00412287F83F00412287FFEF0F4
:103930000412287F1AF20412287FFCF20412287F56
:10394000C1C80312287FE7C80312287F5CCC03128A
:10395000287FB8CC0312287F83A40312287F31CD9F
:103960000312287F52CD0312287F9CCD0312287F9B
:10397000D4CD0312287FF3CE0312287F14CF031275
:10398000287F43CF0312287F86CF0312287F19D0C8
:103990000312287F35D00312287F6FD00312287FAF
:1039A000C7D10312287F49D20312287F3FD30312C5
:1039B000287F1AD40312287F4CD40312287F9FD467
:1039C0000312287F03D50312287F69D50312287FAD
:1039D000CED50312287F3FD60312287F4FD703127C
:1039E000287F5AD80312287F2BD90312287F60D949
:1039F0000312287FB7D90312287F73DA0312287FB6
:103A0000A1DA0312287F2CDC0312287FA4DC031226
:103A1000287FD7DC0312287F13DD0312287F2CDDDB
:103A20000312287FE6DD0312287FC5DE0312287FFC
:103A300079DF0312287F0EE00312287F9DE0031236
:103A4000287F20E10312287FC3E10312287F8EE242
:103A50000312287F5EE30312287F12E40312287FFB
:103A600064AF0512287FB0AF0512287F1EB0051283
:103A7000287F3FB00512287F56B00512287F06B177
:103A80000512287F0FB10512287F62B10512287F29
:103A90008BB10512287FA0B10512287F09B205124B
:103AA000287F9AB20512287FD6B20512287F22B34A
:103AB0000512287F89B30512287FC2B30512287F1B
:103AC00048B40512287F87B40512287FC8B40512B0
:103AD000287FFFB40512287F11B50512287F23B572
:103AE0000512287F56B50512287F96B50512287F46
:103AF000BFB50512287FA7CC0512287FEACD051295
:103B0000287F10CE0512287F21CE0512287F3AD0BB
:103B10000512287F59D00512287F74F80512287FD6
:103B2000AAF80512287FF5F80512287F43FA051236
:103B3000287F48D20412287F93D30412287FCFD342
:103B40000412287F86D50412287FAFD50412287F5F
:103B500047D80412287F87D80412287F28DA041255
:103B6000287FC2DA0412287F2ADB0412287FB7DB01
:103B70000412287FEFDB0412287F2FDC0412287F39
:103B8000C2DD0412287F61DF0412287FB0E1041235
:103B9000287FDEE10412287F0AE20412287F13E264
:103BA0000412287F6EE20412287F04E30412287FA7
:103BB0002DE60412287FB2E60412287F888D0612B3
:103BC000287F9E8D0612287FA88D0612287FF88DEB
:103BD0000612287F62D60512287F7BD60512287F21
:103BE00020D70512287F60D70512287F79D70512C4
:103BF000287FB2D70512287FFFD70512287F31D83A
:103C00000512287F73D80512287F76DA0512287FDF
:103C1000E0DA0512287FC7850612287F1C86061267
:103C2000287F75860612287F398C0612287F8C8C97
:103C30000612287FCE8C0612287FDE8C0612287F83
:103C4000B8D20212287F10D30212287FC2D30212E8
:103C5000287FD8D40212287FC4D50212287F9CD690
:103C60000212287FB1D60212287FFBD60212287FCB
:103C700051D70212287FBDD70212287FD0D7021257
:103C8000287F28D80212287FA1D80212287F3FDB84
:103C90000212287F54DC0212287FAFDC0212287F38
:103CA000F5DC0212287F11DF0212287F9BDF02124F
:103CB000287F82E00212287FC2E00212287FE1E022
:103CC0000212287F2CE10212287F42E10212287F93
:103CD0004FE10212287F88E10212287F9AE1021246
:103CE000287F7FE20212287F8AE20212287FE1E227
:103CF0000212287F39E30212287F96E30212287FFE
:103D0000C6E40212287FEEE40212287F6BE702125B
:103D1000287F93E70212287F27E80212287FA3E872
:103D20000212287F74E90212287FB0E90212287F6C
:103D30001CEA0212287FFBEA0212287F34EB0212EF
:103D4000287F3EEB0212287F41EB0212287F4BEBCB
:103D50000212287F67EB0212287FE5EB0212287F10
:103D60001EEC0212287F3AEC0212287F66EC021247
:103D7000287FA1EC0212287FBCEC0212287FC7EC3E
:103D80000212287F08ED0212287F1BED0212287F05
:103D900036ED0212287F66ED0212287F83ED0212B3
:103DA000287FCCED0212287F14EE0212287F17EF35
:103DB0000212287F01890612287F12890612287FA5
:103DC0009B890612287FDEA70512287F2DA80512E1
:103DD000287FEAA90512287FC8AB0512287F0CAC02
:103DE0000512287F01AD0512287F32AE0512287F0B
:103DF00054AE0512287FB0AE0512287F34AF0512ED
:103E0000287FC04D0012287FE24D0012287F324FDC
:103E10000012287F7B4F0012287FD04F0012287F8E
:103E20004C500012287FB5500012287FFC50001221
:103E3000287F75510012287F20520012287FA85237
:103E40000012287FE9520012287F49570012287F6C
:103E50006D590012287FA6590012287FE5590012DB
:103E6000287F0C5B0012287F185E0012287FC55E39
:103E70000012287F82600012287FCC610012287F08
:103E8000D0620012287F43630012287F1264001260
:103E9000287F9B640012287FAB640012287F5F6537
:103EA0000012287F8D660012287FF3680012287F99
:103EB000A66B0012287F846C0012287FB26D00125E
:103EC000287F37710012287F47710012287F7E7289
:103ED0000012287F1D730012287F28740012287F8B
:103EE000B9740012287FE8750012287F66760012E8
:103EF000287FB4E40312287F71E50312287FEEE5E2
:103F00000312287FFDE50312287F86E60312287F2F
:103F1000DDE60312287FE8E70312287F11E8031289
:103F2000287FB9E80312287F0CE90312287F77E97C
:103F30000312287FD6E90312287FDBEC0312287FC7
:103F40008BED0312287FFAED0312287F94EF031202
:103F5000287F4CF00312287FE9F00312287F4AF1F2
:103F60000312287FC4F10312287FCBF20312287FAB
:103F7000B5F30312287FFBF30312287F34F40312F6
:103F8000287F48F40312287F91F40312287F15F547
:103F90000312287F8BF60312287F5FF80312287F15
:103FA00096F90312287FD5FA0312287FEAFB031241
:103FB000287F97FC0312287F08FD0312287F02FE4A
:103FC0000312287FFEBA0412287F6FBB0412287FD9
:103FD000BDBB0412287F16BC0412287F6EBC0412DD
:103FE000287FAFBC0412287F66BD0412287FBBBDAA
:103FF0000412287F44BF0412287FB8BF0412287F10
:10400000F3C00412287F1FC10412287F09C20412C2
:10401000287F1AC20412287F30C20412287FB7C238
:104020000412287FDAC20412287F9EC30412287F5C
:10403000C6C30412287FDDC30412287FF7C304120D
:10404000287F23C40412287F43C40412287F69C434
:104050000412287F80C40412287F59C50412287FC7
:10406000BBC50412287FA1C60412287F24C70412EE
:10407000287F71C70412287F97C70412287FF7C8CA
:104080000412287FFCC80412287F39C90412287F33
:10409000DCC90412287F46CA0412287F41CB0412CF
:1040A000287F2ACC0412287F5DCD0412287F6DCE94
:1040B0000412287F15CF0412287F68CF0412287FAE
:1040C0007DCF0412287F85D00412287F2ED10412C0
:1040D000287F93D10412287FE1ED0512287F1CEE82
:1040E0000512287FE5EE0512287F4BEF0512287F89
:1040F000BCEF0512287F50F00512287F2FFD051216
:10410000287FF4890612287F058A0612287FA58A4F
:104110000612287FF5FF0212287FE47F0012287F15
:10412000BF8A0612287FCF8A0612287FE48A0612E9
:10413000287F758B0612287FFD870612287F8288CC
:104140000612287FE8880612287FFCFF0112287FCC
:10415000B9FF0412287FC9FF0412287FCCFF041284
:10416000287FCFFF0412287FF87F0012287FA6FA4D
:104170000512287FC8FA0512287F36FC0512287F11
:10418000BAFC0512287F90FF0412287F99FF0412C1
:10419000287FA2FF0412287FB0FF0412287F1EBCD4
:1041A0000512287F8ABC0512287F51BD0512287F81
:1041B0005DBE0512287F48C00512287FA3C00512E6
:1041C000287FF8C00512287F09C10512287F1BC16E
:1041D0000512287F85C10512287F99C10512287F05
:1041E000A4C10512287FB2C10512287FC4C10512DF
:1041F000287FEDB50512287F15B60512287F32B944
:104200000512287F87B90512287FC9B90512287FB2
:10421000DDB90512287FF6B90512287F0EBB0512FD
:10422000287FEABB0512287F04BC0512287F05837E
:104230000612287F29830612287F42830612287FD0
:1042400081830612287FB4830612287FE483061236
:10425000287FEE830612287F56840612287F598411
:104260000612287F63840612287F70840612287F36
:1042700014FD0212287F3CFD0212287F7DFD0212F0
:10428000287F9BFD0212287FB6FD0212287F1EFEAA
:104290000212287F2AFE0212287F89FE0212287F3E
:1042A000B5FE0212287FC4FE0212287FE8FE021229
:1042B000287FA9FF0212287FB6FF0212287FC7FFBE
:1042C0000212287FA67F0012287FBE7F0012287F5F
:1042D000C4C70512287F31C90512287F37C90512C6
:1042E000287F4EC90512287F6FC90512287F85C90E
:1042F0000512287F99C90512287F18CA0512287F40
:104300007DCA0512287F05CB0512287F7ECB0512BA
:10431000287F57CC0512287F67CC0512287F76CCE2
:104320000512287FEF8C0612287F138D0612287F36
:104330003B8D0612287F638D0612287FB8F3051285
:10434000287FDFF30512287F00F40512287F67F429
:104350000512287FE6F00512287FFFF00512287F5E
:1043600016F10512287F1FF10512287F3DF1051275
:10437000287F47F10512287F51F10512287F64F14B
:104380000512287FF2F10512287F61F20512287FBD
:104390008FF20512287FE0F20512287F31F3051213
:1043A000287F4CF30512287F56F30512287F67F308
:1043B0000512287FADF30512287F77FF0312287FAF
:1043C000C8FF0312287F23960512287F4F960512F7
:1043D000287F6D960512287F80960512287F9B9670
:1043E0000512287FFA960512287F28970512287F44
:1043F000469B0512287F7C9C0512287FAE9C0512E7
:10440000287F169D0512287F939E0512287FBB9E4C
:104410000512287FD09E0512287FE09E0512287F76
:10442000209F0512287F6C9F0512287F7C9F051214
:10443000287FBBFE0512287FCBFE0512287FE9FEF0
:104440000512287F04FF0512287F2BFF0512287F05
:104450004CFF0512287F66FF0512287F9EFF05127C
:10446000287FC1FF0512287F858B0612287FCB8B02
:104470000612287F0FE30512287F16E30512287F16
:104480006CE40512287F9CE40512287FCCE4051219
:10449000287FFFE40512287F11E50512287F4DE5EE
:1044A0000512287FB3E50512287FEFE50512287F66
:1044B00036E60512287F63E60512287F8FE605128F
:1044C000287F00800612287F37800612287F5F81B0
:1044D0000612287F62810612287F65810612287FD6
:1044E000EA860612287F5C870612287F9A870612C2
:1044F000287FDB870612287FAA9F0512287FB09F9E
:104500000512287FFD9F0512287F21A20512287F12
:1045100059A20512287FC5A20512287F92A3051271
:10452000287FD7A30512287F0AA40512287F94A408
:104530000512287FACA40512287F4FA60512287FFC
:1045400047A70512287FA5A70512287F0377001229
:10455000287F19770012287FCB770012287FC67832
:104560000012287FBE790012287F567A0012287F19
:10457000957A0012287F0D7B0012287F6F7B001236
:10458000287F7F7B0012287FA67B0012287FF87B84
:104590000012287F8B7D0012287F907D0012287FDB
:1045A000B27D0012287FEDDA0512287F0BDB0512A1
:1045B000287F4FDB0512287F75DB0512287F9CDBE7
:1045C0000512287FB4DB0512287FCCDB0512287F7B
:1045D000E4DB0512287F8ADC0512287FC8DC05127F
:1045E000287FD2DC0512287FEBDC0512287FF9DD5D
:1045F0000512287F14DE0512287F1DDE0512287F94
:1046000026DE0512287F2FDE0512287F39DE0512EF
:10461000287F9DDE0512287FB0D10512287FD7D5CF
:104620000512287FF3D50512287FF8D50512287FBB
:10463000E4E60512287FFAE60512287F99E80512BC
:10464000287FE4E80512287F4FE90512287F54EA05
:104650000512287F83EA0512287F95EA0512287F34
:104660008F810612287FB4EA0512287F10EB05120D
:10467000287F50EB0512287F58EC0512287F70EC3C
:104680000512287F85EC0512287FB1EC0512287FE2
:10469000E8EC0512287FF8EC0512287F0EED0512D4
:1046A000287F33ED0512287FBEED0512287FD4FF49
:1046B0000312287F3C9F0312287F119F0312287F3B
:1046C000B69E0312287F219D0312287FA89C031207
:1046D000287F8F9C0312287F4A9C0312287F3C9CD2
:1046E0000312287FE29B0312287F919B0312287FED
:1046F000F79A0312287FA6990312287F289903129C
:10470000287F5E980312287F46970312287FEA9637
:104710000312287FC4960312287F00960312287F75
:1047200043940312287FDF930312287FB093031270
:10473000287FAD930312287F9E930312287F5F93F7
:104740000312287F53A40312287F27A40312287F73
:1047500003A40312287FEFA30312287FDBA3031215
:10476000287F39930312287F38920312287FF7910C
:104770000312287FC4910312287FC7A30312287F46
:1047800058910312287F23910312287FC4900312AB
:10479000287F93900312287FC7A20312287F0CCD95
:1047A0000312287F478D0312287F7C8C0312287FF9
:1047B000318C0312287F258C0312287F848B0312EF
:1047C000287F488A0312287F83870312287F0F855A
:1047D0000312287FCD840312287F97830312287F3A
:1047E0002D830312287F5B820312287F1782031216
:1047F000287F6C800312287F00800312287F32807C
:104800000312287F33A20312287F24EF0400000044
:1048100080FB8F0001004F08870001004E08240034
:1048200002003C14250002003E1426000200401441
:10483000270002004214280001004414290001004E
:104840004514840004004614860001004A142A001E
:1048500001004B142B0001004C142C0001005014DB
:104860002D00080036082E00010051142F00010011
:10487000521430000100531431000100541432006E
:1048800001003E08330001003F08340001005514C8
:1048900036000100400838000100561439000100BC
:1048A0004F14830002006814630001004B08640089
:1048B00001004D14650001004E146D0001004C080C
:1048C000710008002E086600010067144300010013
:1048D0005814440002005914450001005B144600BE
:1048E00002005C14470008004308480001005E1401
:1048F0004B0001005F14040001006A14A1000100D4
:104900006C14370001006B148800010050083C0053
:10491000010041083D0001005714490002006014E5
:10492000670001004D084D00020062144E000100B6
:1049300064144F00020065143E00010042080000AC
:1049400000000000000136360101000102010001F3
:1049500003010001040106060502000007010034FE
:104960000801000F090401010D0100FF0E080000FD
:1049700017020000190100FF1A0100011B0100FECF
:104980001C0100081D0200001F01000120010001A0
:10499000210200002301000F240200002601000173
:1049A00027010008280200FF2A0100072B0102400E
:1049B0002C0100002D0100012E0100012F0100FF3C
:1049C00030010B1C310800003A0100083B01000FC8
:1049D0003C01000101037103010301030103010311
:1049E0000103220302030103100300030003000379
:1049F0000003000300030003420300032403060333
:104A000000030003040312032503230325032303E8
:104A10000403040300030003000344030003000332
:104A2000230300036503210035038103000305030D
:104A300000030003000300032503230303007100A8
:104A4000300160001100700031022003500480002A
:104A50001000610000001400630073007200620027
:104A600043000000130006000000000004001200D4
:104A700000000000000000000400040037003700C0
:104A80003C0244000000000000000000650000003F
:104A900035008100000005000000830000000304D1
:104AA000710402046004110470040204020401048D
:104AB0000204100461040004140463047304720407
:104AC0006204430400041304060400040004040404
:104AD00012040004000400040004510464000004F3
:104AE00000040004440400040004000400046504FD
:104AF00000043504810464000504000483040004F8
:104B000001017101010101011101010131010101E5
:104B100001018001100161013B0014006301730178
:104B20007201620143010001130106013D013500DC
:104B3000040112010001000100010001040104014F
:104B4000330133013C014401320136000001000110
:104B50006501000135008101000105018201830129
:104B600000010302710230016002110270020102B1
:104B7000020202028002100261023A004100630256
:104B80007302720262024302000213023800000242
:104B900000020402120200020002000200020402EB
:104BA0000402370037003C024402000239000002D0
:104BB0000002650200023502810200020502820243
:104BC000830200020000313F1300A13E0100313F8B
:104BD0000200233E0300293E04002F3E0500353E1F
:104BE0000600413E3000653E31005F3E3200713EBE
:104BF0003300773E35007D3E3400833E3600893EEB
:104C00001100953E14009B3E1500533E1F00593E77
:104C1000FFFF000036000100060000000F0000004A
:104C20000000000000000000000003FFFF0000047F
:104C300003FFFF0000FFFF0FF4010005C404032081
:104C4000000100000B000000000000000003010F45
:104C50000001C52F06FB2F08F52F0B133010352F41
:104C60000A253002CB2F05E92F07D12F0CAD2F0DD0
:104C7000B92F643D2DFF000007ECFDFDFDECDCDCF1
:104C8000CCBCACAC9C9C8C7C7C6C6C5C5C5C4C4C04
:104C90003C3C2C2C1C1C03EAF5E5D5D5C5B5A595E7
:104CA00095858575756565555545453535252515B4
:104CB00015058134B13487348D34AB349F34993445
:104CC000B734BD34C334CF3493347B3475340016D9
:104CD0000F00000B150B020002220F3300000E0123
:104CE000030507090B0D0F00020406080A0C0D5AF4
:104CF0006967426565416C6C69616E636530397DD9
:104D0000358F35953545349B353F344B34E9350780
:104D1000360D36EF35FB35F5357F337933B533BB9B
:104D200033AF336733003C40423A3F3F392F47307F
:104D30000001191618161618230300303017181919
:104D400021301B1D1F30303016181920231A1C1E4D
:104D50003000034D4C4651181A2505020C0E020B6B
:104D6000040B0A0708000FA534C9340136D534DB1B
:104D700034D135A135A735B335AD35020402010173
:104D8000010109028B3391338533C13300BE040A1C
:104D9000E80300009733A9330E003C007F000000B9
:104DA0000000E8033C00100C0A03030C0900040097
:104DB00028FF1E1E09050C0815040401100808032D
:104DC000C082C0839007ACE4F0A3F07CD57D047A68
:104DD000217B071244EF122D431247F5122D490291
:104DE0006C2774F312239B74F512294589098A08EC
:104DF0008B0AE9705F74026508703E90073C740886
:104E0000F0750C00780C1228BBECF50C780C12280D
:104E1000BBEBF50C780C1228BB9014461226D790E9
:104E2000144AE0F97C437D08901468126C38122D06
:104E30006D74071228E4024EF274016508600302E3
:104E40004EF590073C7408F07B00AA0AA90A122DBF
:104E5000AF024EF2740165096009740265096003CE
:104E6000024EF5EA600674036508704090073C74D2
:104E700002124F16122B09122D5B900744E0A2E399
:104E80004010E9700D9007B0E004F0640470031264
:104E90004F2074036508705A9007B1E0F874012838
:104EA000F0E8C39405404B124F208046740165081A
:104EB00070437401650990073C702C740AF074010A
:104EC000122B2CE4F07402122B2C7403F004122B1E
:104ED0002CE4F0A3F0A3F0A3F07408122B2CE4123E
:104EE0005EA6122FD78025740A124F16122B0912B4
:104EF0002D91E960179080771226D77A017B009078
:104F00000739E0F9123BE974041228E4740B122803
:104F1000E47F050225C9F090144AE0F99014462276
:104F2000901446E4F0A374F8F0A374FFF0A37407A0
:104F3000F02274F612239BE9FFEAFE7AD1F9123AC5
:104F40009F8A828B83E5824583702A7A027B0012D6
:104F50003A81EA4B700E7A107B00900739E0F91223
:104F60003AC380148A828B8374D1F0EFA3F0EEF9F8
:104F7000123A8D8003EFA3F002517074F712239B55
:104F8000890890069B12753E80288E828F83A3A38A
:104F90001261BE60168E828F83A3A3A3E0F583887F
:104FA00082A31261BEFAA908123E0B8E828F831271
:104FB0007620FFEE4F70D39006B2E0FAA908123EB9
:104FC0000B1230E590070B1256F81230DF027423F3
:104FD00074F112239B890A8C08750900750B007403
:104FE0000F122B2C125E9C7411122B2C1257218045
:104FF0004AE50E12509DF50CA3E0F50DE50BC33309
:10500000FEE433FFEA2EF582EB3FF583E0650C709A
:1050100004A3E0650D7019E509C333FEE433FFEC2A
:105020002EF582ED3FF583E50CF0A3E50DF00509C3
:10503000050EE50EC3950840B8050BE50BC3950AB0
:105040005005750E0080EBA909026B5574F412230C
:105050009B890B7D00740C122B2C125E9C80010D21
:10506000EDC3950B5032750A008002050AE50AC3AC
:105070009C50ECEDC333FEE433FFEA2EF582EB3FA8
:105080001250ADF509E50A12509D65087004A3E0C1
:10509000650970D77901800279000268DFC333FEA9
:1050A000E433FFE82EF582E93FF583E022F583E063
:1050B000F508A3E02274F612239B1251577003A344
:1050C000E06D701775084275090778081228B7EE69
:1050D000FA123F3774021228E4801F75080275091E
:1050E0008078081228B78C088D0978081228B71222
:1050F0005143123F5B74041228E4807474F6122347
:105100009B1251577003A3E06D701775084F750916
:105110000778081228B7EEFA123F3D74021228E40D
:10512000801F75080375098078081228B78C088DD0
:105130000978081228B7125143123F5B74041228F1
:10514000E4802D125151EF125EBBFD7C8012654C44
:1051500022EE240EF58222126480FAA3E0F9EA24FA
:1051600000FCE439FD90070BE06C2274021228E485
:105170007F020225C974F612239B74FE122945EAA8
:10518000FEEBFF851882851983E4F0A3125965129E
:105190006492E0FCA3E0FBECFA88828983A3A3E09D
:1051A000F9750900750800600574FF6970057508D8
:1051B00082804390070BE06A7003A3E06B70208548
:1051C0001882851983AA82AB83123697E9F509857F
:1051D00018828519831268EA701C750883801790FD
:1051E000084EE06004640170057508818008E06481
:1051F000027003750880851882851983125721A9CA
:1052000008EEFAEFFB123F43E5096011851882852D
:1052100019831268EA6006126C32123B2902516B44
:1052200074F212239BEAFEEBFF750A00750B001265
:1052300052941230E5EA65087003EB6509701212AA
:1052400036A9E914F50A79017A787B071236AF801E
:1052500003750B801273E5F50C780C1228BB750CE6
:1052600078750D07780C1228B7780A1228BB7808D1
:105270001228B7E50BF50878081228BB126337F53A
:1052800082EF1270627A057B80123F497407122800
:10529000E402607D12756A125EA0888289831276AC
:1052A0004FF508E439F5092274F612239BE9FE7FD5
:1052B00000802E8A828B831250AFF9E5082400E427
:1052C00039F509EF33F8E433F9EC28F582ED39F5D7
:1052D00083E508F0A3E509F0EA2402FAEB3400FBC9
:1052E0000FEFC39E40CD02517074E812239B74FBF4
:1052F0001229458A168B17851882851983E4F07464
:1053000003122B2CE4F0A3F004122B2CE4F0127205
:1053100075F50AA3E0F50B850A82F58312764BFE3C
:10532000E439FF850A82850B83A3A3E0FA850A820C
:10533000850B83A3A3A3E0F9EAF508E439F509E5B1
:105340000A2404F50AE50B3400F50BEEFAEFFB1224
:105350003181E964016016EEFAEFFB123181E970E8
:105360003D90070BE06E7003A3E06F6031125AFCB2
:105370001228BBE4F508F50978081228B778081256
:1053800028BB90070B1226DB75088078081228BB13
:105390001256FE123F4974071228E40256EE1257C5
:1053A000278810602EC333FAE433FB123B237403C7
:1053B000122B2C1256F87403122B2C1268EA60136D
:1053C0007403122B2C125719A910123E3B8A0A8B18
:1053D0000B8003751000125727880F602AC333FA19
:1053E000E433FB123B237401122B2C1256F8740188
:1053F000122B2C1268EA600F7401122B2C12571911
:10540000A90F123E3B8003750F0090069B805D85BF
:105410000A82850B83A3A3A3A3A3A3A3A3E4F0A35E
:10542000F0AA0AAB0B851482851583A3A312573704
:105430001261BEF9123A8D851282851383E0C0E0B5
:10544000851882851983E0F8747828F5827407122C
:105450007562D0E01268EE04F0E511A2E05007AAF0
:1054600012AB13123B29851482851583E0F514A332
:10547000E0F515E5144515700302565B8514828529
:105480001583A3A31261BE60DD851482851583A3F5
:10549000A3A3A3A3A3A3A3E0A2E050CA851482857B
:1054A0001583A3A3A3A31268EA851482851583A399
:1054B000A3601F1261BEFA7901851482851583A34A
:1054C000A3A3A31261C31225298A128B137511019C
:1054D000800F125737A3A3E0F512A3E0F51375115F
:1054E00000E5124513700302545985128285138317
:1054F000A3E065087004A3E06509600F74FF650808
:10550000700474FF65096003025459851282851383
:1055100083A3A3A3A3A3A3A31226DB8512828513CF
:1055200083A3A3A3A3A3A3E0FC7405122B2C126CEA
:1055300038A910123E1D74021228E4E9703C85124D
:1055400082851383A3A3A3A3A3A3A3A3A3A3122628
:10555000DB851282851383A3A3A3A3A3A3A3A3A381
:10556000E0FC7403122B2C126C38A90F123E1D7430
:10557000021228E4E97003025459E50F2510C333E1
:10558000240AFA7B00123A818A0A8B0BEA450B70D7
:10559000030254378A828B8374D2F0851682851772
:1055A00083A3A3125E9C8A828B83A3A3125EBF8A0D
:1055B000828B83A3A3A3A3E510127655E50FF0E534
:1055C00010603DEA2405FAEB3400FBE50A240AF8F2
:1055D000E50B3400F98A828B83125EBF7403122BB1
:1055E0002C12573C1228B3E510C333FCE433FD8A78
:1055F000828B83126C38123A5D74031228E4800D9A
:105600008A828B83A3A3A3A3A3E4F0A3F0E50F7086
:105610000302540FE510C333F8E433F9E50A28F820
:10562000E50B39F9E8240AFAE93400FB850A82859A
:105630000B83A3A3A3A3A3A3A3A31256F8740112DD
:105640002B2C12573C1228B3E50FC333FCE433FD77
:10565000123A5D74031228E40254218518828519D8
:1056600083E06027125AFC1228BB75087875090779
:1056700078081228B77403122B2C125B061228BB71
:1056800090070B1226DB7508008029EEFAEFFB125B
:105690003181E9702F125AFC1228BB750878750900
:1056A0000778081228B775080078081228BB9007F9
:1056B0000B1226DB78081228BB1256FE123F4974E3
:1056C000071228E47403122B2C1268EA600B74038F
:1056D000122B2C126C38123B297401122B2C1268DD
:1056E000EA600B7401122B2C126C38123B297405E2
:1056F0001228E47F100225C9EAF0A3EBF022E51698
:105700002402FCE5173400FDE516240FF582E517A9
:10571000125EBBF97A067B8022125721AA0AAB0BD4
:1057200022E0FCA3E0FD22850A82850B83E0F8A33A
:1057300085820A85830B221261C3A322E0F50CA3A4
:10574000E0F50D750E00780C2274F112239B74F4B1
:105750001229458A088B09ECFEEDFF740B122B2CE5
:105760007403F0122B2CAA82AB831244EF1230DFA9
:10577000EAFCEBFD7403122B2CAA82AB831244E9E2
:10578000E9600A1259356010E06401600B851882E7
:1057900085198374840258EA8E828F83A3A3A3A3FE
:1057A000A3A3A3A3E06013F460101259357016EEA2
:1057B00024141273E86003F4700B85188285198332
:1057C00074820258EAE508240CF582E5091273EBAD
:1057D00064217002A3E060030258C1851882851914
:1057E00083748C125965640360030258AB74011210
:1057F0002B2CAC82AD8312605D12476BE960030213
:1058000058AB123D9F8A0A8B0BEA450B7003025876
:10581000EB8E0C8F0D750E00780C1228B37C157D65
:1058200000123A5D74031228E4850882850983A377
:10583000A3E50A2415FCE50B3400FD74091227F8D2
:105840001270481273EBC0E0E50A241EF582E50BE6
:10585000127562D0E0125EAEC0E0E50A241FF58248
:10586000E50B127562D0E0F0E50A2420F582E50B25
:105870001275627405F0EE240BFEEF3400FFEEFAB1
:10588000EFFB1237457D007C007900EEFAEFFB124A
:105890003F019080771226D77A007B10900739E07D
:1058A000F9123BE974041228E4807812592812286E
:1058B000BB12593E12478974011228E4E9702C800A
:1058C000141259281228BB12593E12478374011230
:1058D00028E4E9700D851882851983E4F0123D6F84
:1058E00080098518828519837488F01270481259CE
:1058F0002D1228BB7401122B2C85820A85830B780C
:105900000A1228B7E508240CF582E50912606C44F8
:1059100080F50B780A1228B71263FB123EF5740566
:105920001228E4740C026B52EE126B5BEF125EBB3A
:10593000F50A780A22125AE7125EBB640322EE24AB
:105940000BFCEF3400FD8E828F83A3A3A3A3A3A33C
:10595000A3A3A3126C758E828F83A3A3A3A3A3A377
:10596000A3A3E0F922F0125AE7125EBB22C082C064
:105970008374F3122945851882851983E4F0041293
:105980002B2C1256F87403122B2CAA82AB83122CE8
:1059900077851882851983AA82AB83122CAD740D8A
:1059A0001228E4026C2774F612239B12647CFAA37B
:1059B000E0F9EAF890074AE058F508A3E059F5093C
:1059C000E5084509601C78081228B790070B1226D5
:1059D000DB1273E5FD7C00126548123F557404121A
:1059E00028E402517074F412239B74FF122945EAD3
:1059F000FEEBFF851882851983E4F0900842E07081
:105A000003025AE2EE240B1273E864017003025A97
:105A1000E28E828F83A3A3125E9CEE24151273E89C
:105A2000687003A3E0696003025AE2125AE7125E4B
:105A300099E8FAE9FB88828983A3A3A3A3A3A3A37C
:105A4000A3E0FC88828983A3A3A3A3A3A3A3A3A306
:105A5000E0F9EC2400F508E439F509EC450960109B
:105A6000EC9471E99408500890084EE06402700AC2
:105A700085188285198374808037122CE98A0A8BF5
:105A80000BA80AA90BE849602088828983A3A3A3F5
:105A9000A3E014C394025011E82412125AEEE82431
:105AA00014125AEE123D6F8009851882851983748D
:105AB00081F0125151EF125B031228BB7401122BBB
:105AC0002C85820885830978081228B775081F7508
:105AD000098078081228B712632C123EF57405125B
:105AE00028E474010268DCEE2413F582EF22F582CB
:105AF000E9127570E508F0A3E509F022E5161251E8
:105B000052E517127570E0F50878082274EA12233E
:105B10009B74DB1229458A148B15751200751300CE
:105B20001261B8F50E851882851983AC82AD837A2F
:105B3000007B00799C122DC17A047900122CBFEAF7
:105B4000F50C851882851983E0250CF0F8E50EC365
:105B5000984003025D51E0C3950EF509C3940440DB
:105B600003750903E50975F01AA4FAABF0123B239B
:105B70008A128B13EA45137003025D54750D00AE53
:105B800012AF13850E08025C13125DA8123A6985E4
:105B90000A82850B83A3A3A3A3E07039850A8285BB
:105BA0000B831268EA7012126066127242EE2418B9
:105BB000F582EF127562E48016125DB7F09005620F
:105BC000E014C0E0EE2418F582EF127562D0E01206
:105BD0005DF0E4803B900562E004C0E0EE2418F53F
:105BE00082EF127562D0E0125DE8C39403EE4003C9
:105BF000025CAF126067126B63125DE864017003B0
:105C0000025CBCEE2415125DBAF0EE2416125DBAE9
:105C1000125DC3E50DC395094003025CE1E508C3CD
:105C2000950C4003025CC685080AAA0A7B00122D67
:105C3000258A0A8B0B050890054F125DCF1244EFA1
:105C4000850A82850B83125E9C125D9A1272FB128A
:105C50005DFD850A82850B83A3A3A3A3A3A3A3A3AE
:105C6000A3A3E0C0E0EE2419F582EF127562D0E044
:105C7000F07401122B2CE4F0850A82850B83125EEE
:105C80009C7402122B2C125EBF7401122B2CAA8260
:105C9000AB83122C9BE964016003025B89740412DC
:105CA0002B2CAC82AD83125DAE1244EF025B8F12DF
:105CB0005DB8125DE864036003025C03125DA1122B
:105CC0007562E4025C09E50CC3950E400575080099
:105CD0008016E50EC3950CF508800D125DB7125DB8
:105CE000C3E50DC39509506C740E122B2CAC82AD1C
:105CF0008385080AAA0A7B007987122DC1050874DA
:105D000018122B2C125DCF1244EF125DA8123A69C3
:105D1000EE2412F8EF3400F9740E122B2C126C38AA
:105D200088828983EAF0A3EB125DF07403125DFDB3
:105D3000741D122B2CE0C0E0EE2419F582EF1275D1
:105D400062D0E0126B977093126066127562E48005
:105D50008D750900750A00780A1228BB781212287E
:105D6000B778091228BBE50EF50978091228BB742B
:105D700005122B2CE0FD7C00127050123F9174052F
:105D80001228E4E51245136007AA12AB13123B294F
:105D900074251228E47F0E0225C9EE2412F582EF45
:105DA00022EE2415F582EF227C087D0079FFEE2497
:105DB0000AFAEF3400FB22EE2414F582EF1275701C
:105DC000740122F0EE241AFEEF3400FF050D2212BA
:105DD0005EA08E828F83E8F0A3E9F07C637D05EE00
:105DE0002402FAEF3400FB22127590A3A3A3E02251
:105DF000F0EE2415125E0D241612756D22F0EE24BD
:105E000017125E0D241812756D74FFF022F582EFE3
:105E10001275747402F0EE2274F612239B74F91258
:105E200029458A088B091276CF123A758518828522
:105E30001983122B15125E87C0E07404122B2CD02C
:105E4000E0127544A3E0FA7405122B2C7401F0746F
:105E500006122B2C7401F0900715F090071E041207
:105E600075A4A3125E9C900716125EBFEA90071FEE
:105E7000125EAE900714125EA6122D61E960031245
:105E80002D67740702516DEE2404FEEF3400FF8E7F
:105E9000828F83E022126B5AE9127570125EA02283
:105EA000E0F8A3E0F922126685AA82AB8322F0E52E
:105EB00008240F125EB722F582E50912711922E853
:105EC000F0A3E9F02274F212239B74FF12294575A6
:105ED00008007E007F001230078A0A8B0B12300701
:105EE0008A0C8B0DA80CA90D80050508125E95E89B
:105EF0004970F790084EE0600764016003025FDAC2
:105F00001230078A0C8B0DA80CA90D8003125E9528
:105F1000E849603788828983126C3890054FE06ABF
:105F20007003A3E06B600E126B5AE9127562126C7B
:105F300038EA4B70D888828983125E9C90054FE0C6
:105F4000687003A3E0697003025FDA7A167B0012BF
:105F50003B238A0C8B0DAE0CAF0DEE4F607C900591
:105F60004F125E9C8E828F83125EBF900544E08E3E
:105F7000828F83A3A3F0123169E98E828F83A3A35A
:105F8000A3A3A3F090144B127584F07C637D0512DB
:105F9000605D1244EF851882851983AA82AB8379EC
:105FA000411245AF851882851983E0600890070B80
:105FB000125E9C800478FE79FF8E828F83A3A3A358
:105FC000A3A3A3A3125EBF126066127562E50AF076
:105FD000A3E50BF08E0A8F0B050890071FE0F8E58C
:105FE00008C39850047A008022E508C398FAC39445
:105FF0000640027A057900800DE50A126B5BE50B1D
:1060000012606CF50B09E9C39840EE750900780938
:106010001228BB780A1228B7EAF50978091228BBBA
:1060200090071FE0F50978091228BBAD087C007ABB
:10603000167B07900714E0F9123F8B74051228E4D1
:1060400090084EE060046401700BEE4F6007EEFABA
:10605000EFFB123B29122D67740102528EEE240BC6
:10606000FAEF3400FB22EE126B5BEF22126070221B
:10607000127574E0F50AA3E022EEFAEFFB7F060248
:1060800025C974EC12239B74FF1229458A0A8B0BD5
:106090007E008E0E8E0F1261B8FF851882851983DF
:1060A000AC82AD837A007B00799D122DC185188268
:1060B000851983E0F8EFC398400302615EE0C39F57
:1060C000FEC3940B40027E0AEE75F007A4FAABF013
:1060D000123B238A088B098A0E8B0FEA450F607CDE
:1060E000750C008017850882850983A3A3A3A3A349
:1060F0007403F0E50824071274FC050CE50CC39E3C
:10610000505CAC08AD09850C108F12E5102512FA11
:10611000E43400FB798B122DC1850882850983A3A5
:10612000A3A3A3A3E014600814601314601F80B538
:10613000850882850983A3A3A3A3A3E480B485086B
:1061400082850983A3A3A3A3A3740180A5850882E4
:10615000850983A3A3A3A3A3740280967E00750878
:106160000078081228BB780E1228B7EEF5087808D8
:106170001228BBEFF50878081228BB7405122B2CE7
:10618000E0FD7C00E50A2402FAE50B3400FBE50A99
:10619000240FF582E50B127062123F9774051228E6
:1061A000E4E50E450F6007AA0EAB0F123B29740100
:1061B0001228E47F0C0225C912759D1275701261B8
:1061C000C3E022E0F8A3E0F58388822274EA122378
:1061D0009B74FE1229458A148B15750A00750B00F5
:1061E0001261B8F508851882851983AC82AD837A6F
:1061F000007B0079A312477D85080C8518828519DC
:1062000083125E9CC3E50C98E499507F85188285C3
:106210001983E0C3950CFEA3E09400FFC3EE940441
:10622000EF940040067E037F008004EE4F605CEE3A
:10623000FAEFFBEA75F015A4FAA8F075F015EBA4D7
:1062400028FB123B238A0C8B0D8A0A8B0BEA450B29
:106250006039750900750E00850E10C3E5109EE4C7
:106260009F502DAC0CAD0D850E12850810E5122542
:1062700010FAE43400FB79A212477DE50C2415F5F1
:106280000CE50D3400F50D050E80CD75098B7E00F3
:10629000750C00780C1228BB780A1228B7EEF50CA2
:1062A000780C1228BB78081228BB7405122B2CE03E
:1062B000FDAC09127050123F9D74051228E4E50AE6
:1062C000450B6007AA0AAB0B123B297402025D92D0
:1062D00074F612239B74FF122945EAFEEBFF125A53
:1062E000E712741BA3A3A3A3A3A3A3A3E0F9122DF6
:1062F00085E9851882851983F075080078081228C9
:10630000BB7401122B2C858208858309780812281A
:10631000B775083575098078081228B712632C12F2
:106320003EF574051228E4740102516D790112637F
:1063300037FAEF3400FB22EE2402FCEF3400FDEECE
:10634000240F2274F412239B74FA1229458A088BB5
:1063500009127310FAEFFB122C7DE960131230DF83
:10636000EAFCEBFDEEFAEFFB1244E9E96401700A86
:106370007401122B2CE4F0A380097401122B2CEE73
:10638000F0A3EF126B72A3A3A3A3A3A3E0F8A2E66A
:1063900050087403122B2C7401F0E8A2E750087423
:1063A00004122B2C7401F07405122B2CE4F004124F
:1063B0002B2CAA82AB83122DB5E98518828519830F
:1063C000F07A007B00123103750A00780A1228BBAC
:1063D0007401122B2C85820A85830B780A1228B748
:1063E000750A34750B80780A1228B71263FB123EC7
:1063F000F574051228E474060268DC7901E50824C6
:1064000002FCE5093400FDE508240FFAE509340033
:10641000FB2274F612239B74FF12294512647CF54B
:1064200009A3E0F508A909122D73E98518828519D9
:1064300083F090084EE0700B740165087005A9099F
:10644000124045EE240B1273E8702E750800780890
:106450001228BB7401122B2C8582088583097808C9
:106460001228B775083675098078081228B71263A4
:106470002C123EF574051228E40263271264802270
:10648000EAFEEBFFEE2413F582EF1271191264920B
:10649000E022F8A3E0F98882898322C082C0839039
:1064A000084EE0700312404B026C2774F412239BD9
:1064B00074EF122945EAFEEBFF12529490070BE0AD
:1064C00065087004A3E065097058851882851983F2
:1064D00085820A85830B780A1228B7750A11750B15
:1064E00000780A1228B77C007D007A817B00123B7D
:1064F000AD74041228E4E97029750A00780A12289C
:10650000BB7401122B2C85820A85830B780A122812
:10651000B7AC08AD09126548123F4F74031228E466
:106520008021750A11750B80780A1228B778081235
:1065300028B71273E5FD7C84126548123F5B740432
:106540001228E474110268DC12654C22EE2402FA6F
:10655000EF3400FBEE240FF582EF127119F922746B
:10656000F112239B74EB12294512647CFCA3E0FB1F
:10657000EC2400F508E43BF50990070BE065087092
:1065800004A3E06509600302662A88828983A3A3C5
:10659000E09410500F88828983A3A3E08518828538
:1065A000198380088518828519837410F0E0C0E093
:1065B0007404122B2CD0E01273FCA3A3A982AA832B
:1065C000890C8A0D750E00780C1228B37407122BF3
:1065D0002CE0FC7D007408122B2CAA82AB83123AAB
:1065E0005D74031228E47404122B2C85820A8583BF
:1065F0000B780A1228B7750A11750B00780A122851
:10660000B77C007D007A817B00123BA774041228BE
:10661000E47404122B2CE09007426005E0D2E48081
:1066200003E0C2E4126685E4800885188285198338
:106630007484F0E0C0E07401122B2CD0E0F07402FE
:10664000122B2CE508F07403122B2CE508F01251E4
:1066500051EF125B031228BB7402122B2C858208A7
:1066600085830978081228B7750814750980780899
:106670001228B7790312632E123EF574051228E42E
:106680007415026B52F08518828519832274F412F6
:10669000239B74E01229458A088B09851882851985
:1066A00083AC82AD83123EE390084EE06402703307
:1066B0007402122B2CAE82AF831230DFEEFCEFFDA2
:1066C0001244E9E9601D1230E58A0A8B0BA80AA979
:1066D0000B851882851983E0687003A3E069700355
:1066E0000268DA12329B7402122B2C126C2E1231B9
:1066F000B1E9640170030268DA7418122B2CAA82C3
:10670000AB831230F17402122B2CAC82AD8374185F
:10671000122B2CAA82AB831244E9E960321230EBCF
:106720008A0A8B0BA80AA90B851882851983E06851
:106730007003A3E0696018851882851983125E9C36
:10674000900545125EBF7A457B05794B1245B590A1
:10675000084EE060076401600302680012755AC0C9
:1067600082C0831230E58A088B09D083D082E0652D
:10677000087004A3E06509605C7402122B2CAA82E5
:10678000AB83122CE98A088B09A808A909E849609B
:106790002688828983A3A3A3A3E06401600D888275
:1067A0008983A3A3A3A3E06402700C7402122B2CB0
:1067B000AA82AB83122CF59005E31268EA6016906A
:1067C0000842E06401700E126C329005E4E0F5833B
:1067D00088821225291230E58A088B09A808A909A0
:1067E000851882851983E0687003A3E069601174DD
:1067F00002122B2C126C2E122CCBE96003123D6F6F
:106800007402122B2C126C2E1232897900126C3207
:10681000122EFF740B122B2CE41268EEF8A3E0F991
:10682000740C122B2C125EBF740B122B2CAA82AB91
:1068300083122C9BE9604B7C087D00790074181250
:106840002B2CAA82AB83123A69740E122B2CAC82C9
:10685000AD837418122B2CAA82AB831244E9E96031
:10686000217402122B2CAC82AD83740E122B2CAA35
:1068700082AB83122C77740B122B2CAA82AB83125F
:106880002CAD7402122B2CAC82AD83740E122B2C07
:10689000AA82AB83122C77740B122B2CAA82AB83A7
:1068A000122CA1E96034740C122B2C125E9C8518FA
:1068B00082851983E0687003A3E069601D851882F2
:1068C000851983125E9C740C122B2C125EBF740B04
:1068D000122B2CAA82AB83122CAD74201228E47FD9
:1068E000040225C9F582E8127570126DAA2212669B
:1068F00085E02274F112239B74F6122945EAFEEB1F
:10690000FF7508009007AE1268EA70537A377B0073
:10691000123B239007AEEAF0A3EB12711F60197CC3
:10692000377D007900123A69EEFCEFFD9007AE1258
:106930006C38123EB3E9700B851882851983748810
:10694000026AAF1273EF242EF582E8125DBDF07C6F
:10695000BF7D3E9004D3126C381247E9026B50E0C1
:10696000C8242E126B60F0EEFCEFFD127067123E31
:10697000B3E9700C8518828519837488F075080155
:10698000750A78750B07780A1228B7126C48122618
:10699000DB1273EF2428F582E81273EBFC126C7B98
:1069A0001273EF126B5BE8127062123E17740412DE
:1069B00028E4126B69126B782431F582E81273EBCC
:1069C0006043127104FAE433FB123B239007AEE0FC
:1069D0002432126B8D6022750C78750D07750E00D0
:1069E000780C1228B3127104FCE433FD126C6612A9
:1069F0003A5D74031228E4800C851882851983742B
:106A000088F0750801780A1228B7126C3C1226DB50
:106A10001273EF2411F582E81273EBFC126C5D1215
:106A200073EF242BF582E8127062123E1774041281
:106A300028E41273EF2434126B782434F582E812C0
:106A400073EB60351270FBFAE433FB123B239007C3
:106A5000AEE02435126B8D6045750C78750D0775A9
:106A60000E00780C1228B31270FBFCE433FD126C9C
:106A700054123A5D74031228E4E508A2E04028129B
:106A80006B69F582E81273EB70089007AE1270CC58
:106A900060157B007A007900123EB9026B508518B0
:106AA000828519837488F08518828519837486F02D
:106AB0007409122B2C7402126B721270C6122B2CDA
:106AC000125EBF8E828F83A3125B061228BB7401F5
:106AD000122B2C85820885830978081228B775083F
:106AE0002075098078081228B779017406122B2CBA
:106AF000AC82AD83EEFAEFFB123EF574051228E48A
:106B00001270A970487409122B2C7402F01270BE16
:106B1000122B2C1271261228BB7401122B2C858289
:106B20000885830978081228B775082075098078C8
:106B3000081228B779017406122B2CAC82AD839011
:106B400007AE126C38123EF574051228E4123EAD01
:106B5000740A1228E47F070225C9E82414F582226A
:106B6000F582E81275707402229007AE12708324C9
:106B70003122127548A3A322F582E8127570126BB8
:106B800083C822E9F09007AEE0F8A3E022F8A3E082
:106B9000126B9EEAF0A3EB127415126DAA22340058
:106BA000F98882898322C082C0839007AE1268EA86
:106BB0006075E0C824351268E46006126C54123B1C
:106BC000291273EF24321268E46006126C66123BDD
:106BD000291273EF24121268E46009126C3C126CE3
:106BE00038123B291273EF24151268E46006126C08
:106BF0007B123B291273EF24291268E46009126C9E
:106C000048126C38123B291273EF242C1268E4608E
:106C100006126C5D123B299007AE126C38123B29AC
:106C20009007AEE4F0A3F0D083D08202287CAC823F
:106C3000AD83851882851983126C752212708024A9
:106C400012F582E8127570221270802429F582E80C
:106C5000127570221270802435126C6F22127080AF
:106C6000242C126C6F221270802432126C6F22F569
:106C700082E8127574E0FAA3E0FB221270802415FA
:106C8000126C6F2274F112239BEAFEEBFF8C088DCD
:106C900009750A018C0C8D0D750E00780C1228B345
:106CA0007C177D00123A5D74031228E4125D9A127B
