:020000040000FA
:10000000021AC3022003FFFFFFFFFF02200BFFFFC6
:10001000FFFFFF022013FFFFFFFFFF02201BFFFF78
:10002000FFFFFF022023FFFFFFFFFF02202BFFFF48
:10003000FFFFFF022033FFFFFFFFFF02203BFFFF18
:10004000FFFFFF022043FFFFFFFFFF02204BFFFFE8
:10005000FFFFFF022053FFFFFFFFFF02205BFFFFB8
:10006000FFFFFF022063FFFFFFFFFF02206BFFFF88
:10007000FFFFFF022073FFFFFFFFFF02207BFFFF58
:10008000FFFFFF022083FFFFFFFFFF02208B902076
:1000900000000100000000C8030000000400FFFF92
:1000A000FFFFFFFFFFFFFFFFFFFF0403090424031F
:1000B00054006500780061007300200049006E0064
:1000C00073007400720075006D0065006E007400AE
:1000D0007300240354004900200043004300320011
:1000E000350033003100200055005300420020004D
:1000F00043004400430000035F005F0030005800ED
:1001000000000000000000000000000000000000EF
:1001100000000000000000000000000000000000DF
:10012000303132333435363738394142434445462D
:10013000E7173C183C183C183C18441874F7121781
:1001400081120764600302021AA3E0F8A3E06003CF
:1001500002021AA3E064027002A3E0600302021A22
:100160009003B6E02480600914604F14605C0202C2
:100170001AE8600302021A9003B0E060047801807C
:100180000278009003BEE8F0A3E4F09003AFE060D3
:100190000A9003BEE04402F0A3E4F09003A4E064FC
:1001A0000460149003B174BEF0A37403F0A3E4F0F0
:1001B000A374021207C6F002084690039DE064048F
:1001C00070589003BEE4F0A380D0E8547FF5089007
:1001D000039DE064047043E508C39406503C749D9D
:1001E0002508F58274033400F583E854806018A371
:1001F000A3A3A3A3A3A3E0640370047801800278FF
:10020000009003BEE88090E582240CF582E58334FB
:1002100000F583E0640370E780E19003A474048038
:100220009574F7121781E9FE9003BC12076760030B
:1002300002030790039DE06404600B9003BA120769
:100240006760030203079003B6E0541F600914605F
:10025000301460200203079003B8E064017022EEBE
:100260009003AFF060047905800279067A001217D6
:100270007F02030D9003BAE0547FFA9003B8E06068
:1002800005790002030FEAC39406507BEA90620EE0
:10029000F08A08749D2508F874033400F99003BAB5
:1002A000E05480602CEE6004741080027440906210
:1002B00011F0EE600474038001E488828983A3A3B3
:1002C000A3A3A3A3A3F0EE6004790880317907808B
:1002D0002DEE6004742080027480906214F0EE6051
:1002E0000474038001E4C0E0E8240CF582E93400E2
:1002F000F583D0E0F0EE6004790A800279091217E4
:100300007F90620EE480059003A47404F0790102EA
:1003100008467900120221E9700312176E22790152
:10032000120221E9700312177D22C082C08390035C
:10033000BA1207677015A3120767700F9003B812FF
:1003400005085480FAE9FBEA4B60079003A47404A3
:10035000801AE8906200F090039D6009E0640270EA
:100360000C74038007E0640370037402F0D083D040
:10037000822274F31217819003B8E0FAA3E01460AC
:100380000814601014603B805912136A1204E5A32C
:100390007B808043790012138C1204E57B80E92472
:1003A00002F9EA3400FA121A14FC1919E0FAA3E966
:1003B0002403F9EA3400FA121A14F9ECA3F0A3E9C1
:1003C000801CEAF91213FA9003B1EAF0A3EBF0A350
:1003D000E41204F4A37B00121A14A3F0A3E4F002C5
:1003E000049F9003B1E4F0A3F0A3F0F50B90046632
:1003F000E0FAA3E0FB02047A75090074037808129E
:100400001AB0EA2508F8EB3509F99003B81204FE92
:10041000E493C0E0EFFCD0E06C705DA3E4936E70F9
:10042000579003BA1204FEA3A3E493C0E0EFFCD0FC
:10043000E06C704488828983A3A3A3E4936E703830
:1004400088828983A3A3A3A3E493F508740193F599
:10045000099003B1E508F0A3E509F0A37480F088E2
:10046000828983A3A3A3A3A3A3E493F8740193F9BC
:100470009003B4E8F0A3E9F0050B850B089004683D
:10048000120508C39AF50CE99BF50D7403780C125C
:100490001AD2C3E508950CE4950D50030203F890B9
:1004A00003B1E0FCA3E0FDA3E0FEEC4D4E9003A4FD
:1004B000700474048029E0640460259003BCE0FAB1
:1004C000A3E0FB9003B4E0F8A3E0F9C3EA98EB994A
:1004D00050089003B4EAF0A3EBF09003A47401F089
:1004E0007F060219329003B1EAF0A3EBF0A3748007
:1004F0001204F422F09003B1E0F9A3E0FA22E0FE46
:10050000A3E0FF8882898322E0F8A3E0F9E822745F
:10051000EE121781EA2404F8EB3400F988088909FF
:100520008882F583E493602590046A120508FEE949
:100530008007EE2404FEEF3400FF8E828F83E49365
:10054000F8740193F9EA687002EB6970E5750C00C4
:1005500080409062147490F07410120665700375F8
:100560000D408E828F83A3A3A3E49355106006E50C
:100570000DD2E0F50DE50D906215F0EA906213F0F2
:10058000EC240CF582ED3400F583E4F090620EF07B
:10059000050C850882850983E493F8E50CC398402F
:1005A000030206607A0079051212FD8A0E8B0FEAAB
:1005B000450F60DCEA2402F8EB3400F9880A890B65
:1005C0008882F583E493540FF51290620EF0750D56
:1005D000008A828B83A3A3A3A3E4932407F510A32B
:1005E000E4933400F51174037810121AD2AA10851E
:1005F0001210749D2510F874033400F9E8FCE9FD2D
:10060000751001751100E5127810121AB0E50E246C
:1006100003F8EB3400F9850A82850B83E493A2E7A3
:1006200040030205529062117448F0740812066586
:100630007003750D408E828F83A3A3E493551060E1
:1006400006E50DD2E0F50DE50D906212F0EA90623C
:1006500010F08C828D83A3A3A3A3A3A3A302058A76
:100660007F0B021932F088828983E493540364017A
:1006700022C082C0831207647010A3120767700A39
:10068000A3E064017002A3E060079003A4740480F7
:100690000C9003B1749EF0A374031207BCF0020324
:1006A0006D74F412178190039DE06402601490034E
:1006B000BA120767700CA312076770069003B9E0BF
:1006C00060099003A47404F002075F7A00790112B4
:1006D000177F9003B8E060727A00F912138C8A08D1
:1006E0008B09EA4509605B90039D7404F09003B8A0
:1006F000E090039EF0750C00850882850983A3A312
:10070000A3A3E493F8E50CC398504D850C0A749F9D
:10071000250AF874033400F9E8FEE9FF8E828F831E
:10072000E4F07A0079041212FD8A828B83A3A3A3DA
:10073000E493F88E828F83E06870E712050F050C52
:1007400080B69003A47404F0800E90039EF0900392
:100750009D7403F0F9120F367A00790212177F7F29
:10076000050219329003B8E0F8A3E0F9E8492274D1
:10077000F612178190039DE0640470199003B6E0AF
:1007800064817011120764700C9003BCE064017006
:1007900002A3E060079003A47404801A9003BAE0F7
:1007A000249FF508A3E03403F5099003B1E508F0B0
:1007B000A3E5091207BCF07F03021932F0A3E4F0AD
:1007C000A3041207C622F0A3E4F09003A404227449
:1007D000F712178190039DE0640470649003B6E003
:1007E0006401705C9003BC12076770549003B8E01A
:1007F000FB9003BAE0FA90039EE0F91213C48A0852
:100800008B09AE08AF09EE4F60369003BAE0FA7973
:100810000312177F9003B8E0C0E09003BAE0249F72
:10082000F8A3E03403F988828983D0E0F0EEFAEF90
:10083000FB12050F9003BAE0FA790412177F8006C5
:100840009003A47404F07F0202193274F812178125
:1008500074FF121A477E008033900384E0F88518F5
:1008600082851983E068700D900382E0644D700505
:10087000120ABAE9FE900385E4F0900387F0851828
:1008800082851983E0F8900384E068F07901851887
:1008900082851983AA82AB831210ABE97003020927
:1008A00049E0C0E0900387E0F8900385E0FAE82A89
:1008B000F8E43400120C52D0E0F0900387E06011AD
:1008C00014602014603E14604E14606414608A80CA
:1008D000AD851882851983E064FE70A29003877449
:1008E00001809A900384E4F0851882851983E09052
:1008F0000386F0C394809003874004E402087D746B
:100900000202087D851882851983E0900382F090A9
:100910000387740302087D851882851983E090039C
:1009200083F0900386E06019900387740402087DC9
:10093000900385E004F0F8900386E0686003020805
:100940007E900387740502087DEEF974011219FA8E
:100950007F0102193274ED12178174FB121A477568
:1009600008047509007808121A777402121AEEAC9E
:1009700082AD837A907B00790412151D74021219DE
:10098000FA851882E0F47003A3E0F4600F85188202
:10099000851983E0F8A3E0F9E8497003020AAE7410
:1009A00002121AEEE0687003A3E0697003020A887D
:1009B0007508007510007511207512007513008000
:1009C0000A9003C07810121A88604C750A01750BE2
:1009D00000780A121A777406121AEEAC82AD83857B
:1009E000100A85110BAA0AE50B5407FB8A0C851126
:1009F0000D85120E85130F740B780C121A2EA90C8C
:100A000012151D74021219FAE0F9AA08AB09120CAA
:100A10006C8A088B09800C75109375112075120073
:100A20007513009003C47810121A9D9003C87810B3
:100A30001219C0508CE4F9120C6CE4F9120C6C74AD
:100A400002121AEEEAF0A3EBF075080175090078BE
:100A500008121A777402121AEEAC82AD837A247BE4
:100A6000081215A274021219FA7508047808121AED
:100A7000777402121AEEAC82AD837A907B0079040F
:100A800012151D74021219FA120C5E121AEEE068A9
:100A90007003A3E0697017851882851983E0F470EC
:100AA00003A3E0F46008E84960047901800279005A
:100AB00074051219FA7F0C02193274F3121781743B
:100AC000FC121A47900306E0FAA3E0F8E4C8F9EA3A
:100AD0002400FEE93408FF750A01880988088E0C95
:100AE0008F0D7409780C121AD2A90CEEF50CEF5484
:100AF00001F50D900383E014600914602C14606903
:100B0000020C02EA450D7003121608750C10750DE3
:100B100000780C121A777C087D03EEFAEFFB1215B1
:100B2000A274021219FA020C02E9C3947940067504
:100B30000901020C02750A40750B00780A121A7737
:100B40007C097D037402780C121AB0AA0CAB0D124A
:100B5000151D74021219FA900307E0A3F090030622
:100B6000E0A3F0750A43020C02750C04750D0078C1
:100B70000C121A777402121AEEAC82AD837A907B53
:100B800000790412151D74021219FA7402121AEE79
:100B9000E0F8A3E0F9851882851983E0687003A363
:100BA000E0696047120C5E121AEEE8F0A3E9F075F6
:100BB0000C01780C121A777402121AEEAC82AD8313
:100BC0007A247B081215A274021219FA750C0478A3
:100BD0000C121A777402121AEEAC82AD837A907BF3
:100BE00000790412151D74021219FA120C5E121A01
:100BF000EEE0687003A3E069700575080180037575
:100C00000907900305E0D2E7F0E509A3F0E50A90B3
:100C10000303F0744D650AF5097404250AFB7A0391
:100C20008004E062090AEAF83395E0120C52EAC344
:100C30009BA2D265D03340EAE509F074012AF97A23
:100C4000027B031210EBA90874041219FA7F060242
:100C50001932F9740228F582740339F58322851854
:100C600082851983E0F8A3E0F9740222C008C00964
:100C70007C088A088B09740F7808121AD2EAC333E9
:100C8000FAEB33FBE9A2E7500474014AFAE508A243
:100C9000E0500874216AFA74106BFBE9C333F91C45
:100CA000EC70CFD009D00822C082C0837A007901CD
:100CB00012138C8A828B83A3A3A3A3A3A3A3E4937D
:100CC000A2E69003B0500474018001E4F09003AFF9
:100CD000E4F090620F7403F0E0A2E750FBD083D001
:100CE0008222C082C08390039D7402F0A3E4F0903E
:100CF00003A4F07903120F3675210075220080DD00
:100D000074F612178190620EE0FEE4F0906211E03A
:100D1000FFA2E4501D7480F09003A47407F0E52155
:100D200045226009852182852283121B009003A43D
:100D3000E4F0EFA2E2500B906211E4F09003A4F013
:100D400080629003A4E0F87402687041906216E03B
:100D5000FF9003B1121972EFF97A207B62120F6EC5
:100D600074031219FA8F089003B4120F0B120F16A6
:100D7000E0F8A3E0F9E84960047440800274489008
:100D80006211F0E8496003020F01020EDD7406688B
:100D90007009852182852283121B009003A4E060E4
:100DA00003020E8DEFA2E04003020F017508B67535
:100DB0000903750A007808121A7379087A207B6291
:100DC000120F6E74031219FA752100752200900338
:100DD000B6E054E0601D24E07003020E6924E06078
:100DE0007224C0604824E07003020E7424E0606E38
:100DF000020E7FA3E014602624FE601D24FE600A1C
:100E000024FC601F24FE6020807512032A9003A436
:100E1000E0640470727460807012031E80EF12032D
:100E20001280EA1206A180E51207CF80E0A3E060FD
:100E30000E24FA600F24FE601024FE601180401220
:100E4000013C80C912037280C412067180BF120770
:100E50006F80BA75216A75221712176A80AF7521E3
:100E60006C75221712176C80A47521057522171254
:100E700017058099752135752217121735808E90C8
:100E800003A47404F0808E7440906211F09003A467
:100E9000E0F8740168705C7F029003B4E0F8A3E0AE
:100EA000F9C3E89420E994005007E8F50A7F0A8026
:100EB00003750A209003B1121972A90A7A207B6285
:100EC000120F9374031219FA850A08120F16120FE3
:100ED0000BEF906211F0E50AC394205024E5214500
:100EE000226009852182852283121B009003A4E4DD
:100EF000F0800E7405687009852182852283121B9B
:100F000000EE90620EF07F03021932C3E09508F004
:100F1000A3E09400F0229003B1E0F9A3E0FAA3E08B
:100F2000FBE92508F9EA3400FA9003B1E9F0A3EAF5
:100F3000F0A3EBF0A32274F71217817800880874ED
:100F4000A52508F5827403120F6240F17800880825
:100F500074AA2508F5827403120F6240F17F020221
:100F600019323400F583E9F008E8C394052274F6D9
:100F7000121781EAFCEBFDE9F8740A121AEE120F5F
:100F8000C3600D8C828D83E0121A5D120FB870F36E
:100F9000020F0674F6121781EAFCEBFDE9F8740AF9
:100FA000121AEE120FC3600D121A148C828D83F088
:100FB000120FB870F3020F06E9240109EA3400FAAF
:100FC00018E822E0F508A3E0F509A3E0A908AA09BA
:100FD000FBE822C082C0838003121664A2E840F9B5
:100FE000A823E8540460097823E654FBF6120CE2C7
:100FF000A823E8541060097823E654EFF6120D0098
:10100000A823E8A2E05005782354FCF690620EE095
:10101000FA7404F0906214E0A2E05042E5A8F8C22D
:10102000AF906216E0F9A3E0E9FBE8A2E792AF8097
:101030001F906228E0C0E0900391E0F8746E28F5FC
:101040008274053400F583D0E0F0900391E004F061
:10105000EBFC74FF2C1B0470D8906214E4F0EA904F
:10106000620EF0E0FD7404F0906211E0A2E0403105
:10107000900393E0F8900392E06860257A40900333
:1010800092121123E0906228F0900392E004F0089D
:10109000900393E06860041AEA70E39062117401AF
:1010A000F0ED90620EF0D083D0822274F812178196
:1010B000E9FE7900801F900390E0FC746E2CF582AD
:1010C00074053400F583E08A828B83F0900390E00E
:1010D0000412111809900390E0F8900391E0686001
:1010E00005E9C39E40D07F01021932C082C083E966
:1010F000FC80188A828B83E0C0E090039312112356
:10110000D0E0121118900393E004F0ECF874FF287B
:101110001C0470DF7901808EF08A828B83A3AA82FF
:10112000AB8322E0F8746E28F58274043400F583F2
:1011300022794A1212E253BEFBE59DA2E650FA0064
:1011400078F8790100E824FF18E934FFF9E84970DC
:10115000F375C6807480659E70FA43BE0490627019
:101160007408F012122D120955E96013E59D541808
:10117000641070031212381211E912125580031212
:1011800011E9794E1212E2750C00750D00750E0012
:10119000750F008028C280D291750C00750D007506
:1011A0000E00750F00120FD39003C4780C121A9D15
:1011B0009003CC780C1219C050EB121238120FD3D6
:1011C00012084BE96006120955E970C9850D0990AE
:1011D00003C4780C121A9DE509544060E0A28050C7
:1011E00004C28080D8D28080D474F812178153F45E
:1011F000FEC29043FE017403F5D575D48890039424
:10120000E4F0A374C2F0A37401F0A3E4F0A3F0A38C
:10121000F0A37408F0120CA87AFF7BFF12161F537C
:10122000F4FED29043FE0112122D0210E6D280434A
:10123000FD01C29143FE0222C280D291A29250FCD3
:10124000A29350F8D280C291022000C2AF75C9AB00
:1012500075C95B80FE74F112178174FF121A47750D
:101260000C00750D00750E26750F008004C291C22A
:1012700080120FD37901851882851983AA82AB83E6
:101280001210ABE96016E064106049E064EF700C86
:10129000750C00750D00750E00750F00A29250348C
:1012A000A293501E850C08850D09850E0A850F0B2B
:1012B0009003D0780C121A9DE5084509450A450BA4
:1012C0007003121238850D09E5095420709FD280F1
:1012D000D291809DD280C29174011219FA7F0802C6
:1012E0001932781075B60FE5B4A2E750FAE5BBC322
:1012F0009940F118E870ED22D083D08222C082C0DC
:1013000083E9FCEAFD7A007B008003121348900316
:101310009BE0F8A3E0F9900464E0687003A3E0693F
:10132000602490039CE0F5838882A3E493F8EC6842
:10133000700D90039BE0FAA3E0FB1213488007EDC9
:101340006870C8ED60C580B090039BE0F8A3E0F53D
:10135000838882E493F890039BE028F8A3E03400AC
:10136000F990039BE8F0A3E9F022C082C083121336
:101370007B7A0079011212FD0212F8900462E0F803
:10138000A3E0F990039BE8F0A3E9F02274F71217A9
:1013900081E9FEEAFF12137B7A0079021212FDEA5C
:1013A0004B601CEE60108A828B83A3A3A3A3A3E4EB
:1013B000936E70E48009EFF874FF281F0470D97FE2
:1013C0000202193274F5121781EAFF8B087A0012B3
:1013D000138C7A0279041212FDEA4B60188A828B10
:1013E00083A3A3E4936F70EA8A828B83A3A3A3E40D
:1013F00093650870DD7F0402193274F71217817447
:10140000F0121A47E97A007B00600C146010146037
:10141000141460180215057ADC7B030215057AE0C6
:101420007B030215057A047B04021505900428E06D
:1014300060030215017408121AEEAC82AD83758345
:10144000037582D4740812199F750808F509780885
:10145000121A777402121AEEAC82AD837AE87B0717
:10146000797F12151D74021219FA7808121A77740E
:101470000A121AEEAC82AD837402121AEEAA82AB83
:101480008312189A74021219FA8B09EA4509701D21
:101490007509007808121A777C0C7D787402121A8C
:1014A000EEAA82AB831218EC74021219FA7C287D22
:1014B000008D08851882851983E5822508F582E567
:1014C000833400F583E0FF8C0874282508F8740441
:1014D0003400F9EF12150D88828983F0EFC41215DC
:1014E0000DC0E0E824FEF582E934FFF583D0E0F09A
:1014F0000D74FC2CFCEDC3940840B6900428742AAB
:10150000F07A287B0474101219FA0213BF540FFAF0
:1015100074522AF58274043400F583E02274F512C3
:1015200017818908740F5508F50A750B00740B783C
:101530000A121AB0EA2400F8EB3480F9E82400E932
:10154000350BF9E5C7F509A2AFE433F50AC2AFE5FB
:1015500008C4540FFAE5C754F84AF5C7740B121AB9
:10156000EEE0FAA3E0FB801C88828983E08C828D08
:1015700083F088828983A3A882A9838C828D83A328
:10158000AC82AD83EAFEEBFFEE24FF1AEF34FFFBE3
:10159000EE4F70D48509C7E50AA2E092AF7F04023E
:1015A000193274F7121781ED900388F0ECA3F0A3C1
:1015B0007462F0A37473F0A3E0541FF07409121A5C
:1015C000EEE0F508A3E0F509E508333354FC900399
:1015D0008DF074067808121AD2E50890038CF0900A
:1015E000038E7412F0A37442F075D1FE75D601EA31
:1015F000906271F0EBA3F0906270E0D2E1F0E0A2B3
:10160000E740FB7F02021932C082C083E9C33390F6
:101610006272F0906270E0D2E0F0D083D0822274E7
:10162000F71217817523007524007525008A268B13
:1016300027EA90620BF08A088B0974047808121A62
:10164000D2E508906207F08A088B097409780812BD
:101650001AD2E508543E906209F0758B00C2E87F0B
:101660000202193274F7121781E59DA2E650FA9032
:101670006206E0FAA2E25035A826E890620BF0F587
:101680000885270974047808121AD2E508906207C1
:10169000F085260885270974097808121AD2E5080A
:1016A000543E906209F0906201E0D2E0F07823EAC3
:1016B00046F6906202E0F508750900740478081295
:1016C0001AB07823E50846F608E50946F690620464
:1016D000E0F50875090074097808121AB07824E555
:1016E0000946F6EAA2E0500375250174065A600324
:1016F000752500E58BA2E55006758BDF7525001278
:10170000178002165AC082C0839003B7E0F8742293
:101710006870089003A4E0701A8011742068900328
:10172000A4700DE0700D12175C9003A47402800287
:101730007404F08043C082C0839003B7E0642190BA
:1017400003A47013E0701312175CA37407F0A3E4F2
:10175000F09003A40480027404F0801C9003B17420
:1017600094F0A37403F0A3E4F02280028000C0820E
:10177000C0839003A47404F0D083D0822280EF222F
:10178000222518C582C0E0E51934FFC583C0E0E515
:1017900018C3958224F910AF0885831985821880B3
:1017A00008858319858218D2AFCEF0A3E520F0A377
:1017B0007808E608F0A3DEFAEFF0A3E58124FBF851
:1017C000E608F0A3E608F0A30808E608F0A3E60898
:1017D000F0A315811581D0E0FED0E0F815811581C8
:1017E000E8C0E0EEC0E02212010002020000205139
:1017F00004A81609000102030109024300020100C6
:1018000080190904000001020201000524001001F2
:101810000424020205240600010524010001070535
:10182000820340004009040100020A00000007058D
:101830008402400000070504024000000218000076
:1018400025180000121AFDB90003021894E479214A
:101850007807B800028004F709D8FCE49003027806
:10186000BF79018002F0A3D8FCD9FA9003C0AA8204
:10187000AB8390008E78AF79018015E493A3AC829E
:10188000AD838A828B83F0A3AA82AB838C828D8303
:10189000D8E9D9E7121131121AF874F512178174C8
:1018A0000B121AEEE0F8A3E08015A3AA82AB838C9A
:1018B000828D83A3AC82AD83E824FF18E934FFF95D
:1018C000E849601F8C828D83E0F5088A828B83E073
:1018D000F50AE508650A60D2E50AC39508FA95E0BD
:1018E000FB80047A007B007F0402193274F7121720
:1018F00081EAF8EBF97409121AEEE0FEA3E0FF802A
:10190000188C828D83E088828983F0A3A882A983C2
:101910008C828D83A3AC82AD838E088F09E5082469
:10192000FF1EE50934FFFFE508450970D47F020278
:101930001932851983851882E0A3FEE0A3F520788B
:1019400008E0A3F608DFFAE0A3FFE0A3C0E0E0A30D
:10195000C0E0E0A3C0E0E0A3C0E010AF08858218BB
:101960008583198008858218858319D2AFD083D0EA
:10197000822274038000CCC0E0EDC0E0E518C39C77
:10198000CCAD1950011D10AF068C188D1980068C36
:10199000188D19D2AF12199FD0E0FDD0E0FC22CAF9
:1019A000C0E0E0A3C582CCC582C583CDC583F0A3CA
:1019B000C582CCC582C583CDC583DAE6D0E0CA2214
:1019C000C008C3E096F50808A3E096420808A3E023
:1019D00096420808A3E09645087001D3D008222556
:1019E00018F58210AF08F518400215198008F5188F
:1019F00040021519D2AF85198322C0D0251810AF27
:101A000008F518500205198008F51850020519D27A
:101A1000AFD0D022BB0102E722C082C08389828A74
:101A200083BB0003E08002E493D083D0822260165F
:101A3000080808C6C313C618C613C618C613C618A6
:101A4000C613C6D5E0EA22251810AF08F5184002E3
:101A500015198008F51840021519D2AF22BB000EE7
:101A6000C082C0838A838982F0D083D08222BB0166
:101A700001F7227403800474028000C0E0F40412B1
:101A800019DFD0E0121AE122E066701008A3E066C8
:101A9000700A08A3E066700408A3E06622E026F658
:101AA00008A3E036F608A3E036F608A3E036F622EF
:101AB000700422600D18C6C333C608C633C6D5E00D
:101AC000F4182275D00075813F751802751903024C
:101AD0001844600C08C6C313C618C613C6D5E0F474
:101AE00022CAC0E0E6F0A308DAFAD0E0FA2225180C
:101AF000F582E43519F5832200000080FB7901228C
:101B0000E473FFFFFFFFFFFFFFFFFFFFFFFFFFFF8C
:101B1000FFFFFFFFFFFFFFFFFFFFFFFFFFFFFFFFD5
:101B2000FFFFFFFFFFFFFFFFFFFFFFFFFFFFFFFFC5
:101B3000FFFFFFFFFFFFFFFFFFFFFFFFFFFFFFFFB5
:101B4000FFFFFFFFFFFFFFFFFFFFFFFFFFFFFFFFA5
:10200000022C21022224FFFFFFFFFFFFFFFFFFFF43
:10201000FFFFFFFFFFFFFFFFFFFFFFFFFFFFFFFFD0
:10202000FFFFFFFFFFFFFFFFFFFFFF0228FEFFFF95
:10203000FFFFFF022247FFFFFFFFFFFFFFFFFFFF42
:10204000FFFFFFFFFFFFFFFFFFFFFFFFFFFFFFFFA0
:10205000FFFFFF022160FFFFFFFFFFFFFFFFFFFF0A
:10206000FFFFFFFFFFFFFFFFFFFFFF0228D6FFFF7D
:10207000FFFFFFFFFFFFFFFFFFFFFF02279DFFFFA7
:10208000FFFFFF0221C001FFFFFFFFFFFFFFFFFF78
:102090001020102001FF01010503010F10FEFFCDEC
:1020A00036CD36CD36CD3671356B35CD361E4C003E
:1020B000000000B64B00000000FF000000FF000120
:1020C0000000733900000000BF389F3A0D39093A0B
:1020D0000000FB38000000000000000000000000CD
:1020E00000000000FF0101003907000000E803B410
:1020F00007E80364006400B801020200080000055C
:1021000002070101051E02051E020A0A0103B80B9F
:1021100002803E0102FEFFE8030A050001FFFF0AFC
:1021200001E00020FD000206FFFF00035F005F00EA
:102130003000580000000000000000000000000017
:10214000000000000000000000000000000000008F
:1021500000000000BF2514261426142614261C2671
:10216000C0E074F2122560A2AFE433FED2AFE5A75F
:10217000FFE5A1F5085F541060061243BD75A1EF9D
:10218000E5085F540860081243C375A1F78024E591
:1021900008A2E092F0EFA2E082F05017906198E080
:1021A000F89008BDE0C398A2D265D0335002E8F0A1
:1021B00075A1FE751A00EEA2E092AF7F0102261C07
:1021C000C0E074F2122560A2AFE433FED2AF90619A
:1021D000A4E0F8759B00E59158540860087591F7E4
:1021E0001244178023E59158541060087591EF123E
:1021F000441D8014E591A2E092F0E8A2E082F05044
:1022000007E0C2E0F012456D9061A3E0F8E5E958FF
:102210005404600E12454375E9FB906193E0A2E619
:1022200040F2808FC0E074F2122560A2AFE433FE6A
:10223000D2AF9061A5E0F8E5BF585404600675BFC1
:10224000FB1245850221B3C0E074F1122560E59DC3
:10225000A2E650FA906206E0FAA2E25035A82CE815
:1022600090620BF0F508852D0974047808122C4053
:10227000E508906207F0852C08852D097409780817
:10228000122C40E508543E906209F0906201E0D2C1
:10229000E0F07829EA46F6906202E0F50875090058
:1022A00074047808122B847829E50846F608E509B5
:1022B00046F6906204E0F508750900740978081282
:1022C0002B84782AE50946F6EAA2E05003752B0133
:1022D00074065A6003752B00E58BA2E55006758BDA
:1022E000DF752B0012472F758B00C2E87F02022694
:1022F0001CC3E498F8E499F91223328026C3E49AC7
:10230000FAE49BFBE920E7E9122332E498F8E49928
:10231000F922C3E498F8E499F9122332E498F8E436
:1023200099F9C3E49AFAE49BFB22EB20E7CFE9207A
:10233000E7E0B90010BB0008E88AF084F8AAF022B0
:10234000E4FBC8FA22EB70227B10C833C8C933C93A
:10235000335007C39AC3DBF280069A50012ADBEAA6
:10236000C833F4C8C933F4C9FA2275F008E4C83395
:10237000C8C933C933C99AC99B5004C92AC93BD5B6
:10238000F0ECFBC833F4C8E4C9FA22080808EAC034
:10239000E0EBC0E086F0E7A4FA180986F0E7A42A8B
:1023A000FA180986F0E7A42AFA180986F0E7A42AA1
:1023B000FA1986F0E7A4FBE5F02AFA190886F0E797
:1023C000A42BFBE5F03AFA190886F0E7A42BFBE50D
:1023D000F03AFA18180986F0E7A4C5F02BFBE43AA6
:1023E000FA1908E7C5F0C6A426F6E5F03BFBE43A87
:1023F000FA1886F0E7A4F6E5F00826F6E43B08F6BE
:10240000E43A08F6D0E0FBD0E0FA22122C83B900BF
:102410000302246EE47921780DB800028004F709E4
:10242000D8FCE49004D17861790B8002F0A3D8FC49
:10243000D9FA781A9020867A01BA00028007E493CC
:10244000A3F608DAF9900F31AA82AB839020947832
:10245000CD79018015E493A3AC82AD838A828B830E
:10246000F0A3AA82AB838C828D83D8E9D9E77582E9
:10247000FE75838874061229C27582ED75834974CE
:10248000001229C2E4CFC0E0E4CEC0E0E4CDC0E059
:10249000E4CCC0E075F020C3E633F608E633F60876
:1024A000E633F608E633F6181818EC33FCED33FD86
:1024B000EE33FEEF33FFC3EC9709ED9709EE970972
:1024C000EF97191919400FFFEC97FC09ED97FD09DB
:1024D000EE97FE191906D5F0BEECF709EDF709EEF7
:1024E000F709EFF7191919D0E0FCD0E0FDD0E0FEB4
:1024F000D0E0FF222518C582C0E0E51934FFC5836E
:10250000C0E0E518C3958224F810AF0885831985CB
:1025100082188008858319858218D2AFCEF0A3E592
:1025200020F0A37808E608F0A3DEFAEFF0A3E58137
:1025300024FAF8E608F0A3E608F0A3E608F0A308FA
:1025400008E608F0A3E608F0A315811581D0E0FEA7
:10255000D0E0F8158115811581E8C0E0EEC0E022D9
:10256000C0D02518C582C0E0E51934FFC583C0E09E
:10257000E518C3958224F310AF0885831985821866
:102580008008858319858218D2AFC8F0A3E9F0A32B
:10259000EAF0A3EBF0A37908E709F0A3D8FAECF08E
:1025A000A3EDF0A3EEF0A3EFF0A3D0E0F0A3D0E012
:1025B000F0A3D0E0F0A3E520F0A3E5F0F0A3221211
:1025C000010002020000205104A8160900010203C4
:1025D0000109024300020100801909040000010200
:1025E0000201000524001001042402020524060053
:1025F0000105240100010705820340004009040190
:1026000000020A00000007058402400000070504DC
:1026100002400000DA250000FD25000085198385B1
:102620001882E0C0E0A3E0F9A3E0FAA3E0FBA378FE
:1026300008E0F608A3DFFAE0FCA3E0FDA3E0FEA3B8
:10264000E0FFA3E0C0E0A3E0C0E0A3E0F5D0A3E09A
:10265000F520A3E0A3F5F010AF0885831985821853
:102660008008858319858218D2AFD082D083D0E0CC
:10267000F8D0E03275F0108E218F22858226858376
:1026800025851882851983E0CEA3E0CF8526828533
:102690002583EBC9EAC8EDCBECCAC3E833C8E933FC
:1026A000C9EA33CAEB33CBC3EA9EF524EB9FF5238B
:1026B000B35004AB23AA24EC33CCED33CDD5F0DA00
:1026C000AE21AF2222D083D082ECC0E0EDC0E0E4A6
:1026D00093A3FCE493A3FDED4C600D1227E0EC24E2
:1026E000FFFCED34FFFD80EFE493A3FCE493A3FD36
:1026F000ED4C600D122881EC24FFFCED34FFFD80D1
:10270000EFD0E0FDD0E0FCE493A3C0E0E493C0E0B0
:1027100022D083D082E9C0E0E493A3C386F0C5F061
:1027200095F0F908E493A386F0C5F095F0700BE4FA
:1027300093A3C3994005E9048002A3E475F002A4C1
:102740002582F582E5F03583F583D0E0F9E493A3A3
:10275000C0E0E493C0E022851983851882E0A3FEDF
:10276000E0A3F5207808E0A3F608DFFAE0A3FFE095
:10277000A3C0E0E0A3C0E0E0A3C0E0E0A3C0E0E0CD
:10278000A3C0E010AF088582188583198008858270
:1027900018858319D2AFD083D0820229C8C0E074D3
:1027A000F2122560A2AFE433FED2AFE58AA2E25076
:1027B0000790087EE0D2E0F0E58AA2E35007900897
:1027C0007EE0D2E1F0758A00C2EB7A107B009008BF
:1027D0007AE0F9123C1FEEA2E092AF7F0102261CC4
:1027E000C0E0C3E49396087401939618400FE493F5
:1027F00066700808740193661870007019A3A3C36B
:10280000E49396087401939618A3A3400DD0E0D0EA
:10281000E0D0E0022701A3A3A3A3A3A3D0E02274E6
:102820000480087403800474028000CCC0E0EDC012
:10283000E0E518C39CCCAD1950011D10AF068C18F3
:102840008D1980068C188D19D2AF122944D0E0FD65
:10285000D0E0FC2274028000CCC0E0EDC0E0E518BE
:10286000C39CCCAD1950011D10AF068C188D19807A
:10287000068C188D19D2AF122922D0E0FDD0E0FCD1
:1028800022C0E0C0F088F0E49366700808740193F9
:1028900066187000A8F0A3A3700BD0F0D0E0D0E0D1
:1028A000D0E0022701A3A3D0F0D0E022D083D082D1
:1028B000CCC0E0E493A360061229651470FAE49397
:1028C000A36006122A7B1470FAD0E0FCE493A3C044
:1028D000E0E493C0E022C0E074F212256075890044
:1028E000C2C5900F29E0700E7A007B109006B2E00E
:1028F000F9123C1F80031248737F0102261CC0E0BE
:10290000C0D0E8C0E0E9C0E0E5A8D2AFC2C7751A00
:1029100000A2E7A2E792AFD0E0F9D0E0F8D0D0D0A3
:10292000E032CAC0E0E493A3C582CCC582C583CDA2
:10293000C583F0A3C582CCC582C583CDC583DAE546
:10294000D0E0CA22CAC0E0E0A3C582CCC582C5835C
:10295000CDC583F0A3C582CCC582C583CDC583DA3E
:10296000E6D0E0CA22C0E0E493A3D39C5010E493E5
:10297000A3C39C400AD0E0D0E0D0E00228C9A3A3C2
:10298000A3D0E0227009080808226016181818C69B
:10299000C333C608C633C608C633C608C633C6D551
:1029A000E0EA22C008C3E096F50808A3E0964208D2
:1029B00008A3E096420808A3E09645087001D3D02A
:1029C0000822C09FF59FE473D09F22D083D082C09D
:1029D0009FE493C0E0740193C0E0740293F59F22DA
:1029E0007404800A74038006740280027401C0E0DB
:1029F000F4041229FBD0E0122C5E222518F5821077
:102A0000AF08F518400215198008F518400215198D
:102A1000D2AF85198322C0D0251810AF08F5185001
:102A20000205198008F51850020519D2AFD0D0223E
:102A3000BB0102E722C082C08389828A83BB000374
:102A4000E08002E493D083D082226016080808C692
:102A5000C313C618C613C618C613C618C613C6D5E0
:102A6000E0EA22C3E0C696F608A3E0C696F608A3FD
:102A7000E0C696F608A3E0C696F622C0E0E493A36B
:102A80006C7009D0E0D0E0D0E00228C9A3A3D0E068
:102A900022BB000EC082C0838A838982F0D083D09B
:102AA0008222BB0101F722251810AF08F518400259
:102AB00015198008F51840021519D2AF22E7667083
:102AC000100809E766700A0809E76670040809E754
:102AD0006622E066701008A3E066700A08A3E0664C
:102AE000700408A3E06622C3E09608A3E09608A35A
:102AF000E09608A3E096A2D265D03322C3E096F018
:102B000008A3E096F008A3E096F008A3E096F02270
:102B1000C3E493960874019396087402939608741C
:102B200003939622C3E697F60809E697F60809E6A6
:102B300097F60809E697F622E026F008A3E036F0BB
:102B400008A3E036F008A3E036F022E627F60809ED
:102B5000E637F60809E637F60809E637F622E657BB
:102B6000F60809E657F60809E657F60809E657F6A3
:102B700022E056F608A3E056F608A3E056F608A3AE
:102B8000E056F622700422600D18C6C333C608C68C
:102B900033C6D5E0F41822E026F608A3E036F6089E
:102BA000A3E036F608A3E036F622E056F008A3E0EC
:102BB00056F008A3E056F008A3E056F022E647F6E8
:102BC0000809E647F60809E647F60809E647F62247
:102BD000E4C396F608E496F608E496F608E496F65A
:102BE00022C6F4C608C6F4C608C6F4C608C6F4C6AB
:102BF00022600D08C6A2E713C618C613C6D5E0F3B7
:102C000022C3E09608A3E09608A3E09608A3E09606
:102C100022C3E7960809E7960809E7960809E796A8
:102C20002275D0007581407518D1751904000224F1
:102C30000BE0F608A3E0F608A3E0F608A3E0F6220E
:102C4000600C08C6C313C618C613C6D5E0F422E646
:102C5000F008A3E6F008A3E6F008A3E6F022CAC055
:102C6000E0E6F0A308DAFAD0E0FA22E0FAA3E0FB0B
:102C7000A3E0FCA3E0FD22EAF0A3EBF0A3ECF0A3B9
:102C8000EDF022E5C754F84401F5C7790122251873
:102C9000F582E43519F58322C2AF75D69F02000094
:102CA000221229CBE8A7031229CB26A8031229CB8D
:102CB00050A8031229CBCEA8031229CB27A90312AF
:102CC00029CB88A9031229CBF7AB031229CBAEADD0
:102CD000031229CB72AE031229CBBCAF031229CB4E
:102CE0009FB2031229CB98B5031229CBA7B50312C3
:102CF00029CB38B6031229CBF5B6031229CB3DB741
:102D0000031229CB86B7031229CBC3B7031229CBF1
:102D100027B8031229CB93B8031229CBAFB80312FB
:102D200029CBE3B8031229CB2EB9031229CB2BBA36
:102D3000031229CBE2BA031229CB71BD031229CBAE
:102D4000B6BE031229CB63BF031229CBF3BF031214
:102D500029CB88C0031229CBC6C0031229CB3DC1A1
:102D6000031229CB9CC2031229CB49C3031229CBDE
:102D700061C3031229CB13C4031229CBD9C6031292
:102D800029CB6DC8031229CB91C8031229CB00802F
:102D9000021229CB1280021229CB6A80021229CB9F
:102DA000D080021229CB5A81021229CB1D82021235
:102DB00029CB6582021229CB9182021229CBD182C2
:102DC000021229CB3883021229CBAD83021229CB00
:102DD000C683021229CBEC83021229CB2A84021269
:102DE00029CB7F84021229CBA684021229CB03852A
:102DF000021229CBCA85021229CB6386021229CB83
:102E0000E686021229CBAE87021229CBF78702127F
:102E100029CB1388021229CB4588021229CBF389CA
:102E2000021229CBBF8A021229CBE48A021229CBD3
:102E3000118B021229CB3C8B021229CB4B8B021235
:102E400029CB568B021229CB018C021229CB688C1C
:102E5000021229CBEB8C021229CBF38C021229CB64
:102E60007B8D021229CBE38D021229CB228E021216
:102E700029CB6390021229CB4A91021229CB7D9172
:102E8000021229CB3F92021229CBFB92021229CBCC
:102E90002D93021229CB9393021229CBB8930212DD
:102EA00029CBC993021229CB3C94021229CBD4948A
:102EB000021229CB2D95021229CB0B96021229CB97
:102EC0003096021229CB3B97021229CB5997021256
:102ED00029CB6C97021229CBC497021229CBD39726
:102EE000021229CB5B98021229CB9C98021229CBA3
:102EF000A998021229CBB298021229CBBD9A0212CC
:102F000029CB1B9C021229CB2B9C021229CB719D31
:102F1000021229CBD89D021229CB149F021229CB71
:102F2000569F021229CB929F021229CBBAA00212FD
:102F300029CB2EA3021229CB42A3021229CB4CA3E8
:102F4000021229CB56A3021229CB60A3021229CB6D
:102F50006AA3021229CB83A3021229CB8DA30212EA
:102F600029CB97A3021229CBA1A3021229CBABA391
:102F7000021229CBD3A3021229CB21A4021229CBFE
:102F80002BA4021229CB36A4021229CB5AA4021276
:102F900029CB7EA4021229CBEEA4021229CB3AA59A
:102FA000021229CB56A5021229CBBCA5021229CBAD
:102FB00003A6021229CB4FA6021229CBBAA60212EF
:102FC00029CB6AA7021229CB3DA9021229CBABA9B2
:102FD000021229CBE8AA021229CB0EAB021229CB8E
:102FE00081AC021229CB24B0021229CB1EB20212EC
:102FF00029CBFEB3021229CB97B4021229CBCBB650
:10300000021229CB6EB7021229CBC0B7021229CB0C
:1030100044B8021229CB5CB8021229CB99BA021229
:1030200029CB83BB021229CBE2BC021229CB41BDC2
:10303000021229CBDABD021229CBACBF021229CB76
:10304000EEC0021229CB0DC1021229CB62C10212BD
:1030500029CB63C2021229CB8BC2021229CBEEC24A
:10306000021229CBE6C3021229CB62C4021229CB79
:103070008CC5021229CBF7C5021229CB35C7021223
:1030800029CB97C9021229CBC8C9021229CB73CC0C
:10309000021229CBC5CC021229CB83CD021229CB37
:1030A0003FCE021229CBA3CE021229CB64CF02124B
:1030B00029CB06D0021229CB6BD0021229CBAAD081
:1030C000021229CBDBD0021229CB45D2021229CB26
:1030D0005A81011229CB9C81011229CB9F840112B4
:1030E00029CBDE84011229CB2A85011229CB368611
:1030F000011229CB9A86011229CBDA86011229CB3B
:103100002888011229CB588B011229CBA58C0112DA
:1031100029CB0398011229CB9998011229CB969BB0
:10312000011229CBD29C011229CB359D011229CB4A
:10313000639E011229CBB79F011229CBA0A00112D7
:1031400029CB20A3011229CB1DA5011229CBAEA5A5
:10315000011229CB8AA6011229CB22A7011229CB61
:103160002CA7011229CB5AA7011229CB0FA80112B3
:1031700029CBEDA8011229CBC4A9011229CB51AA50
:10318000011229CB67AA011229CBC8AA011229CBA7
:10319000F1AA011229CB1EAB011229CB4FAD0112AE
:1031A00029CB2EAE011229CB72AE011229CBDDAE96
:1031B000011229CB9CAF011229CBCEAF011229CB32
:1031C00015B0011229CB48B0011229CB9DB00112D4
:1031D00029CBF2B0011229CBF7B0011229CB4BB1A8
:1031E000011229CB93B1011229CB97B2011229CB3D
:1031F000FCB2011229CB58B3011229CBC9B3011279
:1032000029CBBEB6011229CBC5B7011229CB48B9CB
:10321000011229CB37BC011229CBF7BC011229CBF3
:1032200040BF011229CBE3BF011229CB21C00112FB
:1032300029CBF2C1011229CB05C2011229CB0EC242
:10324000011229CB17C2011229CB2CC2011229CBA2
:103250004BC2011229CB7BC4011229CBD0C401126D
:1032600029CBDAC4011229CBE4C4011229CB40C511
:10327000011229CB95C5011229CBBDC6011229CB5C
:1032800025C7011229CB87C8011229CBD8C8011242
:1032900029CB84C9011229CBA2CA011229CB4DCB5B
:1032A000011229CB67CC011229CB8ECD011229CB7B
:1032B00090CE011229CBA7CE011229CBE4CE011268
:1032C00029CBEECE011229CBF8CE011229CB03CFA8
:1032D000011229CB21CF011229CB63CF011229CBB7
:1032E000C0CF011229CBE5CF011229CBFFCF0112AC
:1032F00029CB7ED0011229CBBBD0011229CBEDD135
:10330000011229CB40D2011229CB5AD3011229CB69
:1033100090D3011229CB24D4011229CB9FD40112BE
:1033200029CB13D6011229CB46D7011229CBF8D7C6
:10333000011229CBBFD8011229CB64D9011229CBA4
:10334000D2D9011229CB87DA011229CBDBDA01129B
:1033500029CB49DB011229CB14DC011229CB37DC44
:10336000011229CB01DD011229CB25DD011229CB68
:1033700047DD011229CBA8DD011229CBE8DF0112BC
:1033800029CBD2E0011229CB7DE1011229CBA2E3A6
:10339000011229CBF0E3011229CB33E4011229CB2E
:1033A0008BE4011229CBE9E4011229CB16E50112C5
:1033B00029CB3AE5011229CB6DE5011229CB97E51E
:1033C000011229CBDEE5011229CB3DE6011229CB02
:1033D00099E6011229CB96E7011229CBFEE80112EA
:1033E00029CB3CE9011229CB65E9011229CBFFE980
:1033F000011229CB49EA011229CB6DEA011229CB2E
:10340000C2EA011229CBDDEA011229CB94EB0112A9
:1034100029CBCDEB011229CB25EC011229CB7BEC7A
:10342000011229CB7CEF011229CBAFEF011229CB7E
:103430006DF0011229CB6AF1011229CBF3F10112CF
:1034400029CBB0F3041229CBE8F3041229CB09F4F9
:10345000041229CB4BF4041229CBADF4041229CB6E
:10346000B7F4041229CBC7F4041229CBFEF40412DA
:1034700029CBC0F8041229CB81FA041229CBA3FC72
:10348000041229CB62FD041229CB2FFE041229CB92
:103490005680041229CB9980041229CB5981041239
:1034A00029CB7882041229CB9F83041229CB5A8519
:1034B000041229CBCD85041229CB9886041229CB7E
:1034C000A987041229CB1088041229CB4C88041236
:1034D00029CBAB88041229CBE488041229CB398983
:1034E000041229CBC289041229CB678A041229CB82
:1034F000388B041229CB128C041229CB9C8C041219
:1035000029CBC28C041229CBEF8C041229CB298D34
:10351000041229CB298E041229CB398E041229CB0F
:10352000898E041229CB968E041229CBAB8E0412FD
:1035300029CBB48E041229CB0E8F041229CB708FA5
:10354000041229CBBA8F041229CBD58F041229CBB0
:10355000FC8F041229CB1990041229CB2590041258
:1035600029CBCE91041229CBE791041229CB6D927D
:10357000041229CB8092041229CB9292041229CBF7
:103580003E93041229CBA994041229CB609604120D
:1035900029CBE696041229CBE896041229CB509742
:1035A000041229CB6E97041229CB0498041229CB5C
:1035B0004198041229CB4498041229CB6F98041225
:1035C00029CBCC98041229CBF098041229CB0E9960
:1035D000041229CB5C99041229CBB59A041229CB89
:1035E0000D9B041229CB5A9B041229CBE19B041298
:1035F00029CB099C041229CB3F9C041229CB4E9C59
:10360000041229CBAC9C041229CB1D9D041229CB9A
:103610005A9D041229CB959D041229CBC09D0412FA
:1036200029CBDA9D041229CBF49D041229CBC89E24
:10363000041229CBD29E041229CB0E9F041229CB4F
:103640001E9F041229CB279F041229CB879F0412A7
:1036500029CB9B9F041229CBA5A0041229CBB8A08B
:10366000041229CBCFA0041229CBE4A0041229CB49
:1036700089A1041229CB05A2041229CBA8A2041205
:1036800029CBB4A2041229CBFAA3041229CB16A485
:10369000041229CB6EA4041229CBAAA4041229CBAC
:1036A000C4A4041229CB26A5041229CBC5A5041253
:1036B00029CB10A6041229CB5CA8041229CB03A99C
:1036C000041229CB9FA9041229CBC5AB041229CB24
:1036D000DDAB041229CBE0AB041229CBECAB041216
:1036E00029CB00AC041229CB08AC041229CB48AC7E
:1036F000041229CB41AD041229CBC4AD041229CB4D
:1037000046AE041229CBC0AE041229CB92AF0412EC
:1037100029CBB4AF041229CB50B0041229CB5CB032
:10372000041229CB87B0041229CB8AB0041229CB0A
:10373000B7B0041229CBCCB0041229CB3BB1041290
:1037400029CB9EB2041229CBB5B3041229CB40B4C5
:10375000041229CB7DB5041229CB4FB6041229CB14
:1037600080B6041229CBACB6041229CBB5B604122C
:1037700029CBE4B6041229CB94B7041229CB4EB856
:10378000041229CBC2B8041229CB5EB9041229CB8A
:10379000E6B9041229CB1CBA041229CB61BA04126F
:1037A00029CB96BA041229CB0FE7041229CB5EE786
:1037B000041229CB96E7041229CB02E8041229CB84
:1037C00052E8041229CBD6E8041229CB1EEB0412CE
:1037D00029CB0FED041229CBBEF0041229CB62F1E4
:1037E000041229CB9DF1041229CBBBF1041229CB81
:1037F0001BF2041229CB43F2041229CB73F20412F8
:1038000029CBA4F2041229CBDBF2041229CB2CF32E
:10381000041229CB78F3041229CB0080051229CB9E
:103820007C80051229CBA280051229CBDA800512F3
:1038300029CB3482051229CB5082051229CB9582DF
:10384000051229CB2483051229CB7D83051229CBB0
:103850005D84051229CB2D85051229CB74850512AF
:1038600029CBD585051229CB6586051229CBBB86C8
:10387000051229CB0487051229CBA387051229CB72
:10388000A188051229CBE588051229CB33890512B9
:1038900029CB5589051229CBFC89051229CBA98A88
:1038A000051229CB12E6051229CB77E6051229CBA2
:1038B00023E7051229CB5CE7051229CB9FF0021202
:1038C00029CB48F1021229CB62F2021229CBE5F290
:1038D000021229CB1DF3021229CBEAF5021229CBE1
:1038E0009DF7021229CB58F8021229CBC9F802120F
:1038F00029CBE9FB021229CB7FFD021229CB1991BA
:10390000061229CB4191061229CB3592061229CBFA
:10391000D5C4051229CB5AC5051229CB71C505128C
:1039200029CBE6C5051229CB44C6051229CB6DC6A5
:10393000051229CBEAC6051229CB8DC7051229CB62
:10394000F2C7051229CB56C8051229CB77C8051234
:1039500029CBA8C8051229CBC6C8051229CBEDC8AA
:10396000051229CB1DC9051229CB63C9051229CB24
:10397000C9C9051229CBF68A051229CBA58B0512D8
:1039800029CBC58B051229CBE58B051229CBF98BE9
:10399000051229CB598C051229CB898C051229CB0C
:1039A000068E051229CBAF8E051229CB918F0512F9
:1039B00029CBE08F051229CB2490051229CB8990C1
:1039C000051229CBF590051229CB1691051229CBAA
:1039D0009991051229CBCE91051229CB3E92051261
:1039E00029CBE493051229CBB594051229CBF79482
:1039F000051229CB5195051229CB6F82061229CBCE
:103A00007982061229CB9A82061229CB34F201124E
:103A100029CB55F4011229CB8BF5011229CB72F772
:103A2000011229CBCAF7011229CB8BF8011229CB3D
:103A3000CBF8011229CB00F9011229CBCEF90112E2
:103A400029CB4AFA011229CBBDFA011229CB3DFB41
:103A5000011229CB3FFB011229CB41FB011229CBDB
:103A600043FB011229CB60FB011229CB80FB011221
:103A700029CBAAFB011229CBC6FB011229CB4AFC98
:103A8000011229CB97FC011229CBC7A3031229CB22
:103A90002EFE011229CB10FF011229CBC1C803123F
:103AA00029CBE7C8031229CB5CCC031229CBB8CCB5
:103AB000031229CB0CCD031229CB31CD031229CB14
:103AC00052CD031229CB9CCD031229CBD4CD0312A6
:103AD00029CBF3CE031229CB14CF031229CB43CF2A
:103AE000031229CB86CF031229CB19D0031229CB7D
:103AF00035D0031229CB92A7031229CBC7D10312C9
:103B000029CB49D2031229CB3FD3031229CB1AD494
:103B1000031229CB4CD4031229CB9FD4031229CBF7
:103B200003D5031229CB69D5031229CBCED50312B5
:103B300029CB3FD6031229CB4FD7031229CB5AD812
:103B4000031229CB2BD9031229CB60D9031229CB1D
:103B5000B7D9031229CB73DA031229CBA1DA0312E6
:103B600029CB2CDC031229CBA4DC031229CBD7DC14
:103B7000031229CB13DD031229CB2CDD031229CB31
:103B8000E6DD031229CBC5DE031229CB79DF031250
:103B900029CB0EE0031229CB9DE0031229CB20E1B3
:103BA000031229CBC3E1031229CB8EE2031229CBE6
:103BB0005EE3031229CB12E4031229CBE67800124C
:103BC00029CB3279001229CBA079001229CBC179F7
:103BD000001229CBD879001229CB887A001229CB80
:103BE000917A001229CBE47A001229CB0D7B0012C6
:103BF00029CB227B001229CB8B7B001229CB1C7C8A
:103C0000001229CB587C001229CBA47C001229CBAE
:103C10000B7D001229CB447D001229CBCA7D0012F6
:103C200029CB097E001229CB4A7E001229CB817E46
:103C3000001229CB937E001229CBA57E001229CB3E
:103C4000D87E001229CB187F001229CB417F0012A9
:103C500029CBA4CF051229CBE7D0051229CB0DD152
:103C6000051229CB1ED1051229CB37D3051229CB3A
:103C700056D3051229CBBC84061229CBF284061236
:103C800029CB3D85061229CB8B86061229CB48D23B
:103C9000041229CB93D3041229CBCFD3041229CBFE
:103CA00086D5041229CBAFD5041229CB47D80412EC
:103CB00029CB87D8041229CB28DA041229CBC2DAFF
:103CC000041229CB2ADB041229CBB7DB041229CB3F
:103CD000EFDB041229CB2FDC041229CBC2DD041246
:103CE00029CB61DF041229CBB0E1041229CBDEE13C
:103CF000041229CB0AE2041229CB13E2041229CBC5
:103D00006EE2041229CB04E3041229CB2DE604123F
:103D100029CBB2E6041229CBCD99061229CBE3991F
:103D2000061229CBED99061229CB3D9A061229CB12
:103D30005FD9051229CB78D9051229CB1DDA0512D6
:103D400029CB5DDA051229CB76DA051229CBAFDA59
:103D5000051229CBFCDA051229CB2EDB051229CB63
:103D600070DB051229CB73DD051229CBDDDD0512D1
:103D700029CBDDFE041229CB32FF041229CB8BFFA5
:103D8000041229CB8598061229CBD198061229CB8B
:103D90001399061229CB2399061229CBB8D2021205
:103DA00029CB13D3021229CBC5D3021229CBDBD4E2
:103DB000021229CBC7D5021229CB9FD6021229CBDA
:103DC000B4D6021229CBFED6021229CB54D7021246
:103DD00029CBC0D7021229CBD3D7021229CB2BD89B
:103DE000021229CBA4D8021229CBBCD8021229CBAB
:103DF0005ADB021229CB6FDC021229CBCADC021279
:103E000029CB10DD021229CB2CDF021229CBB6DF21
:103E1000021229CB9DE0021229CBDDE0021229CB50
:103E2000FCE0021229CB47E1021229CB5DE102122C
:103E300029CB6AE1021229CBA3E1021229CBB5E119
:103E4000021229CB9AE2021229CBA5E2021229CB57
:103E5000FCE2021229CB54E3021229CBB1E3021295
:103E600029CBE1E4021229CB12E5021229CB8FE71C
:103E7000021229CBC0E7021229CB5DE8021229CB3E
:103E8000D9E8021229CBAAE9021229CBE6E90212EB
:103E900029CB52EA021229CB31EB021229CB6AEB71
:103EA000021229CB74EB021229CB77EB021229CB39
:103EB00081EB021229CB9DEB021229CB1BEC0212E3
:103EC00029CB54EC021229CB70EC021229CB9CECCA
:103ED000021229CBD7EC021229CBF2EC021229CB29
:103EE000FDEC021229CB3EED021229CB51ED02125C
:103EF00029CB6CED021229CB9CED021229CBB9ED36
:103F0000021229CB02EE021229CB4AEE021229CB71
:103F10004DEF021229CB7D94061229CB8E94061206
:103F200029CB1795061229CBC3AF051229CB12B0A6
:103F3000051229CBCFB1051229CBADB3051229CB80
:103F4000F1B3051229CBE6B4051229CB17B6051239
:103F500029CB39B6051229CB95B6051229CB19B74D
:103F6000051229CBA34F001229CBC54F001229CB34
:103F70001551001229CB5E51001229CBB35100120A
:103F800029CB2F52001229CB9852001229CBDF5295
:103F9000001229CB5853001229CB0354001229CB0D
:103FA0008B54001229CBCC54001229CB2C5900126F
:103FB00029CB505B001229CB895B001229CBC85B4F
:103FC000001229CBEF5C001229CBFB5F001229CB3A
:103FD000A860001229CB6562001229CBAF630012E2
:103FE00029CBB364001229CB2665001229CBF565D5
:103FF000001229CB7E66001229CB8E66001229CBD7
:104000004267001229CB7068001229CBD66A0012D1
:1040100029CB896D001229CB676E001229CB956FD1
:10402000001229CB1A73001229CB2A73001229CB54
:104030006174001229CB0075001229CB0B76001297
:1040400029CB9C76001229CBCB77001229CB49785B
:10405000001229CBB4E4031229CB71E5031229CB5A
:10406000EEE5031229CBFDE5031229CB86E6031208
:1040700029CBDDE6031229CBE8E7031229CB11E8AF
:10408000031229CBB9E8031229CB0CE9031229CB7F
:1040900077E9031229CBD6E9031229CBDBEC031213
:1040A00029CB8BED031229CBFAED031229CB94EF28
:1040B000031229CB4CF0031229CBE9F0031229CBD0
:1040C0004AF1031229CBC4F1031229CBCBF203121C
:1040D00029CBB5F3031229CBFBF3031229CB34F41C
:1040E000031229CB48F4031229CB91F4031229CBF4
:1040F00015F5031229CB8BF6031229CB5FF80312B7
:1041000029CB96F9031229CBD5FA031229CBEAFB66
:10411000031229CB97FC031229CB08FD031229CBEC
:1041200002FE031229CBFEBA041229CB6FBB041284
:1041300029CBBDBB041229CB16BC041229CB6EBC03
:10414000041229CBAFBC041229CB66BD041229CBC3
:10415000BBBD041229CB44BF041229CBB8BF041243
:1041600029CBF3C0041229CB1FC1041229CB09C2E9
:10417000041229CB1AC2041229CB30C2041229CB53
:10418000B7C2041229CBDAC2041229CB9EC304128F
:1041900029CBC6C3041229CBDDC3041229CBF7C334
:1041A000041229CB23C4041229CB43C4041229CB03
:1041B00069C4041229CB80C4041229CB59C5041246
:1041C00029CBBBC5041229CBA1C6041229CB24C715
:1041D000041229CB71C7041229CB97C7041229CB2B
:1041E000F7C8041229CBFCC8041229CB39C9041220
:1041F00029CBDCC9041229CB46CA041229CB41CBF6
:10420000041229CB2ACC041229CB5DCD041229CB70
:104210006DCE041229CB15CF041229CB68CF04121E
:1042200029CB7DCF041229CB85D0041229CB2ED1E6
:10423000041229CB93D1041229CB64F4051229CBA3
:104240009FF4051229CB68F5051229CBCEF505128E
:1042500029CB3FF6051229CBD3F6051229CB7A8953
:10426000061229CB5996061229CB6A96061229CB3B
:104270000A97061229CBECFF051229CBDBFF0512AA
:1042800029CB7095061229CB8095061229CB9895DB
:10429000061229CB4C96061229CB7993061229CB0C
:1042A000FE93061229CB6494061229CBD8970612E6
:1042B00029CBDB97061229CB1498061229CB6798D5
:1042C000061229CB7998061229CB7C98061229CBA5
:1042D00001E2051229CB0FE2051229CB89E2051272
:1042E00029CB6DE3051229CB31E5051229CB96E5E3
:1042F000051229CBF9E5051229CBF87F001229CB4D
:10430000EE86061229CB2687061229CB778806125D
:1043100029CBFB88061229CB26FD051229CBC7FD28
:10432000051229CB05FE051229CB51FE051229CB1A
:1043300015FF051229CB48FF051229CB6FFF051287
:1043400029CB81FF051229CB95FF051229CBA3FFAD
:10435000051229CBA4BE051229CBCCBE051229CB50
:10436000E9C1051229CB3EC2051229CB80C2051234
:1043700029CB94C2051229CBADC2051229CBC5C3E6
:10438000051229CBA1C4051229CBBBC4051229CB28
:10439000A48F061229CBC88F061229CBE18F0612F3
:1043A00029CB2090061229CB5390061229CB83905B
:1043B000061229CB8D90061229CBF590061229CB37
:1043C000F890061229CB0291061229CB0F91061202
:1043D00029CB73F7051229CB9BF7051229CBDCF704
:1043E000051229CBFAF7051229CB15F8051229CBAE
:1043F0007DF8051229CB89F8051229CBE8F80512BA
:1044000029CB14F9051229CB23F9051229CB47F939
:10441000051229CB08FA051229CB15FA051229CB6A
:1044200026FA051229CBB39A061229CBCB9A06128B
:1044300029CBC1CA051229CB2ECC051229CB34CCED
:10444000051229CB4BCC051229CB6CCC051229CBFC
:1044500082CC051229CB96CC051229CB15CD05129D
:1044600029CB7ACD051229CB02CE051229CB7BCEE2
:10447000051229CB54CF051229CB64CF051229CBC5
:1044800073CF051229CB3499061229CB58990612FD
:1044900029CB8099061229CBA899061229CB008036
:1044A000061229CB2780061229CB4880061229CB79
:1044B000AF80061229CB54FA051229CB6DFA0512EA
:1044C00029CB84FA051229CB8DFA051229CBABFA38
:1044D000051229CBB5FA051229CBBFFA051229CB53
:1044E000D2FA051229CB60FB051229CBCFFB0512AE
:1044F00029CBFDFB051229CB4EFC051229CB9FFCD5
:10450000051229CBBAFC051229CBC4FC051229CB14
:10451000D5FC051229CB1BFD051229CB77FF031211
:1045200029CBC8FF031229CB6595051229CB91959C
:10453000051229CBAF95051229CBC295051229CBBF
:10454000DD95051229CB3C96051229CB6A960512FA
:1045500029CB889A051229CBBE9B051229CBF09B4B
:10456000051229CB589C051229CBD59D051229CBC4
:10457000FD9D051229CB129E051229CB229E051204
:1045800029CB629E051229CBAE9E051229CBBE9E79
:10459000051229CBBFFE021229CBCFFE021229CB76
:1045A000EDFE021229CB08FF021229CB2FFF0212C7
:1045B00029CB50FF021229CB6AFF021229CBA2FF9E
:1045C000021229CBC5FF021229CB2497061229CB50
:1045D0006A97061229CB18EA051229CB1FEA0512A1
:1045E00029CB75EB051229CBA5EB051229CBD5EB11
:1045F000051229CB08EC051229CB1AEC051229CBA0
:1046000056EC051229CBBCEC051229CBF8EC0512AF
:1046100029CB3FED051229CB6CED051229CB98ED86
:10462000051229CB9F8C061229CBD68C061229CBDA
:10463000FE8D061229CB018E061229CB048E06129E
:1046400029CB6692061229CBD892061229CB169353
:10465000061229CB5793061229CB8FA7051229CB17
:1046600095A7051229CBE2A7051229CB06AA0512A8
:1046700029CB3EAA051229CBAAAA051229CB77ABD2
:10468000051229CBBCAB051229CBEFAB051229CB08
:1046900079AC051229CB91AC051229CB34AE0512A9
:1046A00029CB2CAF051229CB8AAF051229CBEC9E62
:1046B000051229CB029F051229CBB49F051229CBE5
:1046C000AFA0051229CBA7A1051229CB3FA2051245
:1046D00029CB7EA2051229CBF6A2051229CB58A31D
:1046E000051229CB68A3051229CB8FA3051229CB6C
:1046F000E1A3051229CB74A5051229CB79A50512D2
:1047000029CB9BA5051229CB6F7F001229CB9D7F5A
:10471000001229CBD27F001229CBD47F001229CBE3
:10472000D67F001229CBE77F001229CBE97F001248
:1047300029CBEC7F001229CB0D8B061229CB7B8B6A
:10474000061229CB9D8B061229CBD58B061229CBBD
:104750000B8C061229CB35F1051229CB78F1051205
:1047600029CB96F1051229CBC7F3051229CBFFF30C
:10477000051229CB24F4051229CBB1FF011229CB54
:1047800049B7051229CB1CB8051229CB13B905125C
:1047900029CB24B9051229CB35B9051229CB81B90A
:1047A000051229CB72BB051229CBCFBC051229CB30
:1047B000FFBC051229CBCBBD051229CB28BE0512A3
:1047C00029CBEADD051229CB08DE051229CB4CDE08
:1047D000051229CB72DE051229CB99DE051229CBF1
:1047E000B1DE051229CBC9DE051229CBE1DE0512A7
:1047F00029CB87DF051229CBC5DF051229CBCFDFF7
:10480000051229CBE8DF051229CBF6E0051229CBEA
:1048100011E1051229CB1AE1051229CB23E105127A
:1048200029CB2CE1051229CB36E1051229CB9AE1DF
:10483000051229CBADD4051229CBD4D8051229CB2A
:10484000F0D8051229CBF5D8051229CBEDED0512CC
:1048500029CB03EE051229CB85EF051229CBAFEF4B
:10486000051229CBF7EF051229CB06F1051229CB4A
:104870002E8E061229CB8E9A061229CBD4FF031254
:1048800029CBC7A2031229CB33A2031229CB64A1DF
:10489000031229CB3C9F031229CB119F031229CB72
:1048A000B69E031229CB219D031229CBA89C03128B
:1048B00029CB8F9C031229CB4A9C031229CB3C9C09
:1048C000031229CBE29B031229CB919B031229CB24
:1048D000F79A031229CBA699031229CB2899031220
:1048E00029CB5E98031229CB4697031229CBEA966F
:1048F000031229CBC496031229CB0096031229CBAD
:104900004394031229CBDF93031229CBB0930312F4
:1049100029CBAD93031229CB9E93031229CBEBA68F
:10492000031229CB2AA6031229CB83A4031229CB75
:1049300053A4031229CB27A4031229CB5F9303129C
:1049400029CB3993031229CB3892031229CBF79143
:10495000031229CB03A4031229CBC491031229CB40
:104960005891031229CB2391031229CBC49003122F
:1049700029CBEFA3031229CB6FD0031229CB93903D
:10498000031229CB478D031229CB7C8C031229CB30
:10499000318C031229CB258C031229CB848B031273
:1049A00029CB488A031229CB8387031229CB0F8591
:1049B000031229CBCD84031229CB9783031229CB71
:1049C0002D83031229CB5B82031229CB178203129A
:1049D00029CB0080031229CB6C80031229CBDBA3E7
:1049E000031229CB3280031229CB12FD01000000F3
:1049F00080FBE4738F0001004F08870001004E0820
:104A0000240002008E0F25000200900F26000200F5
:104A1000920F27000200940F28000100960F290032
:104A20000100970F84000400980F860001009C0F7E
:104A30002A0001009D0F2B0001009E0F2C00010099
:104A4000A20F2D00080036082E000100A30F2F0032
:104A50000100A40F30000100A50F31000100A60FD6
:104A6000320001003E08330001003F08340001001D
:104A7000A70F36000100400838000100A80F3900D8
:104A80000100A10F83000200BA0F630001004B0870
:104A9000640001009F0F65000100A00F6D00010080
:104AA0004C08710008002E0866000100B90F430091
:104AB0000100AA0F44000200AB0F45000100AD0F3A
:104AC00046000200AE0F47000800430848000100FE
:104AD000B00F4B000100B10F04000100BC0FA1009A
:104AE0000100BE0F37000100BD0F88000100500813
:104AF0003C00010041083D000100A90F49000200EF
:104B0000B20F670001004D084D000200B40F4E00C7
:104B10000100B60F4F000200B70F3E00010042082F
:104B20000000000000000001363601010001020112
:104B3000000103010001040106060502000007014F
:104B400000340801000F090401010D0100FF0E08E7
:104B5000000017020000190100FF1A0100011B01EB
:104B600000FE1C0100081D0200001F0100012001C1
:104B70000001210200002301000F24020000260191
:104B8000000127010008280200FF2A0100072B016D
:104B900002402C0100002D0100012E0100012F0117
:104BA00000FF30010B1C310800003A0100083B01F6
:104BB000000F3C0100010103710301030103010324
:104BC0000103010322030203010310030003000396
:104BD0000003000300030003000342030003240357
:104BE0000603000300030403120325032303250324
:104BF000230304030403000300030003440300032E
:104C00000003230300036503210035038103000330
:104C1000050300030003000300032503230303002F
:104C20007100300160001100700031022003500457
:104C30008000100061000000140063007300720027
:104C400062004300000013000600000000000400A2
:104C50001200000000000000000004000400370003
:104C600037003C0244000000000000000000650026
:104C700000003500810000000500000083000000F6
:104C800003047104020460041104700402040204A9
:104C90000104020410046104000414046304730496
:104CA00072046204430400041304060400040004B4
:104CB000040412040004000400040004510464000D
:104CC0000004000400044404000400040004000480
:104CD00065040004350481046400050400048304B1
:104CE0000004010171010101010111010101310102
:104CF000010101018001100161013B001400630109
:104D000073017201620143010001130106013D01BB
:104D1000350004011201000100010001000104013D
:104D20000401330133013C0144013201360000012A
:104D300000016501000135008101000105018201CA
:104D4000830100010302710230016002110270024E
:104D50000102020202028002100261023A004100D6
:104D600063027302720262024302000213023800FD
:104D7000000200020402120200020002000200020D
:104D800004020402370037003C02440200023900EA
:104D900000020002650200023502810200020502E3
:104DA00082028302000200009340130003400100CE
:104DB00093400200853F03008B3F0400913F0500B4
:104DC000973F0600A33F3000C73F3100C13F32008C
:104DD000D33F3300D93F3500DF3F3400E53F360095
:104DE000EB3F1100F73F1400FD3F1500B53F1F00DA
:104DF000BB3FFFFF000036000100060000000F006F
:104E000000000000000000000000000003FFFF00A1
:104E1000000403FFFF0000FFFF0FF4010005C404BE
:104E20000320000100000B00000000000000000350
:104E3000010F00011531064B310845310B6331106C
:104E400085300A7531021B310539310721310CFDDE
:104E5000300D0931648D2EFF000007ECFDFDFDECE7
:104E6000DCDCCCBCACAC9C9C8C7C7C6C6C5C5C5C02
:104E70004C4C3C3C2C2C1C1C03EAF5E5D5D5C5B5A7
:104E8000A5959585857575656555554545353525D2
:104E900025151505D1350136D735DD35FB35EF350F
:104EA000E93507360D3613361F36E335CB35C535B4
:104EB00000160F00000B150B020002220F3300003A
:104EC0000E01030507090B0D0F00020406080A0C6A
:104ED0000D5A6967426565416C6C69616E63653046
:104EE00039CD36DF36E5369535EB368F359B35399E
:104EF0003757375D373F374B374537CF34C93405E0
:104F0000350B35FF34B734003C40423A3F3F392F30
:104F100047300001191618161618230300303017F1
:104F2000181921301B1D1F30303016181920231A74
:104F30001C1E3000034D4C4651181A2505020C0E5C
:104F4000020B040B0A0708000FF5351936513725F7
:104F5000362B362137F136F7360337FD3602040299
:104F6000010101010902DB34E134D534113500BE01
:104F7000040AE8030000E734F9340E003C007F0027
:104F800000000000E8033C0005100C0A03030C09B4
:104F900000040028FF1E1E09050C0815040401105A
:104FA000080803C082C0839007ACE4F0A3F07CD56E
:104FB0007D047A217B07124651122E931249CF129B
:104FC0002E99026E0A74F31224F474F5122AA7893A
:104FD000098A088B0AE9705F74026508703E9007C1
:104FE0003C7408F0750C00780C1229ECECF50C7888
:104FF0000C1229ECEBF50C780C1229EC900F98129E
:10500000281F900F9CE0F97C437D08900FBA126E28
:105010001B122EBD7407122A160250D574016508A2
:1050200060030250D890073C7408F07B00AA0AA9DC
:105030000A122EFF0250D5740165096009740265D9
:105040000960030250D8EA60067403650870409056
:10505000073C74021250F9122C6B122EAB900744CD
:10506000E0A2E34010E9700D9007B0E004F06404A2
:10507000700312510374036508705A9007B1E0F889
:10508000740128F0E8C39405404B12510380467424
:1050900001650870437401650990073C702C740A1F
:1050A000F07401122C8EE4F07402122C8E7403F052
:1050B00004122C8EE4F0A3F0A3F0A3F07408122CD9
:1050C0008EE41260891231278025740A1250F91279
:1050D0002C6B122EE1E960179080EB12281F7A01E9
:1050E0007B00900739E0F9123D457404122A1674CA
:1050F0000B122A167F05022757F0900F9CE0F990BB
:105100000F9822900F98E4F0A374F8F0A374FFF0C6
:10511000A37407F02274F61224F4E9FFEAFE7AD1B0
:10512000F9123BFB8A828B83E5824583702A7A02DF
:105130007B00123BDDEA4B700E7A107B0090073942
:10514000E0F9123C1F80148A828B8374D1F0EFA3A4
:10515000F0EEF9123BE98003EFA3F002535374F72A
:105160001224F4890890069B12772180288E828F62
:1051700083A3A31263A160168E828F83A3A3A3E0EF
:10518000F5838882A31263A1FAA908123F6D8E826B
:105190008F83127803FFEE4F70D39006B2E0FAA926
:1051A00008123F6D12323590070B1258DB12322F66
:1051B00002760674F11224F4890A8C0875090075C8
:1051C0000B00740F122C8E12607F7411122C8E1231
:1051D0005904804AE50E125280F50CA3E0F50DE566
:1051E0000BC333FEE433FFEA2EF582EB3FF583E099
:1051F000650C7004A3E0650D7019E509C333FEE486
:1052000033FFEC2EF582ED3FF583E50CF0A3E50DC1
:10521000F00509050EE50EC3950840B8050BE50B32
:10522000C3950A5005750E0080EBA909026D38740C
:10523000F41224F4890B7D00740C122C8E12607F02
:1052400080010DEDC3950B5032750A008002050AEE
:10525000E50AC39C50ECEDC333FEE433FFEA2EF5C0
:1052600082EB3F125290F509E50A125280650870F0
:1052700004A3E0650970D7790180027900026AC24F
:10528000C333FEE433FFE82EF582E93FF583E022E5
:10529000F583E0F508A3E02274F61224F412533AE1
:1052A0007003A3E06D70177508427509077808123E
:1052B00029E8EEFA1240997402122A16801F750826
:1052C0000275098078081229E88C088D097808127F
:1052D00029E81253261240BD7404122A16807474F1
:1052E000F61224F412533A7003A3E06D7017750898
:1052F0004F75090778081229E8EEFA12409F7402E8
:10530000122A16801F75080375098078081229E88B
:105310008C088D0978081229E81253261240BD74B2
:1053200004122A16802D125334EF12609EFD7C80E9
:1053300012672F22EE240EF58222126663FAA3E092
:10534000F9EA2400FCE439FD90070BE06C227402BA
:10535000122A167F0202275774F61224F474FE12E2
:105360002AA7EAFEEBFF851882851983E4F0A312D1
:105370005B48126675E0FCA3E0FBECFA8882898347
:10538000A3A3E0F9750900750800600574FF697052
:1053900005750882804390070BE06A7003A3E06BF9
:1053A0007020851882851983AA82AB831237E7E9BA
:1053B000F509851882851983126ACD701C750883DA
:1053C000801790084EE060046401700575088180C4
:1053D00008E06402700375088085188285198312BD
:1053E0005904A908EEFAEFFB1240A5E50960118502
:1053F0001882851983126ACD6006126E15123C85DB
:1054000002534E74F21224F4EAFEEBFF750A0075A3
:105410000B00125477123235EA65087003EB650908
:1054200070121237F9E914F50A79017A787B0712BC
:1054300037FF8003750B801275C8F50C780C1229A4
:10544000EC750C78750D07780C1229E8780A12298A
:10545000EC78081229E8E50BF50878081229EC1217
:10546000651AF582EF1272457A057B801240AB74A3
:1054700007122A1602626012774D126083888289B1
:1054800083127832F508E439F5092274F61224F40F
:10549000E9FE7F00802E8A828B83125292F9E50802
:1054A0002400E439F509EF33F8E433F9EC28F58208
:1054B000ED39F583E508F0A3E509F0EA2402FAEBFB
:1054C0003400FB0FEFC39E40CD02535374E8122407
:1054D000F474FB122AA78A168B1785188285198304
:1054E000E4F07403122C8EE4F0A3F004122C8EE48A
:1054F000F0127458F50AA3E0F50B850A82F58312C1
:10550000782EFEE439FF850A82850B83A3A3E0FA97
:10551000850A82850B83A3A3A3E0F9EAF508E439A1
:10552000F509E50A2404F50AE50B3400F50BEEFA5B
:10553000EFFB1232D1E964016016EEFAEFFB123292
:10554000D1E9703D90070BE06E7003A3E06F60310E
:10555000125CDF1229ECE4F508F50978081229E855
:1055600078081229EC90070B122827750880780814
:105570001229EC1258E11240AB7407122A16025895
:10558000D112590A8810602EC333FAE433FB123C5F
:105590007F7403122C8E1258DB7403122C8E126A45
:1055A000CD60137403122C8E1258FCA910123F9D6B
:1055B0008A0A8B0B800375100012590A880F602A23
:1055C000C333FAE433FB123C7F7401122C8E125861
:1055D000DB7401122C8E126ACD600F7401122C8EB6
:1055E0001258FCA90F123F9D8003750F0090069B77
:1055F000805D850A82850B83A3A3A3A3A3A3A3A392
:10560000E4F0A3F0AA0AAB0B851482851583A3A34B
:1056100012591A1263A1F9123BE98512828513838C
:10562000E0C0E0851882851983E0F8747828F58257
:105630007407127745D0E0126AD104F0E511A2E0B8
:105640005007AA12AB13123C85851482851583E09E
:10565000F514A3E0F515E5144515700302583E85D1
:105660001482851583A3A31263A160DD851482854E
:105670001583A3A3A3A3A3A3A3A3E0A2E050CA8579
:105680001482851583A3A3A3A3126ACD85148285F2
:105690001583A3A3601F1263A1FA79018514828583
:1056A0001583A3A3A3A31263A61249F28A128B1334
:1056B000751101800F12591AA3A3E0F512A3E0F5AA
:1056C00013751100E5124513700302563C851282D2
:1056D000851383A3E065087004A3E06509600F7477
:1056E000FF6508700474FF6509600302563C85126B
:1056F00082851383A3A3A3A3A3A3A31228278512A0
:1057000082851383A3A3A3A3A3A3E0FC7405122C97
:105710008E126E1BA910123F7F7402122A16E970B6
:105720003C851282851383A3A3A3A3A3A3A3A3A34E
:10573000A3122827851282851383A3A3A3A3A3A35F
:10574000A3A3A3E0FC7403122C8E126E1BA90F12EC
:105750003F7F7402122A16E9700302563CE50F25BA
:1057600010C333240AFA7B00123BDD8A0A8B0BEA52
:10577000450B700302561A8A828B8374D2F0851609
:1057800082851783A3A312607F8A828B83A3A312CF
:1057900060A28A828B83A3A3A3A3E510127838E5C5
:1057A0000FF0E510603DEA2405FAEB3400FBE50A52
:1057B000240AF8E50B3400F98A828B831260A27404
:1057C00003122C8E12591F1229E4E510C333FCE496
:1057D00033FD8A828B83126E1B123BB97403122A2B
:1057E00016800D8A828B83A3A3A3A3A3E4F0A3F066
:1057F000E50F70030255F2E510C333F8E433F9E521
:105800000A28F8E50B39F9E8240AFAE93400FB859F
:105810000A82850B83A3A3A3A3A3A3A3A31258DB8C
:105820007401122C8E12591F1229E4E50FC333FCA8
:10583000E433FD123BB97403122A1602560485188C
:1058400082851983E06027125CDF1229EC750878E5
:1058500075090778081229E87403122C8E125CE986
:105860001229EC90070B1228277508008029EEFA00
:10587000EFFB1232D1E9702F125CDF1229EC7508B0
:105880007875090778081229E87508007808122940
:10589000EC90070B12282778081229EC1258E11215
:1058A00040AB7407122A167403122C8E126ACD6054
:1058B0000B7403122C8E126E1B123C857401122C79
:1058C0008E126ACD600B7401122C8E126E1B123C6C
:1058D000857405122A167F10022757EAF0A3EBF011
:1058E00022E5162402FCE5173400FDE516240FF529
:1058F00082E51712609EF97A067B8022125904AA6B
:105900000AAB0B22E0FCA3E0FD22850A82850B8313
:10591000E0F8A385820A85830B221263A6A322E006
:10592000F50CA3E0F50D750E00780C2274F112242D
:10593000F474F4122AA78A088B09ECFEEDFF740BAD
:10594000122C8E7403F0122C8EAA82AB8312465155
:1059500012322FEAFCEBFD7403122C8EAA82AB8369
:1059600012464BE9600A125B186010E06401600B9C
:105970008518828519837484025ACD8E828F83A301
:10598000A3A3A3A3A3A3A3E06013F46010125B1866
:105990007016EE24141275CB6003F4700B85188218
:1059A0008519837482025ACDE508240CF582E50935
:1059B0001275CE64217002A3E06003025AA4851818
:1059C00082851983748C125B4864036003025A8ECB
:1059D0007401122C8EAC82AD8312624012494BE9E5
:1059E0006003025A8E123F018A0A8B0BEA450B7044
:1059F00003025ACE8E0C8F0D750E00780C1229E41E
:105A00007C157D00123BB97403122A168508828525
:105A10000983A3A3E50A2415FCE50B3400FD7409F2
:105A200012294412722B1275CEC0E0E50A241EF52D
:105A300082E50B127745D0E0126091C0E0E50A24C0
:105A40001FF582E50B127745D0E0F0E50A2420F53A
:105A500082E50B1277457405F0EE240BFEEF34005F
:105A6000FFEEFAEFFB1238957D007C007900EEFA2C
:105A7000EFFB1240639080EB12281F7A007B10909E
:105A80000739E0F9123D457404122A168078125B3A
:105A90000B1229EC125B211249697401122A16E9D2
:105AA000702C8014125B0B1229EC125B21124963DB
:105AB0007401122A16E9700D851882851983E4F0A5
:105AC000123ED180098518828519837488F012727C
:105AD0002B125B101229EC7401122C8E85820A8520
:105AE000830B780A1229E8E508240CF582E50912EF
:105AF000624F4480F50B780A1229E81265DE1240E5
:105B0000577405122A16740C026D35EE126D3EEFB5
:105B100012609EF50A780A22125CCA12609E640323
:105B200022EE240BFCEF3400FD8E828F83A3A3A30F
:105B3000A3A3A3A3A3A3126E588E828F83A3A3A3B0
:105B4000A3A3A3A3A3E0F922F0125CCA12609E22D1
:105B5000C082C08374F3122AA7851882851983E452
:105B6000F004122C8E1258DB7403122C8EAA82AB16
:105B700083122DC7851882851983AA82AB83122DC3
:105B8000FD740D122A16026E0A74F61224F41266BF
:105B90005FFAA3E0F9EAF890074AE058F508A3E0B5
:105BA00059F509E5084509601C78081229E89007AD
:105BB0000B1228271275C8FD7C0012672B1240B704
:105BC0007404122A1602535374F41224F474FF124C
:105BD0002AA7EAFEEBFF851882851983E4F0900876
:105BE00042E07003025CC5EE240B1275CB640170B9
:105BF00003025CC58E828F83A3A312607FEE2415FF
:105C00001275CB687003A3E0696003025CC5125C87
:105C1000CA12607CE8FAE9FB88828983A3A3A3A364
:105C2000A3A3A3A3E0FC88828983A3A3A3A3A3A324
:105C3000A3A3A3E0F9EC2400F508E439F509EC4549
:105C4000096010EC9471E99408500890084EE064E3
:105C500002700A85188285198374808037122E3964
:105C60008A0A8B0BA80AA90BE849602088828983DD
:105C7000A3A3A3A3E014C394025011E82412125C5E
:105C8000D1E82414125CD1123ED180098518828596
:105C900019837481F0125334EF125CE61229EC740C
:105CA00001122C8E85820885830978081229E875EF
:105CB000081F75098078081229E812650F124057ED
:105CC0007405122A167401026ABFEE2413F582EFDE
:105CD00022F582E9127753E508F0A3E509F022E501
:105CE00016125335E517127753E0F5087808227439
:105CF000EA1224F474DB122AA78A148B1575120099
:105D000075130012639BF50E851882851983AC828A
:105D1000AD837A007B00799C122F117A04790012EE
:105D20002E0FEAF50C851882851983E0250CF0F812
:105D3000E50EC3984003025F34E0C3950EF509C336
:105D400094044003750903E50975F01AA4FAABF051
:105D5000123C7F8A128B13EA45137003025F37757A
:105D60000D00AE12AF13850E08025DF6125F8B12A6
:105D70003BC5850A82850B83A3A3A3A3E070398565
:105D80000A82850B83126ACD701212624912742541
:105D9000EE2418F582EF127745E48016125F9AF030
:105DA000900562E014C0E0EE2418F582EF1277450A
:105DB000D0E0125FD3E4803B900562E004C0E0EEE7
:105DC0002418F582EF127745D0E0125FCBC394031D
:105DD000EE4003025E9212624A126D46125FCB647D
:105DE000017003025E9FEE2415125F9DF0EE2416F3
:105DF000125F9D125FA6E50DC395094003025EC4C4
:105E0000E508C3950C4003025EA985080AAA0A7B2F
:105E100000122E758A0A8B0B050890054F125FB28F
:105E2000124651850A82850B8312607F125F7D12B4
:105E300074DE125FE0850A82850B83A3A3A3A3A36C
:105E4000A3A3A3A3A3E0C0E0EE2419F582EF127789
:105E500045D0E0F07401122C8EE4F0850A82850BA7
:105E60008312607F7402122C8E1260A27401122CB5
:105E70008EAA82AB83122DEBE964016003025D6C94
:105E80007404122C8EAC82AD83125F9112465102C3
:105E90005D72125F9B125FCB64036003025DE612CA
:105EA0005F84127745E4025DECE50CC3950E400576
:105EB0007508008016E50EC3950CF508800D125F7D
:105EC0009A125FA6E50DC39509506C740E122C8EC4
:105ED000AC82AD8385080AAA0A7B007987122F114C
:105EE00005087418122C8E125FB2124651125F8B85
:105EF000123BC5EE2412F8EF3400F9740E122C8E0A
:105F0000126E1B88828983EAF0A3EB125FD37403BD
:105F1000125FE0741D122C8EE0C0E0EE2419F582B1
:105F2000EF127745D0E0126D7A70931262491277C2
:105F300045E4808D750900750A00780A1229EC780D
:105F4000121229E878091229ECE50EF509780912F0
:105F500029EC7405122C8EE0FD7C00127233124085
:105F6000F37405122A16E51245136007AA12AB1343
:105F7000123C857425122A167F0E022757EE241232
:105F8000F582EF22EE2415F582EF227C087D007960
