:020000040000FA
:10000000020DA5022003FFFFFFFFFF02200BFFFFF1
:10001000FFFFFF020583FFFFFFFFFF02201BFFFF23
:10002000FFFFFF022023FFFFFFFFFF02202BFFFF48
:10003000FFFFFF022033FFFFFFFFFF0205A7FFFFC7
:10004000FFFFFF022043FFFFFFFFFF02204BFFFFE8
:10005000FFFFFF022053FFFFFFFFFF02205BFFFFB8
:10006000FFFFFF022063FFFFFFFFFF02206BFFFF88
:10007000FFFFFF022073FFFFFFFFFF02207BFFFF58
:10008000FFFFFF022083FFFFFFFFFF02208B902076
:1000900000000100000000C80300FFFFFFFF000098
:1000A000040074F7120B3178007900801B749225DC
:1000B00008F582740312024C90041212025D40058E
:1000C000900412E4F01202439004121201B560078A
:1000D000C3E89CE99D40D6E8FAE9FB7F02020C9652
:1000E00074F5120B31900496E0FEA3E0FF8F08EE4A
:1000F000C39508F895E0F9EFC39EE8500B1203454D
:10010000700B78007900801312034F50F57A007B52
:1001100000803BE004F0D2E9120243C3E89CE99D71
:1001200050288A828B83E0C0E0900497E0FE74162A
:100130002E12032CD0E0120335900498E4F09004C2
:1001400097E0C3947F40CCE480CBE8FAE9FB7F04DE
:10015000020C968003120166A28B40F9A2E95005B9
:1001600012018F80F722C082C083E5C1C28BC0E03C
:10017000900413E0F8749228F5827403120330D0CF
:10018000E0F09004131202564002E4F002056A7493
:10019000F7120B31C2E99004961201B5601474167F
:1001A000250812032CE0F5C1900496120256400275
:1001B000E4F00200DBE0F508A3E065082274F71222
:1001C0000B317800790090051BE0705BA3E070575D
:1001D00075F900C28FC284A28340FCA28F4004A2A2
:1001E0008350F8E5F9C28FA2835004D2848038C0CE
:1001F000E0E0FE749B2EF5827404120330D0E0F030
:1002000090051C12025640D3E4F080CF749B250861
:10021000F582740412024C90051B12025D40059099
:10022000051BE4F012024390051B1201B56007C3E1
:10023000E89CE99D40D6E8497006E4F090051BF083
:100240000200D7E8240108E93400F922120330E063
:100250008A828B83F022E004F0C3948022E00412AF
:100260000339C394802274F8120B3190059EE0FF8D
:100270008F82A88290059DE0FEEFC39EE0500DC3E3
:1002800098F895E0F91203447012800CC398F89521
:10029000E0F9E812034F4004EC4D70077A007B0050
:1002A0000203278A828B83E0F5F9A3AA82AB8378C5
:1002B0000179008006E004F0120243C3E89CE99D46
:1002C00050278A828B83E0C0E090059EE0FE741D7B
:1002D0002EF5827405120330D0E012033590059E8E
:1002E000E0C3947F40CFE480CEC28FA28340FCC2A3
:1002F00084A28F4004A28350F890059D12035CE015
:10030000F5F9C28F90059DE0FAA3E06A90059D7013
:100310000512035C80051202564002E4F0A28350ED
:10032000D0D284E8FAE9FB7F01020C96F5827404CE
:100330003400F5832212033922F08A828B83A3AA28
:1003400082AB8322E824FF18E934FFF9E84922242C
:100350007FF8E93400F9C3E89CE99D22E0FA741DB6
:100360002AF58274051203302274FF120D43120421
:10037000A21206D8E9700302043D7E00900390E0CB
:1003800064017011C2849003917401F07508388E75
:10039000098E0A8009D2AF8E088E09750A268E0B47
:1003A000900390E070031201537C017D0085188258
:1003B000851983AA82AB8312053D8B0DEA450D603A
:1003C00012E06410602CE064EF70088E088E098ED5
:1003D0000A8E0B85080C85090D850A0E850B0F907A
:1003E00005AB7808120D6EE50C450D450E450F70F6
:1003F000AF0E900390E064017009D284900391E401
:10040000F08002C2AFEEA2E05033900390E06401AE
:10041000700C75F800C2AB539AF7D2EA800C75865F
:1004200000C2AAC28B539AFBC2E990000174CDF0BE
:10043000022000C2AF75C9AB75C95B80FE750800AC
:10044000750900750A00750B00794E12048C900333
:1004500090E07004D2AF8003E070031201531205E4
:10046000C8E960F41206D8E960EEE0701512015395
:100470009005A37808120D6E9005AF7808120CD67F
:1004800050EBC2AF75C9AB75C95B80FE781075B60D
:100490000FE5B4A2E750FAE5BBC39940F118E87044
:1004A000ED22C082C08353BEFBE59DA2E650FA0058
:1004B00078F879010012034470FA75C6807480657B
:1004C0009E70FA43BE049062707408F0794A120478
:1004D0008C90000174F5F07403F5D575D488A2A052
:1004E000E433900390F0A2E05029D28453F3F75301
:1004F000F3EF53FDF743FD10538FF753F7DF43FC42
:100500002043F10253F5DF75F82043F4F0D2FED218
:10051000AB802853FF3F85FFFF53F1FE43F30C539D
:10052000F2F375868075C480900499E4F0A3F075A9
:10053000C2D875C50B75C402438640802DC082C0E9
:1005400083900390E070051200A2801E900391E05A
:100550006015A28F500BE5F98A828B83F07A0180B7
:10056000027A007B0080031201BDD083D08222C0BA
:1005700082C083900390E070051200E080031202B5
:100580006680E7C0E074F2120B97900001E064CD42
:100590007005122013800BE064F57005120166806F
:1005A00001007F01020BF6C0E074F2120B9790007D
:1005B00001E064CD700512203B800BE064F570050E
:1005C00012018F80010080DA74F7120B3174FF1270
:1005D0000D437E008033900384E0F88518828519EE
:1005E00083E068700D900382E0644D700512083D51
:1005F000E9FE900385E4F0900387F0851882851961
:1006000083E0F8900384E068F07C017D0085188227
:10061000851983AA82AB8312053D8B09EA450970CF
:10062000030206CCE0C0E0900387E0F8900385E089
:10063000FAE82AF8E434001209D9D0E0F0900387F0
:10064000E0601114602014603E14604E1460641465
:10065000608480A7851882851983E064FE709C9071
:10066000038774018094900384E4F08518828519CF
:1006700083E0900386F0C394809003874004E402F3
:1006800005FA74020205FA851882851983E0900341
:1006900082F090038774030205FA85188285198316
:1006A000E0900383F0900386E06019900387740460
:1006B0000205FA900385E004F0F8900386E0686094
:1006C000030205FB90038774050205FAEEF9740135
:1006D000120D107F02020C9674ED120B3174FB1296
:1006E0000D437508047509007808120D9474021200
:1006F0000DD0AC82AD837A907B007904120A2F74FE
:1007000002120D10851882E0F47003A3E0F4600F6C
:10071000851882851983E0F8A3E0F9E8497003029F
:1007200008317402120DD0E0687003A3E069700311
:1007300002080B7508007510007511207512007500
:100740001300800A90059F7810120D59604C750AAD
:1007500001750B00780A120D947406120DD0AC824C
:10076000AD8385100A85110BAA0AE50B5407FB8A95
:100770000C85110D85120E85130F740B780C120D5C
:100780002AA90C120A2F7402120D10E0F9AA08AB64
:10079000091209F38A088B09800C751093751120D2
:1007A0007512007513009005A37810120D6E900558
:1007B000A77810120CD6508CE4F91209F3E4F91260
:1007C00009F37402120DD0EAF0A3EBF0750801757D
:1007D00009007808120D947402120DD0AC82AD831A
:1007E0007A247B08120AB47402120D10750804787A
:1007F00008120D947402120DD0AC82AD837A907BF6
:10080000007904120A2F7402120D101209E5120D5C
:10081000D0E0687003A3E06970178518828519839A
:10082000E0F47003A3E0F46008E849600479018013
:100830000279007405120D107F0C020C9674F312ED
:100840000B3174FC120D43900306E0FAA3E0F8E4C8
:10085000C8F9EA2400FEE93408FF750A018809880E
:10086000088E0C8F0D7409780C120DB4A90CEEF5DE
:100870000CEF5401F50D900383E014600914602C13
:10088000146069020985EA450D7003120B1A750C94
:1008900010750D00780C120D947C087D03EEFAEFB4
:1008A000FB120AB47402120D10020985E9C394798F
:1008B0004006750901020985750A40750B00780A22
:1008C000120D947C097D037402780C120D81AA0C20
:1008D000AB0D120A2F7402120D10900307E0A3F063
:1008E000900306E0A3F0750A43020985750C0475B0
:1008F0000D00780C120D947402120DD0AC82AD83F1
:100900007A907B007904120A2F7402120D1074027F
:10091000120DD0E0F8A3E0F9851882851983E0680C
:100920007003A3E06960471209E5120DD0E8F0A357
:10093000E9F0750C01780C120D947402120DD0AC14
:1009400082AD837A247B08120AB47402120D1075EA
:100950000C04780C120D947402120DD0AC82AD838D
:100960007A907B007904120A2F7402120D1012097A
:10097000E5120DD0E0687003A3E069700575080109
:100980008003750907900305E0D2E7F0E509A3F0BD
:10099000E50A900303F0744D650AF5097404250A0D
:1009A000FB7A038004E062090AEAF83395E0120951
:1009B000D9EAC39BA2D265D03340EAE509F07401BD
:1009C0002AFC3395E0FD7A027B0312056FA90874B7
:1009D00004120D107F06020C96F9740228F5827439
:1009E0000339F58322851882851983E0F8A3E0F99D
:1009F000740222C008C0097C088A088B09740F7829
:100A000008120DB4EAC333FAEB33FBE9A2E7500452
:100A100074014AFAE508A2E0500874216AFA7410D9
:100A20006BFBE9C333F91CEC70CFD009D0082274FA
:100A3000F5120B318908740F5508F50A750B00740F
:100A40000B780A120D81EA2400F8EB3480F9E824CF
:100A500000E9350BF9E5C7F509A2AFE433F50AC2A1
:100A6000AFE508C4540FFAE5C754F84AF5C7740B4C
:100A7000120DD0E0FAA3E0FB801C88828983E08C11
:100A8000828D83F088828983A3A882A9838C828D3A
:100A900083A3AC82AD83EAFEEBFFEE24FF1AEF34B2
:100AA000FFFBEE4F70D48509C7E50AA2E092AF7F45
:100AB00004020C9674F7120B31ED900388F0ECA34E
:100AC000F0A37462F0A37473F0A3E0541FF07409F0
:100AD000120DD0E0F508A3E0F509E508333354FC26
:100AE00090038DF074067808120DB4E50890038C1D
:100AF000F090038E7412F0A37442F075D1FE75D697
:100B000001EA906271F0EBA3F0906270E0D2E1F044
:100B1000E0A2E740FB7F02020C96C082C083E9C3DB
:100B200033906272F0906270E0D2E0F0D083D082B5
:100B3000222518C582C0E0E51934FFC583C0E0E571
:100B400018C3958224F910AF08858319858218800F
:100B500008858319858218D2AFCEF0A3E520F0A3D3
:100B60007808E608F0A3DEFAEFF0A3E58124FBF8AD
:100B7000E608F0A3E608F0A30808E608F0A3E608F4
:100B8000F0A315811581D0E0FED0E0F81581158124
:100B9000E8C0E0EEC0E022C0D02518C582C0E0E584
:100BA0001934FFC583C0E0E518C3958224F310AF64
:100BB000088583198582188008858319858218D253
:100BC000AFC8F0A3E9F0A3EAF0A3EBF0A37908E73C
:100BD00009F0A3D8FAECF0A3EDF0A3EEF0A3EFF048
:100BE000A3D0E0F0A3D0E0F0A3D0E0F0A3E520F0A4
:100BF000A3E5F0F0A322851983851882E0C0E0A365
:100C0000E0F9A3E0FAA3E0FBA37808E0F608A3DF8D
:100C1000FAE0FCA3E0FDA3E0FEA3E0FFA3E0C0E058
:100C2000A3E0C0E0A3E0F5D0A3E0F520A3E0A3F5A6
:100C3000F010AF088583198582188008858319858F
:100C40008218D2AFD082D083D0E0F8D0E032120D3B
:100C5000DFB90003020C90E4900302789E790380D0
:100C600002F0A3D8FCD9FA90059FAA82AB8390002A
:100C70008E781579018015E493A3AC82AD838A82C6
:100C80008B83F0A3AA82AB838C828D83D8E9D9E7CA
:100C9000120369120DDA851983851882E0A3FEE03C
:100CA000A3F5207808E0A3F608DFFAE0A3FFE0A3AD
:100CB000C0E0E0A3C0E0E0A3C0E0E0A3C0E010AF6C
:100CC000088582188583198008858218858319D242
:100CD000AFD083D08222C008C3E096F50808A3E015
:100CE00096420808A3E096420808A3E096450870DB
:100CF00001D3D008222518F58210AF08F51840025C
:100D000015198008F51840021519D2AF85198322EC
:100D1000C0D0251810AF08F518500205198008F545
:100D20001850020519D2AFD0D0226016080808C6A4
:100D3000C313C618C613C618C613C618C613C6D51D
:100D4000E0EA22251810AF08F518400215198008AE
:100D5000F51840021519D2AF22E066701008A3E022
:100D600066700A08A3E066700408A3E06622E02625
:100D7000F608A3E036F608A3E036F608A3E036F658
:100D800022700422600D18C6C333C608C633C6D508
:100D9000E0F4182274028000C0E0F404120CF5D0D4
:100DA000E0120DC32275D00075813F7518027519C8
:100DB00003020C4E600C08C6C313C618C613C6D572
:100DC000E0F422CAC0E0E6F0A308DAFAD0E0FA22A2
:100DD0002518F582E43519F5832200000080FB799F
:100DE0000122FFFFFFFFFFFFFFFFFFFFFFFFFFFFEE
:100DF000FFFFFFFFFFFFFFFFFFFFFFFFFFFFFFFF03
:100E0000FFFFFFFFFFFFFFFFFFFFFFFFFFFFFFFFF2
:100E1000FFFFFFFFFFFFFFFFFFFFFFFFFFFFFFFFE2
:100E2000FFFFFFFFFFFFFFFFFFFFFFFFFFFFFFFFD2
:10200000022AA70221EBFFFFFFFFFFFFFFFFFFFFF9
:10201000FFFFFFFFFFFFFFFFFFFFFFFFFFFFFFFFD0
:10202000FFFFFFFFFFFFFFFFFFFFFF0227AEFFFFE6
:10203000FFFFFFFFFFFFFFFFFFFFFFFFFFFFFFFFB0
:10204000FFFFFF022651FFFFFFFFFFFFFFFFFFFF24
:10205000FFFFFF022127FFFFFFFFFFFFFFFFFFFF43
:10206000FFFFFFFFFFFFFFFFFFFFFF022786FFFFCE
:10207000FFFFFFFFFFFFFFFFFFFFFFFFFFFFFFFF70
:10208000FFFFFF02218701FFFFFFFFFFFFFFFFFFB1
:102090001020102001FF01010503010F10FEFF7544
:1020A000347534753475341933133375345C480022
:1020B000000000F44700000000FF000000FF0001E6
:1020C00000001B370000000067363B38B536B137DB
:1020D0000000A33600000000000000000000000027
:1020E00000000000FF0101003107000000AA07E81E
:1020F0000364006400B80102020008000005020742
:1021000001051E02051E020A0A0103B80B02803EE9
:102110000102FEFFE8030A050001FFFF0A01E09645
:102120005118000206FFFFC0E074F212246FA2AF44
:10213000E433FED2AFE5A7FFE5A1F5085F541060D8
:102140000612408175A1EFE5085F5408600812404F
:102150008775A1F78024E508A2E092F0EFA2E08263
:10216000F05017906198E0F8900C83E0C398A2D2E9
:1021700065D0335002E8F075A1FE751A00EEA2E0BA
:1021800092AF7F010224CEC0E074F212246FA2AF9E
:10219000E433FED2AF9061A4E0F8759B00E591585E
:1021A000540860087591F71240DB8023E59158547C
:1021B0001060087591EF1240E18014E591A2E09261
:1021C000F0E8A2E082F05007E0C2E0F01242319065
:1021D00061A3E0F8E5E9585404600E12420775E97E
:1021E000FB906193E0A2E640F2808FC0E074F212AF
:1021F000246FA2AFE433FED2AF9061A5E0F8E5BF53
:10220000585404600675BFFB12424902217AC3E4A8
:1022100098F8E499F912224F8026C3E49AFAE49BD5
:10222000FBE920E7E912224FE498F8E499F922C388
:10223000E498F8E499F912224FE498F8E499F9C384
:10224000E49AFAE49BFB22EB20E7CFE920E7E0B930
:102250000010BB0008E88AF084F8AAF022E4FBC86A
:10226000FA22EB70227B10C833C8C933C933500738
:10227000C39AC3DBF280069A50012ADBEAC833F422
:10228000C8C933F4C9FA2275F008E4C833C8C933A1
:10229000C933C99AC99B5004C92AC93BD5F0ECFB84
:1022A000C833F4C8E4C9FA22080808EAC0E0EBC061
:1022B000E086F0E7A4FA180986F0E7A42AFA1809DC
:1022C00086F0E7A42AFA180986F0E7A42AFA198604
:1022D000F0E7A4FBE5F02AFA190886F0E7A42BFB47
:1022E000E5F03AFA190886F0E7A42BFBE5F03AFA94
:1022F00018180986F0E7A4C5F02BFBE43AFA190890
:10230000E7C5F0C6A426F6E5F03BFBE43AFA1886EA
:10231000F0E7A4F6E5F00826F6E43B08F6E43A0810
:10232000F6D0E0FBD0E0FA22E4CFC0E0E4CEC0E09B
:10233000E4CDC0E0E4CCC0E075F020C3E633F6089D
:10234000E633F608E633F608E633F6181818EC33E9
:10235000FCED33FDEE33FEEF33FFC3EC9709ED9751
:1023600009EE9709EF97191919400FFFEC97FC092F
:10237000ED97FD09EE97FE191906D5F0BEECF709A9
:10238000EDF709EEF709EFF7191919D0E0FCD0E0E5
:10239000FDD0E0FED0E0FF222518C582C0E0E5199F
:1023A00034FFC583C0E0E518C3958224F810AF0858
:1023B0008583198582188008858319858218D2AF94
:1023C000CEF0A3E520F0A37808E608F0A3DEFAEF4C
:1023D000F0A3E58124FAF8E608F0A3E608F0A3E606
:1023E00008F0A30808E608F0A3E608F0A315811595
:1023F00081D0E0FED0E0F8158115811581E8C0E0BC
:10240000EEC0E022122B09B90003022459E4900423
:10241000D178FB790F8002F0A3D8FCD9FA781A9012
:1024200020867A01BA00028007E493A3F608DAF95D
:102430009013CBAA82AB8390209478947901801575
:10244000E493A3AC82AD838A828B83F0A3AA82AB90
:10245000838C828D83D8E9D9E77582EF7583CB743D
:102460000512287275822D7583467400122872C079
:10247000D02518C582C0E0E51934FFC583C0E0E56A
:1024800018C3958224F310AF0885831985821880BC
:1024900008858319858218D2AFC8F0A3E9F0A3EAB2
:1024A000F0A3EBF0A37908E709F0A3D8FAECF0A3C6
:1024B000EDF0A3EEF0A3EFF0A3D0E0F0A3D0E0F0B6
:1024C000A3D0E0F0A3E520F0A3E5F0F0A322851966
:1024D00083851882E0C0E0A3E0F9A3E0FAA3E0FB63
:1024E000A37808E0F608A3DFFAE0FCA3E0FDA3E090
:1024F000FEA3E0FFA3E0C0E0A3E0C0E0A3E0F5D0CE
:10250000A3E0F520A3E0A3F5F010AF0885831985BB
:1025100082188008858319858218D2AFD082D08333
:10252000D0E0F8D0E032E47375F0108E218F228570
:102530008226858325851882851983E0CEA3E0CF86
:10254000852682852583EBC9EAC8EDCBECCAC3E8B2
:1025500033C8E933C9EA33CAEB33CBC3EA9EF52467
:10256000EB9FF523B35004AB23AA24EC33CCED331B
:10257000CDD5F0DAAE21AF2222D083D082ECC0E0FC
:10258000EDC0E0E493A3FCE493A3FDED4C600D12D9
:102590002694EC24FFFCED34FFFD80EFE493A3FCD4
:1025A000E493A3FDED4C600D122731EC24FFFCED0C
:1025B00034FFFD80EFD0E0FDD0E0FCE493A3C0E069
:1025C000E493C0E022851983851882E0A3FEE0A38E
:1025D000F5207808E0A3F608DFFAE0A3FFE0A3C047
:1025E000E0E0A3C0E0E0A3C0E0E0A3C0E0E0A3C05F
:1025F000E010AF08858218858319800885821885C8
:102600008319D2AFD083D082022878D083D082E9D8
:10261000C0E0E493A3C386F0C5F095F0F908E49315
:10262000A386F0C5F095F0700BE493A3C399400521
:10263000E9048002A3E475F002A42582F582E5F0A6
:102640003583F583D0E0F9E493A3C0E0E493C0E0E0
:1026500022C0E074F212246FA2AFE433FED2AFC204
:10266000C09012C3E0700BE5D1A2E4501D123FDF11
:102670008018E5D1A2E3500675D1F7123FB5E5D138
:10268000A2E4500675D1EF123FBBEEA2E092AF7FFD
:10269000010224CEC0E0C3E4939608740193961817
:1026A000400FE49366700808740193661870007018
:1026B00019A3A3C3E49396087401939618A3A340A7
:1026C0000DD0E0D0E0D0E00225B5A3A3A3A3A3A33F
:1026D000D0E0227404800474028000CCC0E0EDC01D
:1026E000E0E518C39CCCAD1950011D10AF068C1845
:1026F0008D1980068C188D19D2AF1227F4D0E0FD09
:10270000D0E0FC2274028000CCC0E0EDC0E0E5180F
:10271000C39CCCAD1950011D10AF068C188D1980CB
:10272000068C188D19D2AF1227D2D0E0FDD0E0FC74
:1027300022C0E0C0F088F0E493667008087401934A
:1027400066187000A8F0A3A3700BD0F0D0E0D0E022
:10275000D0E00225B5A3A3D0F0D0E022D083D08270
:10276000CCC0E0E493A360061228531470FAE493FB
:10277000A3600612292B1470FAD0E0FCE493A3C0E6
:10278000E0E493C0E022C0E074F212246F75890087
:10279000C2C59012C3E0700E7A007B109006AAE0CA
:1027A000F91239BB80031244BF7F010224CEC0E07E
:1027B000C0D0E8C0E0E9C0E0E5A8D2AFC2C7751A52
:1027C00000A2E7A2E792AFD0E0F9D0E0F8D0D0D0F5
:1027D000E032CAC0E0E493A3C582CCC582C583CDF4
:1027E000C583F0A3C582CCC582C583CDC583DAE598
:1027F000D0E0CA22CAC0E0E0A3C582CCC582C583AE
:10280000CDC583F0A3C582CCC582C583CDC583DA8F
:10281000E6D0E0CA227009080808226016181818C5
:10282000C6C333C608C633C608C633C608C633C6D1
:10283000D5E0EA22C008C3E096F50808A3E0964276
:102840000808A3E096420808A3E09645087001D363
:10285000D00822C0E0E493A3D39C5010E493A3C318
:102860009C400AD0E0D0E0D0E0022779A3A3A3D017
:10287000E022C09FF59FE473D09F22D083D082C016
:102880009FE493C0E0740193C0E0740293F59F222B
:102890002518F58210AF08F518400215198008F5C3
:1028A0001840021519D2AF851983227404800A7466
:1028B000038006740280027401C0E0F404122890C0
:1028C000D0E0122AE422C0D0251810AF08F5185025
:1028D0000205198008F51850020519D2AFD0D02290
:1028E000BB0102E722C082C08389828A83BB0003C6
:1028F000E08002E493D083D082226016080808C6E4
:10290000C313C618C613C618C613C618C613C6D531
:10291000E0EA22C3E0C696F608A3E0C696F608A34E
:10292000E0C696F608A3E0C696F622C0E0E493A3BC
:102930006C7009D0E0D0E0D0E0022779A3A3D0E00A
:1029400022251810AF08F518400215198008F5184F
:1029500040021519D2AF22E76670100809E76670C9
:102960000A0809E76670040809E76622C3E09608CA
:10297000A3E09608A3E09608A3E096A2D265D03320
:1029800022E066701008A3E066700A08A3E0667093
:102990000408A3E06622C3E096F008A3E096F008DE
:1029A000A3E096F008A3E096F022C3E697F60809A4
:1029B000E697F60809E697F60809E697F622E02674
:1029C000F008A3E036F008A3E036F008A3E036F004
:1029D00022E627F60809E637F60809E637F6080979
:1029E000E637F622700422600D18C6C333C608C647
:1029F00033C6D5E0F41822E647F60809E647F6089C
:102A000009E647F60809E647F622E657F60809E61A
:102A100057F60809E657F60809E657F622E056F693
:102A200008A3E056F608A3E056F608A3E056F622FF
:102A3000E056F008A3E056F008A3E056F008A3E043
:102A400056F022E026F608A3E036F608A3E036F6B4
:102A500008A3E036F622E4C396F608E496F608E406
:102A600096F608E496F622600D08C6A2E713C6188B
:102A7000C613C6D5E0F322C6F4C608C6F4C608C617
:102A8000F4C608C6F4C622C3E7960809E796080903
:102A9000E7960809E79622C3E09608A3E09608A304
:102AA000E09608A3E0962275D0007581407518D194
:102AB00075190400022404E0F608A3E0F608A3E078
:102AC000F608A3E0F622600C08C6C313C618C613A6
:102AD000C6D5E0F422E6F008A3E6F008A3E6F00885
:102AE000A3E6F022CAC0E0E6F0A308DAFAD0E0FAE2
:102AF00022E0FAA3E0FBA3E0FCA3E0FD22EAF0A3BE
:102B0000EBF0A3ECF0A3EDF022E5C754F84401F597
:102B1000C77901222518F582E43519F58322C2AF61
:102B200075D69F0200002212287BD9E80312287B69
:102B300022E90312287B5FE90312287BC3E9031211
:102B4000287B2FEA0312287B4BEA0312287B7FEABB
:102B50000312287BCAEA0312287BC7EB0312287BE7
:102B60007EEC0312287B09EF0312287B4EF0031240
:102B7000287BFBF00312287B26F20312287B4AF203
:102B80000312287B00800212287B12800212287B0D
:102B90006A800212287BD0800212287B5A8102129E
:102BA000287B1D820212287B65820212287B91827B
:102BB0000212287BD1820212287B38830212287BE2
:102BC000AD830212287BC6830212287BEC8302129B
:102BD000287B2A840212287B7F840212287BA68409
:102BE0000212287B03850212287BCA850212287BE9
:102BF00063860212287BE6860212287BAE870212C9
:102C0000287BF7870212287B13880212287B4588CD
:102C10000212287BF3890212287BBF8A0212287BCA
:102C2000E48A0212287B118B0212287B3C8B021251
:102C3000287B4B8B0212287B568B0212287B018C3F
:102C40000212287B688C0212287BEB8C0212287BF4
:102C5000F38C0212287B7B8D0212287BE38D0212FB
:102C6000287B228E0212287B63900212287B4A91D5
:102C70000212287B7D910212287B3F920212287B50
:102C8000FB920212287B2D930212287B939302124F
:102C9000287BB8930212287BC9930212287B3C94AC
:102CA0000212287BD4940212287B2D950212287BD5
:102CB0000B960212287B30960212287B3B97021259
:102CC000287B59970212287B6C970212287BC497A5
:102CD0000212287BD3970212287B5B980212287B72
:102CE000A2980212287BAB980212287BB69A021295
:102CF000287B149C0212287B249C0212287B6A9D4C
:102D00000212287BD19D0212287B0D9F0212287B84
:102D10004F9F0212287B8B9F0212287BB3A00212C6
:102D2000287B27A30212287B3BA30212287B45A302
:102D30000212287B4FA30212287B59A30212287B80
:102D400063A30212287B7CA30212287B86A30212B3
:102D5000287B90A30212287B9AA30212287BA4A3AB
:102D60000212287BCCA30212287B1AA40212287B11
:102D700024A40212287B2FA40212287B53A402123F
:102D8000287B77A40212287BE7A40212287B33A5B4
:102D90000212287B4FA50212287BB5A50212287BC0
:102DA000FCA50212287B48A60212287BB3A60212B9
:102DB000287B63A70212287B36A90212287BA4A9CC
:102DC0000212287BE1AA0212287B07AB0212287BA1
:102DD0007AAC0212287B1DB00212287B17B20212B5
:102DE000287BF7B30212287B90B40212287BC4B66A
:102DF0000212287B67B70212287BB9B70212287B20
:102E00003DB80212287B55B80212287B92BA0212F2
:102E1000287B7CBB0212287BDBBC0212287B3ABDDC
:102E20000212287BD3BD0212287BA5BF0212287B89
:102E3000E7C00212287B06C10212287B5BC1021286
:102E4000287B5CC20212287B84C20212287BE7C264
:102E50000212287BDFC30212287B5BC40212287B8C
:102E600085C50212287BF0C50212287B2EC70212EC
:102E7000287B90C90212287BC1C90212287B6CCC26
:102E80000212287BBECC0212287B7CCD0212287B4A
:102E900038CE0212287B9CCE0212287B5DCF021214
:102EA000287BFFCF0212287B64D00212287BA3D09C
:102EB0000212287BD4D00212287B3ED20212287B39
:102EC000EE800112287B30810112287B33840112AD
:102ED000287B72840112287BBE840112287BCA855C
:102EE0000112287B2E860112287B6E860112287B18
:102EF000BC870112287BEC8A0112287B398C0112D5
:102F0000287B97970112287B2D980112287B2A9BFA
:102F10000112287B669C0112287BC99C0112287B28
:102F2000F79D0112287B4B9F0112287B34A00112D0
:102F3000287BB4A20112287BB1A40112287B42A5F0
:102F40000112287B1EA60112287BB6A60112287B3F
:102F5000C0A60112287BEEA60112287BA3A70112AE
:102F6000287B81A80112287B58A90112287BE5A99A
:102F70000112287BFBA90112287B5CAA0112287B85
:102F800085AA0112287BB2AA0112287BE3AC0112A8
:102F9000287BC2AD0112287B06AE0112287B71AEE0
:102FA0000112287B30AF0112287B62AF0112287B0F
:102FB000A9AF0112287BDCAF0112287B31B00112CE
:102FC000287B86B00112287B8BB00112287BDFB0F2
:102FD0000112287B27B10112287B2BB20112287B1A
:102FE00090B20112287BECB20112287B5DB3011272
:102FF000287B52B60112287B59B70112287BDCB816
:103000000112287BCBBB0112287B8BBC0112287BD1
:10301000D4BE0112287B77BF0112287BB5BF0112F5
:10302000287B86C10112287B99C10112287BA2C18D
:103030000112287BABC10112287BC0C10112287B81
:10304000DFC10112287B0FC40112287B64C4011266
:10305000287B6EC40112287B78C40112287BD4C45B
:103060000112287B29C50112287B51C60112287B39
:10307000B9C60112287B1BC80112287B6CC801123B
:10308000287B18C90112287B36CA0112287BE1CAA5
:103090000112287BFBCB0112287B22CD0112287B59
:1030A00024CE0112287B3BCE0112287B78CE011260
:1030B000287B82CE0112287B8CCE0112287B97CEF2
:1030C0000112287BB5CE0112287BF7CE0112287B96
:1030D00054CF0112287B79CF0112287B93CF0112A4
:1030E000287B12D00112287B4FD00112287B81D17E
:1030F0000112287BD4D10112287BEED20112287B49
:1031000024D30112287BB8D30112287B33D40112B7
:10311000287BA7D50112287BDAD60112287B8CD711
:103120000112287B53D80112287BF8D80112287B82
:1031300066D90112287B1BDA0112287B6FDA011293
:10314000287BDDDA0112287BA8DB0112287BCBDB90
:103150000112287B95DC0112287BB9DC0112287B47
:10316000DBDC0112287B3CDD0112287B7CDF0112B5
:10317000287B66E00112287B11E10112287B36E3EF
:103180000112287B84E30112287BC7E30112287B0C
:103190001FE40112287B7DE40112287BAAE40112BE
:1031A000287BCEE40112287B01E50112287B2BE568
:1031B0000112287B72E50112287BD1E50112287BE0
:1031C0002DE60112287B2AE70112287B92E80112E2
:1031D000287BD0E80112287BF9E80112287B93E9CB
:1031E0000112287BDDE90112287B01EA0112287B0C
:1031F00056EA0112287B71EA0112287B28EB0112A2
:10320000287B6FEB0112287BC5EB0112287BC6EEF1
:103210000112287BF9EE0112287BB7EF0112287BFF
:10322000B4F00112287B3DF10112287B56DC051217
:10323000287B95DC0512287B56800312287B998019
:103240000312287B59810312287B78820312287B82
:103250009F830312287B5A850312287BCD85031296
:10326000287B98860312287BA9870312287B108865
:103270000312287B4C880312287BAB880312287B1F
:10328000E4880312287B39890312287BC289031240
:10329000287B678A0312287B388B0312287B128CC9
:1032A0000312287B9C8C0312287BC28C0312287B80
:1032B000EF8C0312287B298D0312287B298E0312A1
:1032C000287B398E0312287B898E0312287B968EE9
:1032D0000312287BAB8E0312287BB48E0312287B4B
:1032E0000E8F0312287B708F0312287BBA8F031274
:1032F000287BD58F0312287BFC8F0312287B199023
:103300000312287B25900312287BCE910312287B81
:10331000E7910312287B6D920312287B809203129F
:10332000287B92920312287B3E930312287BA99458
:103330000312287B60960312287BE6960312287BF3
:10334000E8960312287B50970312287B6E9703128E
:10335000287B04980312287B41980312287B449809
:103360000312287B6F980312287BCC980312287BCA
:10337000F0980312287B0E990312287B5C990312A4
:10338000287BB59A0312287B0D9B0312287B5A9B3E
:103390000312287BE19B0312287B099C0312287BE4
:1033A0003F9C0312287B4E9C0312287BAC9C03128B
:1033B000287B1D9D0312287B5A9D0312287B959D17
:1033C0000312287BC09D0312287BDA9D0312287B01
:1033D000F49D0312287BC89E0312287BD29E031201
:1033E000287B0E9F0312287B1E9F0312287B279F9A
:1033F0000312287B879F0312287B9B9F0312287B45
:10340000A5A00312287BB8A00312287BCFA003122B
:10341000287BE4A00312287B89A10312287B05A244
:103420000312287BA8A20312287BB4A20312287BD4
:10343000FAA30312287B16A40312287B6EA403129E
:10344000287BAAA40312287BC4A40312287B26A5E8
:103450000312287BC5A50312287B10A60312287B24
:103460005CA80312287B03A90312287B9FA90312DF
:10347000287BC5AB0312287BDDAB0312287BE0ABB6
:103480000312287BECAB0312287B00AC0312287BD1
:1034900008AC0312287B48AC0312287B41AD031211
:1034A000287BC4AD0312287B46AE0312287BC0AE36
:1034B0000312287B92AF0312287BB4AF0312287B40
:1034C00050B00312287B5CB00312287B87B0031234
:1034D000287B8AB00312287BB7B00312287BCCB0BC
:1034E0000312287B3BB10312287B9EB20312287B78
:1034F000B5B30312287B40B40312287B7DB50312B9
:10350000287B4FB60312287B80B60312287BACB60B
:103510000312287BB5B60312287BE4B60312287B7E
:1035200094B70312287B4EB80312287BC2B803124B
:10353000287B5EB90312287BE6B90312287B1CBAEC
:103540000312287B61BA0312287B96BA0312287BE8
:10355000A4EE0212287BF3EE0212287B2BEF02125C
:10356000287B97EF0212287BE7EF0212287B6BF093
:103570000212287BB3F20212287BA4F40212287BE9
:1035800053F80212287BF7F80212287B32F9021254
:10359000287B50F90212287BB0F90212287BD8F957
:1035A0000212287B08FA0212287B39FA0212287BC1
:1035B00070FA0212287BC1FA0212287B0DFB02125C
:1035C000287BDE740012287B5A750012287B8075D8
:1035D0000012287BB8750012287B12770012287B16
:1035E0002E770012287B73770012287B0278001256
:1035F000287B5B780012287B3B790012287B0B7AB2
:103600000012287B527A0012287BB37A0012287BA2
:10361000437B0012287B997B0012287BE27B0012FF
:10362000287B817C0012287B7F7D0012287BC37D54
:103630000012287B117E0012287B337E0012287B2B
:10364000DA7E0012287B877F0012287BF0AB051200
:10365000287B55AC0512287B01AD0512287B3AADBD
:103660000512287B7EF10112287B27F20112287BAC
:1036700041F30112287BC4F30112287BFCF30112F1
:10368000287BC9F60112287B7CF80112287B37F9C8
:103690000112287BA8F90112287BC8FC0112287BA3
:1036A0005EFE0112287B65D20512287B8DD20512A1
:1036B000287B81D30512287B71930512287BF69312
:1036C0000512287B0D940512287B82940512287B15
:1036D000E0940512287B09950512287B8695051232
:1036E000287B29960512287B8E960512287BF29658
:1036F0000512287B13970512287B44970512287B17
:1037000062970512287B89970512287BB9970512C5
:10371000287BFF970512287B65980512287B7FC8B8
:103720000412287B2EC90412287B4EC90412287B60
:103730006EC90412287B82C90412287BE2C90412D4
:10374000287B12CA0412287B8FCB0412287B38CC2A
:103750000412287B1ACD0412287B69CD0412287B21
:10376000ADCD0412287B12CE0412287B7ECE04122B
:10377000287B9FCE0412287B22CF0412287BD7D02F
:103780000412287B47D10412287BEDD20412287B37
:10379000BED30412287B04D40412287B5ED4041206
:1037A000287B59C50512287B63C50512287B84C573
:1037B0000512287B7AF20312287B8FF40312287BF0
:1037C000C5F50312287BACF70312287B04F803121B
:1037D000287BD3F80312287B13F90312287B5DF9A9
:1037E0000312287B1CFA0312287B8FFA0312287B12
:1037F00091FA0312287B93FA0312287B35DB03121C
:10380000287BB2FA0312287BD2FA0312287BFCFA37
:103810000312287B18FB0312287B9CFB0312287BD6
:10382000EEFB0312287B69FC0312287B85FD031243
:10383000287B67FE0312287BB1D20212287BD7D2E5
:103840000212287B4CD60212287BA8D60212287BB3
:10385000FCD60212287B21D70212287B91E80312A2
:10386000287B8CD70212287BC4D70212287BE3D88E
:103870000212287B04D90212287B33D90212287B3A
:1038800076D90212287B09DA0212287B25DA021285
:10389000287B5FDA0212287BB7DB0212287B39DC37
:1038A0000212287B2FDD0212287B0ADE0212287BFF
:1038B0003CDE0212287B8FDE0212287BF3DE02122E
:1038C000287B59DF0212287BBEDF0212287B2FE003
:1038D0000212287B3FE10212287B4AE20212287B77
:1038E0001BE30212287B50E30212287BA7E302129B
:1038F000287B63E40212287B91E40212287B1CE6F9
:103900000212287B94E60212287BC7E60212287B6B
:1039100003E70212287B1CE70212287BD6E702127B
:10392000287BB5E80212287B69E90212287BFEE9B0
:103930000212287B8DEA0212287B10EB0212287BF0
:10394000B3EB0212287B7EEC0212287B4EED0212B2
:10395000287B02EE0212287B63F90412287BAFF960
:103960000412287B1DFA0412287B3EFA0412287BDD
:1039700055FA0412287B05FB0412287B0EFB041267
:10398000287B61FB0412287B8AFB0412287B9FFBA7
:103990000412287B08FC0412287B99FC0412287B63
:1039A000D5FC0412287B21FD0412287B88FD04121B
:1039B000287BC1FD0412287B47FE0412287B86FE6B
:1039C0000412287BC7FE0412287BFEFE0412287B0B
:1039D00010FF0412287B22FF0412287B55FF0412DB
:1039E000287B95FF0412287B409E0512287B839F2D
:1039F0000512287BA99F0512287BBA9F0512287BF8
:103A0000D3A10512287BF2A10512287BA6C70512B7
:103A1000287BDCC70512287B27C80512287B75C9BF
:103A20000512287BB8B30412287B03B50412287B47
:103A30003FB50412287BF6B60412287B1FB7041288
:103A4000287BB7B90412287BF7B90412287B98BBEE
:103A50000412287B32BC0412287B9ABC0412287BF7
:103A600027BD0412287B5FBD0412287B9FBD041272
:103A7000287B32BF0412287BD1C00412287B20C3CC
:103A80000412287B4EC30412287B7AC30412287BBD
:103A900083C30412287BDEC30412287B74C404127F
:103AA000287B9DC70412287B22C80412287BB8DB20
:103AB0000512287BCEDB0512287BD8DB0512287B7C
:103AC00028DC0512287B49A30512287B62A3051276
:103AD000287B07A40512287B47A40512287B60A435
:103AE0000512287B99A40512287BE6A40512287BE1
:103AF00018A50512287B5AA50512287B5DA705127B
:103B0000287BC7A70512287BEAD40512287B3FD55E
:103B10000512287B98D50512287B69DA0512287BC7
:103B2000BCDA0512287BFEDA0512287B0EDB0512B3
:103B3000287BC39A0412287B1B9B0412287B269B9C
:103B40000412287B419C0412287B199D0412287BB7
:103B50002E9D0412287B789D0412287BE59D04127B
:103B6000287BF89D0412287B3C9E0412287BB59E7E
:103B70000412287B16A10412287B35A20412287B8C
:103B800090A20412287BACA40412287BE5A40412A2
:103B9000287B30A50412287B46A50412287B53A558
:103BA0000412287B83A50412287B95A50412287B88
:103BB0007EA60412287B89A60412287BE2A60412A2
:103BC000287B3AA70412287B97A70412287BC5A854
:103BD0000412287BEDA80412287B69AB0412287B11
:103BE00091AB0412287B28AC0412287B9EAC0412F3
:103BF000287BB3AC0412287BFAAC0412287B68AD96
:103C00000412287B4EAE0412287B87AE0412287B58
:103C100091AE0412287B94AE0412287B9EAE04124F
:103C2000287BBAAE0412287B30AF0412287B69AF20
:103C30000412287B85AF0412287BB1AF0412287BC5
:103C4000ECAF0412287B07B00412287B12B00412D8
:103C5000287B4EB00412287B61B00412287B7CB014
:103C60000412287BACB00412287BC9B00412287B54
:103C700012B10412287B5AB10412287B5DB20412DF
:103C8000287B08FF0312287B19FF0312287BA2FF61
:103C90000312287B00800512287B4F800512287BA9
:103CA0000C820512287BEA830512287B2E840512DC
:103CB000287B23850512287B54860512287B76866F
:103CC0000512287BD2860512287B56870512287B91
:103CD000BD4B0012287BDF4B0012287B2F4D0012BA
:103CE000287B784D0012287BCD4D0012287B494E51
:103CF0000012287BB24E0012287BF94E0012287B5E
:103D0000724F0012287B17500012287B9850001227
:103D1000287BD9500012287B39550012287B5E572A
:103D20000012287B97570012287BDB570012287B54
:103D3000F8580012287B185C0012287BB45C001233
:103D4000287B8A5E0012287BC05F0012287BC4603B
:103D50000012287B33610012287B02620012287B4C
:103D600057620012287B5A620012287B0E630012F1
:103D7000287B49640012287BAF660012287B5C69AF
:103D80000012287B3A6A0012287B6E6B0012287B97
:103D9000F36E0012287B036F0012287B3A7000122A
:103DA000287BE8700012287B23720012287BB472F3
:103DB0000012287BCA730012287B41740012287BF2
:103DC00000800412287BBD800412287B3A810412F3
:103DD000287B49810412287BD2810412287B298206
:103DE0000412287B34830412287B5D830412287B11
:103DF00005840412287B58840412287BC38404128F
:103E0000287B22850412287B27880412287BD788E8
:103E10000412287B46890412287BE08A0412287B3E
:103E2000988B0412287B358C0412287B968C041204
:103E3000287B108D0412287B178E0412287B018F9B
:103E40000412287B478F0412287B808F0412287B62
:103E5000948F0412287BDD8F0412287B619004125A
:103E6000287BD7910412287BAB930412287BE29421
:103E70000412287B21960412287B36970412287B93
:103E8000E3970412287B54980412287B4E9904125D
:103E9000287B72D40412287BE3D40412287B31D50A
:103EA0000412287B8AD50412287BE2D50412287BD1
:103EB00023D60412287BDAD60412287B2FD70412CB
:103EC000287BB8D80412287B32D90412287B6FD9FA
:103ED0000412287BBCD90412287BE2D90412287B67
:103EE00042DB0412287B47DB0412287BEADB041246
:103EF000287B54DC0412287B4FDD0412287B50DE23
:103F00000412287BECC20512287B1DC30512287BF6
:103F1000E6C30512287B4CC40512287BBDC40512DC
:103F2000287B61CC0512287B24D80512287B35D844
:103F30000512287BD5D80512287BED7F0012287B3F
:103F4000F4DC0512287BEFD80512287BFFD8051278
:103F5000287B14D90512287BA5D90512287B20D7E8
:103F60000512287BA5D70512287B0BD80512287BC4
:103F7000FBFF0112287BD47F0012287BE47F001214
:103F8000287BE77F0012287BEA7F0012287BF87FDE
:103F90000012287BD8C90512287BFAC90512287B94
:103FA00068CB0512287BECCB0512287BCBDC0512F5
:103FB000287BD4DC0512287BDDDC0512287BEBDCBA
:103FC0000512287BB78D0512287B238E0512287BCE
:103FD000EA8E0512287BF68F0512287BE1910512E7
:103FE000287B3C920512287B91920512287BA29295
:103FF0000512287BB4920512287B1E930512287B9C
:1040000032930512287B3D930512287B4B930512B2
:10401000287B5D930512287B86870512287BAE8757
:104020000512287BCB8A0512287B208B0512287B62
:10403000628B0512287B768B0512287B8F8B0512ED
:10404000287BA78C0512287B838D0512287B9D8DEC
:104050000512287BF0D00512287B14D10512287B8D
:104060002DD10512287B6CD10512287B9FD105121A
:10407000287BCFD10512287BD9D10512287B41D2CC
:104080000512287B44D20512287B4ED20512287BCC
:104090005BD20512287BD2BA0512287BFABA051228
:1040A000287B3BBB0512287B59BB0512287B74BBC0
:1040B0000512287BDCBB0512287BE8BB0512287B98
:1040C00047BC0512287B73BC0512287B82BC0512F5
:1040D000287BA6BC0512287B67BD0512287B74BD12
:1040E0000512287B85BD0512287BBEFF0412287BA4
:1040F000D6FF0412287B5D990512287BCA9A051207
:10410000287BD09A0512287BE79A0512287B089B0A
:104110000512287B1E9B0512287B329B0512287BEB
:10412000B19B0512287B169C0512287B9E9C0512CC
:10413000287B179D0512287BF09D0512287B009E89
:104140000512287B0F9E0512287B1FDB0512287B9A
:1041500043DB0512287B6BDB0512287B93DB051202
:10416000287B85C00512287BACC00512287BCDC0FA
:104170000512287B34C10512287BB3BD0512287BAC
:10418000CCBD0512287BE3BD0512287BECBD0512D2
:10419000287B0ABE0512287B14BE0512287B1EBE92
:1041A0000512287B31BE0512287BBFBE0512287B75
:1041B0002EBF0512287B5CBF0512287BADBF051200
:1041C000287BFEBF0512287B19C00512287B23C05F
:1041D0000512287B34C00512287B7AC00512287B83
:1041E0009EFF0112287BEFFF0112287B05DF0412DE
:1041F000287B31DF0412287B4FDF0412287B62DF2B
:104200000412287B7DDF0412287BDCDF0412287B6C
:104210000AE00412287B28E40412287B5EE50412DD
:10422000287B90E50412287BF8E50412287B75E7CB
:104230000412287B9DE70412287BB2E70412287B36
:10424000C2E70412287B02E80412287B4EE804121D
:10425000287B5EE80412287BB2D30512287BC2D3E8
:104260000512287BE0D30512287BFBD30512287B9F
:1042700022D40512287B43D40512287B5DD4051275
:10428000287B95D40512287BB8D40512287BB5D994
:104290000512287BFBD90512287BF6AF0512287B77
:1042A000FDAF0512287B53B10512287B83B105129F
:1042B000287BB3B10512287BE6B10512287BF8B143
:1042C0000512287B34B20512287B9AB20512287B8E
:1042D000D6B20512287B1DB30512287B4AB30512FE
:1042E000287B76B30512287BEDCD0512287B24CEE2
:1042F0000512287B4ACF0512287B4DCF0512287B5B
:1043000050CF0512287B0DD60512287B7FD60512CB
:10431000287BBDD60512287BFED60512287B2FF1FF
:104320000412287B35F10412287B82F10412287BC9
:10433000A6F30412287BDEF30412287B4AF404124D
:10434000287B17F50412287B5CF50412287B8FF577
:104350000412287B19F60412287B31F60412287BFC
:10436000D4F70412287BCCF80412287B2AF9041213
:10437000287B8CE80412287BA2E80412287B54E9ED
:104380000412287B4FEA0412287B47EB0412287B97
:10439000DFEB0412287B1EEC0412287B96EC04123F
:1043A000287BF8EC0412287B08ED0412287B2FED03
:1043B0000412287B81ED0412287B14EF0412287B61
:1043C00019EF0412287B3BEF0412287BD4A70512B7
:1043D000287BF2A70512287B36A80512287B5CA84B
:1043E0000512287B83A80512287B9BA80512287B31
:1043F000B3A80512287BCBA80512287B71A905124A
:10440000287BAFA90512287BB9A90512287BD2A960
:104410000512287BE0AA0512287BFBAA0512287B3F
:1044200004AB0512287B0DAB0512287B16AB0512D9
:10443000287B20AB0512287B84AB0512287B45FB2B
:104440000212287B6CFF0212287B88FF0212287B55
:104450008DFF0212287BCBB30512287BE1B3051236
:10446000287B80B50512287BCBB50512287B36B694
:104470000512287B3BB70512287B6AB70512287BFB
:104480007CB70512287B7ACF0512287B9BB70512D3
:10449000287BF7B70512287B37B80512287B3FB970
:1044A0000512287B57B90512287B6CB90512287BA9
:1044B00098B90512287BCFB90512287BDFB9051200
:1044C000287BF5B90512287B1ABA0512287BA5BAF4
:1044D0000512287B9FDC0512287BD4DA0312287B87
:1044E0007BDA0312287BFDD90312287BD3D9031270
:1044F000287BECD70312287BBCD70312287B90D7EC
:104500000312287B6CD70312287B6CD60312287BFE
:1045100082D50312287B36D50312287BDBD4031205
:10452000287B46D30312287BCDD20312287BCAD224
:104530000312287BB1D10312287B8BD10312287B75
:10454000C7D00312287B0ACF0312287BA6CE031202
:10455000287B77CE0312287B74CE0312287B65CE8E
:104560000312287BD4E70312287B43E70312287B3E
:1045700034E70312287B3BE40312287B5FE103123C
:10458000287B28CE0312287B07CE0312287B08CD78
:104590000312287BC7CC0312287B1FE00312287B61
:1045A00054CC0312287B1FCC0312287BC0CB0312F0
:1045B000287B8FCB0312287B5BDF0312287B42D73B
:1045C0000212287B43C80312287B78C70312287B7A
:1045D0002DC70312287B21C70312287B80C6031234
:1045E000287B44C50312287B7FC20312287B0BC0A3
:1045F0000312287BC9BF0312287B93BE0312287BBA
:1046000029BE0312287B59BD0312287B15BD031256
:10461000287B6ABB0312287BFEBA0312287B30BBBF
:104620000312287BA4DD0312287B95FA0300000007
:1046300080FB8F0001003B08870001003A0824003E
:1046400002002614250002002814260002002A1465
:10465000270002002C14280001002E14290001005C
:104660002F148400040030148600010034142A0042
:10467000010035142B00010036142C000100391400
:104680002D00080022082E0001003A142F0001001E
:104690003B14300001003C14310001003D14320095
:1046A00001002A08330001002B08340001003E14E9
:1046B000360001002C08380001003F1439000100C9
:1046C00038148300020051146300010037086400AD
:1046D000010019086500010037146D000100380859
:1046E000710008001A086600010050144300010020
:1046F00041144400020042144500010044144600E5
:1047000002004514470008002F0848000100471424
:104710004B0001004814040001005314A1000100E3
:104720005514370001005414880001003C083C0077
:1047300001002D083D000100401449000200491409
:104740006700010039084D0002004B144E000100C3
:104750004D144F0002004E143E0001002E080000D0
:1047600000000000000136360101000102010001D5
:1047700003010001040106060502000007010034E0
:104780000801000F090401010D0100FF0E080000DF
:1047900017020000190100FF1A0100011B0100FEB1
:1047A0001C0100081D0200001F0100012001000182
:1047B000210200002301000F240200002601000155
:1047C00027010008280200FF2A0100072B010240F0
:1047D0002C0100002D0100012E0100012F0100FF1E
:1047E00030010B1C310800003A0100083B01000FAA
:1047F0003C010001010371030103010301030103F3
:10480000010322030203010310030003000300035A
:104810000003000300030003420300032403060314
:1048200000030003040312032503230325032303CA
:104830000403040300030003000344030003000314
:1048400023030003650321003503810300030503EF
:10485000000300030003000325032303030071008A
:10486000300160001100700031022003500480000C
:104870001000610000001400630073007200620009
:1048800043000000130006000000000004001200B6
:1048900000000000000000000400040037003700A2
:1048A0003C02440000000000000000006500000021
:1048B00035008100000005000000830000000304B3
:1048C000710402046004110470040204020401046F
:1048D00002041004610400041404630473047204E9
:1048E00062044304000413040604000400040404E6
:1048F00012040004000400040004510464000004D5
:1049000000040004440400040004000400046504DE
:1049100000043504810464000504000483040004D9
:1049200001017101010101011101010131010101C7
:1049300001018001100161013B001400630173015A
:104940007201620143010001130106013D013500BE
:104950000401120100010001000100010401040131
:10496000330133013C0144013201360000010001F2
:10497000650100013500810100010501820183010B
:104980000001030271023001600211027002010293
:10499000020202028002100261023A004100630238
:1049A0007302720262024302000213023800000224
:1049B00000020402120200020002000200020402CD
:1049C0000402370037003C024402000239000002B2
:1049D0000002650200023502810200020502820225
:1049E000830200020000FF3D13006F3D0100FF3D08
:1049F0000200F13C0300F73C0400FD3C0500033DD0
:104A000006000F3D3000333D31002D3D32003F3D6B
:104A10003300453D35004B3D3400513D3600573D98
:104A20001100633D1400693D1500213D1F00273D25
:104A3000FFFF000036000100060000000F0000002C
:104A40000000000000000000000003FFFF00000461
:104A500003FFFF0000FFFF0FF4010005C404032063
:104A6000000100000B000000000000000003010F27
:104A70000001052F063B2F08352F0B532F10752EE5
:104A80000A652F020B2F05292F07112F0CED2E0D74
:104A9000F92E64832CFF000007ECFDFDFDECDCDC4F
:104AA000CCBCACAC9C9C8C7C7C6C6C5C5C5C4C4CE6
:104AB0003C3C2C2C1C1C03EAF5E5D5D5C5B5A595C9
:104AC0009585857575656555554545353525251596
:104AD00015057933A9337F338533A3339733913366
:104AE000AF33B533BB33C7338B3373336D330016FA
:104AF0000F00000B150B020002220F3300000E7591
:104B00003487348D343D33933437334333773271C4
:104B100032AD32B332A7325F32E134FF340535E7CC
:104B200034F334ED340C0E020B040B0A0708000FAB
:104B30000001191618161618230300003C40423ACB
:104B40003F3F392F473000034D4C4651181A250579
:104B500002303017181921301B1D1F303030161845
:104B60001920231A1C1E30C93499349F34AB34A544
:104B7000349D33C133F934CD33D333020402010100
:104B800001010902833289327D32B9328F32A1327A
:104B900000BE040A7F003C003C00E8030E00000059
:104BA000000009030C08100C0A03030809000400A4
:104BB00001FF1E1E05050815040428100CC082C044
:104BC000839007A2E4F0A3F07CD57D047A197B07DB
:104BD000124315122C89124615122C8F0269DD74AE
:104BE000F312239874F512294189098A088B0AE97E
:104BF000705F74026508703E9007347408F0750C9D
:104C000000780C1228B7ECF50C780C1228B7EBF5ED
:104C10000C780C1228B79014301226D3901434E07C
:104C2000F97C2F7D089014511269EE122CB3740791
:104C30001228C6024CEF740165086003024CF29022
:104C400007347408F07B00AA0AA90A122CEF024C60
:104C5000EF740165096009740265096003024CF292
:104C6000EA60067403650870409007347402124DC0
:104C700013122AF1122CA190073AE0A2E34010E9A6
:104C8000700D9007A6E004F064047003124D1D74CB
:104C9000036508705A9007A7E0F8740128F0E8C38C
:104CA0009405404B124D1D80467401650870437495
:104CB000016509900734702C740AF07401122B14EA
:104CC000E4F07402122B147403F004122B14E4F0B9
:104CD000A3F0A3F0A3F07408122B14E4125C951255
:104CE0002F178025740A124D13122AF1122CD7E9BE
:104CF000601790806F1226D37A017B00900731E015
:104D0000F9123ADB74041228C6740B1228C67F0508
:104D10000225C5F0901434E0F9901430229014303C
:104D2000E4F0A374F8F0A374FFF0A37407F0227406
:104D3000F6122398E9FFEAFE7AD1F91239978A82AE
:104D40008B83E5824583702A7A027B00123979EAE7
:104D50004B700E7A107B00900731E0F91239BB805E
:104D6000148A828B8374D1F0EFA3F0EEF9123985A7
:104D70008003EFA3F0024F6D74F712239889089017
:104D8000069312733E80288E828F83A3A3125BB595
:104D900060168E828F83A3A3A3E0F5838882A3127B
:104DA0005BB5FAA908123CD98E828F83127402FF78
:104DB000EE4F70D39006AAE0FAA908123CD912303F
:104DC000259007031254E812301F02720C74F1127E
:104DD0002398890A8C08750900750B00740F122B33
:104DE00014125E777411122B14125511804AE50EBD
:104DF000124E9AF50CA3E0F50DE50BC333FEE43338
:104E0000FFEA2EF582EB3FF583E0650C7004A3E02A
:104E1000650D7019E509C333FEE433FFEC2EF5820E
:104E2000ED3FF583E50CF0A3E50DF00509050EE572
:104E30000EC3950840B8050BE50BC3950A500575E0
:104E40000E0080EBA90902691174F4122398890BF2
:104E50007D00740C122B14125E7780010DEDC3954A
:104E60000B5032750A008002050AE50AC39C50EC1B
:104E7000EDC333FEE433FFEA2EF582EB3F124EAA78
:104E8000F509E50A124E9A65087004A3E0650970F9
:104E9000D779018002790002669BC333FEE433FFB9
:104EA000E82EF582E93FF583E022F583E0F508A3DB
:104EB000E02274F6122398124F547003A3E06D7031
:104EC0001775083875090778081228B3EEFA123EEC
:104ED0000574021228C6801F7508027509807808BB
:104EE0001228B38C088D0978081228B3124F40128B
:104EF0003E2974041228C6807474F6122398124F47
:104F0000547003A3E06D701775084575090778089C
:104F10001228B3EEFA123E0B74021228C6801F75D7
:104F2000080375098078081228B38C088D09780861
:104F30001228B3124F40123E2974041228C6802D45
:104F4000124F4EEF125CAAFD7C801262FB22EE240F
:104F50000EF58222EAFEEBFF12721112742AFCE4B3
:104F600039FD900703E06C2274021228C67F02020A
:104F700025C574F612239874FE122941EAFEEBFF50
:104F8000851882851983E4F0A312575612643FFAFC
:104F900088828983A3A3E0F975090075080060057C
:104FA00074FF6970057508828043900703E06A709A
:104FB00003A3E06B7020851882851983AA82AB83D6
:104FC00012358FE9F5098518828519831266A67056
:104FD0001C750883801790083AE06004640170052E
:104FE0007508818008E06402700375088085188266
:104FF000851983125511A908EEFAEFFB123E11E54F
:105000000960118518828519831266A660061269E7
:10501000E8123A1B024F6874F2122398EAFEEBFF83
:10502000750A00750B0012508B123025EA65087066
:1050300003EB650970121235A1E914F50A79017ABA
:105040006E7B071235A78003750B801271BBF50CC0
:10505000780C1228B7750C6E750D07780C1228B3F2
:10506000780A1228B778081228B3E50BF5087808F3
:105070001228B7126127F582EF126E1E7A057B8027
:10508000123E1774071228C6025E8512721112743E
:105090002AF508E439F5092274F6122398E9FE7F0F
:1050A00000802E8A828B83124EACF9E5082400E43E
:1050B00039F509EF33F8E433F9EC28F582ED39F5E9
:1050C00083E508F0A3E509F0EA2402FAEB3400FBDB
:1050D0000FEFC39E40CD024F6D74E812239874FB0E
:1050E0001229418A168B17851882851983E4F0747A
:1050F00003122B14E4F0A3F004122B14E4F012704A
:1051000031F50AA3E0F50B850A82F583127426FEB9
:10511000E439FF850A82850B83A3A3E0FA850A821E
:10512000850B83A3A3A3E0F9EAF508E439F509E5C3
:105130000A2404F50AE50B3400F50BEEFAEFFB1236
:1051400030C1E964016016EEFAEFFB1230C1E9707C
:105150003D900703E06E7003A3E06F60311258E8E2
:105160001228B7E4F508F50978081228B378081270
:1051700028B79007031226D775088078081228B739
:105180001254EE123E1774071228C60254DE12554E
:10519000178810602EC333FAE433FB123A157403F8
:1051A000122B141254E87403122B141266A6601307
:1051B0007403122B14125509A910123D098A0A8B87
:1051C0000B8003751000125517880F602AC333FA3D
:1051D000E433FB123A157401122B141254E87401D3
:1051E000122B141266A6600F7401122B14125509AB
:1051F000A90F123D098003750F00900693805D850D
:105200000A82850B83A3A3A3A3A3A3A3A3E4F0A370
:10521000F0AA0AAB0B851482851583A3A312552728
:10522000125BB5F9123985851282851383E0C0E0DF
:10523000851882851983E0F8746E28F58274071248
:105240007362D0E01266AA04F0E511A2E05007AA4A
:1052500012AB13123A1B851482851583E0F514A353
:10526000E0F515E5144515700302544B851482854D
:105270001583A3A3125BB560DD851482851583A316
:10528000A3A3A3A3A3A3A3E0A2E050CA851482858D
:105290001583A3A3A3A31266A6851482851583A3F1
:1052A000A3601F125BB5FA7901851482851583A36B
:1052B000A3A3A3125BBA1225268A128B13751101C0
:1052C000800F125527A3A3E0F512A3E0F513751183
:1052D00000E512451370030252498512828513833B
:1052E000A3E065087004A3E06509600F74FF65081A
:1052F000700474FF650960030252498512828513A8
:1053000083A3A3A3A3A3A3A31226D78512828513E5
:1053100083A3A3A3A3A3A3E0FC7405122B14126917
:10532000EEA910123CEB74021228C6E9703C8512FB
:1053300082851383A3A3A3A3A3A3A3A3A3A312263A
:10534000D7851282851383A3A3A3A3A3A3A3A3A397
:10535000E0FC7403122B141269EEA90F123CEB74DB
:10536000021228C6E97003025249E50F2510C33323
:10537000240AFA7B001239798A0A8B0BEA450B70F2
:10538000030252278A828B8374D2F0851682851796
:1053900083A3A3125E778A828B83A3A3125CAE8A57
:1053A000828B83A3A3A3A3E510127430E50FF0E56D
:1053B00010603DEA2405FAEB3400FBE50A240AF804
:1053C000E50B3400F98A828B83125CAE7403122BD6
:1053D0001412552C1228AFE510C333FCE433FD8AB8
:1053E000828B831269EE12395574031228C6800D20
:1053F0008A828B83A3A3A3A3A3E4F0A3F0E50F7099
:10540000030251FFE510C333F8E433F9E50A28F845
:10541000E50B39F9E8240AFAE93400FB850A8285AC
:105420000B83A3A3A3A3A3A3A3A31254E874011201
:105430002B1412552C1228AFE50FC333FCE433FDB7
:1054400012395574031228C6025211851882851923
:1054500083E060271258E81228B775086E750907AF
:1054600078081228B37403122B141258F21228B7BA
:105470009007031226D77508008029EEFAEFFB1279
:1054800030C1E9702F1258E81228B775086E7509F7
:105490000778081228B375080078081228B7900713
:1054A000031226D778081228B71254EE123E17744A
:1054B000071228C67403122B141266A6600B74031D
:1054C000122B141269EE123A1B7401122B1412667D
:1054D000A6600B7401122B141269EE123A1B7405AC
:1054E0001228C67F100225C5EAF0A3EBF022E516CC
:1054F0002402FCE5173400FDE516240FF582E517BC
:10550000125CAAF97A067B8022125511AA0AAB0B0B
:1055100022E0FCA3E0FD22850A82850B83E0F8A34C
:1055200085820A85830B22125BBAA322E0F50CA3C5
:10553000E0F50D750E00780C2274F112239874F4C6
:105540001229418A088B09ECFEEDFF740B122B1413
:105550007403F0122B14AA82AB8312431512301F6E
:10556000EAFCEBFD7403122B14AA82AB8312430FE7
:10557000E9600A1257266010E06401600B8518820A
:1055800085198374840256DA8E828F83A3A3A3A322
:10559000A3A3A3A3E06013F460101257267016EEC5
:1055A00024141271BE6003F4700B85188285198370
:1055B00074820256DAE508240CF582E5091271C1FD
:1055C00064217002A3E060030256B1851882851938
:1055D00083748C1257566403600302569B74011245
:1055E0002B14AC82AD83125E54124591E960030224
:1055F000569B123C6D8A0A8B0BEA450B70030256D0
:10560000DB8E0C8F0D750E00780C1228AF7C157D8B
:105610000012395574031228C6850882850983A3B0
:10562000A3E50A2415FCE50B3400FD74091227F4E8
:10563000126E041271C1C0E0E50A241EF582E50B6A
:10564000127362D0E0125C9DC0E0E50A241FF5826F
:10565000E50B127362D0E0F0E50A2420F582E50B39
:105660001273627405F0EE240BFEEF3400FFEEFAC5
:10567000EFFB12363D7D007C007900EEFAEFFB1265
:105680003DCF90806F1226D37A007B10900731E0D7
:10569000F9123ADB74041228C680781257181228BF
:1056A000B712572F1245A974011228C6E9702C8031
:1056B000141257181228B712572F1245A37401124B
:1056C00028C6E9700D851882851983E4F0123C3DE7
:1056D00080098518828519837488F0126E04125728
:1056E0001E1228B77401122B1485820A85830B7849
:1056F0000A1228B3E508240CF582E509125E644419
:1057000080F50B780A1228B31261EB123DC37405C1
:105710001228C6740C02690EEE2414F582EF125C96
:10572000AAF50A780A221271B4125CAA640322EE66
:10573000240BFCEF3400FD8E828F83A3A3A3A3A3CD
:10574000A3A3A3A3126A2B8E828F83A3A3A3A3A3D5
:10575000A3A3A3E0F922F01271B4125CAA22C082C2
:10576000C08374F3122941851882851983E4F004FB
:10577000122B141254E87403122B14AA82AB831256
:105780002BBD851882851983AA82AB83122BF374F3
:105790000D1228C60269DD74F6122398EAFEEBFFAB
:1057A000125E71888289831270D1900740E058F5AB
:1057B00008A3E059F509E5084509601C7808122896
:1057C000B39007031226D71271BBFD7C001262F75B
:1057D000123E2374041228C6024F6D74F4122398EB
:1057E00074FF122941EAFEEBFF851882851983E4D4
:1057F000F090082EE070030258D5EE240B1271BE13
:10580000640170030258D58E828F83A3A3125E7742
:10581000EE24151271BE687003A3E069600302589C
:10582000D5125E71E8FAE9FB88828983A3A3A3A35A
:10583000A3A3A3A3E0FC88828983A3A3A3A3A3A318
:10584000A3A3A3E0F9EC2400F508E439F509EC453D
:10585000096010EC9471E99408500890083AE064EB
:1058600002700A85188285198374808037122C2F64
:105870008A0A8B0BA80AA90BE849602088828983D1
:10588000A3A3A3A3E014C394025011E82412125856
:10589000DAE824141258DA123C3D80098518828512
:1058A00019837481F0124F4EEF1258EF1228B7741B
:1058B00001122B1485820885830978081228B37594
:1058C000081F75098078081228B312611C123DC3A5
:1058D00074051228C67401026698F582E91271CF28
:1058E000E508F0A3E509F022E516124F4FE517127F
:1058F00071CFE0F50878082274EA12239874DB125D
:1059000029418A148B15751200751300125BAFF5CF
:105910000E851882851983AC82AD837A007B00796D
:105920009C122D017A047900122C05EAF50C8518D9
:1059300082851983E0250CF0F8E50EC39840030238
:105940005B3DE0C3950EF509C3940440037509035C
:10595000E50975F01AA4FAABF0123A158A128B1306
:10596000EA45137003025B40750D00AE12AF13855C
:105970000E080259FF125B94123961850A82850B69
:1059800083A3A3A3A3E07039850A82850B831266E3
:10599000A67012125E5D126FFEEE2418F582EF12F1
:1059A0007362E48016125BA3F090055CE014C0E023
:1059B000EE2418F582EF127362D0E0125BF0E480FF
:1059C0003B90055CE004C0E0EE2418F582EF127312
:1059D00062D0E0125BE8C39403EE4003025A9B12CC
:1059E0005E5E126919125BE864017003025AA8EE48
:1059F0002415125BA6F0EE2416125BA6125BC3E51B
:105A00000DC395094003025ACDE508C3950C400328
:105A1000025AB285080AAA0A7B00122C6B8A0A8BEA
:105A20000B0508900549125BCF124315850A828544
:105A30000B83125E77125B861270B6125BFD850ACD
:105A400082850B83A3A3A3A3A3A3A3A3A3A3E0C0C3
:105A5000E0EE2419F582EF127362D0E0F0740112C7
:105A60002B14E4F0850A82850B83125E7774021290
:105A70002B14125CAE7401122B14AA82AB83122B6E
:105A8000E1E9640160030259757404122B14AC82BD
:105A9000AD83125B9A12431502597B125BA4125B11
:105AA000E8640360030259EF125B8D127362E40233
:105AB00059F5E50CC3950E40057508008016E50EF6
:105AC000C3950CF508800D125BA3125BC3E50DC3F3
:105AD0009509506C740E122B14AC82AD8385080AA4
:105AE000AA0A7B007987122D0105087418122B145D
:105AF000125BCF124315125B94123961EE2412F837
:105B0000EF3400F9740E122B141269EE8882898327
:105B1000EAF0A3EB125BF07403125BFD741D122B11
:105B200014E0C0E0EE2419F582EF127362D0E012A7
:105B3000694D7093125E5D127362E4808D75090089
:105B4000750A00780A1228B778121228B378091259
:105B500028B7E50EF50978091228B77405122B1439
:105B6000E0FD7C00126E0C123E5F74051228C6E543
:105B70001245136007AA12AB13123A1B74251228A0
:105B8000C67F0E0225C5EE2412F582EF22EE241503
:105B9000F582EF227C087D0079FFEE240AFAEF34CB
:105BA00000FB22EE2414F582EF1271CF7401221251
:105BB000737F1271CF125BBAE022E0F8A3E0F583A5
:105BC000888222F0EE241AFEEF3400FF050D221227
:105BD0005E7B8E828F83E8F0A3E9F07C5D7D05EE2D
:105BE0002402FAEF3400FB22127372A3A3A3E02273
:105BF000F0EE2415125C0D24161271CC22F0EE2466
:105C000017125C0D24181271CC74FFF022F582EF8C
:105C10001271D37402F0EE2274F612239874F91202
:105C200029418A088B091274AA12396D8518828558
:105C30001983122AFD125C87C0E07404122B14D061
:105C4000E0127344A3E0FA7405122B147401F0748B
:105C500006122B147401F090070DF0900716041231
:105C60007386A3125E7790070E125CAEEA90071758
:105C7000125C9D90070C125C95122CA7E960031230
:105C80002CAD7407024F6AEE2404FEEF3400FF8E41
:105C9000828F83E022126437AA82AB8322F0E50868
:105CA000240F125CA622F582E509126ED522E8F0D7
:105CB000A3E9F02274F212239874FF1229417508A7
:105CC000007E007F00122F478A0A8B0B122F478A13
:105CD0000C8B0DA80CA90D80090508126B36E91272
:105CE0005E74E84970F390083AE06007640160036D
:105CF000025DD1122F478A0C8B0DA80CA90D8007CD
:105D0000126B36E9125E74E8496037888289831223
:105D100069EE900549E06A7003A3E06B600E126BB8
:105D200036E91273621269EEEA4B70D48882898375
:105D3000125E77900549E0687003A3E06970030282
:105D40005DD17A167B00123A158A0C8B0DAE0CAF22
:105D50000DEE4F607C900549125E778E828F831224
:105D60005CAE90053EE08E828F83A3A3F01230A933
:105D7000E98E828F83A3A3A3A3A3F090143512739B
:105D800066F07C5D7D05125E541243158518828590
:105D90001983AA82AB8379411243D585188285196C
:105DA00083E06008900703125E77800478FE79FF35
:105DB0008E828F83A3A3A3A3A3A3A3125CAE125EC0
:105DC0005D127362E50AF0A3E50BF08E0A8F0B05F6
:105DD00008900717E0F8E508C39850047A0080227D
:105DE000E508C398FAC3940640027A057900800D4D
:105DF000E50A126B37E50B125E64F50B09E9C398EF
:105E000040EE75090078091228B7780A1228B3EA1B
:105E1000F50978091228B7900717E0F509780912F3
:105E200028B7AD087C007A0E7B0790070CE0F912CA
:105E30003E5974051228C690083AE0600464017067
:105E40000BEE4F6007EEFAEFFB123A1B122CAD740B
:105E500001025085EE240BFAEF3400FB22EE2414ED
:105E6000F582EF22125E68221271D3E0F50AA3E0F8
:105E7000221271B41271CF125E7B22E0F8A3E0F916
:105E800022EEFAEFFB7F060225C574EC122398740C
:105E9000FF1229418A0A8B0B7E008E0E8E0F125B39
:105EA000AFFF851882851983AC82AD837A007B00B1
:105EB000799D122D01851882851983E0F8EFC3982A
:105EC0004003025F66E0C39FFEC3940B40027E0A5C
:105ED000EE75F007A4FAABF0123A158A088B098A1E
:105EE0000E8B0FEA450F607C750C008017850882C9
:105EF000850983A3A3A3A3A37403F0E508240712D1
:105F000072FC050CE50CC39E505CAC08AD09850C19
:105F1000108F12E5102512FAE43400FB798B122D54
:105F200001850882850983A3A3A3A3A3E0146008C5
:105F300014601314601F80B5850882850983A3A3AC
:105F4000A3A3A3E480B4850882850983A3A3A3A3A4
:105F5000A3740180A5850882850983A3A3A3A3A3B5
:105F6000740280967E0075080078081228B7780EB3
:105F70001228B3EEF50878081228B7EFF50878086C
:105F80001228B77405122B14E0FD7C00E50A2402E8
:105F9000FAE50B3400FBE50A240FF582E50B126EDF
:105FA0001E123E6574051228C6E50E450F6007AA4D
:105FB0000EAB0F123A1B74011228C67F0C0225C5C6
:105FC00074EA12239874FE1229418A148B15750AFB
:105FD00000750B00125BAFF508851882851983AC3C
:105FE00082AD837A007B0079A312459D85080C85DC
:105FF0001882851983125E77C3E50C98E499507F67
:10600000851882851983E0C3950CFEA3E09400FFF8
:10601000C3EE9404EF940040067E037F008004EEFC
:106020004F605CEEFAEFFBEA75F015A4FAA8F07584
:10603000F015EBA428FB123A158A0C8B0D8A0A8BFB
:106040000BEA450B6039750900750E00850E10C30B
:10605000E5109EE49F502DAC0CAD0D850E12850809
:1060600010E5122510FAE43400FB79A212459DE5F3
:106070000C2415F50CE50D3400F50D050E80CD75DD
:10608000098B7E00750C00780C1228B7780A12284C
:10609000B3EEF50C780C1228B778081228B77405FF
:1060A000122B14E0FDAC09126E0C123E6B7405123B
:1060B00028C6E50A450B6007AA0AAB0B123A1B7407
:1060C00002025B7E74F612239874FF12294112714A
:1060D000B0127204A3A3A3A3A3A3A3A3E0F9122C59
:1060E000CBE9851882851983F07508007808122895
:1060F000B77401122B148582088583097808122849
:10610000B375083575098078081228B312611C121E
:106110003DC374051228C67401024F6A79011261E9
:1061200027FAEF3400FB22EE2402FCEF3400FDEEF0
:10613000240F2274F412239874FA1229418A088BCE
:10614000091270CBFAEFFB122BC3E9601312301F58
:10615000EAFCEBFDEEFAEFFB12430FE96401700A73
:106160007401122B14E4F0A380097401122B14EEB5
:10617000F0A3EF126928A3A3A3A3A3A3E0F8A2E6C8
:1061800050087403122B147401F0E8A2E75008744D
:1061900004122B147401F07405122B14E4F0041291
:1061A0002B14AA82AB83122CF5E9851882851983FA
:1061B000F07A007B00123043750A00780A1228B783
:1061C0007401122B1485820A85830B780A1228B376
:1061D000750A34750B80780A1228B31261EB123DF0
:1061E000C374051228C674060266987901E508246E
:1061F00002FCE5093400FDE508240FFAE509340046
:10620000FB2274F612239874FF1229411271B01206
:106210005BB2F9122CB9E9851882851983F0EE2456
:106220000B1271BE702E75080078081228B7740121
:10623000122B1485820885830978081228B3750803
:106240003675098078081228B312611C123DC37498
:10625000051228C602611702287874F41223987474
:10626000EF122941EAFEEBFF12508B900703E06525
:10627000087004A3E0650970588518828519838524
:10628000820A85830B780A1228B3750A11750B00F0
:10629000780A1228B37C007D007A817B00123A9F35
:1062A00074041228C6E97029750A00780A1228B702
:1062B0007401122B1485820A85830B780A1228B385
:1062C000AC08AD091262F7123E1D74031228C68095
:1062D00021750A11750B80780A1228B378081228E4
:1062E000B31271BBFD7C841262F7123E2974041252
:1062F00028C674110266981262FB22EE2402FAEF9D
:106300003400FBEE240FF582EF126ED5F92274F102
:1063100012239874EB122941EAFEEBFF1271C5E0DB
:1063200012643F2400F508E43BF509900703E0659B
:10633000087004A3E0650960030263DC8882898336
:10634000A3A3E09410500F88828983A3A3E085184B
:106350008285198380088518828519837410F0E07E
:10636000C0E07404122B14D0E01271E5A3A3A9823B
:10637000AA83890C8A0D750E00780C1228AF740759
:10638000122B14E0FC7D007408122B14AA82AB833C
:1063900012395574031228C67404122B1485820A0C
:1063A00085830B780A1228B3750A11750B00780AD9
:1063B0001228B37C007D007A817B00123A99740424
:1063C0001228C67404122B14E09007386005E0D23E
:1063D000E48003E0C2E4126437E480088518828513
:1063E00019837484F0E0C0E07401122B14D0E0F043
:1063F0007402122B14E508F07403122B14E508F054
:10640000124F4EEF1258EF1228B77402122B148558
:10641000820885830978081228B3750814750980E5
:1064200078081228B3790312611E123DC374051255
:1064300028C6741502690EF0851882851983221208
:10644000721AE0FCA3E0FBEC2274F412239874E0CF
:106450001229418A088B09851882851983AC82AD7F
:1064600083123DB190083AE0640270337402122B3B
:1064700014AE82AF8312301FEEFCEFFD12430FE922
:10648000601D1230258A0A8B0BA80AA90B85188279
:10649000851983E0687003A3E069700302669612B1
:1064A00031DB7402122B141269E41230F1E9640139
:1064B00070030266967418122B14AA82AB831230F2
:1064C000317402122B14AC82AD837418122B14AAEF
:1064D00082AB8312430FE9603212302B8A0A8B0B96
:1064E000A80AA90B851882851983E0687003A3E0C8
:1064F000696018851882851983125E7790053F12AE
:106500005CAE7A3F7B05794B1243DB90083AE06042
:1065100007640160030265BC12735AC082C0831213
:1065200030258A088B09D083D082E065087004A3E7
:10653000E06509605C7402122B14AA82AB83122CF2
:106540002F8A088B09A808A909E84960268882894A
:1065500083A3A3A3A3E06401600D88828983A3A31E
:10656000A3A3E06402700C7402122B14AA82AB8302
:10657000122C3B9005DD1266A6601690082EE06492
:1065800001700E1269E89005DEE0F583888212251D
:10659000261230258A088B09A808A9098518828542
:1065A0001983E0687003A3E06960117402122B1470
:1065B0001269E4122C11E96003123C3D7402122BA3
:1065C000141269E41231C979001269E8122E3F747D
:1065D0000B122B14E41266AAF8A3E0F9740C122B28
:1065E00014125CAE740B122B14AA82AB83122BE133
:1065F000E9604B7C087D0079007418122B14AA8284
:10660000AB83123961740E122B14AC82AD837418F3
:10661000122B14AA82AB8312430FE9602174021279
:106620002B14AC82AD83740E122B14AA82AB83128E
:106630002BBD740B122B14AA82AB83122BF37402A2
:10664000122B14AC82AD83740E122B14AA82AB836E
:10665000122BBD740B122B14AA82AB83122BE7E909
:106660006034740C122B14125E778518828519839E
:10667000E0687003A3E069601D85188285198312A4
:106680005E77740C122B14125CAE740B122B14AACE
:1066900082AB83122BF374201228C67F040225C517
:1066A000F582E81271CF126B6622126437E0227411
:1066B000F112239874F6122941EAFEEBFF750800E7
:1066C0009007A41266A670537A377B00123A159091
:1066D00007A4EAF0A3EB126EDB60197C377D00792A
:1066E00000123961EEFCEFFD9007A41269EE123D35
:1066F00081E9700B851882851983748802686B1292
:1067000071D8242EF582E8125BA9F07C8D7D3D9036
:1067100004D31269EE12460902690CE0C8242E1255
:106720006916F0EEFCEFFD126E23123D81E9700C4C
:106730008518828519837488F0750801750A6E754D
:106740000B07780A1228B31269FE1226D71271D8E5
:106750002428F582E81271C1FC126A311271D81234
:106760006B37E8126E1E123CE574041228C61269DB
:106770001F12692E2431F582E81271C16043126E36
:10678000C0FAE433FB123A159007A4E024321269F0
:10679000436022750C6E750D07750E00780C12287B
:1067A000AF126EC0FCE433FD126A1C12395574033B
:1067B0001228C6800C8518828519837488F07508A4
:1067C00001780A1228B31269F21226D71271D8245E
:1067D00011F582E81271C1FC126A131271D8242BD0
:1067E000F582E8126E1E123CE574041228C612717E
:1067F000D8243412692E2434F582E81271C1603530
:10680000126EB7FAE433FB123A159007A4E0243570
:106810001269436045750C6E750D07750E00780C96
:106820001228AF126EB7FCE433FD126A0A12395512
:1068300074031228C6E508A2E0402812691FF582F9
:10684000E81271C170089007A4126E8860157B0071
:106850007A007900123D8702690C851882851983B8
:106860007488F08518828519837486F07409122B58
:10687000147402126928126E82122B14125CAE8EEE
:10688000828F83A31258F21228B77401122B148539
:10689000820885830978081228B375082075098055
:1068A00078081228B379017406122B14AC82AD83D8
:1068B000EEFAEFFB123DC374051228C6126E657026
:1068C000487409122B147402F0126E7A122B1412EF
:1068D0006EE21228B77401122B1485820885830991
:1068E00078081228B375082075098078081228B333
:1068F00079017406122B14AC82AD839007A412693F
:10690000EE123DC374051228C6123D7B740A12288C
:10691000C67F070225C5F582E81271CF7402229066
:1069200007A4126E3F243122127348A3A322F582DA
:10693000E81271CF126939C822E9F09007A4E0F893
:10694000A3E022F8A3E0126954EAF0A3EB1271FE6F
:10695000126B66223400F98882898322C082C08348
:106960009007A41266A66075E0C824351266A06080
:1069700006126A0A123A1B1271D824321266A060FB
:1069800006126A1C123A1B1271D824121266A060F9
:10699000091269F21269EE123A1B1271D82415120B
:1069A00066A06006126A31123A1B1271D8242912AD
:1069B00066A060091269FE1269EE123A1B1271D8C4
:1069C000242C1266A06006126A13123A1B9007A4C8
:1069D0001269EE123A1B9007A4E4F0A3F0D083D022
:1069E00082022878AC82AD83851882851983126A69
:1069F0002B22126E3C2412F582E81271CF22126E05
:106A00003C2429F582E81271CF22126E3C24351203
:106A10006A2522126E3C242C126A2522126E3C2416
:106A200032126A2522F582E81271D3E0FAA3E0FB64
:106A300022126E3C2415126A252274F1122398EA60
:106A4000FEEBFF8C088D09750A018C0C8D0D750EFF
:106A500000780C1228AF7C177D0012395574031290
:106A600028C6125B86126FFEA3F0125B8D127004B3
:106A70002411F582E5091271C1603EEE2412F8EF8F
:106A80003400F9880C890D127029123A15126B53D3
:106A90006024E5082412126B471228AFE508241180
:106AA000126B3C125B871273621269EE12395574D5
:106AB000031228C68003750A00E508126B37E50942
:106AC0001271C16039EE2415F8EF3400F9880C8991
:106AD0000D127029123A15126B536055E5082415F2
:106AE000126B471228AFE5082414126B3C125B8E20
:106AF0001273621269EE12395574031228C6E50A40
:106B0000A2E04028125B861266A3600C125B86121C
:106B100073621269EE123A1B125B8D1266A3600C4F
:106B2000125B8D1273621269EE123A1BA90A026996
:106B300011750A0080CEE82414F58222125CA6C3E7
:106B400033FCE433FDEE22125CA6F50CA3E0F50D58
:106B5000780C22850C82850D831254E8850C828581
:106B60000D83126B6622E0F8A3E0F9E8492274EE87
:106B700012239874ED122941890A8A0E8B0F750C25
:106B800000750D00750BFF7510FF7511FF7508007E
:106B9000750900851882851983E4126EDB601A740A
:106BA00003650A60067402650A7013E0C82430F5B4
:106BB00082E81271C1650F60057900026DFA7C8D63
:106BC0007D3D7A007B001246097401650A700A85D2
:106BD00018828519837485803DE50A600674036513
:106BE0000A70199007A4126E49F07403650A70299F
:106BF000E50E6029851882851983801A7402650A5A
:106C0000701BE50E9007A47005126E498008127182
:106C1000DB242F126916F08004E50A6021126E4F02
:106C2000701C126E736005126922800A126E8860F1
:106C30000D1271D82434F582E81271C114F0126E6D
:106C4000736022124EACF509126EC0F8E433F9906D
:106C500007A4E0FAA3E0CA2432126E95241D126E36
:106C6000302425802D126E8860309007A4E0241710
:106C7000F508A3E0127300126EB7F8E433F9900739
:106C8000A4E0FAA3E0CA2435126E952406126E30F1
:106C9000240EF582E81271C1F50B7409122B1474DD
:106CA000021266AA6003026D5DE5084509700302E1
