:020000040000FA
:10000000021AC3022003FFFFFFFFFF02200BFFFFC6
:10001000FFFFFF022013FFFFFFFFFF02201BFFFF78
:10002000FFFFFF022023FFFFFFFFFF02202BFFFF48
:10003000FFFFFF022033FFFFFFFFFF02203BFFFF18
:10004000FFFFFF022043FFFFFFFFFF02204BFFFFE8
:10005000FFFFFF022053FFFFFFFFFF02205BFFFFB8
:10006000FFFFFF022063FFFFFFFFFF02206BFFFF88
:10007000FFFFFF022073FFFFFFFFFF02207BFFFF58
:10008000FFFFFF022083FFFFFFFFFF02208B902076
:1000900000000100000000C8030000000400FFFF92
:1000A000FFFFFFFFFFFFFFFFFFFF0403090424031F
:1000B00054006500780061007300200049006E0064
:1000C00073007400720075006D0065006E007400AE
:1000D0007300240354004900200043004300320011
:1000E000350033003100200055005300420020004D
:1000F00043004400430000035F005F0030005800ED
:1001000000000000000000000000000000000000EF
:1001100000000000000000000000000000000000DF
:10012000303132333435363738394142434445462D
:10013000E7173C183C183C183C18441874F7121781
:1001400081120764600302021AA3E0F8A3E06003CF
:1001500002021AA3E064027002A3E0600302021A22
:100160009003B6E02480600914604F14605C0202C2
:100170001AE8600302021A9003B0E060047801807C
:100180000278009003BEE8F0A3E4F09003AFE060D3
:100190000A9003BEE04402F0A3E4F09003A4E064FC
:1001A0000460149003B174BEF0A37403F0A3E4F0F0
:1001B000A374021207C6F002084690039DE064048F
:1001C00070589003BEE4F0A380D0E8547FF5089007
:1001D000039DE064047043E508C39406503C749D9D
:1001E0002508F58274033400F583E854806018A371
:1001F000A3A3A3A3A3A3E0640370047801800278FF
:10020000009003BEE88090E582240CF582E58334FB
:1002100000F583E0640370E780E19003A474048038
:100220009574F7121781E9FE9003BC12076760030B
:1002300002030790039DE06404600B9003BA120769
:100240006760030203079003B6E0541F600914605F
:10025000301460200203079003B8E064017022EEBE
:100260009003AFF060047905800279067A001217D6
:100270007F02030D9003BAE0547FFA9003B8E06068
:1002800005790002030FEAC39406507BEA90620EE0
:10029000F08A08749D2508F874033400F99003BAB5
:1002A000E05480602CEE6004741080027440906210
:1002B00011F0EE600474038001E488828983A3A3B3
:1002C000A3A3A3A3A3F0EE6004790880317907808B
:1002D0002DEE6004742080027480906214F0EE6051
:1002E0000474038001E4C0E0E8240CF582E93400E2
:1002F000F583D0E0F0EE6004790A800279091217E4
:100300007F90620EE480059003A47404F0790102EA
:1003100008467900120221E9700312176E22790152
:10032000120221E9700312177D22C082C08390035C
:10033000BA1207677015A3120767700F9003B812FF
:1003400005085480FAE9FBEA4B60079003A47404A3
:10035000801AE8906200F090039D6009E0640270EA
:100360000C74038007E0640370037402F0D083D040
:10037000822274F31217819003B8E0FAA3E01460AC
:100380000814601014603B805912136A1204E5A32C
:100390007B808043790012138C1204E57B80E92472
:1003A00002F9EA3400FA121A14FC1919E0FAA3E966
:1003B0002403F9EA3400FA121A14F9ECA3F0A3E9C1
:1003C000801CEAF91213FA9003B1EAF0A3EBF0A350
:1003D000E41204F4A37B00121A14A3F0A3E4F002C5
:1003E000049F9003B1E4F0A3F0A3F0F50B90046632
:1003F000E0FAA3E0FB02047A75090074037808129E
:100400001AB0EA2508F8EB3509F99003B81204FE92
:10041000E493C0E0EFFCD0E06C705DA3E4936E70F9
:10042000579003BA1204FEA3A3E493C0E0EFFCD0FC
:10043000E06C704488828983A3A3A3E4936E703830
:1004400088828983A3A3A3A3E493F508740193F599
:10045000099003B1E508F0A3E509F0A37480F088E2
:10046000828983A3A3A3A3A3A3E493F8740193F9BC
:100470009003B4E8F0A3E9F0050B850B089004683D
:10048000120508C39AF50CE99BF50D7403780C125C
:100490001AD2C3E508950CE4950D50030203F890B9
:1004A00003B1E0FCA3E0FDA3E0FEEC4D4E9003A4FD
:1004B000700474048029E0640460259003BCE0FAB1
:1004C000A3E0FB9003B4E0F8A3E0F9C3EA98EB994A
:1004D00050089003B4EAF0A3EBF09003A47401F089
:1004E0007F060219329003B1EAF0A3EBF0A3748007
:1004F0001204F422F09003B1E0F9A3E0FA22E0FE46
:10050000A3E0FF8882898322E0F8A3E0F9E822745F
:10051000EE121781EA2404F8EB3400F988088909FF
:100520008882F583E493602590046A120508FEE949
:100530008007EE2404FEEF3400FF8E828F83E49365
:10054000F8740193F9EA687002EB6970E5750C00C4
:1005500080409062147490F07410120665700375F8
:100560000D408E828F83A3A3A3E49355106006E50C
:100570000DD2E0F50DE50D906215F0EA906213F0F2
:10058000EC240CF582ED3400F583E4F090620EF07B
:10059000050C850882850983E493F8E50CC398402F
:1005A000030206607A0079051212FD8A0E8B0FEAAB
:1005B000450F60DCEA2402F8EB3400F9880A890B65
:1005C0008882F583E493540FF51290620EF0750D56
:1005D000008A828B83A3A3A3A3E4932407F510A32B
:1005E000E4933400F51174037810121AD2AA10851E
:1005F0001210749D2510F874033400F9E8FCE9FD2D
:10060000751001751100E5127810121AB0E50E246C
:1006100003F8EB3400F9850A82850B83E493A2E7A3
:1006200040030205529062117448F0740812066586
:100630007003750D408E828F83A3A3E493551060E1
:1006400006E50DD2E0F50DE50D906212F0EA90623C
:1006500010F08C828D83A3A3A3A3A3A3A302058A76
:100660007F0B021932F088828983E493540364017A
:1006700022C082C0831207647010A3120767700A39
:10068000A3E064017002A3E060079003A4740480F7
:100690000C9003B1749EF0A374031207BCF0020324
:1006A0006D74F412178190039DE06402601490034E
:1006B000BA120767700CA312076770069003B9E0BF
:1006C00060099003A47404F002075F7A00790112B4
:1006D000177F9003B8E060727A00F912138C8A08D1
:1006E0008B09EA4509605B90039D7404F09003B8A0
:1006F000E090039EF0750C00850882850983A3A312
:10070000A3A3E493F8E50CC398504D850C0A749F9D
:10071000250AF874033400F9E8FEE9FF8E828F831E
:10072000E4F07A0079041212FD8A828B83A3A3A3DA
:10073000E493F88E828F83E06870E712050F050C52
:1007400080B69003A47404F0800E90039EF0900392
:100750009D7403F0F9120F367A00790212177F7F29
:10076000050219329003B8E0F8A3E0F9E8492274D1
:10077000F612178190039DE0640470199003B6E0AF
:1007800064817011120764700C9003BCE064017006
:1007900002A3E060079003A47404801A9003BAE0F7
:1007A000249FF508A3E03403F5099003B1E508F0B0
:1007B000A3E5091207BCF07F03021932F0A3E4F0AD
:1007C000A3041207C622F0A3E4F09003A404227449
:1007D000F712178190039DE0640470649003B6E003
:1007E0006401705C9003BC12076770549003B8E01A
:1007F000FB9003BAE0FA90039EE0F91213C48A0852
:100800008B09AE08AF09EE4F60369003BAE0FA7973
:100810000312177F9003B8E0C0E09003BAE0249F72
:10082000F8A3E03403F988828983D0E0F0EEFAEF90
:10083000FB12050F9003BAE0FA790412177F8006C5
:100840009003A47404F07F0202193274F812178125
:1008500074FF121A477E008033900384E0F88518F5
:1008600082851983E068700D900382E0644D700505
:10087000120ABAE9FE900385E4F0900387F0851828
:1008800082851983E0F8900384E068F07901851887
:1008900082851983AA82AB831210ABE97003020927
:1008A00049E0C0E0900387E0F8900385E0FAE82A89
:1008B000F8E43400120C52D0E0F0900387E06011AD
:1008C00014602014603E14604E14606414608A80CA
:1008D000AD851882851983E064FE70A29003877449
:1008E00001809A900384E4F0851882851983E09052
:1008F0000386F0C394809003874004E402087D746B
:100900000202087D851882851983E0900382F090A9
:100910000387740302087D851882851983E090039C
:1009200083F0900386E06019900387740402087DC9
:10093000900385E004F0F8900386E0686003020805
:100940007E900387740502087DEEF974011219FA8E
:100950007F0102193274ED12178174FB121A477568
:1009600008047509007808121A777402121AEEAC9E
:1009700082AD837A907B00790412151D74021219DE
:10098000FA851882E0F47003A3E0F4600F85188202
:10099000851983E0F8A3E0F9E8497003020AAE7410
:1009A00002121AEEE0687003A3E0697003020A887D
:1009B0007508007510007511207512007513008000
:1009C0000A9003C07810121A88604C750A01750BE2
:1009D00000780A121A777406121AEEAC82AD83857B
:1009E000100A85110BAA0AE50B5407FB8A0C851126
:1009F0000D85120E85130F740B780C121A2EA90C8C
:100A000012151D74021219FAE0F9AA08AB09120CAA
:100A10006C8A088B09800C75109375112075120073
:100A20007513009003C47810121A9D9003C87810B3
:100A30001219C0508CE4F9120C6CE4F9120C6C74AD
:100A400002121AEEEAF0A3EBF075080175090078BE
:100A500008121A777402121AEEAC82AD837A247BE4
:100A6000081215A274021219FA7508047808121AED
:100A7000777402121AEEAC82AD837A907B0079040F
:100A800012151D74021219FA120C5E121AEEE068A9
:100A90007003A3E0697017851882851983E0F470EC
:100AA00003A3E0F46008E84960047901800279005A
:100AB00074051219FA7F0C02193274F3121781743B
:100AC000FC121A47900306E0FAA3E0F8E4C8F9EA3A
:100AD0002400FEE93408FF750A01880988088E0C95
:100AE0008F0D7409780C121AD2A90CEEF50CEF5484
:100AF00001F50D900383E014600914602C14606903
:100B0000020C02EA450D7003121608750C10750DE3
:100B100000780C121A777C087D03EEFAEFFB1215B1
:100B2000A274021219FA020C02E9C3947940067504
:100B30000901020C02750A40750B00780A121A7737
:100B40007C097D037402780C121AB0AA0CAB0D124A
:100B5000151D74021219FA900307E0A3F090030622
:100B6000E0A3F0750A43020C02750C04750D0078C1
:100B70000C121A777402121AEEAC82AD837A907B53
:100B800000790412151D74021219FA7402121AEE79
:100B9000E0F8A3E0F9851882851983E0687003A363
:100BA000E0696047120C5E121AEEE8F0A3E9F075F6
:100BB0000C01780C121A777402121AEEAC82AD8313
:100BC0007A247B081215A274021219FA750C0478A3
:100BD0000C121A777402121AEEAC82AD837A907BF3
:100BE00000790412151D74021219FA120C5E121A01
:100BF000EEE0687003A3E069700575080180037575
:100C00000907900305E0D2E7F0E509A3F0E50A90B3
:100C10000303F0744D650AF5097404250AFB7A0391
:100C20008004E062090AEAF83395E0120C52EAC344
:100C30009BA2D265D03340EAE509F074012AF97A23
:100C4000027B031210EBA90874041219FA7F060242
:100C50001932F9740228F582740339F58322851854
:100C600082851983E0F8A3E0F9740222C008C00964
:100C70007C088A088B09740F7808121AD2EAC333E9
:100C8000FAEB33FBE9A2E7500474014AFAE508A243
:100C9000E0500874216AFA74106BFBE9C333F91C45
:100CA000EC70CFD009D00822C082C0837A007901CD
:100CB00012138C8A828B83A3A3A3A3A3A3A3E4937D
:100CC000A2E69003B0500474018001E4F09003AFF9
:100CD000E4F090620F7403F0E0A2E750FBD083D001
:100CE0008222C082C08390039D7402F0A3E4F0903E
:100CF00003A4F07903120F3675210075220080DD00
:100D000074F612178190620EE0FEE4F0906211E03A
:100D1000FFA2E4501D7480F09003A47407F0E52155
:100D200045226009852182852283121B009003A43D
:100D3000E4F0EFA2E2500B906211E4F09003A4F013
:100D400080629003A4E0F87402687041906216E03B
:100D5000FF9003B1121972EFF97A207B62120F6EC5
:100D600074031219FA8F089003B4120F0B120F16A6
:100D7000E0F8A3E0F9E84960047440800274489008
:100D80006211F0E8496003020F01020EDD7406688B
:100D90007009852182852283121B009003A4E060E4
:100DA00003020E8DEFA2E04003020F017508B67535
:100DB0000903750A007808121A7379087A207B6291
:100DC000120F6E74031219FA752100752200900338
:100DD000B6E054E0601D24E07003020E6924E06078
:100DE0007224C0604824E07003020E7424E0606E38
:100DF000020E7FA3E014602624FE601D24FE600A1C
:100E000024FC601F24FE6020807512032A9003A436
:100E1000E0640470727460807012031E80EF12032D
:100E20001280EA1206A180E51207CF80E0A3E060FD
:100E30000E24FA600F24FE601024FE601180401220
:100E4000013C80C912037280C412067180BF120770
:100E50006F80BA75216A75221712176A80AF7521E3
:100E60006C75221712176C80A47521057522171254
:100E700017058099752135752217121735808E90C8
:100E800003A47404F0808E7440906211F09003A467
:100E9000E0F8740168705C7F029003B4E0F8A3E0AE
:100EA000F9C3E89420E994005007E8F50A7F0A8026
:100EB00003750A209003B1121972A90A7A207B6285
:100EC000120F9374031219FA850A08120F16120FE3
:100ED0000BEF906211F0E50AC394205024E5214500
:100EE000226009852182852283121B009003A4E4DD
:100EF000F0800E7405687009852182852283121B9B
:100F000000EE90620EF07F03021932C3E09508F004
:100F1000A3E09400F0229003B1E0F9A3E0FAA3E08B
:100F2000FBE92508F9EA3400FA9003B1E9F0A3EAF5
:100F3000F0A3EBF0A32274F71217817800880874ED
:100F4000A52508F5827403120F6240F17800880825
:100F500074AA2508F5827403120F6240F17F020221
:100F600019323400F583E9F008E8C394052274F6D9
:100F7000121781EAFCEBFDE9F8740A121AEE120F5F
:100F8000C3600D8C828D83E0121A5D120FB870F36E
:100F9000020F0674F6121781EAFCEBFDE9F8740AF9
:100FA000121AEE120FC3600D121A148C828D83F088
:100FB000120FB870F3020F06E9240109EA3400FAAF
:100FC00018E822E0F508A3E0F509A3E0A908AA09BA
:100FD000FBE822C082C0838003121664A2E840F9B5
:100FE000A823E8540460097823E654FBF6120CE2C7
:100FF000A823E8541060097823E654EFF6120D0098
:10100000A823E8A2E05005782354FCF690620EE095
:10101000FA7404F0906214E0A2E05042E5A8F8C22D
:10102000AF906216E0F9A3E0E9FBE8A2E792AF8097
:101030001F906228E0C0E0900391E0F8746E28F5FC
:101040008274053400F583D0E0F0900391E004F061
:10105000EBFC74FF2C1B0470D8906214E4F0EA904F
:10106000620EF0E0FD7404F0906211E0A2E0403105
:10107000900393E0F8900392E06860257A40900333
:1010800092121123E0906228F0900392E004F0089D
:10109000900393E06860041AEA70E39062117401AF
:1010A000F0ED90620EF0D083D0822274F812178196
:1010B000E9FE7900801F900390E0FC746E2CF582AD
:1010C00074053400F583E08A828B83F0900390E00E
:1010D0000412111809900390E0F8900391E0686001
:1010E00005E9C39E40D07F01021932C082C083E966
:1010F000FC80188A828B83E0C0E090039312112356
:10110000D0E0121118900393E004F0ECF874FF287B
:101110001C0470DF7901808EF08A828B83A3AA82FF
:10112000AB8322E0F8746E28F58274043400F583F2
:1011300022794A1212E253BEFBE59DA2E650FA0064
:1011400078F8790100E824FF18E934FFF9E84970DC
:10115000F375C6807480659E70FA43BE0490627019
:101160007408F012122D120955E96013E59D541808
:10117000641070031212381211E912125580031212
:1011800011E9794E1212E2750C00750D00750E0012
:10119000750F008028C280D291750C00750D007506
:1011A0000E00750F00120FD39003C4780C121A9D15
:1011B0009003CC780C1219C050EB121238120FD3D6
:1011C00012084BE96006120955E970C9850D0990AE
:1011D00003C4780C121A9DE509544060E0A28050C7
:1011E00004C28080D8D28080D474F812178153F45E
:1011F000FEC29043FE017403F5D575D48890039424
:10120000E4F0A374C2F0A37401F0A3E4F0A3F0A38C
:10121000F0A37408F0120CA87AFF7BFF12161F537C
:10122000F4FED29043FE0112122D0210E6D280434A
:10123000FD01C29143FE0222C280D291A29250FCD3
:10124000A29350F8D280C291022000C2AF75C9AB00
:1012500075C95B80FE74F112178174FF121A47750D
:101260000C00750D00750E26750F008004C291C22A
:1012700080120FD37901851882851983AA82AB83E6
:101280001210ABE96016E064106049E064EF700C86
:10129000750C00750D00750E00750F00A29250348C
:1012A000A293501E850C08850D09850E0A850F0B2B
:1012B0009003D0780C121A9DE5084509450A450BA4
:1012C0007003121238850D09E5095420709FD280F1
:1012D000D291809DD280C29174011219FA7F0802C6
:1012E0001932781075B60FE5B4A2E750FAE5BBC322
:1012F0009940F118E870ED22D083D08222C082C0DC
:1013000083E9FCEAFD7A007B008003121348900316
:101310009BE0F8A3E0F9900464E0687003A3E0693F
:10132000602490039CE0F5838882A3E493F8EC6842
:10133000700D90039BE0FAA3E0FB1213488007EDC9
:101340006870C8ED60C580B090039BE0F8A3E0F53D
:10135000838882E493F890039BE028F8A3E03400AC
:10136000F990039BE8F0A3E9F022C082C083121336
:101370007B7A0079011212FD0212F8900462E0F803
:10138000A3E0F990039BE8F0A3E9F02274F71217A9
:1013900081E9FEEAFF12137B7A0079021212FDEA5C
:1013A0004B601CEE60108A828B83A3A3A3A3A3E4EB
:1013B000936E70E48009EFF874FF281F0470D97FE2
:1013C0000202193274F5121781EAFF8B087A0012B3
:1013D000138C7A0279041212FDEA4B60188A828B10
:1013E00083A3A3E4936F70EA8A828B83A3A3A3E40D
:1013F00093650870DD7F0402193274F71217817447
:10140000F0121A47E97A007B00600C146010146037
:10141000141460180215057ADC7B030215057AE0C6
:101420007B030215057A047B04021505900428E06D
:1014300060030215017408121AEEAC82AD83758345
:10144000037582D4740812199F750808F509780885
:10145000121A777402121AEEAC82AD837AE87B0717
:10146000797F12151D74021219FA7808121A77740E
:101470000A121AEEAC82AD837402121AEEAA82AB83
:101480008312189A74021219FA8B09EA4509701D21
:101490007509007808121A777C0C7D787402121A8C
:1014A000EEAA82AB831218EC74021219FA7C287D22
:1014B000008D08851882851983E5822508F582E567
:1014C000833400F583E0FF8C0874282508F8740441
:1014D0003400F9EF12150D88828983F0EFC41215DC
:1014E0000DC0E0E824FEF582E934FFF583D0E0F09A
:1014F0000D74FC2CFCEDC3940840B6900428742AAB
:10150000F07A287B0474101219FA0213BF540FFAF0
:1015100074522AF58274043400F583E02274F512C3
:1015200017818908740F5508F50A750B00740B783C
:101530000A121AB0EA2400F8EB3480F9E82400E932
:10154000350BF9E5C7F509A2AFE433F50AC2AFE5FB
:1015500008C4540FFAE5C754F84AF5C7740B121AB9
:10156000EEE0FAA3E0FB801C88828983E08C828D08
:1015700083F088828983A3A882A9838C828D83A328
:10158000AC82AD83EAFEEBFFEE24FF1AEF34FFFBE3
:10159000EE4F70D48509C7E50AA2E092AF7F04023E
:1015A000193274F7121781ED900388F0ECA3F0A3C1
:1015B0007462F0A37473F0A3E0541FF07409121A5C
:1015C000EEE0F508A3E0F509E508333354FC900399
:1015D0008DF074067808121AD2E50890038CF0900A
:1015E000038E7412F0A37442F075D1FE75D601EA31
:1015F000906271F0EBA3F0906270E0D2E1F0E0A2B3
:10160000E740FB7F02021932C082C083E9C33390F6
:101610006272F0906270E0D2E0F0D083D0822274E7
:10162000F71217817523007524007525008A268B13
:1016300027EA90620BF08A088B0974047808121A62
:10164000D2E508906207F08A088B097409780812BD
:101650001AD2E508543E906209F0758B00C2E87F0B
:101660000202193274F7121781E59DA2E650FA9032
:101670006206E0FAA2E25035A826E890620BF0F587
:101680000885270974047808121AD2E508906207C1
:10169000F085260885270974097808121AD2E5080A
:1016A000543E906209F0906201E0D2E0F07823EAC3
:1016B00046F6906202E0F508750900740478081295
:1016C0001AB07823E50846F608E50946F690620464
:1016D000E0F50875090074097808121AB07824E555
:1016E0000946F6EAA2E0500375250174065A600324
:1016F000752500E58BA2E55006758BDF7525001278
:10170000178002165AC082C0839003B7E0F8742293
:101710006870089003A4E0701A8011742068900328
:10172000A4700DE0700D12175C9003A47402800287
:101730007404F08043C082C0839003B7E0642190BA
:1017400003A47013E0701312175CA37407F0A3E4F2
:10175000F09003A40480027404F0801C9003B17420
:1017600094F0A37403F0A3E4F02280028000C0820E
:10177000C0839003A47404F0D083D0822280EF222F
:10178000222518C582C0E0E51934FFC583C0E0E515
:1017900018C3958224F910AF0885831985821880B3
:1017A00008858319858218D2AFCEF0A3E520F0A377
:1017B0007808E608F0A3DEFAEFF0A3E58124FBF851
:1017C000E608F0A3E608F0A30808E608F0A3E60898
:1017D000F0A315811581D0E0FED0E0F815811581C8
:1017E000E8C0E0EEC0E02212010002020000205139
:1017F00004A81609000102030109024300020100C6
:1018000080190904000001020201000524001001F2
:101810000424020205240600010524010001070535
:10182000820340004009040100020A00000007058D
:101830008402400000070504024000000218000076
:1018400025180000121AFDB90003021894E479214A
:101850007807B800028004F709D8FCE49003027806
:10186000BF79018002F0A3D8FCD9FA9003C0AA8204
:10187000AB8390008E78AF79018015E493A3AC829E
:10188000AD838A828B83F0A3AA82AB838C828D8303
:10189000D8E9D9E7121131121AF874F512178174C8
:1018A0000B121AEEE0F8A3E08015A3AA82AB838C9A
:1018B000828D83A3AC82AD83E824FF18E934FFF95D
:1018C000E849601F8C828D83E0F5088A828B83E073
:1018D000F50AE508650A60D2E50AC39508FA95E0BD
:1018E000FB80047A007B007F0402193274F7121720
:1018F00081EAF8EBF97409121AEEE0FEA3E0FF802A
:10190000188C828D83E088828983F0A3A882A983C2
:101910008C828D83A3AC82AD838E088F09E5082469
:10192000FF1EE50934FFFFE508450970D47F020278
:101930001932851983851882E0A3FEE0A3F520788B
:1019400008E0A3F608DFFAE0A3FFE0A3C0E0E0A30D
:10195000C0E0E0A3C0E0E0A3C0E010AF08858218BB
:101960008583198008858218858319D2AFD083D0EA
:10197000822274038000CCC0E0EDC0E0E518C39C77
:10198000CCAD1950011D10AF068C188D1980068C36
:10199000188D19D2AF12199FD0E0FDD0E0FC22CAF9
:1019A000C0E0E0A3C582CCC582C583CDC583F0A3CA
:1019B000C582CCC582C583CDC583DAE6D0E0CA2214
:1019C000C008C3E096F50808A3E096420808A3E023
:1019D00096420808A3E09645087001D3D008222556
:1019E00018F58210AF08F518400215198008F5188F
:1019F00040021519D2AF85198322C0D0251810AF27
:101A000008F518500205198008F51850020519D27A
:101A1000AFD0D022BB0102E722C082C08389828A74
:101A200083BB0003E08002E493D083D0822260165F
:101A3000080808C6C313C618C613C618C613C618A6
:101A4000C613C6D5E0EA22251810AF08F5184002E3
:101A500015198008F51840021519D2AF22BB000EE7
:101A6000C082C0838A838982F0D083D08222BB0166
:101A700001F7227403800474028000C0E0F40412B1
:101A800019DFD0E0121AE122E066701008A3E066C8
:101A9000700A08A3E066700408A3E06622E026F658
:101AA00008A3E036F608A3E036F608A3E036F622EF
:101AB000700422600D18C6C333C608C633C6D5E00D
:101AC000F4182275D00075813F751802751903024C
:101AD0001844600C08C6C313C618C613C6D5E0F474
:101AE00022CAC0E0E6F0A308DAFAD0E0FA2225180C
:101AF000F582E43519F5832200000080FB7901228C
:101B0000E473FFFFFFFFFFFFFFFFFFFFFFFFFFFF8C
:101B1000FFFFFFFFFFFFFFFFFFFFFFFFFFFFFFFFD5
:101B2000FFFFFFFFFFFFFFFFFFFFFFFFFFFFFFFFC5
:101B3000FFFFFFFFFFFFFFFFFFFFFFFFFFFFFFFFB5
:101B4000FFFFFFFFFFFFFFFFFFFFFFFFFFFFFFFFA5
:10200000022C25022225FFFFFFFFFFFFFFFFFFFF3E
:10201000FFFFFFFFFFFFFFFFFFFFFFFFFFFFFFFFD0
:10202000FFFFFFFFFFFFFFFFFFFFFF022902FFFF90
:10203000FFFFFF022248FFFFFFFFFFFFFFFFFFFF41
:10204000FFFFFFFFFFFFFFFFFFFFFFFFFFFFFFFFA0
:10205000FFFFFF022161FFFFFFFFFFFFFFFFFFFF09
:10206000FFFFFFFFFFFFFFFFFFFFFF0228DAFFFF79
:10207000FFFFFFFFFFFFFFFFFFFFFF0227A1FFFFA3
:10208000FFFFFF0221C101FFFFFFFFFFFFFFFFFF77
:102090001020102001FF01010503010F10FEFF4376
:1020A00037433743374337E735E1354337C84C00CB
:1020B000000000604C00000000FF000000FF000175
:1020C0000000E939000000003539153B83397F3ABB
:1020D0000000713900000000000000000000000056
:1020E00000000000FF0101003A07000000E803B50E
:1020F0000703E80364006400B8010202000800005E
:102100000502070401051E02051E020A0A0103B8A2
:102110000B02803E0102FEFFE8030A050001FFFFFB
:102120000A01E00020FD000206FFFF00035F005FE0
:102130000030005800000000000000000000000017
:10214000000000000000000000000000000000008F
:102150000000000000C02515261526152615261D91
:1021600026C0E074F2122561A2AFE433FED2AFE5DF
:10217000A7FFE5A1F5085F5410600612446975A138
:10218000EFE5085F5408600812446F75A1F78024DA
:10219000E508A2E092F0EFA2E082F050179061987B
:1021A000E0F8900945E0C398A2D265D0335002E828
:1021B000F075A1FE751A00EEA2E092AF7F01022633
:1021C0001DC0E074F2122561A2AFE433FED2AF90DD
:1021D00061A4E0F8759B00E591585408600875917A
:1021E000F71244C38023E59158541060087591EFAD
:1021F0001244C98014E591A2E092F0E8A2E082F0D6
:102200005007E0C2E0F01246199061A3E0F8E5E95A
:10221000585404600E1245EF75E9FB906193E0A2FB
:10222000E640F2808FC0E074F2122561A2AFE43381
:10223000FED2AF9061A5E0F8E5BF58540460067582
:10224000BFFB1246310221B4C0E074F1122561E5F2
:102250009DA2E650FA906206E0FAA2E25035A82C60
:10226000E890620BF0F508852D0974047808122CAB
:1022700044E508906207F0852C08852D09740978DB
:1022800008122C44E508543E906209F0906201E087
:10229000D2E0F07829EA46F6906202E0F508750986
:1022A0000074047808122B887829E50846F608E5BA
:1022B0000946F6906204E0F508750900740978088B
:1022C000122B88782AE50946F6EAA2E05003752B1E
:1022D0000174065A6003752B00E58BA2E550067564
:1022E0008BDF752B001247DB758B00C2E87F020283
:1022F000261DC3E498F8E499F91223338026C3E439
:102300009AFAE49BFBE920E7E9122333E498F8E426
:1023100099F922C3E498F8E499F9122333E498F880
:10232000E499F9C3E49AFAE49BFB22EB20E7CFE9B6
:1023300020E7E0B90010BB0008E88AF084F8AAF0B2
:1023400022E4FBC8FA22EB70227B10C833C8C933E1
:10235000C9335007C39AC3DBF280069A50012ADBC7
:10236000EAC833F4C8C933F4C9FA2275F008E4C8DE
:1023700033C8C933C933C99AC99B5004C92AC93B58
:10238000D5F0ECFBC833F4C8E4C9FA22080808EA1F
:10239000C0E0EBC0E086F0E7A4FA180986F0E7A4F5
:1023A0002AFA180986F0E7A42AFA180986F0E7A4A1
:1023B0002AFA1986F0E7A4FBE5F02AFA190886F054
:1023C000E7A42BFBE5F03AFA190886F0E7A42BFB0B
:1023D000E5F03AFA18180986F0E7A4C5F02BFBE4FB
:1023E0003AFA1908E7C5F0C6A426F6E5F03BFBE487
:1023F0003AFA1886F0E7A4F6E5F00826F6E43B087A
:10240000F6E43A08F6D0E0FBD0E0FA22122C87B9C5
:10241000000302246FE47921780DB800028004F7EC
:1024200009D8FCE49004D178EA790B8002F0A3D8B3
:10243000FCD9FA781A9020867A01BA00028007E463
:1024400093A3F608DAF9900FBAAA82AB839020948E
:1024500078CE79018015E493A3AC82AD838A828B18
:1024600083F0A3AA82AB838C828D83D8E9D9E775E8
:1024700082907583A374061229C675829975834A62
:1024800074001229C6E4CFC0E0E4CEC0E0E4CDC0C1
:10249000E0E4CCC0E075F020C3E633F608E633F69E
:1024A00008E633F608E633F6181818EC33FCED337B
:1024B000FDEE33FEEF33FFC3EC9709ED9709EE977E
:1024C00009EF97191919400FFFEC97FC09ED97FDDB
:1024D00009EE97FE191906D5F0BEECF709EDF709DC
:1024E000EEF709EFF7191919D0E0FCD0E0FDD0E0C4
:1024F000FED0E0FF222518C582C0E0E51934FFC5F3
:1025000083C0E0E518C3958224F810AF08858319CD
:102510008582188008858319858218D2AFCEF0A3F2
:10252000E520F0A37808E608F0A3DEFAEFF0A3E5D3
:102530008124FAF8E608F0A3E608F0A3E608F0A381
:102540000808E608F0A3E608F0A315811581D0E09D
:10255000FED0E0F8158115811581E8C0E0EEC0E0FD
:1025600022C0D02518C582C0E0E51934FFC583C05C
:10257000E0E518C3958224F310AF0885831985829E
:10258000188008858319858218D2AFC8F0A3E9F0B6
:10259000A3EAF0A3EBF0A37908E709F0A3D8FAECDB
:1025A000F0A3EDF0A3EEF0A3EFF0A3D0E0F0A3D002
:1025B000E0F0A3D0E0F0A3E520F0A3E5F0F0A32243
:1025C00012010002020000205104A81609000102B5
:1025D00003010902430002010080190904000001FF
:1025E0000202010005240010010424020205240651
:1025F0000001052401000107058203400040090491
:102600000100020A000000070584024000000705DF
:102610000402400000DB250000FE25000085198330
:10262000851882E0C0E0A3E0F9A3E0FAA3E0FBA3F1
:102630007808E0F608A3DFFAE0FCA3E0FDA3E0FEE3
:10264000A3E0FFA3E0C0E0A3E0C0E0A3E0F5D0A3D7
:10265000E0F520A3E0A3F5F010AF0885831985828B
:10266000188008858319858218D2AFD082D083D094
:10267000E0F8D0E032E4730575F0108E218F2285EA
:102680008226858325851882851983E0CEA3E0CF35
:10269000852682852583EBC9EAC8EDCBECCAC3E861
:1026A00033C8E933C9EA33CAEB33CBC3EA9EF52416
:1026B000EB9FF523B35004AB23AA24EC33CCED33CA
:1026C000CDD5F0DAAE21AF2222D083D082ECC0E0AB
:1026D000EDC0E0E493A3FCE493A3FDED4C600D1288
:1026E00027E4EC24FFFCED34FFFD80EFE493A3FC32
:1026F000E493A3FDED4C600D122885EC24FFFCED66
:1027000034FFFD80EFD0E0FDD0E0FCE493A3C0E017
:10271000E493C0E022D083D082E9C0E0E493A3C375
:1027200086F0C5F095F0F908E493A386F0C5F0951E
:10273000F0700BE493A3C3994005E9048002A3E47D
:1027400075F002A42582F582E5F03583F583D0E0AB
:10275000F9E493A3C0E0E493C0E0228519838518CF
:1027600082E0A3FEE0A3F5207808E0A3F608DFFAF4
:10277000E0A3FFE0A3C0E0E0A3C0E0E0A3C0E0E08E
:10278000A3C0E0E0A3C0E010AF08858218858319DC
:102790008008858218858319D2AFD083D082022920
:1027A000CCC0E074F2122561A2AFE433FED2AFE5F3
:1027B0008AA2E25007900906E0D2E0F0E58AA2E39F
:1027C0005007900906E0D2E1F0758A00C2EB7A105A
:1027D0007B00900902E0F9123C95EEA2E092AF7FF7
:1027E0000102261DC0E0C3E4939608740193961875
:1027F000400FE493667008087401936618700070C7
:1028000019A3A3C3E49396087401939618A3A34055
:102810000DD0E0D0E0D0E0022705A3A3A3A3A3A39B
:10282000D0E022740480087403800474028000CC19
:10283000C0E0EDC0E0E518C39CCCAD1950011D10FF
:10284000AF068C188D1980068C188D19D2AF1229FD
:1028500048D0E0FDD0E0FC2274028000CCC0E0ED66
:10286000C0E0E518C39CCCAD1950011D10AF068C1B
:10287000188D1980068C188D19D2AF122926D0E038
:10288000FDD0E0FC22C0E0C0F088F0E49366700860
:102890000874019366187000A8F0A3A3700BD0F021
:1028A000D0E0D0E0D0E0022705A3A3D0F0D0E02212
:1028B000D083D082CCC0E0E493A3600612296914CF
:1028C00070FAE493A36006122A7F1470FAD0E0FC39
:1028D000E493A3C0E0E493C0E022C0E074F21225C8
:1028E00061758900C2C5900FB2E0700E7A007B104E
:1028F0009006B3E0F9123C95800312491F7F010254
:10290000261DC0E0C0D0E8C0E0E9C0E0E5A8D2AF35
:10291000C2C7751A00A2E7A2E792AFD0E0F9D0E0F3
:10292000F8D0D0D0E032CAC0E0E493A3C582CCC5D1
:1029300082C583CDC583F0A3C582CCC582C583CDB6
:10294000C583DAE5D0E0CA22CAC0E0E0A3C582CCE4
:10295000C582C583CDC583F0A3C582CCC582C5839E
:10296000CDC583DAE6D0E0CA22C0E0E493A3D39CCD
:102970005010E493A3C39C400AD0E0D0E0D0E00222
:1029800028CDA3A3A3D0E02270090808082260166E
:10299000181818C6C333C608C633C608C633C608D7
:1029A000C633C6D5E0EA22C008C3E096F50808A3FE
:1029B000E096420808A3E096420808A3E09645087E
:1029C0007001D3D00822C09FF59FE473D09F22D01E
:1029D00083D082C09FE493C0E0740193C0E074028E
:1029E00093F59F227404800A7403800674028002A7
:1029F0007401C0E0F4041229FFD0E0122C622225F9
:102A000018F58210AF08F518400215198008F5185E
:102A100040021519D2AF85198322C0D0251810AFF6
:102A200008F518500205198008F51850020519D24A
:102A3000AFD0D022BB0102E722C082C08389828A44
:102A400083BB0003E08002E493D083D0822260162F
:102A5000080808C6C313C618C613C618C613C61876
:102A6000C613C6D5E0EA22C3E0C696F608A3E0C6C0
:102A700096F608A3E0C696F608A3E0C696F622C02E
:102A8000E0E493A36C7009D0E0D0E0D0E00228CD60
:102A9000A3A3D0E022BB000EC082C0838A838982B8
:102AA000F0D083D08222BB0101F722251810AF0895
:102AB000F518400215198008F51840021519D2AF13
:102AC00022E76670100809E766700A0809E7667071
:102AD000040809E76622E066701008A3E066700A41
:102AE00008A3E066700408A3E06622C3E09608A38A
:102AF000E09608A3E09608A3E096A2D265D0332220
:102B0000C3E096F008A3E096F008A3E096F008A3CF
:102B1000E096F022C3E49396087401939608740239
:102B20009396087403939622C3E697F60809E697EE
:102B3000F60809E697F60809E697F622E026F00877
:102B4000A3E036F008A3E036F008A3E036F022E672
:102B500027F60809E637F60809E637F60809E637E2
:102B6000F622E657F60809E657F60809E657F6088A
:102B700009E657F622E056F608A3E056F608A3E069
:102B800056F608A3E056F622700422600D18C6C35C
:102B900033C608C633C6D5E0F41822E026F608A3EB
:102BA000E036F608A3E036F608A3E036F622E05653
:102BB000F008A3E056F008A3E056F008A3E056F0B2
:102BC00022E647F60809E647F60809E647F6080947
:102BD000E647F622E4C396F608E496F608E496F68D
:102BE00008E496F622C6F4C608C6F4C608C6F4C6BB
:102BF00008C6F4C622600D08C6A2E713C618C6139D
:102C0000C6D5E0F322C3E09608A3E09608A3E096B9
:102C100008A3E09622C3E7960809E7960809E79615
:102C20000809E7962275D0007581407518D175198D
:102C3000040002240CE0F608A3E0F608A3E0F6087E
:102C4000A3E0F622600C08C6C313C618C613C6D587
:102C5000E0F422E6F008A3E6F008A3E6F008A3E615
:102C6000F022CAC0E0E6F0A308DAFAD0E0FA22E0E7
:102C7000FAA3E0FBA3E0FCA3E0FD22EAF0A3EBF063
:102C8000A3ECF0A3EDF022E5C754F84401F5C779B1
:102C900001222518F582E43519F58322C2AF75D6D5
:102CA0009F020000221229CFF4AB021229CF08ACF8
:102CB000021229CF1CAC021229CF40AC021229CF3C
:102CC0006CAC021229CF9CAC021229CF43AE021287
:102CD00029CF04AF021229CFABAF021229CF01B026
:102CE000021229CF65B0021229CFA3B0021229CF58
:102CF000CDB0021229CF4BB1021229CFA4B10212DA
:102D000029CF05B2021229CF74B4021229CF3EB6E0
:102D1000021229CF02B7021229CF4CB8021229CFD2
:102D20002FBB021229CF28BE021229CF37BE0212B2
:102D300029CFC8BE021229CF85BF021229CFCDBF2D
:102D4000021229CF16C0021229CF53C0021229CF76
:102D5000B7C0021229CF23C1021229CF3FC10212EC
:102D600029CF73C1021229CFBEC1021229CFBBC223
:102D7000021229CF72C3021229CF01C6021229CF33
:102D800046C7021229CFF3C7021229CF83C8021205
:102D900029CFA7C8021229CF59C9021229CF26CAA2
:102DA000021229CFEFCB021229CF7ECC021229CFFB
:102DB000BCCC021229CF33CD021229CF92CE0212FF
:102DC00029CF3FCF021229CF80CF021229CF98CF2F
:102DD000021229CF4AD0021229CF10D3021229CFD2
:102DE000A4D4021229CFC8D4021229CFE6D40212E9
:102DF00029CFCFD5021229CF8CD9021229CF00803A
:102E0000031229CF1280031229CF6A80031229CF1F
:102E1000D080031229CF5A81031229CF1D820312B9
:102E200029CF6582031229CF9182031229CFD18243
:102E3000031229CF3883031229CFAD83031229CF80
:102E4000C683031229CFEC83031229CF0B8403120C
:102E500029CF4984031229CF9E84031229CFC58428
:102E6000031229CF2285031229CFE985031229CF26
:102E70008286031229CF0587031229CFCD8703123B
:102E800029CF1688031229CF3288031229CF6488EC
:102E9000031229CF128A031229CFDE8A031229CF07
:102EA000038B031229CF308B031229CF5B8B0312C4
:102EB00029CF6A8B031229CF758B031229CF208C5F
:102EC000031229CF878C031229CF0A8D031229CF31
:102ED000128D031229CF9A8D031229CF028E03126D
:102EE00029CF418E031229CF8290031229CF6991F5
:102EF000031229CF9C91031229CF5E92031229CF8E
:102F00001A93031229CF4C93031229CFB2930312C1
:102F100029CFD793031229CFE893031229CF5B94CB
:102F2000031229CFF394031229CF4C95031229CF12
:102F30002A96031229CF4F96031229CF5A970312CC
:102F400029CF7897031229CF8B97031229CFE397C4
:102F5000031229CFF297031229CF7A98031229CFAF
:102F6000BB98031229CFC898031229CFD198031216
:102F700029CFDC9A031229CF3A9C031229CF4A9C0D
:102F8000031229CF909D031229CFF79D031229CF59
:102F9000339F031229CF759F031229CFB19F0312CC
:102FA00029CFD9A0031229CF4DA3031229CF61A3A2
:102FB000031229CF6BA3031229CF75A3031229CFC4
:102FC0007FA3031229CF89A3031229CFA2A303123F
:102FD00029CFACA3031229CFB6A3031229CFC0A3D4
:102FE000031229CFCAA3031229CFF2A3031229CFB8
:102FF00040A4031229CF4AA4031229CF55A40312D7
:1030000029CF79A4031229CF9DA4031229CF0DA59E
:10301000031229CF59A5031229CF75A5031229CF71
:10302000DBA5031229CF22A6031229CF6EA6031215
:1030300029CFD9A6031229CF89A7031229CF5CA9CA
:10304000031229CFCAA9031229CF07AB031229CF34
:103050002DAB031229CFA0AC031229CF43B003122A
:1030600029CF3DB2031229CF1DB4031229CFB6B424
:10307000031229CFEAB6031229CF8DB7031229CF45
:10308000DFB7031229CF63B8031229CF7BB803122D
:1030900029CFB8BA031229CFA2BB031229CF01BD91
:1030A000031229CF60BD031229CFF9BD031229CF26
:1030B000CBBF031229CF0DC1031229CF2CC103129C
:1030C00029CF81C1031229CF82C2031229CFAAC2FC
:1030D000031229CF0DC3031229CF05C4031229CF30
:1030E00081C4031229CFABC5031229CF16C6031220
:1030F00029CF54C7031229CFB6C9031229CFE7C974
:10310000031229CF92CC031229CFE4CC031229CF8A
:10311000A2CD031229CF5ECE031229CFC2CE031255
:1031200029CF83CF031229CF25D0031229CF8AD0EC
:10313000031229CFC9D0031229CFFAD0031229CF05
:1031400064D2031229CF6681011229CFA88101120E
:1031500029CFAB84011229CFEA84011229CF368509
:10316000011229CF4286011229CFA686011229CF4A
:10317000E686011229CF3488011229CF648B01120F
:1031800029CFB18C011229CF0F98011229CFA59810
:10319000011229CFA29B011229CFDE9C011229CF57
:1031A000419D011229CF6F9E011229CFC39F0112A9
:1031B00029CFACA0011229CF2CA3011229CF29A518
:1031C000011229CFBAA5011229CF96A6011229CF43
:1031D0002EA7011229CF38A7011229CF66A7011205
:1031E00029CF1BA8011229CFF9A8011229CFD0A9F4
:1031F000011229CF5DAA011229CF73AA011229CF8A
:10320000D4AA011229CFFDAA011229CF2AAB01129B
:1032100029CF5BAD011229CF3AAE011229CF7EAE84
:10322000011229CFE9AE011229CFA8AF011229CF8F
:10323000DAAF011229CF21B0011229CF54B0011207
:1032400029CFA9B0011229CFFEB0011229CF03B1B5
:10325000011229CF57B1011229CF9FB1011229CFF5
:10326000A3B2011229CF08B3011229CF64B301120E
:1032700029CFD5B3011229CFCAB6011229CFD1B7B0
:10328000011229CF54B9011229CF43BC011229CF11
:1032900003BD011229CF4CBF011229CFEFBF01128C
:1032A00029CF2DC0011229CFFEC1011229CF11C291
:1032B000011229CF1AC2011229CF23C2011229CF2C
:1032C00038C2011229CF57C2011229CF87C4011277
:1032D00029CFDCC4011229CFE6C4011229CFF0C4E2
:1032E000011229CF4CC5011229CFA1C5011229CF46
:1032F000C9C6011229CF31C7011229CF93C80112C3
:1033000029CFE4C8011229CF90C9011229CFAECA32
:10331000011229CF59CB011229CF73CC011229CF29
:103320009ACD011229CF9CCE011229CFB3CE011222
:1033300029CFF0CE011229CFFACE011229CF04CF26
:10334000011229CF0FCF011229CF2DCF011229CF82
:103350006FCF011229CFCCCF011229CFF1CF0112AB
:1033600029CF0BD0011229CF8AD0011229CFC7D083
:10337000011229CFF9D1011229CF4CD2011229CF44
:1033800066D3011229CF9CD3011229CF30D4011268
:1033900029CFABD4011229CF1FD6011229CF52D782
:1033A000011229CF04D8011229CFCBD8011229CF7D
:1033B00070D9011229CFDED9011229CF93DA011277
:1033C00029CFE7DA011229CF55DB011229CF20DC02
:1033D000011229CF43DC011229CF0DDD011229CFC3
:1033E00031DD011229CF53DD011229CFB4DD0112E5
:1033F00029CFF4DF011229CFDEE0011229CF89E1C4
:10340000011229CFAEE3011229CFFCE3011229CF2B
:103410003FE4011229CF97E4011229CFF5E401120C
:1034200029CF22E5011229CF46E5011229CF79E5FE
:10343000011229CFA3E5011229CFEAE5011229CF14
:1034400049E6011229CFA5E6011229CFA2E7011210
:1034500029CF0AE9011229CF48E9011229CF71E9E0
:10346000011229CF0BEA011229CF55EA011229CF07
:1034700079EA011229CFCEEA011229CFE9EA011235
:1034800029CFA0EB011229CFD9EB011229CF31ECC2
:10349000011229CF87EC011229CF88EF011229CF21
:1034A000BBEF011229CF79F0011229CF76F1011279
:1034B00029CFFFF1011229CFC794051229CFFF941C
:1034C000051229CF2095051229CF6295051229CF23
:1034D000C495051229CFCE95051229CFDE95051288
:1034E00029CF1596051229CFD799051229CF989B78
:1034F000051229CFBA9D051229CF799E051229CF31
:10350000469F051229CF5680041229CF99800412B4
:1035100029CF5981041229CF7882041229CF9F83A1
:10352000041229CF5A85041229CFCD85041229CF40
:103530009886041229CFA987041229CF1088041273
:1035400029CF4C88041229CFAB88041229CFE488F4
:10355000041229CF3989041229CFC289041229CF34
:10356000678A041229CF388B041229CF128C0412D7
:1035700029CF9C8C041229CFC28C041229CFEF8C46
:10358000041229CF298D041229CF298E041229CFA4
:10359000398E041229CF898E041229CF968E0412F7
:1035A00029CFAB8E041229CFB48E041229CF0E8FEF
:1035B000041229CF708F041229CFBA8F041229CF99
:1035C000D58F041229CFFC8F041229CF1990041231
:1035D00029CF2590041229CFCE91041229CFE7914B
:1035E000041229CF6D92041229CF8092041229CFA0
:1035F0009292041229CF3E93041229CFA994041267
:1036000029CF6096041229CFE696041229CFE896B6
:10361000041229CF5097041229CF6E97041229CF94
:103620000498041229CF4198041229CF4498041217
:1036300029CF6F98041229CFCC98041229CFF09883
:10364000041229CF0E99041229CF5C99041229CFB4
:10365000B59A041229CF0D9B041229CF5A9B04124C
:1036600029CFE19B041229CF099C041229CF3F9C4A
:10367000041229CF4E9C041229CFAC9C041229CFEE
:103680001D9D041229CF5A9D041229CF959D041225
:1036900029CFC09D041229CFDA9D041229CFF49DB1
:1036A000041229CFC89E041229CFD29E041229CF1A
:1036B0000E9F041229CF1E9F041229CF279F0412A8
:1036C00029CF879F041229CF9B9F041229CFA5A041
:1036D000041229CFB8A0041229CFCFA0041229CFF9
:1036E000E4A0041229CF89A1041229CF05A2041253
:1036F00029CFA8A2041229CFB4A2041229CFFAA379
:10370000041229CF16A4041229CF6EA4041229CFC3
:10371000AAA4041229CFC4A4041229CF26A50412F6
:1037200029CFC5A5041229CF10A6041229CF5CA861
:10373000041229CF03A9041229CF9FA9041229CF6B
:10374000C5AB041229CFDDAB041229CFE0AB0412C4
:1037500029CFECAB041229CF00AC041229CF08AC5E
:10376000041229CF48AC041229CF41AD041229CF4D
:10377000C4AD041229CF46AE041229CFC0AE041244
:1037800029CF92AF041229CFB4AF041229CF50B081
:10379000041229CF5CB0041229CF87B0041229CFBC
:1037A0008AB0041229CFB7B0041229CFCCB00412CA
:1037B00029CF3BB1041229CF9EB2041229CFB5B351
:1037C000041229CF40B4041229CF7DB5041229CFA9
:1037D0004FB6041229CF80B6041229CFACB604121A
:1037E00029CFB5B6041229CFE4B6041229CF94B775
:1037F000041229CF4EB8041229CFC2B8041229CF1F
:103800005EB9041229CFE6B9041229CF1CBA0412FA
:1038100029CF61BA041229CF96BA041229CFB4F184
:10382000041229CF03F2041229CF3BF2041229CF4C
:10383000A7F2041229CFF7F2041229CF7BF3041266
:1038400029CFC3F5041229CFB4F7041229CF63FBA3
:10385000041229CF07FC041229CF42FC041229CFFD
:1038600060FC041229CFC0FC041229CFE8FC04122A
:1038700029CF18FD041229CF49FD041229CF80FD5C
:10388000041229CFD1FD041229CF1DFE041229CF25
:10389000F49F051229CF70A0051229CF96A005121A
:1038A00029CFCEA0051229CF28A2051229CF44A2E4
:1038B000051229CF89A2051229CF18A3051229CFF5
:1038C00071A3051229CF51A4051229CF21A50512F4
:1038D00029CF68A5051229CFC9A5051229CF59A658
:1038E000051229CFAFA6051229CFF8A6051229CFB8
:1038F00097A7051229CF95A8051229CFD9A8051297
:1039000029CF27A9051229CF49A9051229CFF0A946
:10391000051229CF9DAA051229CF1184061229CF9D
:103920007684061229CF2285061229CF5B850612DE
:1039300029CFE1F0031229CF8AF1031229CFA4F293
:10394000031229CF27F3031229CF5FF3031229CFE4
:103950002CF6031229CFDFF7031229CF9AF80312AE
:1039600029CF0BF9031229CF2BFC031229CFC1FD5C
:10397000031229CF12AA061229CF3AAA061229CF7A
:103980002EAB061229CFC5F9021229CF4AFA02122C
:1039900029CF61FA021229CFD6FA021229CF34FBBD
:1039A000021229CF5DFB021229CFDAFB021229CFC6
:1039B0007DFC021229CFE2FC021229CF46FD021241
:1039C00029CF67FD021229CF98FD021229CFB6FD3B
:1039D000021229CFDDFD021229CF0DFE021229CFDE
:1039E00053FE021229CFB9FE021229CFEAAA05120C
:1039F00029CF99AB051229CFB9AB051229CFD9AB85
:103A0000051229CFEDAB051229CF4DAC051229CFF8
:103A10007DAC051229CFFAAD051229CFA3AE051250
:103A200029CF85AF051229CFD4AF051229CF18B001
:103A3000051229CF7DB0051229CFE9B0051229CF93
:103A40000AB1051229CF8DB1051229CFC2B10512D5
:103A500029CF32B2051229CFD8B3051229CFA9B484
:103A6000051229CFEBB4051229CF45B5051229CF90
:103A7000019D061229CF0B9D061229CF2C9D0612FF
:103A800029CF40F2011229CF61F4011229CF97F515
:103A9000011229CF7EF7011229CFD6F7011229CFC3
:103AA00097F8011229CFD7F8011229CF0CF901128A
:103AB00029CFDAF9011229CF56FA011229CFC9FA12
:103AC000011229CF49FB011229CF4BFB011229CF4B
:103AD0004DFB011229CF4FFB011229CF6CFB0112C4
:103AE00029CF7DA4021229CFB6FB011229CFD2FB28
:103AF000011229CF56FC011229CFA3FC011229CFB4
:103B00001EFD011229CF3AFE011229CF1CFF01121E
:103B100029CFFEBA041229CF24BB041229CF99BEA3
:103B2000041229CFF5BE041229CF49BF041229CFB0
:103B30006EBF041229CF8FBF041229CFD9BF041240
:103B400029CF11C0041229CF30C1041229CFE0AB14
:103B5000021229CF80C1041229CFC3C1041229CF78
:103B600056C2041229CF72C2041229CFACC2041269
:103B700029CF04C4041229CF86C4041229CF7CC5DE
:103B8000041229CF57C6041229CF89C6041229CF9F
:103B9000DCC6041229CF40C7041229CFA6C70412DD
:103BA00029CF0BC8041229CF7CC8041229CF8CC995
:103BB000041229CF97CA041229CF68CB041229CF47
:103BC0009DCB041229CFF4CB041229CFB0CC041220
:103BD00029CFDECC041229CF69CE041229CFE1CE41
:103BE000041229CF14CF041229CF50CF041229CFA9
:103BF00069CF041229CF23D0041229CF02D1041295
:103C000029CFB6D1041229CF4BD2041229CFDAD250
:103C1000041229CF5DD3041229CF00D4041229CF76
:103C2000CBD4041229CF9BD5041229CF4FD604122E
:103C300029CF98DE051229CFE4DE051229CF52DF05
:103C4000051229CF73DF051229CF8ADF051229CF8C
:103C50003AE0051229CF43E0051229CF96E005127C
:103C600029CFBFE0051229CFD4E0051229CF3DE1CD
:103C7000051229CFCEE1051229CF0AE2051229CF7C
:103C800056E2051229CFBDE2051229CFF6E2051250
:103C900029CF7CE3051229CFBBE3051229CFFCE332
:103CA000051229CF33E4051229CF45E4051229CFA7
:103CB00057E4051229CF8AE4051229CFCAE4051278
:103CC00029CFF3E4051229CF48EA051229CF8BEB5F
:103CD000051229CFB1EB051229CFC2EB051229CF6E
:103CE000DBED051229CFFAED051229CF4E9F061202
:103CF00029CF849F061229CFCF9F061229CF1DA15D
:103D0000061229CF0080051229CF4B81051229CF39
:103D10008781051229CF3E83051229CF67830512BB
:103D200029CFFF85051229CF3F86051229CFE087CD
:103D3000051229CF7A88051229CFE288051229CFEA
:103D40006F89051229CFA789051229CFE7890512A6
:103D500029CF7A8B051229CF198D051229CF688FAB
:103D6000051229CF968F051229CFC28F051229CFB0
:103D7000CB8F051229CF2690051229CFBC900512B2
:103D800029CFE593051229CF6A94051229CF2EB4C5
:103D9000061229CF44B4061229CF4EB4061229CFF9
:103DA0009EB4061229CF03F4051229CF1CF4051284
:103DB00029CFC1F4051229CF01F5051229CF1AF533
:103DC000051229CF53F5051229CFA0F5051229CFE9
:103DD000D2F5051229CF14F6051229CF17F80512CE
:103DE00029CF81F8051229CF97AC061229CFECAC68
:103DF000061229CF45AD061229CFE6B2061229CF09
:103E000032B3061229CF74B3061229CF84B3061237
:103E100029CFD7D2031229CF32D3031229CFE4D32B
:103E2000031229CFFAD4031229CFE6D5031229CFE2
:103E3000BED6031229CFD3D6031229CF1DD7031222
:103E400029CF73D7031229CFDFD7031229CFF2D797
:103E5000031229CF4AD8031229CFC3D8031229CF7E
:103E6000DBD8031229CF79DB031229CF8EDC0312B2
:103E700029CFE9DC031229CF3DDD031229CF59DF19
:103E8000031229CFE3DF031229CFCAE0031229CF9F
:103E90000AE1031229CF29E1031229CF74E10312A9
:103EA00029CF8AE1031229CF97E1031229CFD0E16C
:103EB000031229CFE2E1031229CFDCE2031229CF5A
:103EC000E7E2031229CF3EE3031229CF96E3031260
:103ED00029CFF3E3031229CF23E5031229CF54E5B9
:103EE000031229CFD1E7031229CF02E8031229CF09
:103EF0009FE8031229CF1BE9031229CFECE9031233
:103F000029CF28EA031229CF94EA031229CF73EBB1
:103F1000031229CFACEB031229CFB6EB031229CF42
:103F2000B9EB031229CFC3EB031229CFDFEB031246
:103F300029CF5DEC031229CF96EC031229CFB2EC06
:103F4000031229CFDEEC031229CF19ED031229CF7A
:103F500034ED031229CF3FED031229CF80ED031278
:103F600029CF93ED031229CFAEED031229CFDEED59
:103F7000031229CFFBED031229CF44EE031229CF00
:103F80008CEE031229CF8FEF031229CF01FF03120A
:103F900029CF12FF031229CF9BFF031229CFB7CFDE
:103FA000051229CF06D0051229CFC3D1051229CF7A
:103FB000A1D3051229CFE5D3051229CFDAD40512F2
:103FC00029CF0BD6051229CF2DD6051229CF89D698
:103FD000051229CF0DD7051229CF4C50001229CF39
:103FE0006E50001229CFBE51001229CF0752001285
:103FF00029CF5C52001229CFD852001229CF415349
:10400000001229CF8853001229CF0154001229CF62
:10401000AC54001229CF3455001229CF7555001227
:1040200029CFD559001229CFF95B001229CF325C74
:10403000001229CF715C001229CF985D001229CFA0
:10404000A460001229CF5161001229CF0E63001223
:1040500029CF5864001229CF5C65001229CFCF65A3
:10406000001229CF9E66001229CF2767001229CFA0
:104070003767001229CFEB67001229CF19690012A8
:1040800029CF7F6B001229CF326E001229CF106F1B
:10409000001229CF3E70001229CFC373001229CF1E
:1040A000D373001229CF0A75001229CFA975001207
:1040B00029CFB476001229CF4577001229CF747822
:1040C000001229CFF278001229CFF1D6041229CF9D
:1040D000AED7041229CF2BD8041229CF3AD8041214
:1040E00029CFC3D8041229CF1AD9041229CF25DA2F
:1040F000041229CF4EDA041229CFF6DA041229CF9E
:1041000049DB041229CFB4DB041229CF13DC0412DB
:1041100029CF18DF041229CFC8DF041229CF37E0D6
:10412000041229CFD1E1041229CF89E2041229CF48
:1041300026E3041229CF87E3041229CF01E40412F5
:1041400029CF08E5041229CFF2E5041229CF38E679
:10415000041229CF71E6041229CF85E6041229CF73
:10416000CEE6041229CF52E7041229CFC8E8041280
:1041700029CF9CEA041229CFD3EB041229CF12EDE8
:10418000041229CF27EE041229CFD4EE041229CF2E
:1041900045EF041229CF3FF0041229CFAAD9021209
:1041A00029CF19DA021229CF67DA021229CFB1DA40
:1041B000021229CF0BDB021229CF63DB021229CFB7
:1041C000A4DB021229CF59DC021229CFAEDC021285
:1041D00029CF37DE021229CFABDE021229CFB0DFA2
:1041E000021229CFD6E0021229CF02E1021229CF12
:1041F00010E2021229CF21E2021229CF37E2021285
:1042000029CFBEE2021229CFE1E2021229CFB1E3A7
:10421000021229CFD9E3021229CFF0E3021229CFEB
:104220000AE4021229CF45E4021229CF71E40212F6
:1042300029CF97E4021229CFAEE4021229CF9FE5DD
:10424000021229CF01E6021229CF93E7021229CFE9
:104250003DE8021229CF61E8021229CFA0E802123C
:1042600029CFC6E8021229CF0AEA021229CF39EA79
:10427000021229CFDEEA021229CF1AEB021229CF4D
:1042800062EB021229CF02EC021229CF6CEC02126F
:1042900029CF50ED021229CF33EF021229CF06F0B9
:1042A000021229CF5AF1021229CFC6F2021229CFE7
:1042B00069F4021229CF77F4021229CF87F502128E
:1042C00029CF34F6021229CF87F6021229CF9CF6A5
:1042D000021229CF93F7021229CFABF8021229CF8D
:1042E00010F9021229CF1B8F061229CF568F061202
:1042F00029CF1F90061229CF8590061229CFF6905C
:10430000061229CF8A91061229CF0CA4061229CFB2
:10431000BAB0061229CFCBB0061229CF6BB1061264
:1043200029CFEC7F001229CFEDFF021229CFD1AFA8
:10433000061229CFE1AF061229CFF9AF061229CF15
:10434000ADB0061229CFCDAE061229CF52AF06125C
:1043500029CFB8AF061229CF39B2061229CF3CB205
:10436000061229CF75B2061229CFC8B2061229CF7C
:10437000DAB2061229CFDDB2061229CF008006126A
:1043800029CF0E80061229CF8880061229CF6C8192
:10439000061229CF3083061229CF9583061229CF22
:1043A000F883061229CFF87F001229CF80A10612C8
:1043B00029CFB8A1061229CF09A3061229CF8DA3B0
:1043C000061229CFDD97061229CF7E98061229CF33
:1043D000BC98061229CF0899061229CFCC9906124B
:1043E00029CFFF99061229CF269A061229CF389A8B
:1043F000061229CF4C9A061229CF5A9A061229CFB3
:104400008F79001229CFB779001229CFD47C0012FE
:1044100029CF297D001229CF6B7D001229CF7F7D06
:10442000001229CF987D001229CFB07E001229CF2B
:104430008C7F001229CFA67F001229CF9DA80612DB
:1044400029CFC1A8061229CFDAA8061229CF19A9A7
:10445000061229CF4CA9061229CF7CA9061229CF12
:1044600086A9061229CFEEA9061229CFF1A90612B4
:1044700029CFFBA9061229CF08AA061229CF2A9212
:10448000061229CF5292061229CF9392061229CFF3
:10449000B192061229CFCC92061229CF349306127C
:1044A00029CF4093061229CF9F93061229CFCB9391
:1044B000061229CFDA93061229CFFE93061229CFCE
:1044C000BF94061229CFCC94061229CFDD94061290
:1044D00029CFBDFF011229CFD5FF011229CF65E5F4
:1044E000051229CFD2E6051229CFD8E6051229CF29
:1044F000EFE6051229CF10E7051229CF26E70512AE
:1045000029CF3AE7051229CFB9E7051229CF1EE8CE
:10451000051229CFA6E8051229CF1FE9051229CFD8
:10452000F8E9051229CF08EA051229CF17EA051282
:1045300029CF95B3061229CFB9B3061229CFE1B31B
:10454000061229CF09B4061229CF929A061229CF52
:10455000B99A061229CFDA9A061229CF419B061280
:1045600029CF0B95061229CF2495061229CF3B950A
:10457000061229CF4495061229CF6295061229CF3B
:104580006C95061229CF7695061229CF89950612C9
:1045900029CF1796061229CF8696061229CFB496F0
:1045A000061229CF0597061229CF5697061229CF52
:1045B0007197061229CF7B97061229CF8C97061286
:1045C00029CFD297061229CFCCB4061229CF1DB518
:1045D000061229CF59B5051229CF85B5051229CF65
:1045E000A3B5051229CFB6B5051229CFD1B505124D
:1045F00029CF30B6051229CF5EB6051229CF7CBA75
:10460000051229CFB2BB051229CFE4BB051229CF71
:104610004CBC051229CFC9BD051229CFF1BD051229
:1046200029CF06BE051229CF16BE051229CF56BEC8
:10463000051229CFA2BE051229CFB2BE051229CF7D
:104640005FAB061229CF6FAB061229CF8DAB0612D6
:1046500029CFA8AB061229CFCFAB061229CFF0ABDA
:10466000061229CF0AAC061229CF42AC061229CF76
:1046700065AC061229CF85B1061229CFCBB106123F
:1046800029CF1788061229CF1E88061229CF7489D0
:10469000061229CFA489061229CFD489061229CF60
:1046A000078A061229CF198A061229CF558A0612BF
:1046B00029CFBB8A061229CFF78A061229CF3E8B53
:1046C000061229CF6B8B061229CF978B061229CFA2
:1046D00098A5061229CFCFA5061229CFF7A6061254
:1046E00029CFFAA6061229CFFDA6061229CFBAAD08
:1046F000061229CF2CAE061229CF6AAE061229CF98
:10470000ABAE061229CF83C7051229CF89C7051280
:1047100029CFD6C7051229CFFAC9051229CF32CA27
:10472000051229CF9ECA051229CF6BCB051229CFBE
:10473000B0CB051229CFE3CB051229CF6DCC0512E2
:1047400029CF85CC051229CF28CE051229CF20CF1D
:10475000051229CF7ECF051229CFE0BE051229CF41
:10476000F6BE051229CFA8BF051229CFA3C0051296
:1047700029CF9BC1051229CF33C2051229CF72C29E
:10478000051229CFEAC2051229CF4CC3051229CF41
:104790005CC3051229CF83C3051229CFD5C30512E7
:1047A00029CF68C5051229CF6DC5051229CF8FC540
:1047B000051229CF6DFF021229CF9BFF021229CFCC
:1047C000D0FF021229CFD2FF021229CFD4FF02124A
:1047D00029CFE5FF021229CFE7FF021229CFEAFF16
:1047E000021229CF5CFE041229CFCAFE041229CF7F
:1047F000ECFE041229CF24FF041229CF5AFF041221
:1048000029CFEC8B061229CF2F8C061229CF4D8C85
:10481000061229CF7E8E061229CFB68E061229CF18
:10482000DB8E061229CF29B5061229CF3DD70512F6
:1048300029CF10D8051229CF07D9051229CF18D9A9
:10484000051229CF29D9051229CF75D9051229CFEB
:1048500066DB051229CFC3DC051229CFF3DC051274
:1048600029CFBFDD051229CF1CDE051229CF8EF816
:10487000051229CFACF8051229CFF0F8051229CF7F
:1048800016F9051229CF3DF9051229CF55F9051260
:1048900029CF6DF9051229CF85F9051229CF2BFAF9
:1048A000051229CF69FA051229CF73FA051229CF0B
:1048B0008CFA051229CF9AFB051229CFB5FB0512F8
:1048C00029CFBEFB051229CFC7FB051229CFD0FB8C
:1048D000051229CFDAFB051229CF3EFC051229CF9C
:1048E00051EF051229CF78F3051229CF94F3051261
:1048F00029CF99F3051229CFA5FC051229CFBBFCBE
:10490000051229CF3DFE051229CF67FE051229CFDA
:10491000AFFE051229CFC2FF051229CF27A7061225
:1049200029CF97B5061229CFC07F001229CF52A4F4
:10493000021229CF2EA4021229CF5DA3021229CF81
:1049400024A3021229CFC8A2021229CF96A20212D2
:1049500029CFFCA1021229CFABA0021229CF2DA092
:10496000021229CF639F021229CF4B9E021229CF38
:10497000EF9D021229CFC99D021229CF059D021277
:1049800029CF489B021229CFE49A021229CFB59A67
:10499000021229CFB29A021229CF8599021229CF89
:1049A0006C98021229CF2197021229CF4896021241
:1049B00029CFC495021229CFCB94021229CF289473
:1049C000021229CF6F93021229CFD8AA021229CF3F
:1049D00044AA021229CF75A9021229CF4DA70212AB
:1049E00029CF22A7021229CF2D93021229CF959207
:1049F000021229CF5492021229CFF791021229CF25
:104A0000C7A6021229CFC491021229CF58910212CF
:104A100029CF2391021229CFC490021229CF32A5A7
:104A2000021229CF51C1041229CF9390021229CF2B
:104A3000478D021229CF7C8C021229CF318C0212B1
:104A400029CF258C021229CF848B021229CF488AC4
:104A5000021229CF8387021229CF0F85021229CF94
:104A6000CD84021229CF9783021229CF2D830212FF
:104A700029CF5B82021229CF1782021229CF008030
:104A8000021229CF6C80021229CFB9A4021229CFB9
:104A90003280021229CF8CFB0100000080FB8F00C6
:104AA0000100D70887000100D60824000200181072
:104AB000250002001A10260002001C102700020028
:104AC0001E10280001002010290001002110840080
:104AD000040022108600010026102A000100271081
:104AE0002B00010028102C0001002C102D000800C4
:104AF000BE082E0001002D102F0001002E103000E6
:104B000001002F1031000100301032000100C608F2
:104B100033000100C70834000100311036000100E5
:104B2000C808380001003210390001002B10830042
:104B30000200441063000100D30864000100291042
:104B4000650001002A106D000100D4087100080002
:104B5000B608660001004310430001003410440011
:104B600002003510450001003710460002003810E1
:104B700047000800CB08480001003A104B00010034
:104B80003B10040001004610A1000100481037004E
:104B90000100471088000100D8083C000100C90846
:104BA0003D0001003310490002003C106700010085
:104BB000D5084D0002003E104E00010040104F008D
:104BC000020041103E000100CA0800000000000081
:104BD000000136360101000102010001030100015C
:104BE0000401060605020000070100340801000F59
:104BF000090401010D0100FF0E080000170200006A
:104C0000190100FF1A0100011B0100FE1C01000830
:104C10001D0200001F01000120010001210200000F
:104C20002301000F240200002601000127010008D3
:104C3000280200FF2A0100072B0102402C0100007E
:104C40002D0100012E0100012F0100FF30010B1C7E
:104C5000310800003A0100083B01000F3C0100014F
:104C60000103710301030103010301030103220393
:104C70000203010310030003000300030003000309
:104C800000030003420300032403060300030003A0
:104C9000040312032503230325032303040304034E
:104CA0000003000300034403000300032303000385
:104CB000650321003503810300030503000300039E
:104CC000000300032503230303007100300160008B
:104CD00011007000310220035004800010006100B8
:104CE00000001400630073007200620043000000C3
:104CF0001300060000000000040012000000000085
:104D00000000000004000400370037003C024400AB
:104D10000000000000000000650000003500810078
:104D20000000050000008300000003047104020479
:104D3000600411047004020402040104020410045B
:104D400061040004140463047304720462044304E1
:104D50000004130406040004000404041204000404
:104D60000004000400045104640000040004000472
:104D70004404000400040004000465040004350435
:104D8000810464000504000483040004010171012E
:104D90000101010111010101310101010101800144
:104DA000100161013B001400630173017201620193
:104DB00043010001130106013D0135000401120108
:104DC000000100010001000104010401330133016D
:104DD0003C0144013201360000010001650100017F
:104DE00035008101000105018201830100010302F8
:104DF000710230016002110270020102020202021D
:104E00008002100261023A004100630273027202E2
:104E10006202430200021302380000020002040290
:104E20001202000200020002000204020402370023
:104E300037003C0244020002390000020002650211
:104E40000002350281020002050282028302000292
:104E50000000094113007940010009410200FB3FB5
:104E6000030001400400074005000D400600194002
:104E700030003D40310037403200494033004F4060
:104E80003500554034005B403600614011006D40F4
:104E90001400734015002B401F003140FFFF00003D
:104EA00036000100060000000F00000000000000B6
:104EB00000000000000003FFFF00000403FFFF00EC
:104EC00000FFFF0FF4010005C404032000010000EF
:104ED0000B000000000000000003010F00018B31F7
:104EE00006C13108BB310BD93110FB300AEB31025E
:104EF000913105AF310797310C73310D7F31640368
:104F00002FFF000007ECFDFDFDECDCDCCCBCACAC05
:104F10009C9C8C7C7C6C6C5C5C5C4C4C3C3C2C2C81
:104F20001C1C03EAF5E5D5D5C5B5A5959585857510
:104F3000756565555545453535252515150547369E
:104F400077364D365336713665365F367D36833665
:104F500089369536593641363B3600160F00000B20
:104F6000150B020002220F3300000E010305070992
:104F70000B0D0F00020406080A0C0D5A6967426502
:104F800065416C6C69616E63653039433755375BD9
:104F9000370B36613705361136AF37CD37D337B5D6
:104FA00037C137BB3745353F357B35813575352DB5
:104FB00035003C40423A3F3F392F47300001191637
:104FC00018161618230300303017181921301B1D2E
:104FD0001F30303016181920231A1C1E3000034DC4
:104FE0004C4651181A2505020C0E020B040B0A0739
:104FF00008000F6B368F36C7379B36A13697376759
:10500000376D377937733702040201010101090254
:10501000513557354B35873500BE040AE80300008B
:105020005D356F350E003C007F0000000000E80396
:105030003C00100C0A03030C0900040028FF1E1E8C
:1050400009050C081504040110080803C082C08378
:105050009007ADE4F0A3F07CD57D047A227B0712A3
:1050600046FD122F09124A7B122F0F026EB374F302
:105070001224F574F5122AAB89098A088B0AE970A3
:105080005F74026508703E90073D7408F0750C006F
:10509000780C1229F0ECF50C780C1229F0EBF50CD9
:1050A000780C1229F0901022122823901026E0F993
:1050B0007CCB7D08901044126EC4122F33740712FB
:1050C0002A1A02517E74016508600302518190071B
:1050D0003D7408F07B00AA0AA90A122F7502517EBE
:1050E000740165096009740265096003025181EA6F
:1050F000600674036508704090073D74021251A267
:10510000122C6F122F21900745E0A2E34010E970A6
:105110000D9007B1E004F0640470031251AC740305
:105120006508705A9007B2E0F8740128F0E8C3945B
:1051300005404B1251AC8046740165087043740100
:10514000650990073D702C740AF07401122C92E4EA
:10515000F07402122C927403F004122C92E4F0A367
:10516000F0A3F0A3F07408122C92E4126132123111
:105170009D8025740A1251A2122C6F122F57E960DC
:10518000179080F31228237A017B0090073AE0F908
:10519000123DBB7404122A1A740B122A1A7F0502DC
:1051A000275BF0901026E0F990102222901022E464
:1051B000F0A374F8F0A374FFF0A37407F02274F660
:1051C0001224F5E9FFEAFE7AD1F9123C718A828B4A
:1051D00083E5824583702A7A027B00123C53EA4BB6
:1051E000700E7A107B0090073AE0F9123C9580141B
:1051F0008A828B8374D1F0EFA3F0EEF9123C5F80CA
:1052000003EFA3F00253FC74F71224F5890890060B
:105210009C1277CA80288E828F83A3A312644A606F
:10522000168E828F83A3A3A3E0F5838882A31264E2
:105230004AFAA908123FE38E828F831278ACFFEE00
:105240004F70D39006B3E0FAA908123FE31232ABD5
:1052500090070C1259841232A50276AF74F1122411
:10526000F5890A8C08750900750B00740F122C92D1
:105270001261287411122C921259AD804AE50E1257
:105280005329F50CA3E0F50DE50BC333FEE433FF22
:10529000EA2EF582EB3FF583E0650C7004A3E06530
:1052A0000D7019E509C333FEE433FFEC2EF582EDF2
:1052B0003FF583E50CF0A3E50DF00509050EE50EBD
:1052C000C3950840B8050BE50BC3950A5005750E4C
:1052D0000080EBA909026DE174F41224F5890B7DBD
:1052E00000740C122C9212612880010DEDC3950BF5
:1052F0005032750A008002050AE50AC39C50ECEDA5
:10530000C333FEE433FFEA2EF582EB3F125339F547
:1053100009E50A12532965087004A3E0650970D7EE
:10532000790180027900026B6BC333FEE433FFE83E
:105330002EF582E93FF583E022F583E0F508A3E04E
:105340002274F61224F51253E37003A3E06D701774
:1053500075084375090778081229ECEEFA12410F17
:105360007402122A1A801F750802750980780812C3
:1053700029EC8C088D0978081229EC1253CF1241C0
:10538000337404122A1A807474F61224F51253E34B
:105390007003A3E06D70177508507509077808123F
:1053A00029ECEEFA1241157402122A1A801F7508B0
:1053B0000375098078081229EC8C088D0978081289
:1053C00029EC1253CF1241337404122A1A802D1281
:1053D00053DDEF126147FD7C801267D822EE240E68
:1053E000F5822212670CFAA3E0F9EA2400FCE43902
:1053F000FD90070CE06C227402122A1A7F02022729
:105400005B74F61224F574FE122AABEAFEEBFF85FC
:105410001882851983E4F0A3125BF112671EE0FC89
:10542000A3E0FBECFA88828983A3A3E0F975090065
:10543000750800600574FF697005750882804390E7
:10544000070CE06A7003A3E06B7020851882851951
:1054500083AA82AB8312385DE9F509851882851924
:1054600083126B76701C75088380179008D6E060F5
:1054700004640170057508818008E064027003759A
:1054800008808518828519831259ADA908EEFAEFB4
:10549000FB12411BE5096011851882851983126B87
:1054A000766006126EBE123CFB0253F774F21224B1
:1054B000F5EAFEEBFF750A00750B0012552012325B
:1054C000ABEA65087003EB6509701212386FE914D6
:1054D000F50A79017A797B071238758003750B809C
:1054E000127671F50C780C1229F0750C79750D0790
:1054F000780C1229EC780A1229F078081229ECE5C8
:105500000BF50878081229F01265C3F582EF1272C4
:10551000EE7A057B801241217407122A1A02630970
:105520001277F612612C888289831278DBF508E401
:1055300039F5092274F61224F5E9FE7F00802E8ADF
:10554000828B8312533BF9E5082400E439F509EF17
:1055500033F8E433F9EC28F582ED39F583E508F00A
:10556000A3E509F0EA2402FAEB3400FB0FEFC39E37
:1055700040CD0253FC74E81224F574FB122AAB8A66
:10558000168B17851882851983E4F07403122C9208
:10559000E4F0A3F004122C92E4F0127501F50AA3D2
:1055A000E0F50B850A82F5831278D7FEE439FF8592
:1055B0000A82850B83A3A3E0FA850A82850B83A365
:1055C000A3A3E0F9EAF508E439F509E50A2404F5AE
:1055D0000AE50B3400F50BEEFAEFFB123347E964F2
:1055E000016016EEFAEFFB123347E9703D90070CAD
:1055F000E06E7003A3E06F6031125D881229F0E461
:10560000F508F50978081229EC78081229F09007B6
:105610000C12282B75088078081229F012598A126A
:1056200041217407122A1A02597A1259B38810605C
:105630002EC333FAE433FB123CF57403122C92129E
:1056400059847403122C92126B7660137403122C1B
:10565000921259A5A9101240138A0A8B0B80037568
:1056600010001259B3880F602AC333FAE433FB12D7
:105670003CF57401122C921259847401122C92126E
:105680006B76600F7401122C921259A5A90F12406B
:10569000138003750F0090069C805D850A82850B40
:1056A00083A3A3A3A3A3A3A3A3E4F0A3F0AA0AAB99
:1056B0000B851482851583A3A31259C312644AF97A
:1056C000123C5F851282851383E0C0E085188285D5
:1056D0001983E0F8747928F58274071277EED0E028
:1056E000126B7A04F0E511A2E05007AA12AB131274
:1056F0003CFB851482851583E0F514A3E0F515E5E0
:1057000014451570030258E7851482851583A3A3F9
:1057100012644A60DD851482851583A3A3A3A3A325
:10572000A3A3A3E0A2E050CA851482851583A3A396
:10573000A3A3126B76851482851583A3A3601F1221
:10574000644AFA7901851482851583A3A3A3A31261
:10575000644F1226758A128B13751101800F12592E
:10576000C3A3A3E0F512A3E0F513751100E51245FC
:105770001370030256E5851282851383A3E0650842
:105780007004A3E06509600F74FF6508700474FF7E
:10579000650960030256E5851282851383A3A3A3DE
:1057A000A3A3A3A312282B851282851383A3A3A3EB
:1057B000A3A3A3E0FC7405122C92126EC4A91012CC
:1057C0003FF57402122A1AE9703C85128285138310
:1057D000A3A3A3A3A3A3A3A3A3A312282B851282ED
:1057E000851383A3A3A3A3A3A3A3A3A3E0FC740390
:1057F000122C92126EC4A90F123FF57402122A1ACB
:10580000E970030256E5E50F2510C333240AFA7B3D
:1058100000123C538A0A8B0BEA450B70030256C3F5
:105820008A828B8374D2F0851682851783A3A31294
:1058300061288A828B83A3A312614B8A828B83A304
:10584000A3A3A3E5101278E1E50FF0E510603DEAAF
:105850002405FAEB3400FBE50A240AF8E50B3400D2
:10586000F98A828B8312614B7403122C921259C8ED
:105870001229E8E510C333FCE433FD8A828B8312DE
:105880006EC4123C2F7403122A1A800D8A828B83F5
:10589000A3A3A3A3A3E4F0A3F0E50F700302569B18
:1058A000E510C333F8E433F9E50A28F8E50B39F9D4
:1058B000E8240AFAE93400FB850A82850B83A3A356
:1058C000A3A3A3A3A3A31259847401122C92125967
:1058D000C81229E8E50FC333FCE433FD123C2F74F2
:1058E00003122A1A0256AD851882851983E06027B3
:1058F000125D881229F07508797509077808122950
:10590000EC7403122C92125D921229F090070C1283
:10591000282B7508008029EEFAEFFB123347E97057
:105920002F125D881229F075087975090778081219
:1059300029EC75080078081229F090070C12282B22
:1059400078081229F012598A1241217407122A1A72
:105950007403122C92126B76600B7403122C921249
:105960006EC4123CFB7401122C92126B76600B74A5
:1059700001122C92126EC4123CFB7405122A1A7F7B
:105980001002275BEAF0A3EBF022E5162402FCE507
:10599000173400FDE516240FF582E517126147F96B
:1059A0007A067B80221259ADAA0AAB0B22E0FCA337
:1059B000E0FD22850A82850B83E0F8A385820A85B3
:1059C000830B2212644FA322E0F50CA3E0F50D75C2
:1059D0000E00780C2274F11224F574F4122AAB8AAA
:1059E000088B09ECFEEDFF740B122C927403F0127D
:1059F0002C92AA82AB831246FD1232A5EAFCEBFD83
:105A00007403122C92AA82AB831246F7E9600A1241
:105A10005BC16010E06401600B8518828519837496
:105A200084025B768E828F83A3A3A3A3A3A3A3A3E5
:105A3000E06013F46010125BC17016EE241412764D
:105A4000746003F4700B8518828519837482025B7D
:105A500076E508240CF582E5091276776421700258
:105A6000A3E06003025B4D851882851983748C1254
:105A70005BF164036003025B377401122C92AC8209
:105A8000AD831262E91249F1E96003025B37123F0C
:105A9000778A0A8B0BEA450B7003025B778E0C8FBB
:105AA0000D750E00780C1229E87C157D00123C2F34
:105AB0007403122A1A850882850983A3A3E50A24A0
:105AC00015FCE50B3400FD74091229481272D4123A
:105AD0007677C0E0E50A241EF582E50B1277EED05A
:105AE000E012613AC0E0E50A241FF582E50B127767
:105AF000EED0E0F0E50A2420F582E50B1277EE7493
:105B000005F0EE240BFEEF3400FFEEFAEFFB123946
:105B10000B7D007C007900EEFAEFFB1240D99080FB
:105B2000F31228237A007B1090073AE0F9123DBB6C
:105B30007404122A1A8078125BB41229F0125BCA1C
:105B4000124A157401122A1AE9702C8014125BB4DF
:105B50001229F0125BCA124A0F7401122A1AE97054
:105B60000D851882851983E4F0123F478009851856
:105B7000828519837488F01272D4125BB91229F0ED
:105B80007401122C9285820A85830B780A1229EC03
:105B9000E508240CF582E5091262F84480F50B78DB
:105BA0000A1229EC1266871240CD7405122A1A7463
:105BB0000C026DDEEE126DE7EF126147F50A780A0E
:105BC00022125D73126147640322EE240BFCEF3452
:105BD00000FD8E828F83A3A3A3A3A3A3A3A3A312D9
:105BE0006F018E828F83A3A3A3A3A3A3A3A3E0F932
:105BF00022F0125D7312614722C082C08374F312D7
:105C00002AAB851882851983E4F004122C9212596C
:105C1000847403122C92AA82AB83122E37851882C9
:105C2000851983AA82AB83122E73740D122A1A026D
:105C30006EB374F61224F5126708FAA3E0F9EAF8D5
:105C400090074BE058F508A3E059F509E508450928
:105C5000601C78081229EC90070C12282B12767120
:105C6000FD7C001267D412412D7404122A1A0253CB
:105C7000FC74F41224F574FF122AABEAFEEBFF85E4
:105C80001882851983E4F09008CAE07003025D6E03
:105C9000EE240B12767464017003025D6E8E828FA7
:105CA00083A3A3126128EE2415127674687003A3EF
:105CB000E0696003025D6E125D73126125E8FAE926
:105CC000FB88828983A3A3A3A3A3A3A3A3E0FC8847
:105CD000828983A3A3A3A3A3A3A3A3A3E0F9EC2492
:105CE00000F508E439F509EC45096010EC9471E918
:105CF000940850089008D6E06402700A85188285DE
:105D0000198374808037122EAF8A0A8B0BA80AA9D8
:105D10000BE849602088828983A3A3A3A3E014C36E
:105D200094025011E82412125D7AE82414125D7A6C
:105D3000123F4780098518828519837481F01253B8
:105D4000DDEF125D8F1229F07401122C928582080A
:105D500085830978081229EC75081F750980780871
:105D60001229EC1265B81240CD7405122A1A74017A
:105D7000026B68EE2413F582EF22F582E91277FCBC
:105D8000E508F0A3E509F022E5161253DEE5171247
:105D900077FCE0F50878082274EA1224F574DB1227
:105DA0002AAB8A148B15751200751300126444F522
:105DB0000E851882851983AC82AD837A007B0079C9
:105DC0009C122F877A047900122E85EAF50C85182B
:105DD00082851983E0250CF0F8E50EC39840030294
:105DE0005FDDE0C3950EF509C39404400375090314
:105DF000E50975F01AA4FAABF0123CF58A128B1380
:105E0000EA45137003025FE0750D00AE12AF138513
:105E10000E08025E9F126034123C3B850A82850B9D
:105E200083A3A3A3A3E07039850A82850B83126B39
:105E30007670121262F21274CEEE2418F582EF120E
:105E400077EEE48016126043F0900563E014C0E042
:105E5000EE2418F582EF1277EED0E012607CE48039
:105E60003B900563E004C0E0EE2418F582EF127762
:105E7000EED0E0126074C39403EE4003025F3B1265
:105E800062F3126DEF12607464017003025F48EEFA
:105E90002415126046F0EE241612604612604FE59B
:105EA0000DC395094003025F6DE508C3950C4003DF
:105EB000025F5285080AAA0A7B00122EEB8A0A8B1F
:105EC0000B050890055012605B1246FD850A82851D
:105ED0000B83126128126026127587126089850A69
:105EE00082850B83A3A3A3A3A3A3A3A3A3A3E0C01F
:105EF000E0EE2419F582EF1277EED0E0F074011293
:105F00002C92E4F0850A82850B83126128740212B8
:105F10002C9212614B7401122C92AA82AB83122E26
:105F200061E964016003025E157404122C92AC8274
:105F3000AD8312603A1246FD025E1B12604412608D
:105F40007464036003025E8F12602D1277EEE40228
:105F50005E95E50CC3950E40057508008016E50EAC
:105F6000C3950CF508800D12604312604FE50DC318
:105F70009509506C740E122C92AC82AD8385080A80
:105F8000AA0A7B007987122F8705087418122C92B1
