:020000040000FA
:10000000021AC3022003FFFFFFFFFF02200BFFFFC6
:10001000FFFFFF022013FFFFFFFFFF02201BFFFF78
:10002000FFFFFF022023FFFFFFFFFF02202BFFFF48
:10003000FFFFFF022033FFFFFFFFFF02203BFFFF18
:10004000FFFFFF022043FFFFFFFFFF02204BFFFFE8
:10005000FFFFFF022053FFFFFFFFFF02205BFFFFB8
:10006000FFFFFF022063FFFFFFFFFF02206BFFFF88
:10007000FFFFFF022073FFFFFFFFFF02207BFFFF58
:10008000FFFFFF022083FFFFFFFFFF02208B902076
:1000900000000100000000C8030000000400FFFF92
:1000A000FFFFFFFFFFFFFFFFFFFF0403090424031F
:1000B00054006500780061007300200049006E0064
:1000C00073007400720075006D0065006E007400AE
:1000D0007300240354004900200043004300320011
:1000E000350033003100200055005300420020004D
:1000F00043004400430000035F005F0030005800ED
:1001000000000000000000000000000000000000EF
:1001100000000000000000000000000000000000DF
:10012000303132333435363738394142434445462D
:10013000E7173C183C183C183C18441874F7121781
:1001400081120764600302021AA3E0F8A3E06003CF
:1001500002021AA3E064027002A3E0600302021A22
:100160009003B6E02480600914604F14605C0202C2
:100170001AE8600302021A9003B0E060047801807C
:100180000278009003BEE8F0A3E4F09003AFE060D3
:100190000A9003BEE04402F0A3E4F09003A4E064FC
:1001A0000460149003B174BEF0A37403F0A3E4F0F0
:1001B000A374021207C6F002084690039DE064048F
:1001C00070589003BEE4F0A380D0E8547FF5089007
:1001D000039DE064047043E508C39406503C749D9D
:1001E0002508F58274033400F583E854806018A371
:1001F000A3A3A3A3A3A3E0640370047801800278FF
:10020000009003BEE88090E582240CF582E58334FB
:1002100000F583E0640370E780E19003A474048038
:100220009574F7121781E9FE9003BC12076760030B
:1002300002030790039DE06404600B9003BA120769
:100240006760030203079003B6E0541F600914605F
:10025000301460200203079003B8E064017022EEBE
:100260009003AFF060047905800279067A001217D6
:100270007F02030D9003BAE0547FFA9003B8E06068
:1002800005790002030FEAC39406507BEA90620EE0
:10029000F08A08749D2508F874033400F99003BAB5
:1002A000E05480602CEE6004741080027440906210
:1002B00011F0EE600474038001E488828983A3A3B3
:1002C000A3A3A3A3A3F0EE6004790880317907808B
:1002D0002DEE6004742080027480906214F0EE6051
:1002E0000474038001E4C0E0E8240CF582E93400E2
:1002F000F583D0E0F0EE6004790A800279091217E4
:100300007F90620EE480059003A47404F0790102EA
:1003100008467900120221E9700312176E22790152
:10032000120221E9700312177D22C082C08390035C
:10033000BA1207677015A3120767700F9003B812FF
:1003400005085480FAE9FBEA4B60079003A47404A3
:10035000801AE8906200F090039D6009E0640270EA
:100360000C74038007E0640370037402F0D083D040
:10037000822274F31217819003B8E0FAA3E01460AC
:100380000814601014603B805912136A1204E5A32C
:100390007B808043790012138C1204E57B80E92472
:1003A00002F9EA3400FA121A14FC1919E0FAA3E966
:1003B0002403F9EA3400FA121A14F9ECA3F0A3E9C1
:1003C000801CEAF91213FA9003B1EAF0A3EBF0A350
:1003D000E41204F4A37B00121A14A3F0A3E4F002C5
:1003E000049F9003B1E4F0A3F0A3F0F50B90046632
:1003F000E0FAA3E0FB02047A75090074037808129E
:100400001AB0EA2508F8EB3509F99003B81204FE92
:10041000E493C0E0EFFCD0E06C705DA3E4936E70F9
:10042000579003BA1204FEA3A3E493C0E0EFFCD0FC
:10043000E06C704488828983A3A3A3E4936E703830
:1004400088828983A3A3A3A3E493F508740193F599
:10045000099003B1E508F0A3E509F0A37480F088E2
:10046000828983A3A3A3A3A3A3E493F8740193F9BC
:100470009003B4E8F0A3E9F0050B850B089004683D
:10048000120508C39AF50CE99BF50D7403780C125C
:100490001AD2C3E508950CE4950D50030203F890B9
:1004A00003B1E0FCA3E0FDA3E0FEEC4D4E9003A4FD
:1004B000700474048029E0640460259003BCE0FAB1
:1004C000A3E0FB9003B4E0F8A3E0F9C3EA98EB994A
:1004D00050089003B4EAF0A3EBF09003A47401F089
:1004E0007F060219329003B1EAF0A3EBF0A3748007
:1004F0001204F422F09003B1E0F9A3E0FA22E0FE46
:10050000A3E0FF8882898322E0F8A3E0F9E822745F
:10051000EE121781EA2404F8EB3400F988088909FF
:100520008882F583E493602590046A120508FEE949
:100530008007EE2404FEEF3400FF8E828F83E49365
:10054000F8740193F9EA687002EB6970E5750C00C4
:1005500080409062147490F07410120665700375F8
:100560000D408E828F83A3A3A3E49355106006E50C
:100570000DD2E0F50DE50D906215F0EA906213F0F2
:10058000EC240CF582ED3400F583E4F090620EF07B
:10059000050C850882850983E493F8E50CC398402F
:1005A000030206607A0079051212FD8A0E8B0FEAAB
:1005B000450F60DCEA2402F8EB3400F9880A890B65
:1005C0008882F583E493540FF51290620EF0750D56
:1005D000008A828B83A3A3A3A3E4932407F510A32B
:1005E000E4933400F51174037810121AD2AA10851E
:1005F0001210749D2510F874033400F9E8FCE9FD2D
:10060000751001751100E5127810121AB0E50E246C
:1006100003F8EB3400F9850A82850B83E493A2E7A3
:1006200040030205529062117448F0740812066586
:100630007003750D408E828F83A3A3E493551060E1
:1006400006E50DD2E0F50DE50D906212F0EA90623C
:1006500010F08C828D83A3A3A3A3A3A3A302058A76
:100660007F0B021932F088828983E493540364017A
:1006700022C082C0831207647010A3120767700A39
:10068000A3E064017002A3E060079003A4740480F7
:100690000C9003B1749EF0A374031207BCF0020324
:1006A0006D74F412178190039DE06402601490034E
:1006B000BA120767700CA312076770069003B9E0BF
:1006C00060099003A47404F002075F7A00790112B4
:1006D000177F9003B8E060727A00F912138C8A08D1
:1006E0008B09EA4509605B90039D7404F09003B8A0
:1006F000E090039EF0750C00850882850983A3A312
:10070000A3A3E493F8E50CC398504D850C0A749F9D
:10071000250AF874033400F9E8FEE9FF8E828F831E
:10072000E4F07A0079041212FD8A828B83A3A3A3DA
:10073000E493F88E828F83E06870E712050F050C52
:1007400080B69003A47404F0800E90039EF0900392
:100750009D7403F0F9120F367A00790212177F7F29
:10076000050219329003B8E0F8A3E0F9E8492274D1
:10077000F612178190039DE0640470199003B6E0AF
:1007800064817011120764700C9003BCE064017006
:1007900002A3E060079003A47404801A9003BAE0F7
:1007A000249FF508A3E03403F5099003B1E508F0B0
:1007B000A3E5091207BCF07F03021932F0A3E4F0AD
:1007C000A3041207C622F0A3E4F09003A404227449
:1007D000F712178190039DE0640470649003B6E003
:1007E0006401705C9003BC12076770549003B8E01A
:1007F000FB9003BAE0FA90039EE0F91213C48A0852
:100800008B09AE08AF09EE4F60369003BAE0FA7973
:100810000312177F9003B8E0C0E09003BAE0249F72
:10082000F8A3E03403F988828983D0E0F0EEFAEF90
:10083000FB12050F9003BAE0FA790412177F8006C5
:100840009003A47404F07F0202193274F812178125
:1008500074FF121A477E008033900384E0F88518F5
:1008600082851983E068700D900382E0644D700505
:10087000120ABAE9FE900385E4F0900387F0851828
:1008800082851983E0F8900384E068F07901851887
:1008900082851983AA82AB831210ABE97003020927
:1008A00049E0C0E0900387E0F8900385E0FAE82A89
:1008B000F8E43400120C52D0E0F0900387E06011AD
:1008C00014602014603E14604E14606414608A80CA
:1008D000AD851882851983E064FE70A29003877449
:1008E00001809A900384E4F0851882851983E09052
:1008F0000386F0C394809003874004E402087D746B
:100900000202087D851882851983E0900382F090A9
:100910000387740302087D851882851983E090039C
:1009200083F0900386E06019900387740402087DC9
:10093000900385E004F0F8900386E0686003020805
:100940007E900387740502087DEEF974011219FA8E
:100950007F0102193274ED12178174FB121A477568
:1009600008047509007808121A777402121AEEAC9E
:1009700082AD837A907B00790412151D74021219DE
:10098000FA851882E0F47003A3E0F4600F85188202
:10099000851983E0F8A3E0F9E8497003020AAE7410
:1009A00002121AEEE0687003A3E0697003020A887D
:1009B0007508007510007511207512007513008000
:1009C0000A9003C07810121A88604C750A01750BE2
:1009D00000780A121A777406121AEEAC82AD83857B
:1009E000100A85110BAA0AE50B5407FB8A0C851126
:1009F0000D85120E85130F740B780C121A2EA90C8C
:100A000012151D74021219FAE0F9AA08AB09120CAA
:100A10006C8A088B09800C75109375112075120073
:100A20007513009003C47810121A9D9003C87810B3
:100A30001219C0508CE4F9120C6CE4F9120C6C74AD
:100A400002121AEEEAF0A3EBF075080175090078BE
:100A500008121A777402121AEEAC82AD837A247BE4
:100A6000081215A274021219FA7508047808121AED
:100A7000777402121AEEAC82AD837A907B0079040F
:100A800012151D74021219FA120C5E121AEEE068A9
:100A90007003A3E0697017851882851983E0F470EC
:100AA00003A3E0F46008E84960047901800279005A
:100AB00074051219FA7F0C02193274F3121781743B
:100AC000FC121A47900306E0FAA3E0F8E4C8F9EA3A
:100AD0002400FEE93408FF750A01880988088E0C95
:100AE0008F0D7409780C121AD2A90CEEF50CEF5484
:100AF00001F50D900383E014600914602C14606903
:100B0000020C02EA450D7003121608750C10750DE3
:100B100000780C121A777C087D03EEFAEFFB1215B1
:100B2000A274021219FA020C02E9C3947940067504
:100B30000901020C02750A40750B00780A121A7737
:100B40007C097D037402780C121AB0AA0CAB0D124A
:100B5000151D74021219FA900307E0A3F090030622
:100B6000E0A3F0750A43020C02750C04750D0078C1
:100B70000C121A777402121AEEAC82AD837A907B53
:100B800000790412151D74021219FA7402121AEE79
:100B9000E0F8A3E0F9851882851983E0687003A363
:100BA000E0696047120C5E121AEEE8F0A3E9F075F6
:100BB0000C01780C121A777402121AEEAC82AD8313
:100BC0007A247B081215A274021219FA750C0478A3
:100BD0000C121A777402121AEEAC82AD837A907BF3
:100BE00000790412151D74021219FA120C5E121A01
:100BF000EEE0687003A3E069700575080180037575
:100C00000907900305E0D2E7F0E509A3F0E50A90B3
:100C10000303F0744D650AF5097404250AFB7A0391
:100C20008004E062090AEAF83395E0120C52EAC344
:100C30009BA2D265D03340EAE509F074012AF97A23
:100C4000027B031210EBA90874041219FA7F060242
:100C50001932F9740228F582740339F58322851854
:100C600082851983E0F8A3E0F9740222C008C00964
:100C70007C088A088B09740F7808121AD2EAC333E9
:100C8000FAEB33FBE9A2E7500474014AFAE508A243
:100C9000E0500874216AFA74106BFBE9C333F91C45
:100CA000EC70CFD009D00822C082C0837A007901CD
:100CB00012138C8A828B83A3A3A3A3A3A3A3E4937D
:100CC000A2E69003B0500474018001E4F09003AFF9
:100CD000E4F090620F7403F0E0A2E750FBD083D001
:100CE0008222C082C08390039D7402F0A3E4F0903E
:100CF00003A4F07903120F3675210075220080DD00
:100D000074F612178190620EE0FEE4F0906211E03A
:100D1000FFA2E4501D7480F09003A47407F0E52155
:100D200045226009852182852283121B009003A43D
:100D3000E4F0EFA2E2500B906211E4F09003A4F013
:100D400080629003A4E0F87402687041906216E03B
:100D5000FF9003B1121972EFF97A207B62120F6EC5
:100D600074031219FA8F089003B4120F0B120F16A6
:100D7000E0F8A3E0F9E84960047440800274489008
:100D80006211F0E8496003020F01020EDD7406688B
:100D90007009852182852283121B009003A4E060E4
:100DA00003020E8DEFA2E04003020F017508B67535
:100DB0000903750A007808121A7379087A207B6291
:100DC000120F6E74031219FA752100752200900338
:100DD000B6E054E0601D24E07003020E6924E06078
:100DE0007224C0604824E07003020E7424E0606E38
:100DF000020E7FA3E014602624FE601D24FE600A1C
:100E000024FC601F24FE6020807512032A9003A436
:100E1000E0640470727460807012031E80EF12032D
:100E20001280EA1206A180E51207CF80E0A3E060FD
:100E30000E24FA600F24FE601024FE601180401220
:100E4000013C80C912037280C412067180BF120770
:100E50006F80BA75216A75221712176A80AF7521E3
:100E60006C75221712176C80A47521057522171254
:100E700017058099752135752217121735808E90C8
:100E800003A47404F0808E7440906211F09003A467
:100E9000E0F8740168705C7F029003B4E0F8A3E0AE
:100EA000F9C3E89420E994005007E8F50A7F0A8026
:100EB00003750A209003B1121972A90A7A207B6285
:100EC000120F9374031219FA850A08120F16120FE3
:100ED0000BEF906211F0E50AC394205024E5214500
:100EE000226009852182852283121B009003A4E4DD
:100EF000F0800E7405687009852182852283121B9B
:100F000000EE90620EF07F03021932C3E09508F004
:100F1000A3E09400F0229003B1E0F9A3E0FAA3E08B
:100F2000FBE92508F9EA3400FA9003B1E9F0A3EAF5
:100F3000F0A3EBF0A32274F71217817800880874ED
:100F4000A52508F5827403120F6240F17800880825
:100F500074AA2508F5827403120F6240F17F020221
:100F600019323400F583E9F008E8C394052274F6D9
:100F7000121781EAFCEBFDE9F8740A121AEE120F5F
:100F8000C3600D8C828D83E0121A5D120FB870F36E
:100F9000020F0674F6121781EAFCEBFDE9F8740AF9
:100FA000121AEE120FC3600D121A148C828D83F088
:100FB000120FB870F3020F06E9240109EA3400FAAF
:100FC00018E822E0F508A3E0F509A3E0A908AA09BA
:100FD000FBE822C082C0838003121664A2E840F9B5
:100FE000A823E8540460097823E654FBF6120CE2C7
:100FF000A823E8541060097823E654EFF6120D0098
:10100000A823E8A2E05005782354FCF690620EE095
:10101000FA7404F0906214E0A2E05042E5A8F8C22D
:10102000AF906216E0F9A3E0E9FBE8A2E792AF8097
:101030001F906228E0C0E0900391E0F8746E28F5FC
:101040008274053400F583D0E0F0900391E004F061
:10105000EBFC74FF2C1B0470D8906214E4F0EA904F
:10106000620EF0E0FD7404F0906211E0A2E0403105
:10107000900393E0F8900392E06860257A40900333
:1010800092121123E0906228F0900392E004F0089D
:10109000900393E06860041AEA70E39062117401AF
:1010A000F0ED90620EF0D083D0822274F812178196
:1010B000E9FE7900801F900390E0FC746E2CF582AD
:1010C00074053400F583E08A828B83F0900390E00E
:1010D0000412111809900390E0F8900391E0686001
:1010E00005E9C39E40D07F01021932C082C083E966
:1010F000FC80188A828B83E0C0E090039312112356
:10110000D0E0121118900393E004F0ECF874FF287B
:101110001C0470DF7901808EF08A828B83A3AA82FF
:10112000AB8322E0F8746E28F58274043400F583F2
:1011300022794A1212E253BEFBE59DA2E650FA0064
:1011400078F8790100E824FF18E934FFF9E84970DC
:10115000F375C6807480659E70FA43BE0490627019
:101160007408F012122D120955E96013E59D541808
:10117000641070031212381211E912125580031212
:1011800011E9794E1212E2750C00750D00750E0012
:10119000750F008028C280D291750C00750D007506
:1011A0000E00750F00120FD39003C4780C121A9D15
:1011B0009003CC780C1219C050EB121238120FD3D6
:1011C00012084BE96006120955E970C9850D0990AE
:1011D00003C4780C121A9DE509544060E0A28050C7
:1011E00004C28080D8D28080D474F812178153F45E
:1011F000FEC29043FE017403F5D575D48890039424
:10120000E4F0A374C2F0A37401F0A3E4F0A3F0A38C
:10121000F0A37408F0120CA87AFF7BFF12161F537C
:10122000F4FED29043FE0112122D0210E6D280434A
:10123000FD01C29143FE0222C280D291A29250FCD3
:10124000A29350F8D280C291022000C2AF75C9AB00
:1012500075C95B80FE74F112178174FF121A47750D
:101260000C00750D00750E26750F008004C291C22A
:1012700080120FD37901851882851983AA82AB83E6
:101280001210ABE96016E064106049E064EF700C86
:10129000750C00750D00750E00750F00A29250348C
:1012A000A293501E850C08850D09850E0A850F0B2B
:1012B0009003D0780C121A9DE5084509450A450BA4
:1012C0007003121238850D09E5095420709FD280F1
:1012D000D291809DD280C29174011219FA7F0802C6
:1012E0001932781075B60FE5B4A2E750FAE5BBC322
:1012F0009940F118E870ED22D083D08222C082C0DC
:1013000083E9FCEAFD7A007B008003121348900316
:101310009BE0F8A3E0F9900464E0687003A3E0693F
:10132000602490039CE0F5838882A3E493F8EC6842
:10133000700D90039BE0FAA3E0FB1213488007EDC9
:101340006870C8ED60C580B090039BE0F8A3E0F53D
:10135000838882E493F890039BE028F8A3E03400AC
:10136000F990039BE8F0A3E9F022C082C083121336
:101370007B7A0079011212FD0212F8900462E0F803
:10138000A3E0F990039BE8F0A3E9F02274F71217A9
:1013900081E9FEEAFF12137B7A0079021212FDEA5C
:1013A0004B601CEE60108A828B83A3A3A3A3A3E4EB
:1013B000936E70E48009EFF874FF281F0470D97FE2
:1013C0000202193274F5121781EAFF8B087A0012B3
:1013D000138C7A0279041212FDEA4B60188A828B10
:1013E00083A3A3E4936F70EA8A828B83A3A3A3E40D
:1013F00093650870DD7F0402193274F71217817447
:10140000F0121A47E97A007B00600C146010146037
:10141000141460180215057ADC7B030215057AE0C6
:101420007B030215057A047B04021505900428E06D
:1014300060030215017408121AEEAC82AD83758345
:10144000037582D4740812199F750808F509780885
:10145000121A777402121AEEAC82AD837AE87B0717
:10146000797F12151D74021219FA7808121A77740E
:101470000A121AEEAC82AD837402121AEEAA82AB83
:101480008312189A74021219FA8B09EA4509701D21
:101490007509007808121A777C0C7D787402121A8C
:1014A000EEAA82AB831218EC74021219FA7C287D22
:1014B000008D08851882851983E5822508F582E567
:1014C000833400F583E0FF8C0874282508F8740441
:1014D0003400F9EF12150D88828983F0EFC41215DC
:1014E0000DC0E0E824FEF582E934FFF583D0E0F09A
:1014F0000D74FC2CFCEDC3940840B6900428742AAB
:10150000F07A287B0474101219FA0213BF540FFAF0
:1015100074522AF58274043400F583E02274F512C3
:1015200017818908740F5508F50A750B00740B783C
:101530000A121AB0EA2400F8EB3480F9E82400E932
:10154000350BF9E5C7F509A2AFE433F50AC2AFE5FB
:1015500008C4540FFAE5C754F84AF5C7740B121AB9
:10156000EEE0FAA3E0FB801C88828983E08C828D08
:1015700083F088828983A3A882A9838C828D83A328
:10158000AC82AD83EAFEEBFFEE24FF1AEF34FFFBE3
:10159000EE4F70D48509C7E50AA2E092AF7F04023E
:1015A000193274F7121781ED900388F0ECA3F0A3C1
:1015B0007462F0A37473F0A3E0541FF07409121A5C
:1015C000EEE0F508A3E0F509E508333354FC900399
:1015D0008DF074067808121AD2E50890038CF0900A
:1015E000038E7412F0A37442F075D1FE75D601EA31
:1015F000906271F0EBA3F0906270E0D2E1F0E0A2B3
:10160000E740FB7F02021932C082C083E9C33390F6
:101610006272F0906270E0D2E0F0D083D0822274E7
:10162000F71217817523007524007525008A268B13
:1016300027EA90620BF08A088B0974047808121A62
:10164000D2E508906207F08A088B097409780812BD
:101650001AD2E508543E906209F0758B00C2E87F0B
:101660000202193274F7121781E59DA2E650FA9032
:101670006206E0FAA2E25035A826E890620BF0F587
:101680000885270974047808121AD2E508906207C1
:10169000F085260885270974097808121AD2E5080A
:1016A000543E906209F0906201E0D2E0F07823EAC3
:1016B00046F6906202E0F508750900740478081295
:1016C0001AB07823E50846F608E50946F690620464
:1016D000E0F50875090074097808121AB07824E555
:1016E0000946F6EAA2E0500375250174065A600324
:1016F000752500E58BA2E55006758BDF7525001278
:10170000178002165AC082C0839003B7E0F8742293
:101710006870089003A4E0701A8011742068900328
:10172000A4700DE0700D12175C9003A47402800287
:101730007404F08043C082C0839003B7E0642190BA
:1017400003A47013E0701312175CA37407F0A3E4F2
:10175000F09003A40480027404F0801C9003B17420
:1017600094F0A37403F0A3E4F02280028000C0820E
:10177000C0839003A47404F0D083D0822280EF222F
:10178000222518C582C0E0E51934FFC583C0E0E515
:1017900018C3958224F910AF0885831985821880B3
:1017A00008858319858218D2AFCEF0A3E520F0A377
:1017B0007808E608F0A3DEFAEFF0A3E58124FBF851
:1017C000E608F0A3E608F0A30808E608F0A3E60898
:1017D000F0A315811581D0E0FED0E0F815811581C8
:1017E000E8C0E0EEC0E02212010002020000205139
:1017F00004A81609000102030109024300020100C6
:1018000080190904000001020201000524001001F2
:101810000424020205240600010524010001070535
:10182000820340004009040100020A00000007058D
:101830008402400000070504024000000218000076
:1018400025180000121AFDB90003021894E479214A
:101850007807B800028004F709D8FCE49003027806
:10186000BF79018002F0A3D8FCD9FA9003C0AA8204
:10187000AB8390008E78AF79018015E493A3AC829E
:10188000AD838A828B83F0A3AA82AB838C828D8303
:10189000D8E9D9E7121131121AF874F512178174C8
:1018A0000B121AEEE0F8A3E08015A3AA82AB838C9A
:1018B000828D83A3AC82AD83E824FF18E934FFF95D
:1018C000E849601F8C828D83E0F5088A828B83E073
:1018D000F50AE508650A60D2E50AC39508FA95E0BD
:1018E000FB80047A007B007F0402193274F7121720
:1018F00081EAF8EBF97409121AEEE0FEA3E0FF802A
:10190000188C828D83E088828983F0A3A882A983C2
:101910008C828D83A3AC82AD838E088F09E5082469
:10192000FF1EE50934FFFFE508450970D47F020278
:101930001932851983851882E0A3FEE0A3F520788B
:1019400008E0A3F608DFFAE0A3FFE0A3C0E0E0A30D
:10195000C0E0E0A3C0E0E0A3C0E010AF08858218BB
:101960008583198008858218858319D2AFD083D0EA
:10197000822274038000CCC0E0EDC0E0E518C39C77
:10198000CCAD1950011D10AF068C188D1980068C36
:10199000188D19D2AF12199FD0E0FDD0E0FC22CAF9
:1019A000C0E0E0A3C582CCC582C583CDC583F0A3CA
:1019B000C582CCC582C583CDC583DAE6D0E0CA2214
:1019C000C008C3E096F50808A3E096420808A3E023
:1019D00096420808A3E09645087001D3D008222556
:1019E00018F58210AF08F518400215198008F5188F
:1019F00040021519D2AF85198322C0D0251810AF27
:101A000008F518500205198008F51850020519D27A
:101A1000AFD0D022BB0102E722C082C08389828A74
:101A200083BB0003E08002E493D083D0822260165F
:101A3000080808C6C313C618C613C618C613C618A6
:101A4000C613C6D5E0EA22251810AF08F5184002E3
:101A500015198008F51840021519D2AF22BB000EE7
:101A6000C082C0838A838982F0D083D08222BB0166
:101A700001F7227403800474028000C0E0F40412B1
:101A800019DFD0E0121AE122E066701008A3E066C8
:101A9000700A08A3E066700408A3E06622E026F658
:101AA00008A3E036F608A3E036F608A3E036F622EF
:101AB000700422600D18C6C333C608C633C6D5E00D
:101AC000F4182275D00075813F751802751903024C
:101AD0001844600C08C6C313C618C613C6D5E0F474
:101AE00022CAC0E0E6F0A308DAFAD0E0FA2225180C
:101AF000F582E43519F5832200000080FB7901228C
:101B0000E473FFFFFFFFFFFFFFFFFFFFFFFFFFFF8C
:101B1000FFFFFFFFFFFFFFFFFFFFFFFFFFFFFFFFD5
:101B2000FFFFFFFFFFFFFFFFFFFFFFFFFFFFFFFFC5
:101B3000FFFFFFFFFFFFFFFFFFFFFFFFFFFFFFFFB5
:101B4000FFFFFFFFFFFFFFFFFFFFFFFFFFFFFFFFA5
:10200000022C0D022221FFFFFFFFFFFFFFFFFFFF5A
:10201000FFFFFFFFFFFFFFFFFFFFFFFFFFFFFFFFD0
:10202000FFFFFFFFFFFFFFFFFFFFFF0228FEFFFF95
:10203000FFFFFF022244FFFFFFFFFFFFFFFFFFFF45
:10204000FFFFFFFFFFFFFFFFFFFFFFFFFFFFFFFFA0
:10205000FFFFFF02215DFFFFFFFFFFFFFFFFFFFF0D
:10206000FFFFFFFFFFFFFFFFFFFFFF0228D6FFFF7D
:10207000FFFFFFFFFFFFFFFFFFFFFF02279DFFFFA7
:10208000FFFFFF0221BD01FFFFFFFFFFFFFFFFFF7B
:102090001020102001FF01010503010F10FEFFC9F0
:1020A00035C935C935C9356D346734C935404A003D
:1020B000000000D84900000000FF000000FF000100
:1020C00000006F3800000000BB379B390938053924
:1020D0000000F737000000000000000000000000D2
:1020E00000000000FF0101003107000000AA07E81E
:1020F0000364006400B80102020008000005020742
:1021000001051E02051E020A0A0103B80B02803EE9
:102110000102FEFFE8030A050001FFFF0A01E000DB
:1021200020FD000206FFFF00035F005F0030005843
:10213000000000000000000000000000000000009F
:10214000000000000000000000000000000000008F
:1021500000BC2511261126112611261926C0E0746F
:10216000F212255DA2AFE433FED2AFE5A7FFE5A1F1
:10217000F5085F541060061241E775A1EFE5085FAE
:10218000540860081241ED75A1F78024E508A2E02B
:1021900092F0EFA2E082F05017906198E0F890087A
:1021A000A9E0C398A2D265D0335002E8F075A1FE31
:1021B000751A00EEA2E092AF7F01022619C0E0740A
:1021C000F212255DA2AFE433FED2AF9061A4E0F835
:1021D000759B00E59158540860087591F7124241CB
:1021E0008023E59158541060087591EF12424780A2
:1021F00014E591A2E092F0E8A2E082F05007E0C27C
:10220000E0F01243979061A3E0F8E5E958540460C8
:102210000E12436D75E9FB906193E0A2E640F280F7
:102220008FC0E074F212255DA2AFE433FED2AF900E
:1022300061A5E0F8E5BF585404600675BFFB124382
:10224000AF0221B0C0E074F112255DE59DA2E65019
:10225000FA906206E0FAA2E25035A82CE890620BF0
:10226000F0F508852D0974047808122C2CE50890E7
:102270006207F0852C08852D0974097808122C2C2A
:10228000E508543E906209F0906201E0D2E0F078F7
:1022900029EA46F6906202E0F508750900740478B0
:1022A00008122B837829E50846F608E50946F690DA
:1022B0006204E0F50875090074097808122B837828
:1022C0002AE50946F6EAA2E05003752B0174065A86
:1022D0006003752B00E58BA2E55006758BDF752B2F
:1022E00000124559758B00C2E87F02022619C3E42B
:1022F00098F8E499F912232F8026C3E49AFAE49B14
:10230000FBE920E7E912232FE498F8E499F922C3C6
:10231000E498F8E499F912232FE498F8E499F9C3C2
:10232000E49AFAE49BFB22EB20E7CFE920E7E0B94F
:102330000010BB0008E88AF084F8AAF022E4FBC889
:10234000FA22EB70227B10C833C8C933C933500757
:10235000C39AC3DBF280069A50012ADBEAC833F441
:10236000C8C933F4C9FA2275F008E4C833C8C933C0
:10237000C933C99AC99B5004C92AC93BD5F0ECFBA3
:10238000C833F4C8E4C9FA22080808EAC0E0EBC080
:10239000E086F0E7A4FA180986F0E7A42AFA1809FB
:1023A00086F0E7A42AFA180986F0E7A42AFA198623
:1023B000F0E7A4FBE5F02AFA190886F0E7A42BFB66
:1023C000E5F03AFA190886F0E7A42BFBE5F03AFAB3
:1023D00018180986F0E7A4C5F02BFBE43AFA1908AF
:1023E000E7C5F0C6A426F6E5F03BFBE43AFA18860A
:1023F000F0E7A4F6E5F00826F6E43B08F6E43A0830
:10240000F6D0E0FBD0E0FA22122C6FB900030224D0
:102410006BE47921780DB800028004F709D8FCE458
:102420009004D1784D790B8002F0A3D8FCD9FA78CA
:102430001A9020867A01BA00028007E493A3F60876
:10244000DAF9900F1DAA82AB8390209478CA7901A3
:102450008015E493A3AC82AD838A828B83F0A3AA18
:1024600082AB838C828D83D8E9D9E77582D5758359
:10247000D574051229C2758211758348740012291A
:10248000C2E4CFC0E0E4CEC0E0E4CDC0E0E4CCC024
:10249000E075F020C3E633F608E633F608E633F6D7
:1024A00008E633F6181818EC33FCED33FDEE33FE76
:1024B000EF33FFC3EC9709ED9709EE9709EF9719F2
:1024C0001919400FFFEC97FC09ED97FD09EE97FEF7
:1024D000191906D5F0BEECF709EDF709EEF709EF8B
:1024E000F7191919D0E0FCD0E0FDD0E0FED0E0FFF4
:1024F000222518C582C0E0E51934FFC583C0E0E598
:1025000018C3958224F810AF088583198582188036
:1025100008858319858218D2AFCEF0A3E520F0A3F9
:102520007808E608F0A3DEFAEFF0A3E58124FAF8D4
:10253000E608F0A3E608F0A3E608F0A30808E6081A
:10254000F0A3E608F0A315811581D0E0FED0E0F8F5
:10255000158115811581E8C0E0EEC0E022C0D025CC
:1025600018C582C0E0E51934FFC583C0E0E518C393
:10257000958224F310AF0885831985821880088519
:102580008319858218D2AFC8F0A3E9F0A3EAF0A3BB
:10259000EBF0A37908E709F0A3D8FAECF0A3EDF08B
:1025A000A3EEF0A3EFF0A3D0E0F0A3D0E0F0A3D02F
:1025B000E0F0A3E520F0A3E5F0F0A3221201000271
:1025C000020000205104A8160900010203010902BB
:1025D0004300020100801909040000010202010009
:1025E000052400100104240202052406000105242C
:1025F0000100010705820340004009040100020AAE
:1026000000000007058402400000070504024000A6
:1026100000D7250000FA250000851983851882E07F
:10262000C0E0A3E0F9A3E0FAA3E0FBA37808E0F69A
:1026300008A3DFFAE0FCA3E0FDA3E0FEA3E0FFA314
:10264000E0C0E0A3E0C0E0A3E0F5D0A3E0F520A364
:10265000E0A3F5F010AF08858319858218800885FE
:102660008319858218D2AFD082D083D0E0F8D0E031
:1026700032E4730975F0108E218F228582268583BE
:1026800025851882851983E0CEA3E0CF8526828533
:102690002583EBC9EAC8EDCBECCAC3E833C8E933FC
:1026A000C9EA33CAEB33CBC3EA9EF524EB9FF5238B
:1026B000B35004AB23AA24EC33CCED33CDD5F0DA00
:1026C000AE21AF2222D083D082ECC0E0EDC0E0E4A6
:1026D00093A3FCE493A3FDED4C600D1227E0EC24E2
:1026E000FFFCED34FFFD80EFE493A3FCE493A3FD36
:1026F000ED4C600D122881EC24FFFCED34FFFD80D1
:10270000EFD0E0FDD0E0FCE493A3C0E0E493C0E0B0
:1027100022D083D082E9C0E0E493A3C386F0C5F061
:1027200095F0F908E493A386F0C5F095F0700BE4FA
:1027300093A3C3994005E9048002A3E475F002A4C1
:102740002582F582E5F03583F583D0E0F9E493A3A3
:10275000C0E0E493C0E022851983851882E0A3FEDF
:10276000E0A3F5207808E0A3F608DFFAE0A3FFE095
:10277000A3C0E0E0A3C0E0E0A3C0E0E0A3C0E0E0CD
:10278000A3C0E010AF088582188583198008858270
:1027900018858319D2AFD083D0820229C8C0E074D3
:1027A000F212255DA2AFE433FED2AFE58AA2E25079
:1027B0000790086AE0D2E0F0E58AA2E350079008AB
:1027C0006AE0D2E1F0758A00C2EB7A107B009008D3
:1027D00066E0F9123B1BEEA2E092AF7F01022619E0
:1027E000C0E0C3E49396087401939618400FE493F5
:1027F00066700808740193661870007019A3A3C36B
:10280000E49396087401939618A3A3400DD0E0D0EA
:10281000E0D0E0022701A3A3A3A3A3A3D0E02274E6
:102820000480087403800474028000CCC0E0EDC012
:10283000E0E518C39CCCAD1950011D10AF068C18F3
:102840008D1980068C188D19D2AF122944D0E0FD65
:10285000D0E0FC2274028000CCC0E0EDC0E0E518BE
:10286000C39CCCAD1950011D10AF068C188D19807A
:10287000068C188D19D2AF122922D0E0FDD0E0FCD1
:1028800022C0E0C0F088F0E49366700808740193F9
:1028900066187000A8F0A3A3700BD0F0D0E0D0E0D1
:1028A000D0E0022701A3A3D0F0D0E022D083D082D1
:1028B000CCC0E0E493A360061229651470FAE49397
:1028C000A36006122AA71470FAD0E0FCE493A3C018
:1028D000E0E493C0E022C0E074F212255D75890047
:1028E000C2C5900F15E0700E7A007B109006AAE02A
:1028F000F9123B1B800312469D7F01022619C0E09E
:10290000C0D0E8C0E0E9C0E0E5A8D2AFC2C7751A00
:1029100000A2E7A2E792AFD0E0F9D0E0F8D0D0D0A3
:10292000E032CAC0E0E493A3C582CCC582C583CDA2
:10293000C583F0A3C582CCC582C583CDC583DAE546
:10294000D0E0CA22CAC0E0E0A3C582CCC582C5835C
:10295000CDC583F0A3C582CCC582C583CDC583DA3E
:10296000E6D0E0CA22C0E0E493A3D39C5010E493E5
:10297000A3C39C400AD0E0D0E0D0E00228C9A3A3C2
:10298000A3D0E0227009080808226016181818C69B
:10299000C333C608C633C608C633C608C633C6D551
:1029A000E0EA22C008C3E096F50808A3E0964208D2
:1029B00008A3E096420808A3E09645087001D3D02A
:1029C0000822C09FF59FE473D09F22D083D082C09D
:1029D0009FE493C0E0740193C0E0740293F59F22DA
:1029E0002518F58210AF08F518400215198008F572
:1029F0001840021519D2AF851983227404800A7415
:102A0000038006740280027401C0E0F4041229E01D
:102A1000D0E0122C4A22C0D0251810AF08F518506B
:102A20000205198008F51850020519D2AFD0D0223E
:102A3000BB0102E722C082C08389828A83BB000374
:102A4000E08002E493D083D082226016080808C692
:102A5000C313C618C613C618C613C618C613C6D5E0
:102A6000E0EA22C3E0C696F608A3E0C696F608A3FD
:102A7000E0C696F608A3E0C696F622251810AF0821
:102A8000F518400215198008F51840021519D2AF43
:102A900022BB000EC082C0838A838982F0D083D09B
:102AA0008222BB0101F722C0E0E493A36C7009D03D
:102AB000E0D0E0D0E00228C9A3A3D0E022E0667015
:102AC0001008A3E066700A08A3E066700408A3E09B
:102AD0006622C3E09608A3E09608A3E09608A3E068
:102AE00096A2D265D03322E76670100809E76670B7
:102AF0000A0809E76670040809E76622C3E697F644
:102B00000809E697F60809E697F60809E697F62217
:102B1000C3E096F008A3E096F008A3E096F008A3BF
:102B2000E096F022E657F60809E657F60809E65758
:102B3000F60809E657F622E026F608A3E036F6087E
:102B4000A3E036F608A3E036F622E056F008A3E04C
:102B500056F008A3E056F008A3E056F022E026F075
:102B600008A3E036F008A3E036F008A3E036F02230
:102B7000E627F60809E637F60809E637F60809E613
:102B800037F622700422600D18C6C333C608C63358
:102B9000C6D5E0F41822E647F60809E647F6080924
:102BA000E647F60809E647F622E056F608A3E0569F
:102BB000F608A3E056F608A3E056F622E4C396F61C
:102BC00008E496F608E496F608E496F622C6F4C6FB
:102BD00008C6F4C608C6F4C608C6F4C622600D08C6
:102BE000C6A2E713C618C613C6D5E0F322C3E796FC
:102BF0000809E7960809E7960809E79622C3E096D0
:102C000008A3E09608A3E09608A3E0962275D000FA
:102C10007581407518D175190400022408E0F60882
:102C2000A3E0F608A3E0F608A3E0F622600C08C6CD
:102C3000C313C618C613C6D5E0F422E6F008A3E60F
:102C4000F008A3E6F008A3E6F022CAC0E0E6F0A38D
:102C500008DAFAD0E0FA22E0FAA3E0FBA3E0FCA352
:102C6000E0FD22EAF0A3EBF0A3ECF0A3EDF022E507
:102C7000C754F84401F5C77901222518F582E435D7
:102C800019F58322C2AF75D69F020000221229CB0C
:102C9000C3E9031229CB2FEA031229CB4BEA031213
:102CA00029CB7FEA031229CBCAEA031229CBC7EB4F
:102CB000031229CB7EEC031229CB09EF031229CB97
:102CC0004EF0031229CBFBF0031229CB26F203129C
:102CD00029CB4AF2031229CB0080021229CB1280A1
:102CE000021229CB6A80021229CBD080021229CB92
:102CF0005A81021229CB1D82021229CB658202124F
:102D000029CB9182021229CBD182021229CB38839E
:102D1000021229CBAD83021229CBC683021229CB22
:102D2000EC83021229CB2A84021229CB7F8402125F
:102D300029CBA684021229CB0385021229CBCA858E
:102D4000021229CB6386021229CBE686021229CB16
:102D5000AE87021229CBF787021229CB1388021201
:102D600029CB4588021229CBF389021229CBBF8ACD
:102D7000021229CBE48A021229CB118B021229CB31
:102D80003C8B021229CB4B8B021229CB568B0212A1
:102D900029CB018C021229CB688C021229CBEB8C37
:102DA000021229CBF38C021229CB7B8D021229CB84
:102DB000E38D021229CB228E021229CB63900212DC
:102DC00029CB4A91021229CB7D91021229CB3F9245
:102DD000021229CBFB92021229CB2D93021229CB8E
:102DE0009393021229CBB893021229CBC9930212F2
:102DF00029CB3C94021229CBD494021229CB2D95D5
:102E0000021229CB0B96021229CB3096021229CB43
:102E10003B97021229CB5997021229CB6C970212C9
:102E200029CBC497021229CBD397021229CB5B98E6
:102E3000021229CBA298021229CBAB98021229CBFD
:102E4000B69A021229CB149C021229CB249C02129E
:102E500029CB6A9D021229CBD19D021229CB0D9F4D
:102E6000021229CB4F9F021229CB8B9F021229CB32
:102E7000B3A0021229CB27A3021229CB3BA3021233
:102E800029CB45A3021229CB4FA3021229CB59A368
:102E9000021229CB63A3021229CB7CA3021229CBF5
:102EA00086A3021229CB90A3021229CB9AA3021265
:102EB00029CBA4A3021229CBCCA3021229CB1AA49A
:102EC000021229CB24A4021229CB2FA4021229CB4F
:102ED00053A4021229CB77A4021229CBE7A4021231
:102EE00029CB33A5021229CB4FA5021229CBB5A5B8
:102EF000021229CBFCA5021229CB48A6021229CB2B
:102F0000B3A6021229CB63A7021229CB36A902125B
:102F100029CBA4A9021229CBE1AA021229CB07AB23
:102F2000021229CB7AAC021229CB1DB0021229CB96
:102F300017B2021229CBF7B3021229CB90B40212B6
:102F400029CBC4B6021229CB67B7021229CBB9B775
:102F5000021229CB3DB8021229CB55B8021229CB57
:102F600092BA021229CB7CBB021229CBDBBC021223
:102F700029CB3ABD021229CBD3BD021229CBA5BF62
:102F8000021229CBE7C0021229CB06C1021229CBBB
:102F90005BC1021229CB5CC2021229CB84C202128D
:102FA00029CBE7C2021229CBDFC3021229CB5BC4B3
:102FB000021229CB85C5021229CBF0C5021229CBFA
:102FC0002EC7021229CB90C9021229CBC1C9021205
:102FD00029CB6CCC021229CBBECC021229CB7CCDE2
:102FE000021229CB38CE021229CB9CCE021229CB59
:102FF0005DCF021229CBFFCF021229CB64D002127F
:1030000029CBA3D0021229CBD4D0021229CB3ED295
:10301000021229CB4681011229CB8881011229CBCA
:103020008B84011229CBCA84011229CB1685011287
:1030300029CB2286011229CB8686011229CBC6868E
:10304000011229CB1488011229CB448B011229CB00
:10305000918C011229CBEF97011229CB859801128F
:1030600029CB829B011229CBBE9C011229CB219D29
:10307000011229CB4F9E011229CBA39F011229CB0C
:103080008CA0011229CB0CA3011229CB09A5011296
:1030900029CB9AA5011229CB76A6011229CB0EA71E
:1030A000011229CB18A7011229CB46A7011229CB5F
:1030B000FBA7011229CBD9A8011229CBB0A9011273
:1030C00029CB3DAA011229CB53AA011229CBB4AABC
:1030D000011229CBDDAA011229CB0AAB011229CB9F
:1030E0003BAD011229CB1AAE011229CB5EAE011203
:1030F00029CBC9AE011229CB88AF011229CBBAAFB7
:10310000011229CB01B0011229CB34B0011229CB15
:1031100089B0011229CBDEB0011229CBE3B0011234
:1031200029CB37B1011229CB7FB1011229CB83B250
:10313000011229CBE8B2011229CB44B3011229CBE9
:10314000B5B3011229CBAAB6011229CBB1B701122E
:1031500029CB34B9011229CB23BC011229CBE3BC02
:10316000011229CB2CBF011229CBCFBF011229CBD1
:103170000DC0011229CBDEC1011229CBF1C1011210
:1031800029CBFAC1011229CB03C2011229CB18C2E3
:10319000011229CB37C2011229CB67C4011229CBF6
:1031A000BCC4011229CBC6C4011229CBD0C4011260
:1031B00029CB2CC5011229CB81C5011229CBA9C667
:1031C000011229CB11C7011229CB73C8011229CBD7
:1031D000C4C8011229CB70C9011229CB8ECA0112B1
:1031E00029CB39CB011229CB53CC011229CB7ACD73
:1031F000011229CB7CCE011229CB93CE011229CB0F
:10320000D0CE011229CBDACE011229CBE4CE0112A5
:1032100029CBEFCE011229CB0DCF011229CB4FCFF5
:10322000011229CBACCF011229CBD1CF011229CB6E
:10323000EBCF011229CB6AD0011229CBA7D0011202
:1032400029CBD9D1011229CB2CD2011229CB46D3BB
:10325000011229CB7CD3011229CB10D4011229CB26
:103260008BD4011229CBFFD5011229CB32D7011201
:1032700029CBE4D7011229CBABD8011229CB50D9E5
:10328000011229CBBED9011229CB73DA011229CB45
:10329000C7DA011229CB35DB011229CB00DC011280
:1032A00029CB23DC011229CBEDDC011229CB11DD66
:1032B000011229CB33DD011229CB94DD011229CB78
:1032C000D4DF011229CBBEE0011229CB69E1011242
:1032D00029CB8EE3011229CBDCE3011229CB1FE4B9
:1032E000011229CB77E4011229CBD5E4011229CBB5
:1032F00002E5011229CB26E5011229CB59E501127D
:1033000029CB83E5011229CBCAE5011229CB29E695
:10331000011229CB85E6011229CB82E7011229CBC4
:10332000EAE8011229CB28E9011229CB51E901125F
:1033300029CBEBE9011229CB35EA011229CB59EA55
:10334000011229CBAEEA011229CBC9EA011229CB1D
:1033500080EB011229CBC7EB011229CB1DEC011226
:1033600029CB1EEF011229CB51EF011229CB0FF00F
:10337000011229CB0CF1011229CB95F1011229CBB5
:103380001BE9051229CB5AE9051229CB56800312F5
:1033900029CB9980031229CB5981031229CB78823A
:1033A000031229CB9F83031229CB5A85031229CB01
:1033B000CD85031229CB9886031229CBA987031246
:1033C00029CB1088031229CB4C88031229CBAB8858
:1033D000031229CBE488031229CB3989031229CBA4
:1033E000C289031229CB678A031229CB388B0312B7
:1033F00029CB128C031229CB9C8C031229CBC28CB3
:10340000031229CBEF8C031229CB298D031229CB70
:10341000298E031229CB398E031229CB898E0312F0
:1034200029CB968E031229CBAB8E031229CBB48EF7
:10343000031229CB0E8F031229CB708F031229CBD5
:10344000BA8F031229CBD58F031229CBFC8F03121D
:1034500029CB1990031229CB2590031229CBCE91A9
:10346000031229CBE791031229CB6D92031229CBCA
:103470008092031229CB9292031229CB3E9303121E
:1034800029CBA994031229CB6096031229CBE69687
:10349000031229CBE896031229CB5097031229CBAC
:1034A0006E97031229CB0498031229CB419803127B
:1034B00029CB4498031229CB6F98031229CBCC98BF
:1034C000031229CBF098031229CB0E99031229CBB2
:1034D0005C99031229CBB59A031229CB0D9B0312D9
:1034E00029CB5A9B031229CBE19B031229CB099CC0
:1034F000031229CB3F9C031229CB4E9C031229CBEC
:10350000AC9C031229CB1D9D031229CB5A9D03129B
:1035100029CB959D031229CBC09D031229CBDA9D9F
:10352000031229CBF49D031229CBC89E031229CB89
:10353000D29E031229CB0E9F031229CB1E9F03128A
:1035400029CB279F031229CB879F031229CB9B9F4F
:10355000031229CBA5A0031229CBB8A0031229CBB3
:10356000CFA0031229CBE4A0031229CB89A1031217
:1035700029CB05A2031229CBA8A2031229CBB4A2FE
:10358000031229CBFAA3031229CB16A4031229CBC9
:103590006EA4031229CBAAA4031229CBC4A403123C
:1035A00029CB26A5031229CBC5A5031229CB10A62A
:1035B000031229CB5CA8031229CB03A9031229CB40
:1035C0009FA9031229CBC5AB031229CBDDAB031294
:1035D00029CBE0AB031229CBECAB031229CB00AC17
:1035E000031229CB08AC031229CB48AC031229CB18
:1035F00041AD031229CBC4AD031229CB46AE031251
:1036000029CBC0AE031229CB92AF031229CBB4AFA2
:10361000031229CB50B0031229CB5CB0031229CB83
:1036200087B0031229CB8AB0031229CBB7B003129B
:1036300029CBCCB0031229CB3BB1031229CB9EB2CC
:10364000031229CBB5B3031229CB40B4031229CB03
:103650007DB5031229CB4FB6031229CB80B60312D6
:1036600029CBACB6031229CBB5B6031229CBE4B6ED
:10367000031229CB94B7031229CB4EB8031229CBDE
:10368000C2B8031229CB5EB9031229CBE6B90312E3
:1036900029CB1CBA031229CB61BA031229CB96BAE3
:1036A000031229CB7AF2031229CBC9F2031229CBD8
:1036B00001F3031229CB6DF3031229CBBDF30312DF
:1036C00029CB41F4031229CB89F6031229CB7AF8CE
:1036D000031229CB29FC031229CBCDFC031229CBE1
:1036E00008FD031229CB26FD031229CB86FD031208
:1036F00029CBAEFD031229CBDEFD031229CB0FFE31
:10370000031229CB46FE031229CB97FE031229CBC5
:10371000E3FE031229CBB5C8041229CB31C9041228
:1037200029CB57C9041229CB8FC9041229CBE9CA66
:10373000041229CB05CB041229CB4ACB041229CB86
:10374000D9CB041229CB32CC041229CB12CD0412CE
:1037500029CBE2CD041229CB29CE041229CB8ACE63
:10376000041229CB1ACF041229CB70CF041229CB13
:10377000B9CF041229CB58D0041229CB56D1041248
:1037800029CB9AD1041229CBE8D1041229CB0AD231
:10379000041229CBB1D2041229CB5ED3041229CB57
:1037A00083B7051229CBE8B7051229CB94B80512C7
:1037B00029CBCDB8051229CBD6F1011229CB7FF246
:1037C000011229CB99F3011229CB1CF4011229CB48
:1037D00054F4011229CB21F7011229CBD4F801129C
:1037E00029CB8FF9011229CB00FA011229CB20FD38
:1037F000011229CBB6FE011229CBEEDD051229CB31
:1038000016DE051229CB0ADF051229CB6D9B0512A6
:1038100029CBF29B051229CB099C051229CB7E9C52
:10382000051229CBDC9C051229CB059D051229CB5D
:10383000829D051229CB259E051229CB8A9E051251
:1038400029CBEE9E051229CB0F9F051229CB409F55
:10385000051229CB5E9F051229CB859F051229CB26
:10386000B59F051229CBFB9F051229CB61A005123C
:1038700029CB3EDE041229CBEDDE041229CB0DDF6D
:10388000041229CB2DDF041229CB41DF041229CBEE
:10389000A1DF041229CBD1DF041229CB4EE104129F
:1038A00029CBF7E1041229CBD9E2041229CB28E372
:1038B000041229CB6CE3041229CBD1E3041229CBE7
:1038C0003DE4041229CB5EE4041229CBE1E40412A6
:1038D00029CB16E5041229CB86E5041229CB2CE767
:1038E000041229CBFDE7041229CB3FE8041229CBAF
:1038F00099E8041229CB46CF051229CB50CF0512E7
:1039000029CB71CF051229CBA4EE021229CBC5F029
:10391000021229CBFBF1021229CBE2F3021229CBCE
:103920003AF4021229CBFBF4021229CB3BF5021226
:1039300029CB70F5021229CB3EF6021229CBBAF63A
:10394000021229CB2DF7021229CBADF7021229CB97
:10395000AFF7021229CBB1F7021229CBB3F702124B
:1039600029CBD0F7021229CBF0F7021229CB1AF893
:10397000021229CB36F8021229CBBAF8021229CB4F
:1039800007F9021229CB82F9021229CB9EFA021200
:1039900029CB80FB021229CB1FE0031229CBD7D2FF
:1039A000021229CB4CD6021229CBA8D6021229CB5F
:1039B000FCD6021229CB21D7021229CB42D7021200
:1039C00029CB8CD7021229CBC4D7021229CBE3D83A
:1039D000021229CB04D9021229CB33D9021229CBE6
:1039E00076D9021229CB09DA021229CB25DA021282
:1039F00029CB5FDA021229CBB7DB021229CB5FE9B0
:103A0000031229CB2FDD021229CB0ADE021229CBA9
:103A10003CDE021229CB8FDE021229CBF3DE02122A
:103A200029CB59DF021229CBBEDF021229CB2FE0AE
:103A3000021229CB3FE1021229CB4AE2021229CB22
:103A40001BE3021229CB50E3021229CBA7E3021297
:103A500029CB63E4021229CB91E4021229CB1CE6A4
:103A6000021229CB94E6021229CBC7E6021229CB17
:103A700003E7021229CB1CE7021229CBD6E7021278
:103A800029CBB5E8021229CB69E9021229CBFEE95C
:103A9000021229CB8DEA021229CB10EB021229CB9C
:103AA000B3EB021229CB7EEC021229CB4EED0212AF
:103AB00029CB02EE021229CBE18E051229CB2D8FE4
:103AC000051229CB9B8F051229CBBC8F051229CB60
:103AD000D38F051229CB8390051229CB8C90051228
:103AE00029CBDF90051229CB0891051229CB1D9116
:103AF000051229CB8691051229CB1792051229CBE5
:103B00005392051229CB9F92051229CB06930512D9
:103B100029CB3F93051229CBC593051229CB0494D9
:103B2000051229CB4594051229CB7C94051229CB8B
:103B30008E94051229CBA094051229CBD39405129B
:103B400029CB1395051229CB15A1051229CB58A213
:103B5000051229CB7EA2051229CB8FA2051229CBF3
:103B6000A8A4051229CBC7A4051229CB93D105120D
:103B700029CBC9D1051229CB14D2051229CB62D386
:103B8000051229CBEEB3041229CB39B5041229CB87
:103B900075B5041229CB2CB7041229CB55B70412E2
:103BA00029CBEDB9041229CB2DBA041229CBCEBBF7
:103BB000041229CB68BC041229CBD0BC041229CB37
:103BC0005DBD041229CB95BD041229CBD5BD0412CD
:103BD00029CB68BF041229CB07C1041229CB56C3D5
:103BE000041229CB84C3041229CBB0C3041229CBFD
:103BF000B9C3041229CB14C4041229CBAAC40412D9
:103C000029CBD3C7041229CB58C8041229CB32E8D8
:103C1000051229CB48E8051229CB52E8051229CB19
:103C2000A2E8051229CBD0AA051229CBE9AA0512D0
:103C300029CB8EAB051229CBCEAB051229CBE7AB36
:103C4000051229CB20AC051229CB6DAC051229CB6E
:103C50009FAC051229CBE1AC051229CBE4AE0512CD
:103C600029CB4EAF051229CB73E0051229CBC8E052
:103C7000051229CB21E1051229CBEAE6051229CB51
:103C800036E7051229CB78E7051229CB88E705121C
:103C900029CBC39A041229CB1E9B041229CB299B42
:103CA000041229CB449C041229CB1C9D041229CB5D
:103CB000319D041229CB7B9D041229CBE89D04126F
:103CC00029CBFB9D041229CB3F9E041229CBB89E21
:103CD000041229CBD09E041229CB31A1041229CB86
:103CE00050A2041229CBABA2041229CBC7A4041200
:103CF00029CB00A5041229CB4BA5041229CB61A521
:103D0000041229CB6EA5041229CBA7A5041229CB36
:103D1000B9A5041229CBA2A6041229CBADA6041280
:103D200029CB06A7041229CB5EA7041229CBBBA777
:103D3000041229CBE9A8041229CB1AA9041229CB11
:103D400096AB041229CBC7AB041229CB67AC041283
:103D500029CBDDAC041229CBE9AC041229CB30AD60
:103D6000041229CB9EAD041229CB84AE041229CBB8
:103D7000BDAE041229CBC7AE041229CBCAAE0412C1
:103D800029CBD4AE041229CBF0AE041229CB66AFF6
:103D9000041229CB9FAF041229CBBBAF041229CB4D
:103DA000E7AF041229CB22B0041229CB3DB0041294
:103DB00029CB48B0041229CB84B0041229CB97B088
:103DC000041229CBB2B0041229CBE2B0041229CBE1
:103DD000FFB0041229CB48B1041229CB90B10412D0
:103DE00029CB93B2041229CBADE3051229CBBEE354
:103DF000051229CB47E4051229CB0080051229CBF7
:103E00004F80051229CB0C82051229CBEA830512BB
:103E100029CB2E84051229CB2385051229CB548664
:103E2000051229CB7686051229CBD286051229CB1D
:103E30005687051229CBA04D001229CBC24D001286
:103E400029CB124F001229CB5B4F001229CBB04F68
:103E5000001229CB2C50001229CB9550001229CBEF
:103E6000DC50001229CB5551001229CBFA51001217
:103E700029CB7B52001229CBBC52001229CB1C57F4
:103E8000001229CB4159001229CB7A59001229CBB3
:103E9000BE59001229CBDB5A001229CBFB5D001260
:103EA00029CB975E001229CB6D60001229CBA3614C
:103EB000001229CBA762001229CB1663001229CB6E
:103EC000E563001229CB3A64001229CB3D6400124D
:103ED00029CBF164001229CB2C66001229CB926801
:103EE000001229CB3F6B001229CB1D6C001229CB8D
:103EF000516D001229CBD670001229CBE67000124A
:103F000029CB1D72001229CBCB72001229CB06746B
:103F1000001229CB9774001229CBAD75001229CB62
:103F20002476001229CB0080041229CBBD80041214
:103F300029CB3A81041229CB4981041229CBD281A1
:103F4000041229CB2982041229CB3483041229CBF1
:103F50005D83041229CB0584041229CB58840412F2
:103F600029CBC384041229CB2285041229CB2788AC
:103F7000041229CBD788041229CB4689041229CBF5
:103F8000E08A041229CB988B041229CB358C0412B9
:103F900029CB968C041229CB108D041229CB178EB5
:103FA000041229CB018F041229CB478F041229CB8D
:103FB000808F041229CB948F041229CBDD8F041239
:103FC00029CB6190041229CBD791041229CBAB9352
:103FD000041229CBE294041229CB2196041229CB96
:103FE0003697041229CBE397041229CB5498041274
:103FF00029CB4E99041229CBABD3041229CB1CD464
:10400000041229CB6AD4041229CBC3D4041229CBBD
:104010001BD5041229CB5CD5041229CB13D604126C
:1040200029CB68D6041229CBF1D7041229CB6BD83F
:10403000041229CBA8D8041229CBF5D8041229CB15
:104040001BD9041229CB7BDA041229CB80DA0412A3
:1040500029CB23DB041229CB8DDB041229CB88DC8E
:10406000041229CB89DD041229CBD9CC051229CB26
:104070000ACD051229CBD3CD051229CB39CE051295
:1040800029CBAACE051229CB51D6051229CB1BFF6D
:10409000031229CB2CFF031229CBCCFF031229CB0F
:1040A000F6FF011229CBE47F001229CBA0E4051210
:1040B00029CBB0E4051229CBC8E4051229CB7CE555
:1040C000051229CBA9E2051229CB2EE3051229CB33
:1040D00094E3051229CB3DE6051229CB40E60512F3
:1040E00029CB79E6051229CBCCE6051229CBDEE6F1
:1040F000051229CBE1E6051229CB72B3051229CBB3
:1041000080B3051229CBFAB3051229CBDEB4051210
:1041100029CBA2B6051229CB07B7051229CB6AB75E
:10412000051229CBF87F001229CBC5D3051229CB64
:10413000FDD3051229CB4ED5051229CBD2D50512B8
:1041400029CBBDC7051229CB5EC8051229CB9CC857
:10415000051229CBE8C8051229CBACC9051229CB19
:10416000DFC9051229CB06CA051229CB18CA0512C8
:1041700029CB2CCA051229CB3ACA051229CB3C956A
:10418000051229CB6495051229CB8198051229CBFC
:10419000D698051229CB1899051229CB2C9905120E
:1041A00029CB4599051229CB5D9A051229CB399B5C
:1041B000051229CB539B051229CB79DC051229CB9B
:1041C0009DDC051229CBB6DC051229CBF5DC0512E6
:1041D00029CB28DD051229CB58DD051229CB62DD5C
:1041E000051229CBCADD051229CBCDDD051229CB5D
:1041F000D7DD051229CBE4DD051229CB0AC2051251
:1042000029CB32C2051229CB73C2051229CB91C228
:10421000051229CBACC2051229CB14C3051229CB38
:1042200020C3051229CB7FC3051229CBABC30512CE
:1042300029CBBAC3051229CBDEC3051229CB9FC4F3
:10424000051229CBACC4051229CBBDC4051229CB5C
:10425000ACE9051229CBC4E9051229CBACFA04124A
:1042600029CB19FC041229CB1FFC041229CB36FCE4
:10427000041229CB57FC041229CB6DFC041229CB64
:1042800081FC041229CB00FD041229CB65FD041228
:1042900029CBEDFD041229CB66FE041229CB3FFF8A
:1042A000041229CB4FFF041229CB5EFF041229CB45
:1042B00099E7051229CBBDE7051229CBE5E70512E1
:1042C00029CB0DE8051229CB72CA051229CB99CA50
:1042D000051229CBBACA051229CB21CB051229CB4D
:1042E000EBC4051229CB04C5051229CB1BC5051249
:1042F00029CB24C5051229CB42C5051229CB4CC5B3
:10430000051229CB56C5051229CB69C5051229CB43
:10431000F7C5051229CB66C6051229CB94C605122E
:1043200029CBE5C6051229CB36C7051229CB51C7C3
:10433000051229CB5BC7051229CB6CC7051229CB07
:10434000B2C7051229CB8FFF041229CBE0FF04125C
:1043500029CBADE8041229CBD9E8041229CBF7E820
:10436000041229CB0AE9041229CB25E9041229CB2E
:1043700084E9041229CBB2E9041229CBD0ED04124E
:1043800029CB06EF041229CB38EF041229CBA0EF7A
:10439000041229CB1DF1041229CB45F1041229CBBB
:1043A0005AF1041229CB6AF1041229CBAAF10412A2
:1043B00029CBF6F1041229CB06F2041229CB3BDFFC
:1043C000051229CB4BDF051229CB69DF051229CB5A
:1043D00084DF051229CBABDF051229CBCCDF051218
:1043E00029CBE6DF051229CB1EE0051229CB41E0DF
:1043F000051229CB89E5051229CBCFE5051229CB7A
:1044000021FC021229CB28FC021229CB7EFD0212CC
:1044100029CBAEFD021229CBDEFD021229CB11FE03
:10442000021229CB23FE021229CB5FFE021229CBF6
:10443000C5FE021229CB01FF021229CB48FF02124E
:1044400029CB75FF021229CBA1FF021229CB76D905
:10445000051229CBADD9051229CBD3DA051229CB08
:10446000D6DA051229CBD9DA051229CB96E1051245
:1044700029CB08E2051229CB46E2051229CB87E2B7
:10448000051229CB34F2041229CB3AF2041229CBBB
:1044900087F2041229CBABF4041229CBE3F4041203
:1044A00029CB4FF5041229CB1CF6041229CB61F657
:1044B000041229CB94F6041229CB1EF7041229CB3F
:1044C00036F7041229CBD9F8041229CBD1F90412FA
:1044D00029CB2FFA041229CBC176001229CBD7762B
:1044E000001229CB8977001229CB8478001229CBBE
:1044F0007C79001229CB147A001229CB537A00124E
:1045000029CBCB7A001229CB2D7B001229CB3D7B06
:10451000001229CB647B001229CBB67B001229CB79
:10452000497D001229CB4E7D001229CB707D0012EF
:1045300029CB647F001229CB927F001229CBC77F41
:10454000001229CBC97F001229CBCB7F001229CBC7
:10455000DC7F001229CBDE7F001229CBE17F001225
:1045600029CBE4D7051229CB52D8051229CB74D810
:10457000051229CBACD8051229CBE2D8051229CBDC
:10458000D1BE051229CB14BF051229CB32BF0512AB
:1045900029CB63C1051229CB9BC1051229CBC0C110
:1045A000051229CBD0E8051229CB8687051229CB25
:1045B0005988051229CB5089051229CB618905122A
:1045C00029CB7289051229CBBE89051229CBAF8B65
:1045D000051229CB0C8D051229CB3C8D051229CB58
:1045E000088E051229CB658E051229CB5BAF05120B
:1045F00029CB79AF051229CBBDAF051229CBE3AF8B
:10460000051229CB0AB0051229CB22B0051229CBFD
:104610003AB0051229CB52B0051229CBF8B00512D9
:1046200029CB36B1051229CB40B1051229CB59B19E
:10463000051229CB67B2051229CB82B2051229CB0C
:104640008BB2051229CB94B2051229CB9DB205126B
:1046500029CBA7B2051229CB0BB3051229CB1EA675
:10466000051229CB45AA051229CB61AA051229CB2F
:1046700066AA051229CB89BB051229CB9FBB05125F
:1046800029CB21BD051229CB4BBD051229CB93BDEA
:10469000051229CBA2BE051229CB03DB051229CBBB
:1046A00087E9051229CBEAE9051229CB5BDF031262
:1046B00029CBA4DD031229CB35DB031229CBD4DAB5
:1046C000031229CB7BDA031229CBFDD9031229CBA4
:1046D000D3D9031229CBECD7031229CBBCD70312B1
:1046E00029CB90D7031229CB6CD7031229CB6CD6D8
:1046F000031229CB82D5031229CB36D5031229CB3D
:10470000DBD4031229CB46D3031229CBCDD203121B
:1047100029CBCAD2031229CBB1D1031229CB8BD119
:10472000031229CBC7D0031229CB0ACF031229CBFE
:10473000A6CE031229CB77CE031229CB74CE031257
:1047400029CB22E9031229CBD9E8031229CB91E81E
:10475000031229CBD4E7031229CB43E7031229CB59
:1047600065CE031229CB28CE031229CB07CE031224
:1047700029CB08CD031229CB34E7031229CBC7CCB0
:10478000031229CB54CC031229CB1FCC031229CB03
:10479000C0CB031229CB3BE4031229CB39DC021234
:1047A00029CB8FCB031229CB43C8031229CB78C75F
:1047B000031229CB2DC7031229CB21C7031229CB02
:1047C00080C6031229CB44C5031229CB7FC2031232
:1047D00029CB0BC0031229CBC9BF031229CB93BE2F
:1047E000031229CB29BE031229CB59BD031229CBB1
:1047F00015BD031229CBFEBA031229CB6ABB0312E3
:1048000029CB5FE1031229CB30BB031229CBB1D2F4
:104810000200000080FB8F0001003B0887000100C0
:104820003A0824000200780F250002007A0F2600C3
:1048300002007C0F270002007E0F28000100800F7D
:1048400029000100810F84000400820F860001000E
:10485000860F2A000100870F2B000100880F2C0013
:1048600001008B0F2D00080022082E0001008C0F84
:104870002F0001008D0F300001008E0F310001006C
:104880008F0F320001002A08330001002B0834008A
:104890000100900F360001002C0838000100910F34
:1048A000390001008A0F83000200A30F630001009A
:1048B000370864000100190865000100890F6D00C8
:1048C00001003808710008001A0866000100A20FF4
:1048D00043000100930F44000200940F45000100C3
:1048E000960F46000200970F470008002F08480067
:1048F0000100990F4B0001009A0F04000100A50F61
:10490000A1000100A70F37000100A60F88000100D9
:104910003C083C0001002D083D000100920F4900B9
:1049200002009B0F6700010039084D0002009D0F37
:104930004E0001009F0F4F000200A00F3E0001003B
:104940002E080000000000000001363601010001C1
:104950000201000103010001040106060502000036
:10496000070100340801000F090401010D0100FFD7
:104970000E08000017020000190100FF1A010001D3
:104980001B0100FE1C0100081D0200001F010001A8
:1049900020010001210200002301000F2402000079
:1049A0002601000127010008280200FF2A01000754
:1049B0002B0102402C0100002D0100012E010001FD
:1049C0002F0100FF30010B1C310800003A010008E4
:1049D0003B01000F3C0100010103710301030103CE
:1049E0000103010301032203020301031003000377
:1049F000000300030003000300030003420300035D
:104A00002403060300030003040312032503230306
:104A100025032303040304030003000300034403EA
:104A20000003000323030003650321003503810312
:104A30000003050300030003000300032503230311
:104A4000030071003001600011007000310220038A
:104A50005004800010006100000014006300730027
:104A60007200620043000000130006000000000016
:104A70000400120000000000000000000400040018
:104A8000370037003C024400000000000000000036
:104A90006500000035008100000005000000830073
:104AA0000000030471040204600411047004020491
:104AB00002040104020410046104000414046304E9
:104AC0007304720462044304000413040604000423
:104AD000000404041204000400040004000451044F
:104AE0006400000400040004440400040004000402
:104AF0000004650400043504810464000504000416
:104B0000830400040101710101010101110101018E
:104B10003101010101018001100161013B0014001C
:104B20006301730172016201430100011301060177
:104B30003D013500040112010001000100010001E6
:104B400004010401330133013C0144013201360008
:104B5000000100016501000135008101000105012E
:104B6000820183010001030271023001600211021F
:104B700070020102020202028002100261023A0087
:104B800041006302730272026202430200021302D6
:104B900038000002000204021202000200020002B9
:104BA000000204020402370037003C024402000203
:104BB0003900000200026502000235028102000293
:104BC00005028202830200020000653F1300D53E09
:104BD0000100653F0200573E03005D3E0400633E56
:104BE0000500693E0600753E3000993E3100933E57
:104BF0003200A53E3300AB3E3500B13E3400B73E37
:104C00003600BD3E1100C93E1400CF3E1500873E60
:104C10001F008D3EFFFF000036000100060000006F
:104C20000F0000000000000000000000000003FF73
:104C3000FF00000403FFFF0000FFFF0FF401000569
:104C4000C4040320000100000B000000000000006D
:104C50000003010F00015930068F300889300BA77F
:104C60003010C92F0AB930025F30057D300765303A
:104C70000C41300D4D3064D72DFF000007ECFDFDD9
:104C8000FDECDCDCCCBCACAC9C9C8C7C7C6C6C5CB3
:104C90005C5C4C4C3C3C2C2C1C1C03EAF5E5D5D54B
:104CA000C5B5A59595858575756565555545453594
:104CB000352525151505CD34FD34D334D934F734D5
:104CC000EB34E534033509350F351B35DF34C73494
:104CD000C13400160F00000B150B020002220F3327
:104CE00000000EC935DB35E1359134E7358B34975B
:104CF00034CB33C53301340734FB33B33335365348
:104D00003659363B36473641360C0E020B040B0A39
:104D10000708000F000119161816161823030000C3
:104D20003C40423A3F3F392F473000034D4C4651FB
:104D3000181A250502303017181921301B1D1F3095
:104D4000303016181920231A1C1E301D36ED35F38D
:104D500035FF35F935F13415354D36213527350216
:104D60000402010101010902D733DD33D1330D34CF
:104D7000E333F53300BE040A7F003C003C00E80347
:104D80000E0000000000030C08100C0A03030809C1
:104D900000040001FF1E1E05050815040428100C60
:104DA000C082C0839007A2E4F0A3F07CD57D047A92
:104DB000197B0712447B122DDD1247F3122DE302FB
:104DC0006BC074F31224F174F5122A7B89098A08E6
:104DD0008B0AE9705F74026508703E9007347408AE
:104DE000F0750C00780C122A07ECF50C780C122ADE
:104DF00007EBF50C780C122A07900F8212281F90EF
:104E00000F86E0F97C2F7D08900FA3126BD1122E34
:104E1000077407122A16024ED27401650860030255
:104E20004ED59007347408F07B00AA0AA90A122E06
:104E300043024ED27401650960097402650960037A
:104E4000024ED5EA6006740365087040900734741A
:104E500002124EF6122C57122DF590073AE0A2E3FB
:104E60004010E9700D9007A6E004F064047003128E
:104E70004F0074036508705A9007A7E0F874012882
:104E8000F0E8C39405404B124F008046740165085A
:104E9000704374016509900734702C740AF0740132
:104EA000122C7AE4F07402122C7A7403F004122C9F
:104EB0007AE4F0A3F0A3F0A3F07408122C7AE412C1
:104EC0005E7812306B8025740A124EF6122C57123F
:104ED0002E2BE960179080DF12281F7A017B00904B
:104EE0000731E0F9123C3B7404122A16740B122AA3
:104EF000167F05022757F0900F86E0F9900F822267
:104F0000900F82E4F0A374F8F0A374FFF0A3740789
:104F1000F02274F61224F1E9FFEAFE7AD1F9123A8E
:104F2000F78A828B83E5824583702A7A027B00129E
:104F30003AD9EA4B700E7A107B00900731E0F912F3
:104F40003B1B80148A828B8374D1F0EFA3F0EEF9BF
:104F5000123AE58003EFA3F002515074F71224F1E6
:104F6000890890069312752180288E828F83A3A3CF
:104F7000125D9860168E828F83A3A3A3E0F58388C9
:104F800082A3125D98FAA908123E3F8E828F831287
:104F900075E5FFEE4F70D39006AAE0FAA908123E1D
:104FA0003F1231799007031256CB1231730273EF1F
:104FB00074F11224F1890A8C08750900750B0074CC
:104FC0000F122C7A12605A7411122C7A1256F48035
:104FD0004AE50E12507DF50CA3E0F50DE50BC33349
:104FE000FEE433FFEA2EF582EB3FF583E0650C70BB
:104FF00004A3E0650D7019E509C333FEE433FFEC4B
:105000002EF582ED3FF583E50CF0A3E50DF00509E3
:10501000050EE50EC3950840B8050BE50BC3950AD0
:105020005005750E0080EBA909026AF474F412248D
:10503000F1890B7D00740C122C7A12605A80010DDC
:10504000EDC3950B5032750A008002050AE50AC3CC
:105050009C50ECEDC333FEE433FFEA2EF582EB3FC8
:1050600012508DF509E50A12507D65087004A3E021
:10507000650970D779018002790002687EC333FE2A
:10508000E433FFE82EF582E93FF583E022F583E083
:10509000F508A3E02274F61224F11251377003A32D
:1050A000E06D70177508387509077808122A03EE45
:1050B000FA123F6B7402122A16801F7508027509D6
:1050C000807808122A038C088D097808122A0312A6
:1050D0005123123F8F7404122A16807474F612241E
:1050E000F11251377003A3E06D701775084575090B
:1050F000077808122A03EEFA123F717402122A1678
:10510000801F7508037509807808122A038C088DA2
:10511000097808122A03125123123F8F7404122AAD
:1051200016802D125131EF125E8DFD7C801264DEEF
:1051300022EE240EF58222EAFEEBFF1273F41276C1
:105140000DFCE439FD900703E06C227402122A166C
:105150007F0202275774F61224F174FE122A7BEAAA
:10516000FEEBFF851882851983E4F0A312593912EA
:105170006622FA88828983A3A3E0F975090075087D
:1051800000600574FF69700575088280439007030D
:10519000E06A7003A3E06B7020851882851983AAEA
:1051A00082AB831236E3E9F50985188285198312EB
:1051B0006889701C750883801790083AE060046461
:1051C0000170057508818008E0640270037508802D
:1051D0008518828519831256F4A908EEFAEFFB129E
:1051E0003F77E50960118518828519831268896007
:1051F00006126BCB123B7B02514B74F21224F1EA84
:10520000FEEBFF750A00750B0012526E123179EA3F
:1052100065087003EB650970121236F5E914F50A9A
:1052200079017A6E7B071236FB8003750B8012734F
:105230009EF50C780C122A07750C6E750D07780C0C
:10524000122A03780A122A077808122A03E50BF5B6
:10525000087808122A0712630AF582EF1270017AA1
:10526000057B80123F7D7407122A16026068127354
:10527000F412760DF508E439F5092274F61224F1DA
:10528000E9FE7F00802E8A828B8312508FF9E50819
:105290002400E439F509EF33F8E433F9EC28F5821A
:1052A000ED39F583E508F0A3E509F0EA2402FAEB0D
:1052B0003400FB0FEFC39E40CD02515074E812241E
:1052C000F174FB122A7B8A168B1785188285198345
:1052D000E4F07403122C7AE4F0A3F004122C7AE4C4
:1052E000F0127214F50AA3E0F50B850A82F5831219
:1052F0007609FEE439FF850A82850B83A3A3E0FAD1
:10530000850A82850B83A3A3A3E0F9EAF508E439B3
:10531000F509E50A2404F50AE50B3400F50BEEFA6D
:10532000EFFB123215E964016016EEFAEFFB123260
:1053300015E9703D900703E06E7003A3E06F6031E4
:10534000125ACB122A07E4F508F5097808122A0345
:105350007808122A07900703122827750880780812
:10536000122A071256D1123F7D7407122A160256CE
:10537000C11256FA8810602EC333FAE433FB123B95
:10538000757403122C7A1256CB7403122C7A12689D
:105390008960137403122C7A1256ECA910123E6F16
:1053A0008A0A8B0B80037510001256FA880F602A48
:1053B000C333FAE433FB123B757401122C7A125694
:1053C000CB7401122C7A126889600F7401122C7A46
:1053D0001256ECA90F123E6F8003750F00900693D2
:1053E000805D850A82850B83A3A3A3A3A3A3A3A3A4
:1053F000E4F0A3F0AA0AAB0B851482851583A3A35E
:1054000012570A125D98F9123AE5851282851383C4
:10541000E0C0E0851882851983E0F8746E28F58273
:105420007407127545D0E012688D04F0E511A2E012
:105430005007AA12AB13123B7B851482851583E0BB
:10544000F514A3E0F515E5144515700302562E85F5
:105450001482851583A3A3125D9860DD851482856F
:105460001583A3A3A3A3A3A3A3A3E0A2E050CA858B
:105470001482851583A3A3A3A3126889851482854A
:105480001583A3A3601F125D98FA790185148285A4
:105490001583A3A3A3A3125D9D1226718A128B13F9
:1054A000751101800F12570AA3A3E0F512A3E0F5CE
:1054B00013751100E5124513700302542C851282F6
:1054C000851383A3E065087004A3E06509600F7489
:1054D000FF6508700474FF6509600302542C85128F
:1054E00082851383A3A3A3A3A3A3A31228278512B2
:1054F00082851383A3A3A3A3A3A3E0FC7405122CAA
:105500007A126BD1A910123E517402122A16E97058
:105510003C851282851383A3A3A3A3A3A3A3A3A360
:10552000A3122827851282851383A3A3A3A3A3A371
:10553000A3A3A3E0FC7403122C7A126BD1A90F125F
:105540003E517402122A16E9700302542CE50F250D
:1055500010C333240AFA7B00123AD98A0A8B0BEA69
:10556000450B700302540A8A828B8374D2F085162D
:1055700082851783A3A312605A8A828B83A3A31206
:105580005E918A828B83A3A3A3A3E510127613E511
:105590000FF0E510603DEA2405FAEB3400FBE50A64
:1055A000240AF8E50B3400F98A828B83125E917429
:1055B00003122C7A12570F1229FFE510C333FCE4B3
:1055C00033FD8A828B83126BD1123AB57403122A8F
:1055D00016800D8A828B83A3A3A3A3A3E4F0A3F078
:1055E000E50F70030253E2E510C333F8E433F9E545
:1055F0000A28F8E50B39F9E8240AFAE93400FB85B2
:105600000A82850B83A3A3A3A3A3A3A3A31256CBB0
:105610007401122C7A12570F1229FFE50FC333FCC5
:10562000E433FD123AB57403122A160253F48518B6
:1056300082851983E06027125ACB122A0775086EFB
:105640007509077808122A037403122C7A125AD5A6
:10565000122A079007031228277508008029EEFAFE
:10566000EFFB123215E9702F125ACB122A07750878
:105670006E7509077808122A037508007808122A3F
:10568000079007031228277808122A071256D1120A
:105690003F7D7407122A167403122C7A12688960EF
:1056A0000B7403122C7A126BD1123B7B7401122CF7
:1056B0007A126889600B7401122C7A126BD1123B3A
:1056C0007B7405122A167F10022757EAF0A3EBF02D
:1056D00022E5162402FCE5173400FDE516240FF53B
:1056E00082E517125E8DF97A067B80221256F4AAA3
:1056F0000AAB0B22E0FCA3E0FD22850A82850B8326
:10570000E0F8A385820A85830B22125D9DA322E027
:10571000F50CA3E0F50D750E00780C2274F112243F
:10572000F174F4122A7B8A088B09ECFEEDFF740BEE
:10573000122C7A7403F0122C7AAA82AB8312447B67
:10574000123173EAFCEBFD7403122C7AAA82AB834C
:10575000124475E9600A1259096010E06401600B97
:1057600085188285198374840258BD8E828F83A325
:10577000A3A3A3A3A3A3A3E06013F4601012590989
:105780007016EE24141273A16003F4700B85188256
:1057900085198374820258BDE508240CF582E50959
:1057A0001273A464217002A3E06003025894851868
:1057B00082851983748C1259396403600302587E00
:1057C0007401122C7AAC82AD8312603712477BE9E8
:1057D000600302587E123DD38A0A8B0BEA450B7098
:1057E000030258BE8E0C8F0D750E00780C1229FF27
:1057F0007C157D00123AB57403122A16850882853D
:105800000983A3A3E50A2415FCE50B3400FD740904
:10581000122944126FE71273A4C0E0E50A241EF5B2
:1058200082E50B127545D0E0125E80C0E0E50A24E7
:105830001FF582E50B127545D0E0F0E50A2420F54E
:1058400082E50B1275457405F0EE240BFEEF340073
:10585000FFEEFAEFFB1237917D007C007900EEFA43
:10586000EFFB123F359080DF12281F7A007B1090EB
:105870000731E0F9123C3B7404122A168078125862
:10588000FB122A0712591212478D7401122A16E9C7
:10589000702C80141258FB122A07125912124787D3
:1058A0007401122A16E9700D851882851983E4F0B7
:1058B000123DA380098518828519837488F0126FC0
:1058C000E7125901122A077401122C7A85820A857F
:1058D000830B780A122A03E508240CF582E50912E5
:1058E00060474480F50B780A122A031263CE123FF8
:1058F000297405122A16740C026AF1EE2414F5823A
:10590000EF125E8DF50A780A22127397125E8D648B
:105910000322EE240BFCEF3400FD8E828F83A3A3C1
:10592000A3A3A3A3A3A3A3126C0E8E828F83A3A30E
:10593000A3A3A3A3A3A3E0F922F0127397125E8D91
:1059400022C082C08374F3122A7B85188285198352
:10595000E4F004122C7A1256CB7403122C7AAA8229
:10596000AB83122D11851882851983AA82AB83120D
:105970002D47740D122A16026BC074F61224F1EA38
:10598000FEEBFF126054888289831272B490074044
:10599000E058F508A3E059F509E5084509601C78C9
:1059A00008122A0390070312282712739EFD7C0019
:1059B0001264DA123F897404122A1602515074F4E8
:1059C0001224F174FF122A7BEAFEEBFF8518828510
:1059D0001983E4F090082EE07003025AB8EE240B0D
:1059E0001273A164017003025AB88E828F83A3A33D
:1059F00012605AEE24151273A1687003A3E0696067
:105A000003025AB8126054E8FAE9FB88828983A33A
:105A1000A3A3A3A3A3A3A3E0FC88828983A3A3A336
:105A2000A3A3A3A3A3A3E0F9EC2400F508E439F5AC
:105A300009EC45096010EC9471E99408500890084D
:105A40003AE06402700A8518828519837480803771
:105A5000122D838A0A8B0BA80AA90BE849602088BB
:105A6000828983A3A3A3A3E014C394025011E82462
:105A700012125ABDE82414125ABD123DA3800985A2
:105A800018828519837481F0125131EF125AD212A3
:105A90002A077401122C7A858208858309780812F6
:105AA0002A0375081F7509807808122A031262FFFD
:105AB000123F297405122A16740102687BF582E9E7
:105AC0001273B2E508F0A3E509F022E5161251328F
:105AD000E5171273B2E0F50878082274EA1224F18F
:105AE00074DB122A7B8A148B157512007513001251
:105AF0005D92F50E851882851983AC82AD837A009C
:105B00007B00799C122E557A047900122D59EAF502
:105B10000C851882851983E0250CF0F8E50EC398F2
:105B20004003025D20E0C3950EF509C394044003D1
:105B3000750903E50975F01AA4FAABF0123B758AF2
:105B4000128B13EA45137003025D23750D00AE122C
:105B5000AF13850E08025BE2125D77123AC1850A27
:105B600082850B83A3A3A3A3E07039850A82850BEA
:105B70008312688970121260401271E1EE2418F5E8
:105B800082EF127545E48016125D86F090055CE0A8
:105B900014C0E0EE2418F582EF127545D0E0125DD6
:105BA000D3E4803B90055CE004C0E0EE2418F5826D
:105BB000EF127545D0E0125DCBC39403EE400302B3
:105BC0005C7E126041126AFC125DCB6401700302BC
:105BD0005C8BEE2415125D89F0EE2416125D89129D
:105BE0005DA6E50DC395094003025CB0E508C395C9
:105BF0000C4003025C9585080AAA0A7B00122DBF9F
:105C00008A0A8B0B0508900549125DB212447B8508
:105C10000A82850B8312605A125D69127299125DB5
:105C2000E0850A82850B83A3A3A3A3A3A3A3A3A3B5
:105C3000A3E0C0E0EE2419F582EF127545D0E0F044
:105C40007401122C7AE4F0850A82850B8312605A63
:105C50007402122C7A125E917401122C7AAA82AB11
:105C600083122D35E964016003025B587404122C21
:105C70007AAC82AD83125D7D12447B025B5E125D65
:105C800087125DCB64036003025BD2125D701275F4
:105C900045E4025BD8E50CC3950E4005750800800D
:105CA00016E50EC3950CF508800D125D86125DA6F3
:105CB000E50DC39509506C740E122C7AAC82AD833D
:105CC00085080AAA0A7B007987122E5505087418E0
:105CD000122C7A125DB212447B125D77123AC1EE39
:105CE0002412F8EF3400F9740E122C7A126BD1885A
:105CF000828983EAF0A3EB125DD37403125DE07432
:105D00001D122C7AE0C0E0EE2419F582EF127545E1
:105D1000D0E0126B307093126040127545E4808DB4
:105D2000750900750A00780A122A077812122A03E8
:105D30007809122A07E50EF5097809122A07740571
:105D4000122C7AE0FD7C00126FEF123FC574051231
:105D50002A16E51245136007AA12AB13123B7B7497
:105D600025122A167F0E022757EE2412F582EF2203
:105D7000EE2415F582EF227C087D0079FFEE240ADF
:105D8000FAEF3400FB22EE2414F582EF1273B274A2
:105D900001221275621273B2125D9DE022E0F8A337
:105DA000E0F583888222F0EE241AFEEF3400FF052E
:105DB0000D2212605E8E828F83E8F0A3E9F07C5D95
:105DC0007D05EE2402FAEF3400FB22127555A3A3E1
:105DD000A3E022F0EE2415125DF024161273AF2218
:105DE000F0EE2417125DF024181273AF74FFF02246
:105DF000F582EF1273B67402F0EE2274F61224F1FB
:105E000074F9122A7B8A088B0912768D123ACD8595
:105E10001882851983122C63125E6AC0E074041222
:105E20002C7AD0E0127527A3E0FA7405122C7A744C
:105E300001F07406122C7A7401F090070DF09007AF
:105E40001604127569A312605A90070E125E91EA49
:105E5000900717125E8090070C125E78122DFBE9F6
:105E60006003122E01740702514DEE2404FEEF343C
:105E700000FF8E828F83E02212661AAA82AB8322F1
:105E8000F0E508240F125E8922F582E5091270B848
:105E900022E8F0A3E9F02274F21224F174FF122A2E
:105EA0007B7508007E007F0012309B8A0A8B0B12E4
:105EB000309B8A0C8B0DA80CA90D80090508126D6A
:105EC00019E9126057E84970F390083AE0600764F6
:105ED000016003025FB412309B8A0C8B0DA80CA9E1
:105EE0000D8007126D19E9126057E8496037888202
:105EF0008983126BD1900549E06A7003A3E06B605F
:105F00000E126D19E9127545126BD1EA4B70D488E7
:105F100082898312605A900549E0687003A3E069A2
:105F20007003025FB47A167B00123B758A0C8B0DEE
:105F3000AE0CAF0DEE4F607C90054912605A8E8218
:105F40008F83125E9190053EE08E828F83A3A3F033
:105F50001231FDE98E828F83A3A3A3A3A3F0900F38
:105F600087127549F07C5D7D0512603712447B8590
:105F70001882851983AA82AB8379411245F5851869
:105F800082851983E0600890070312605A800478C4
