:020000040000FA
:10000000021AC3022003FFFFFFFFFF02200BFFFFC6
:10001000FFFFFF022013FFFFFFFFFF02201BFFFF78
:10002000FFFFFF022023FFFFFFFFFF02202BFFFF48
:10003000FFFFFF022033FFFFFFFFFF02203BFFFF18
:10004000FFFFFF022043FFFFFFFFFF02204BFFFFE8
:10005000FFFFFF022053FFFFFFFFFF02205BFFFFB8
:10006000FFFFFF022063FFFFFFFFFF02206BFFFF88
:10007000FFFFFF022073FFFFFFFFFF02207BFFFF58
:10008000FFFFFF022083FFFFFFFFFF02208B902076
:1000900000000100000000C8030000000400FFFF92
:1000A000FFFFFFFFFFFFFFFFFFFF0403090424031F
:1000B00054006500780061007300200049006E0064
:1000C00073007400720075006D0065006E007400AE
:1000D0007300240354004900200043004300320011
:1000E000350033003100200055005300420020004D
:1000F00043004400430000035F005F0030005800ED
:1001000000000000000000000000000000000000EF
:1001100000000000000000000000000000000000DF
:10012000303132333435363738394142434445462D
:10013000E7173C183C183C183C18441874F7121781
:1001400081120764600302021AA3E0F8A3E06003CF
:1001500002021AA3E064027002A3E0600302021A22
:100160009003B6E02480600914604F14605C0202C2
:100170001AE8600302021A9003B0E060047801807C
:100180000278009003BEE8F0A3E4F09003AFE060D3
:100190000A9003BEE04402F0A3E4F09003A4E064FC
:1001A0000460149003B174BEF0A37403F0A3E4F0F0
:1001B000A374021207C6F002084690039DE064048F
:1001C00070589003BEE4F0A380D0E8547FF5089007
:1001D000039DE064047043E508C39406503C749D9D
:1001E0002508F58274033400F583E854806018A371
:1001F000A3A3A3A3A3A3E0640370047801800278FF
:10020000009003BEE88090E582240CF582E58334FB
:1002100000F583E0640370E780E19003A474048038
:100220009574F7121781E9FE9003BC12076760030B
:1002300002030790039DE06404600B9003BA120769
:100240006760030203079003B6E0541F600914605F
:10025000301460200203079003B8E064017022EEBE
:100260009003AFF060047905800279067A001217D6
:100270007F02030D9003BAE0547FFA9003B8E06068
:1002800005790002030FEAC39406507BEA90620EE0
:10029000F08A08749D2508F874033400F99003BAB5
:1002A000E05480602CEE6004741080027440906210
:1002B00011F0EE600474038001E488828983A3A3B3
:1002C000A3A3A3A3A3F0EE6004790880317907808B
:1002D0002DEE6004742080027480906214F0EE6051
:1002E0000474038001E4C0E0E8240CF582E93400E2
:1002F000F583D0E0F0EE6004790A800279091217E4
:100300007F90620EE480059003A47404F0790102EA
:1003100008467900120221E9700312176E22790152
:10032000120221E9700312177D22C082C08390035C
:10033000BA1207677015A3120767700F9003B812FF
:1003400005085480FAE9FBEA4B60079003A47404A3
:10035000801AE8906200F090039D6009E0640270EA
:100360000C74038007E0640370037402F0D083D040
:10037000822274F31217819003B8E0FAA3E01460AC
:100380000814601014603B805912136A1204E5A32C
:100390007B808043790012138C1204E57B80E92472
:1003A00002F9EA3400FA121A14FC1919E0FAA3E966
:1003B0002403F9EA3400FA121A14F9ECA3F0A3E9C1
:1003C000801CEAF91213FA9003B1EAF0A3EBF0A350
:1003D000E41204F4A37B00121A14A3F0A3E4F002C5
:1003E000049F9003B1E4F0A3F0A3F0F50B90046632
:1003F000E0FAA3E0FB02047A75090074037808129E
:100400001AB0EA2508F8EB3509F99003B81204FE92
:10041000E493C0E0EFFCD0E06C705DA3E4936E70F9
:10042000579003BA1204FEA3A3E493C0E0EFFCD0FC
:10043000E06C704488828983A3A3A3E4936E703830
:1004400088828983A3A3A3A3E493F508740193F599
:10045000099003B1E508F0A3E509F0A37480F088E2
:10046000828983A3A3A3A3A3A3E493F8740193F9BC
:100470009003B4E8F0A3E9F0050B850B089004683D
:10048000120508C39AF50CE99BF50D7403780C125C
:100490001AD2C3E508950CE4950D50030203F890B9
:1004A00003B1E0FCA3E0FDA3E0FEEC4D4E9003A4FD
:1004B000700474048029E0640460259003BCE0FAB1
:1004C000A3E0FB9003B4E0F8A3E0F9C3EA98EB994A
:1004D00050089003B4EAF0A3EBF09003A47401F089
:1004E0007F060219329003B1EAF0A3EBF0A3748007
:1004F0001204F422F09003B1E0F9A3E0FA22E0FE46
:10050000A3E0FF8882898322E0F8A3E0F9E822745F
:10051000EE121781EA2404F8EB3400F988088909FF
:100520008882F583E493602590046A120508FEE949
:100530008007EE2404FEEF3400FF8E828F83E49365
:10054000F8740193F9EA687002EB6970E5750C00C4
:1005500080409062147490F07410120665700375F8
:100560000D408E828F83A3A3A3E49355106006E50C
:100570000DD2E0F50DE50D906215F0EA906213F0F2
:10058000EC240CF582ED3400F583E4F090620EF07B
:10059000050C850882850983E493F8E50CC398402F
:1005A000030206607A0079051212FD8A0E8B0FEAAB
:1005B000450F60DCEA2402F8EB3400F9880A890B65
:1005C0008882F583E493540FF51290620EF0750D56
:1005D000008A828B83A3A3A3A3E4932407F510A32B
:1005E000E4933400F51174037810121AD2AA10851E
:1005F0001210749D2510F874033400F9E8FCE9FD2D
:10060000751001751100E5127810121AB0E50E246C
:1006100003F8EB3400F9850A82850B83E493A2E7A3
:1006200040030205529062117448F0740812066586
:100630007003750D408E828F83A3A3E493551060E1
:1006400006E50DD2E0F50DE50D906212F0EA90623C
:1006500010F08C828D83A3A3A3A3A3A3A302058A76
:100660007F0B021932F088828983E493540364017A
:1006700022C082C0831207647010A3120767700A39
:10068000A3E064017002A3E060079003A4740480F7
:100690000C9003B1749EF0A374031207BCF0020324
:1006A0006D74F412178190039DE06402601490034E
:1006B000BA120767700CA312076770069003B9E0BF
:1006C00060099003A47404F002075F7A00790112B4
:1006D000177F9003B8E060727A00F912138C8A08D1
:1006E0008B09EA4509605B90039D7404F09003B8A0
:1006F000E090039EF0750C00850882850983A3A312
:10070000A3A3E493F8E50CC398504D850C0A749F9D
:10071000250AF874033400F9E8FEE9FF8E828F831E
:10072000E4F07A0079041212FD8A828B83A3A3A3DA
:10073000E493F88E828F83E06870E712050F050C52
:1007400080B69003A47404F0800E90039EF0900392
:100750009D7403F0F9120F367A00790212177F7F29
:10076000050219329003B8E0F8A3E0F9E8492274D1
:10077000F612178190039DE0640470199003B6E0AF
:1007800064817011120764700C9003BCE064017006
:1007900002A3E060079003A47404801A9003BAE0F7
:1007A000249FF508A3E03403F5099003B1E508F0B0
:1007B000A3E5091207BCF07F03021932F0A3E4F0AD
:1007C000A3041207C622F0A3E4F09003A404227449
:1007D000F712178190039DE0640470649003B6E003
:1007E0006401705C9003BC12076770549003B8E01A
:1007F000FB9003BAE0FA90039EE0F91213C48A0852
:100800008B09AE08AF09EE4F60369003BAE0FA7973
:100810000312177F9003B8E0C0E09003BAE0249F72
:10082000F8A3E03403F988828983D0E0F0EEFAEF90
:10083000FB12050F9003BAE0FA790412177F8006C5
:100840009003A47404F07F0202193274F812178125
:1008500074FF121A477E008033900384E0F88518F5
:1008600082851983E068700D900382E0644D700505
:10087000120ABAE9FE900385E4F0900387F0851828
:1008800082851983E0F8900384E068F07901851887
:1008900082851983AA82AB831210ABE97003020927
:1008A00049E0C0E0900387E0F8900385E0FAE82A89
:1008B000F8E43400120C52D0E0F0900387E06011AD
:1008C00014602014603E14604E14606414608A80CA
:1008D000AD851882851983E064FE70A29003877449
:1008E00001809A900384E4F0851882851983E09052
:1008F0000386F0C394809003874004E402087D746B
:100900000202087D851882851983E0900382F090A9
:100910000387740302087D851882851983E090039C
:1009200083F0900386E06019900387740402087DC9
:10093000900385E004F0F8900386E0686003020805
:100940007E900387740502087DEEF974011219FA8E
:100950007F0102193274ED12178174FB121A477568
:1009600008047509007808121A777402121AEEAC9E
:1009700082AD837A907B00790412151D74021219DE
:10098000FA851882E0F47003A3E0F4600F85188202
:10099000851983E0F8A3E0F9E8497003020AAE7410
:1009A00002121AEEE0687003A3E0697003020A887D
:1009B0007508007510007511207512007513008000
:1009C0000A9003C07810121A88604C750A01750BE2
:1009D00000780A121A777406121AEEAC82AD83857B
:1009E000100A85110BAA0AE50B5407FB8A0C851126
:1009F0000D85120E85130F740B780C121A2EA90C8C
:100A000012151D74021219FAE0F9AA08AB09120CAA
:100A10006C8A088B09800C75109375112075120073
:100A20007513009003C47810121A9D9003C87810B3
:100A30001219C0508CE4F9120C6CE4F9120C6C74AD
:100A400002121AEEEAF0A3EBF075080175090078BE
:100A500008121A777402121AEEAC82AD837A247BE4
:100A6000081215A274021219FA7508047808121AED
:100A7000777402121AEEAC82AD837A907B0079040F
:100A800012151D74021219FA120C5E121AEEE068A9
:100A90007003A3E0697017851882851983E0F470EC
:100AA00003A3E0F46008E84960047901800279005A
:100AB00074051219FA7F0C02193274F3121781743B
:100AC000FC121A47900306E0FAA3E0F8E4C8F9EA3A
:100AD0002400FEE93408FF750A01880988088E0C95
:100AE0008F0D7409780C121AD2A90CEEF50CEF5484
:100AF00001F50D900383E014600914602C14606903
:100B0000020C02EA450D7003121608750C10750DE3
:100B100000780C121A777C087D03EEFAEFFB1215B1
:100B2000A274021219FA020C02E9C3947940067504
:100B30000901020C02750A40750B00780A121A7737
:100B40007C097D037402780C121AB0AA0CAB0D124A
:100B5000151D74021219FA900307E0A3F090030622
:100B6000E0A3F0750A43020C02750C04750D0078C1
:100B70000C121A777402121AEEAC82AD837A907B53
:100B800000790412151D74021219FA7402121AEE79
:100B9000E0F8A3E0F9851882851983E0687003A363
:100BA000E0696047120C5E121AEEE8F0A3E9F075F6
:100BB0000C01780C121A777402121AEEAC82AD8313
:100BC0007A247B081215A274021219FA750C0478A3
:100BD0000C121A777402121AEEAC82AD837A907BF3
:100BE00000790412151D74021219FA120C5E121A01
:100BF000EEE0687003A3E069700575080180037575
:100C00000907900305E0D2E7F0E509A3F0E50A90B3
:100C10000303F0744D650AF5097404250AFB7A0391
:100C20008004E062090AEAF83395E0120C52EAC344
:100C30009BA2D265D03340EAE509F074012AF97A23
:100C4000027B031210EBA90874041219FA7F060242
:100C50001932F9740228F582740339F58322851854
:100C600082851983E0F8A3E0F9740222C008C00964
:100C70007C088A088B09740F7808121AD2EAC333E9
:100C8000FAEB33FBE9A2E7500474014AFAE508A243
:100C9000E0500874216AFA74106BFBE9C333F91C45
:100CA000EC70CFD009D00822C082C0837A007901CD
:100CB00012138C8A828B83A3A3A3A3A3A3A3E4937D
:100CC000A2E69003B0500474018001E4F09003AFF9
:100CD000E4F090620F7403F0E0A2E750FBD083D001
:100CE0008222C082C08390039D7402F0A3E4F0903E
:100CF00003A4F07903120F3675210075220080DD00
:100D000074F612178190620EE0FEE4F0906211E03A
:100D1000FFA2E4501D7480F09003A47407F0E52155
:100D200045226009852182852283121B009003A43D
:100D3000E4F0EFA2E2500B906211E4F09003A4F013
:100D400080629003A4E0F87402687041906216E03B
:100D5000FF9003B1121972EFF97A207B62120F6EC5
:100D600074031219FA8F089003B4120F0B120F16A6
:100D7000E0F8A3E0F9E84960047440800274489008
:100D80006211F0E8496003020F01020EDD7406688B
:100D90007009852182852283121B009003A4E060E4
:100DA00003020E8DEFA2E04003020F017508B67535
:100DB0000903750A007808121A7379087A207B6291
:100DC000120F6E74031219FA752100752200900338
:100DD000B6E054E0601D24E07003020E6924E06078
:100DE0007224C0604824E07003020E7424E0606E38
:100DF000020E7FA3E014602624FE601D24FE600A1C
:100E000024FC601F24FE6020807512032A9003A436
:100E1000E0640470727460807012031E80EF12032D
:100E20001280EA1206A180E51207CF80E0A3E060FD
:100E30000E24FA600F24FE601024FE601180401220
:100E4000013C80C912037280C412067180BF120770
:100E50006F80BA75216A75221712176A80AF7521E3
:100E60006C75221712176C80A47521057522171254
:100E700017058099752135752217121735808E90C8
:100E800003A47404F0808E7440906211F09003A467
:100E9000E0F8740168705C7F029003B4E0F8A3E0AE
:100EA000F9C3E89420E994005007E8F50A7F0A8026
:100EB00003750A209003B1121972A90A7A207B6285
:100EC000120F9374031219FA850A08120F16120FE3
:100ED0000BEF906211F0E50AC394205024E5214500
:100EE000226009852182852283121B009003A4E4DD
:100EF000F0800E7405687009852182852283121B9B
:100F000000EE90620EF07F03021932C3E09508F004
:100F1000A3E09400F0229003B1E0F9A3E0FAA3E08B
:100F2000FBE92508F9EA3400FA9003B1E9F0A3EAF5
:100F3000F0A3EBF0A32274F71217817800880874ED
:100F4000A52508F5827403120F6240F17800880825
:100F500074AA2508F5827403120F6240F17F020221
:100F600019323400F583E9F008E8C394052274F6D9
:100F7000121781EAFCEBFDE9F8740A121AEE120F5F
:100F8000C3600D8C828D83E0121A5D120FB870F36E
:100F9000020F0674F6121781EAFCEBFDE9F8740AF9
:100FA000121AEE120FC3600D121A148C828D83F088
:100FB000120FB870F3020F06E9240109EA3400FAAF
:100FC00018E822E0F508A3E0F509A3E0A908AA09BA
:100FD000FBE822C082C0838003121664A2E840F9B5
:100FE000A823E8540460097823E654FBF6120CE2C7
:100FF000A823E8541060097823E654EFF6120D0098
:10100000A823E8A2E05005782354FCF690620EE095
:10101000FA7404F0906214E0A2E05042E5A8F8C22D
:10102000AF906216E0F9A3E0E9FBE8A2E792AF8097
:101030001F906228E0C0E0900391E0F8746E28F5FC
:101040008274053400F583D0E0F0900391E004F061
:10105000EBFC74FF2C1B0470D8906214E4F0EA904F
:10106000620EF0E0FD7404F0906211E0A2E0403105
:10107000900393E0F8900392E06860257A40900333
:1010800092121123E0906228F0900392E004F0089D
:10109000900393E06860041AEA70E39062117401AF
:1010A000F0ED90620EF0D083D0822274F812178196
:1010B000E9FE7900801F900390E0FC746E2CF582AD
:1010C00074053400F583E08A828B83F0900390E00E
:1010D0000412111809900390E0F8900391E0686001
:1010E00005E9C39E40D07F01021932C082C083E966
:1010F000FC80188A828B83E0C0E090039312112356
:10110000D0E0121118900393E004F0ECF874FF287B
:101110001C0470DF7901808EF08A828B83A3AA82FF
:10112000AB8322E0F8746E28F58274043400F583F2
:1011300022794A1212E253BEFBE59DA2E650FA0064
:1011400078F8790100E824FF18E934FFF9E84970DC
:10115000F375C6807480659E70FA43BE0490627019
:101160007408F012122D120955E96013E59D541808
:10117000641070031212381211E912125580031212
:1011800011E9794E1212E2750C00750D00750E0012
:10119000750F008028C280D291750C00750D007506
:1011A0000E00750F00120FD39003C4780C121A9D15
:1011B0009003CC780C1219C050EB121238120FD3D6
:1011C00012084BE96006120955E970C9850D0990AE
:1011D00003C4780C121A9DE509544060E0A28050C7
:1011E00004C28080D8D28080D474F812178153F45E
:1011F000FEC29043FE017403F5D575D48890039424
:10120000E4F0A374C2F0A37401F0A3E4F0A3F0A38C
:10121000F0A37408F0120CA87AFF7BFF12161F537C
:10122000F4FED29043FE0112122D0210E6D280434A
:10123000FD01C29143FE0222C280D291A29250FCD3
:10124000A29350F8D280C291022000C2AF75C9AB00
:1012500075C95B80FE74F112178174FF121A47750D
:101260000C00750D00750E26750F008004C291C22A
:1012700080120FD37901851882851983AA82AB83E6
:101280001210ABE96016E064106049E064EF700C86
:10129000750C00750D00750E00750F00A29250348C
:1012A000A293501E850C08850D09850E0A850F0B2B
:1012B0009003D0780C121A9DE5084509450A450BA4
:1012C0007003121238850D09E5095420709FD280F1
:1012D000D291809DD280C29174011219FA7F0802C6
:1012E0001932781075B60FE5B4A2E750FAE5BBC322
:1012F0009940F118E870ED22D083D08222C082C0DC
:1013000083E9FCEAFD7A007B008003121348900316
:101310009BE0F8A3E0F9900464E0687003A3E0693F
:10132000602490039CE0F5838882A3E493F8EC6842
:10133000700D90039BE0FAA3E0FB1213488007EDC9
:101340006870C8ED60C580B090039BE0F8A3E0F53D
:10135000838882E493F890039BE028F8A3E03400AC
:10136000F990039BE8F0A3E9F022C082C083121336
:101370007B7A0079011212FD0212F8900462E0F803
:10138000A3E0F990039BE8F0A3E9F02274F71217A9
:1013900081E9FEEAFF12137B7A0079021212FDEA5C
:1013A0004B601CEE60108A828B83A3A3A3A3A3E4EB
:1013B000936E70E48009EFF874FF281F0470D97FE2
:1013C0000202193274F5121781EAFF8B087A0012B3
:1013D000138C7A0279041212FDEA4B60188A828B10
:1013E00083A3A3E4936F70EA8A828B83A3A3A3E40D
:1013F00093650870DD7F0402193274F71217817447
:10140000F0121A47E97A007B00600C146010146037
:10141000141460180215057ADC7B030215057AE0C6
:101420007B030215057A047B04021505900428E06D
:1014300060030215017408121AEEAC82AD83758345
:10144000037582D4740812199F750808F509780885
:10145000121A777402121AEEAC82AD837AE87B0717
:10146000797F12151D74021219FA7808121A77740E
:101470000A121AEEAC82AD837402121AEEAA82AB83
:101480008312189A74021219FA8B09EA4509701D21
:101490007509007808121A777C0C7D787402121A8C
:1014A000EEAA82AB831218EC74021219FA7C287D22
:1014B000008D08851882851983E5822508F582E567
:1014C000833400F583E0FF8C0874282508F8740441
:1014D0003400F9EF12150D88828983F0EFC41215DC
:1014E0000DC0E0E824FEF582E934FFF583D0E0F09A
:1014F0000D74FC2CFCEDC3940840B6900428742AAB
:10150000F07A287B0474101219FA0213BF540FFAF0
:1015100074522AF58274043400F583E02274F512C3
:1015200017818908740F5508F50A750B00740B783C
:101530000A121AB0EA2400F8EB3480F9E82400E932
:10154000350BF9E5C7F509A2AFE433F50AC2AFE5FB
:1015500008C4540FFAE5C754F84AF5C7740B121AB9
:10156000EEE0FAA3E0FB801C88828983E08C828D08
:1015700083F088828983A3A882A9838C828D83A328
:10158000AC82AD83EAFEEBFFEE24FF1AEF34FFFBE3
:10159000EE4F70D48509C7E50AA2E092AF7F04023E
:1015A000193274F7121781ED900388F0ECA3F0A3C1
:1015B0007462F0A37473F0A3E0541FF07409121A5C
:1015C000EEE0F508A3E0F509E508333354FC900399
:1015D0008DF074067808121AD2E50890038CF0900A
:1015E000038E7412F0A37442F075D1FE75D601EA31
:1015F000906271F0EBA3F0906270E0D2E1F0E0A2B3
:10160000E740FB7F02021932C082C083E9C33390F6
:101610006272F0906270E0D2E0F0D083D0822274E7
:10162000F71217817523007524007525008A268B13
:1016300027EA90620BF08A088B0974047808121A62
:10164000D2E508906207F08A088B097409780812BD
:101650001AD2E508543E906209F0758B00C2E87F0B
:101660000202193274F7121781E59DA2E650FA9032
:101670006206E0FAA2E25035A826E890620BF0F587
:101680000885270974047808121AD2E508906207C1
:10169000F085260885270974097808121AD2E5080A
:1016A000543E906209F0906201E0D2E0F07823EAC3
:1016B00046F6906202E0F508750900740478081295
:1016C0001AB07823E50846F608E50946F690620464
:1016D000E0F50875090074097808121AB07824E555
:1016E0000946F6EAA2E0500375250174065A600324
:1016F000752500E58BA2E55006758BDF7525001278
:10170000178002165AC082C0839003B7E0F8742293
:101710006870089003A4E0701A8011742068900328
:10172000A4700DE0700D12175C9003A47402800287
:101730007404F08043C082C0839003B7E0642190BA
:1017400003A47013E0701312175CA37407F0A3E4F2
:10175000F09003A40480027404F0801C9003B17420
:1017600094F0A37403F0A3E4F02280028000C0820E
:10177000C0839003A47404F0D083D0822280EF222F
:10178000222518C582C0E0E51934FFC583C0E0E515
:1017900018C3958224F910AF0885831985821880B3
:1017A00008858319858218D2AFCEF0A3E520F0A377
:1017B0007808E608F0A3DEFAEFF0A3E58124FBF851
:1017C000E608F0A3E608F0A30808E608F0A3E60898
:1017D000F0A315811581D0E0FED0E0F815811581C8
:1017E000E8C0E0EEC0E02212010002020000205139
:1017F00004A81609000102030109024300020100C6
:1018000080190904000001020201000524001001F2
:101810000424020205240600010524010001070535
:10182000820340004009040100020A00000007058D
:101830008402400000070504024000000218000076
:1018400025180000121AFDB90003021894E479214A
:101850007807B800028004F709D8FCE49003027806
:10186000BF79018002F0A3D8FCD9FA9003C0AA8204
:10187000AB8390008E78AF79018015E493A3AC829E
:10188000AD838A828B83F0A3AA82AB838C828D8303
:10189000D8E9D9E7121131121AF874F512178174C8
:1018A0000B121AEEE0F8A3E08015A3AA82AB838C9A
:1018B000828D83A3AC82AD83E824FF18E934FFF95D
:1018C000E849601F8C828D83E0F5088A828B83E073
:1018D000F50AE508650A60D2E50AC39508FA95E0BD
:1018E000FB80047A007B007F0402193274F7121720
:1018F00081EAF8EBF97409121AEEE0FEA3E0FF802A
:10190000188C828D83E088828983F0A3A882A983C2
:101910008C828D83A3AC82AD838E088F09E5082469
:10192000FF1EE50934FFFFE508450970D47F020278
:101930001932851983851882E0A3FEE0A3F520788B
:1019400008E0A3F608DFFAE0A3FFE0A3C0E0E0A30D
:10195000C0E0E0A3C0E0E0A3C0E010AF08858218BB
:101960008583198008858218858319D2AFD083D0EA
:10197000822274038000CCC0E0EDC0E0E518C39C77
:10198000CCAD1950011D10AF068C188D1980068C36
:10199000188D19D2AF12199FD0E0FDD0E0FC22CAF9
:1019A000C0E0E0A3C582CCC582C583CDC583F0A3CA
:1019B000C582CCC582C583CDC583DAE6D0E0CA2214
:1019C000C008C3E096F50808A3E096420808A3E023
:1019D00096420808A3E09645087001D3D008222556
:1019E00018F58210AF08F518400215198008F5188F
:1019F00040021519D2AF85198322C0D0251810AF27
:101A000008F518500205198008F51850020519D27A
:101A1000AFD0D022BB0102E722C082C08389828A74
:101A200083BB0003E08002E493D083D0822260165F
:101A3000080808C6C313C618C613C618C613C618A6
:101A4000C613C6D5E0EA22251810AF08F5184002E3
:101A500015198008F51840021519D2AF22BB000EE7
:101A6000C082C0838A838982F0D083D08222BB0166
:101A700001F7227403800474028000C0E0F40412B1
:101A800019DFD0E0121AE122E066701008A3E066C8
:101A9000700A08A3E066700408A3E06622E026F658
:101AA00008A3E036F608A3E036F608A3E036F622EF
:101AB000700422600D18C6C333C608C633C6D5E00D
:101AC000F4182275D00075813F751802751903024C
:101AD0001844600C08C6C313C618C613C6D5E0F474
:101AE00022CAC0E0E6F0A308DAFAD0E0FA2225180C
:101AF000F582E43519F5832200000080FB7901228C
:101B0000E473FFFFFFFFFFFFFFFFFFFFFFFFFFFF8C
:101B1000FFFFFFFFFFFFFFFFFFFFFFFFFFFFFFFFD5
:101B2000FFFFFFFFFFFFFFFFFFFFFFFFFFFFFFFFC5
:101B3000FFFFFFFFFFFFFFFFFFFFFFFFFFFFFFFFB5
:101B4000FFFFFFFFFFFFFFFFFFFFFFFFFFFFFFFFA5
:0400000500001AC31A
:00000001FF
