:020000040000FA
:10000000020DA5022003FFFFFFFFFF02200BFFFFF1
:10001000FFFFFF020583FFFFFFFFFF02201BFFFF23
:10002000FFFFFF022023FFFFFFFFFF02202BFFFF48
:10003000FFFFFF022033FFFFFFFFFF0205A7FFFFC7
:10004000FFFFFF022043FFFFFFFFFF02204BFFFFE8
:10005000FFFFFF022053FFFFFFFFFF02205BFFFFB8
:10006000FFFFFF022063FFFFFFFFFF02206BFFFF88
:10007000FFFFFF022073FFFFFFFFFF02207BFFFF58
:10008000FFFFFF022083FFFFFFFFFF02208B902076
:1000900000000100000000C80300FFFFFFFF000098
:1000A000040074F7120B3178007900801B749225DC
:1000B00008F582740312024C90041212025D40058E
:1000C000900412E4F01202439004121201B560078A
:1000D000C3E89CE99D40D6E8FAE9FB7F02020C9652
:1000E00074F5120B31900496E0FEA3E0FF8F08EE4A
:1000F000C39508F895E0F9EFC39EE8500B1203454D
:10010000700B78007900801312034F50F57A007B52
:1001100000803BE004F0D2E9120243C3E89CE99D71
:1001200050288A828B83E0C0E0900497E0FE74162A
:100130002E12032CD0E0120335900498E4F09004C2
:1001400097E0C3947F40CCE480CBE8FAE9FB7F04DE
:10015000020C968003120166A28B40F9A2E95005B9
:1001600012018F80F722C082C083E5C1C28BC0E03C
:10017000900413E0F8749228F5827403120330D0CF
:10018000E0F09004131202564002E4F002056A7493
:10019000F7120B31C2E99004961201B5601474167F
:1001A000250812032CE0F5C1900496120256400275
:1001B000E4F00200DBE0F508A3E065082274F71222
:1001C0000B317800790090051BE0705BA3E070575D
:1001D00075F900C28FC284A28340FCA28F4004A2A2
:1001E0008350F8E5F9C28FA2835004D2848038C0CE
:1001F000E0E0FE749B2EF5827404120330D0E0F030
:1002000090051C12025640D3E4F080CF749B250861
:10021000F582740412024C90051B12025D40059099
:10022000051BE4F012024390051B1201B56007C3E1
:10023000E89CE99D40D6E8497006E4F090051BF083
:100240000200D7E8240108E93400F922120330E063
:100250008A828B83F022E004F0C3948022E00412AF
:100260000339C394802274F8120B3190059EE0FF8D
:100270008F82A88290059DE0FEEFC39EE0500DC3E3
:1002800098F895E0F91203447012800CC398F89521
:10029000E0F9E812034F4004EC4D70077A007B0050
:1002A0000203278A828B83E0F5F9A3AA82AB8378C5
:1002B0000179008006E004F0120243C3E89CE99D46
:1002C00050278A828B83E0C0E090059EE0FE741D7B
:1002D0002EF5827405120330D0E012033590059E8E
:1002E000E0C3947F40CFE480CEC28FA28340FCC2A3
:1002F00084A28F4004A28350F890059D12035CE015
:10030000F5F9C28F90059DE0FAA3E06A90059D7013
:100310000512035C80051202564002E4F0A28350ED
:10032000D0D284E8FAE9FB7F01020C96F5827404CE
:100330003400F5832212033922F08A828B83A3AA28
:1003400082AB8322E824FF18E934FFF9E84922242C
:100350007FF8E93400F9C3E89CE99D22E0FA741DB6
:100360002AF58274051203302274FF120D43120421
:10037000A21206D8E9700302043D7E00900390E0CB
:1003800064017011C2849003917401F07508388E75
:10039000098E0A8009D2AF8E088E09750A268E0B47
:1003A000900390E070031201537C017D0085188258
:1003B000851983AA82AB8312053D8B0DEA450D603A
:1003C00012E06410602CE064EF70088E088E098ED5
:1003D0000A8E0B85080C85090D850A0E850B0F907A
:1003E00005AB7808120D6EE50C450D450E450F70F6
:1003F000AF0E900390E064017009D284900391E401
:10040000F08002C2AFEEA2E05033900390E06401AE
:10041000700C75F800C2AB539AF7D2EA800C75865F
:1004200000C2AAC28B539AFBC2E990000174CDF0BE
:10043000022000C2AF75C9AB75C95B80FE750800AC
:10044000750900750A00750B00794E12048C900333
:1004500090E07004D2AF8003E070031201531205E4
:10046000C8E960F41206D8E960EEE0701512015395
:100470009005A37808120D6E9005AF7808120CD67F
:1004800050EBC2AF75C9AB75C95B80FE781075B60D
:100490000FE5B4A2E750FAE5BBC39940F118E87044
:1004A000ED22C082C08353BEFBE59DA2E650FA0058
:1004B00078F879010012034470FA75C6807480657B
:1004C0009E70FA43BE049062707408F0794A120478
:1004D0008C90000174F5F07403F5D575D488A2A052
:1004E000E433900390F0A2E05029D28453F3F75301
:1004F000F3EF53FDF743FD10538FF753F7DF43FC42
:100500002043F10253F5DF75F82043F4F0D2FED218
:10051000AB802853FF3F85FFFF53F1FE43F30C539D
:10052000F2F375868075C480900499E4F0A3F075A9
:10053000C2D875C50B75C402438640802DC082C0E9
:1005400083900390E070051200A2801E900391E05A
:100550006015A28F500BE5F98A828B83F07A0180B7
:10056000027A007B0080031201BDD083D08222C0BA
:1005700082C083900390E070051200E080031202B5
:100580006680E7C0E074F2120B97900001E064CD42
:100590007005122013800BE064F57005120166806F
:1005A00001007F01020BF6C0E074F2120B9790007D
:1005B00001E064CD700512203B800BE064F570050E
:1005C00012018F80010080DA74F7120B3174FF1270
:1005D0000D437E008033900384E0F88518828519EE
:1005E00083E068700D900382E0644D700512083D51
:1005F000E9FE900385E4F0900387F0851882851961
:1006000083E0F8900384E068F07C017D0085188227
:10061000851983AA82AB8312053D8B09EA450970CF
:10062000030206CCE0C0E0900387E0F8900385E089
:10063000FAE82AF8E434001209D9D0E0F0900387F0
:10064000E0601114602014603E14604E1460641465
:10065000608480A7851882851983E064FE709C9071
:10066000038774018094900384E4F08518828519CF
:1006700083E0900386F0C394809003874004E402F3
:1006800005FA74020205FA851882851983E0900341
:1006900082F090038774030205FA85188285198316
:1006A000E0900383F0900386E06019900387740460
:1006B0000205FA900385E004F0F8900386E0686094
:1006C000030205FB90038774050205FAEEF9740135
:1006D000120D107F02020C9674ED120B3174FB1296
:1006E0000D437508047509007808120D9474021200
:1006F0000DD0AC82AD837A907B007904120A2F74FE
:1007000002120D10851882E0F47003A3E0F4600F6C
:10071000851882851983E0F8A3E0F9E8497003029F
:1007200008317402120DD0E0687003A3E069700311
:1007300002080B7508007510007511207512007500
:100740001300800A90059F7810120D59604C750AAD
:1007500001750B00780A120D947406120DD0AC824C
:10076000AD8385100A85110BAA0AE50B5407FB8A95
:100770000C85110D85120E85130F740B780C120D5C
:100780002AA90C120A2F7402120D10E0F9AA08AB64
:10079000091209F38A088B09800C751093751120D2
:1007A0007512007513009005A37810120D6E900558
:1007B000A77810120CD6508CE4F91209F3E4F91260
:1007C00009F37402120DD0EAF0A3EBF0750801757D
:1007D00009007808120D947402120DD0AC82AD831A
:1007E0007A247B08120AB47402120D10750804787A
:1007F00008120D947402120DD0AC82AD837A907BF6
:10080000007904120A2F7402120D101209E5120D5C
:10081000D0E0687003A3E06970178518828519839A
:10082000E0F47003A3E0F46008E849600479018013
:100830000279007405120D107F0C020C9674F312ED
:100840000B3174FC120D43900306E0FAA3E0F8E4C8
:10085000C8F9EA2400FEE93408FF750A018809880E
:10086000088E0C8F0D7409780C120DB4A90CEEF5DE
:100870000CEF5401F50D900383E014600914602C13
:10088000146069020985EA450D7003120B1A750C94
:1008900010750D00780C120D947C087D03EEFAEFB4
:1008A000FB120AB47402120D10020985E9C394798F
:1008B0004006750901020985750A40750B00780A22
:1008C000120D947C097D037402780C120D81AA0C20
:1008D000AB0D120A2F7402120D10900307E0A3F063
:1008E000900306E0A3F0750A43020985750C0475B0
:1008F0000D00780C120D947402120DD0AC82AD83F1
:100900007A907B007904120A2F7402120D1074027F
:10091000120DD0E0F8A3E0F9851882851983E0680C
:100920007003A3E06960471209E5120DD0E8F0A357
:10093000E9F0750C01780C120D947402120DD0AC14
:1009400082AD837A247B08120AB47402120D1075EA
:100950000C04780C120D947402120DD0AC82AD838D
:100960007A907B007904120A2F7402120D1012097A
:10097000E5120DD0E0687003A3E069700575080109
:100980008003750907900305E0D2E7F0E509A3F0BD
:10099000E50A900303F0744D650AF5097404250A0D
:1009A000FB7A038004E062090AEAF83395E0120951
:1009B000D9EAC39BA2D265D03340EAE509F07401BD
:1009C0002AFC3395E0FD7A027B0312056FA90874B7
:1009D00004120D107F06020C96F9740228F5827439
:1009E0000339F58322851882851983E0F8A3E0F99D
:1009F000740222C008C0097C088A088B09740F7829
:100A000008120DB4EAC333FAEB33FBE9A2E7500452
:100A100074014AFAE508A2E0500874216AFA7410D9
:100A20006BFBE9C333F91CEC70CFD009D0082274FA
:100A3000F5120B318908740F5508F50A750B00740F
:100A40000B780A120D81EA2400F8EB3480F9E824CF
:100A500000E9350BF9E5C7F509A2AFE433F50AC2A1
:100A6000AFE508C4540FFAE5C754F84AF5C7740B4C
:100A7000120DD0E0FAA3E0FB801C88828983E08C11
:100A8000828D83F088828983A3A882A9838C828D3A
:100A900083A3AC82AD83EAFEEBFFEE24FF1AEF34B2
:100AA000FFFBEE4F70D48509C7E50AA2E092AF7F45
:100AB00004020C9674F7120B31ED900388F0ECA34E
:100AC000F0A37462F0A37473F0A3E0541FF07409F0
:100AD000120DD0E0F508A3E0F509E508333354FC26
:100AE00090038DF074067808120DB4E50890038C1D
:100AF000F090038E7412F0A37442F075D1FE75D697
:100B000001EA906271F0EBA3F0906270E0D2E1F044
:100B1000E0A2E740FB7F02020C96C082C083E9C3DB
:100B200033906272F0906270E0D2E0F0D083D082B5
:100B3000222518C582C0E0E51934FFC583C0E0E571
:100B400018C3958224F910AF08858319858218800F
:100B500008858319858218D2AFCEF0A3E520F0A3D3
:100B60007808E608F0A3DEFAEFF0A3E58124FBF8AD
:100B7000E608F0A3E608F0A30808E608F0A3E608F4
:100B8000F0A315811581D0E0FED0E0F81581158124
:100B9000E8C0E0EEC0E022C0D02518C582C0E0E584
:100BA0001934FFC583C0E0E518C3958224F310AF64
:100BB000088583198582188008858319858218D253
:100BC000AFC8F0A3E9F0A3EAF0A3EBF0A37908E73C
:100BD00009F0A3D8FAECF0A3EDF0A3EEF0A3EFF048
:100BE000A3D0E0F0A3D0E0F0A3D0E0F0A3E520F0A4
:100BF000A3E5F0F0A322851983851882E0C0E0A365
:100C0000E0F9A3E0FAA3E0FBA37808E0F608A3DF8D
:100C1000FAE0FCA3E0FDA3E0FEA3E0FFA3E0C0E058
:100C2000A3E0C0E0A3E0F5D0A3E0F520A3E0A3F5A6
:100C3000F010AF088583198582188008858319858F
:100C40008218D2AFD082D083D0E0F8D0E032120D3B
:100C5000DFB90003020C90E4900302789E790380D0
:100C600002F0A3D8FCD9FA90059FAA82AB8390002A
:100C70008E781579018015E493A3AC82AD838A82C6
:100C80008B83F0A3AA82AB838C828D83D8E9D9E7CA
:100C9000120369120DDA851983851882E0A3FEE03C
:100CA000A3F5207808E0A3F608DFFAE0A3FFE0A3AD
:100CB000C0E0E0A3C0E0E0A3C0E0E0A3C0E010AF6C
:100CC000088582188583198008858218858319D242
:100CD000AFD083D08222C008C3E096F50808A3E015
:100CE00096420808A3E096420808A3E096450870DB
:100CF00001D3D008222518F58210AF08F51840025C
:100D000015198008F51840021519D2AF85198322EC
:100D1000C0D0251810AF08F518500205198008F545
:100D20001850020519D2AFD0D0226016080808C6A4
:100D3000C313C618C613C618C613C618C613C6D51D
:100D4000E0EA22251810AF08F518400215198008AE
:100D5000F51840021519D2AF22E066701008A3E022
:100D600066700A08A3E066700408A3E06622E02625
:100D7000F608A3E036F608A3E036F608A3E036F658
:100D800022700422600D18C6C333C608C633C6D508
:100D9000E0F4182274028000C0E0F404120CF5D0D4
:100DA000E0120DC32275D00075813F7518027519C8
:100DB00003020C4E600C08C6C313C618C613C6D572
:100DC000E0F422CAC0E0E6F0A308DAFAD0E0FA22A2
:100DD0002518F582E43519F5832200000080FB799F
:100DE0000122FFFFFFFFFFFFFFFFFFFFFFFFFFFFEE
:100DF000FFFFFFFFFFFFFFFFFFFFFFFFFFFFFFFF03
:100E0000FFFFFFFFFFFFFFFFFFFFFFFFFFFFFFFFF2
:100E1000FFFFFFFFFFFFFFFFFFFFFFFFFFFFFFFFE2
:100E2000FFFFFFFFFFFFFFFFFFFFFFFFFFFFFFFFD2
:10200000022ABF0221EFFFFFFFFFFFFFFFFFFFFFDD
:10201000FFFFFFFFFFFFFFFFFFFFFFFFFFFFFFFFD0
:10202000FFFFFFFFFFFFFFFFFFFFFF0227B2FFFFE2
:10203000FFFFFFFFFFFFFFFFFFFFFFFFFFFFFFFFB0
:10204000FFFFFF022655FFFFFFFFFFFFFFFFFFFF20
:10205000FFFFFF02212BFFFFFFFFFFFFFFFFFFFF3F
:10206000FFFFFFFFFFFFFFFFFFFFFF02278AFFFFCA
:10207000FFFFFFFFFFFFFFFFFFFFFFFFFFFFFFFF70
:10208000FFFFFF02218B01FFFFFFFFFFFFFFFFFFAD
:102090001020102001FF01010503010F10FEFFEFCA
:1020A00035EF35EF35EF3593348D34EF35E44A00B5
:1020B0000000007C4A00000000FF000000FF00015B
:1020C0000000953800000000E137B5392F382B3972
:1020D00000001D38000000000000000000000000AB
:1020E00000000000FF0101003A07000000E803B50E
:1020F0000703E80364006400B8010202000800005E
:102100000502070401051E02051E020A0A0103B8A2
:102110000B02803E0102FEFFE8030A050001FFFFFB
:102120000A01E0965118000206FFFFC0E074F212A7
:102130002473A2AFE433FED2AFE5A7FFE5A1F50813
:102140005F5410600612430375A1EFE5085F540861
:10215000600812430975A1F78024E508A2E092F017
:10216000EFA2E082F05017906198E0F8900D1FE028
:10217000C398A2D265D0335002E8F075A1FE751A5B
:1021800000EEA2E092AF7F010224D2C0E074F2120E
:102190002473A2AFE433FED2AF9061A4E0F8759B44
:1021A00000E59158540860087591F712435D80234B
:1021B000E59158541060087591EF1243638014E55F
:1021C00091A2E092F0E8A2E082F05007E0C2E0F0D5
:1021D0001244B39061A3E0F8E5E9585404600E128C
:1021E000448975E9FB906193E0A2E640F2808FC0DC
:1021F000E074F2122473A2AFE433FED2AF9061A573
:10220000E0F8E5BF585404600675BFFB1244CB02EA
:10221000217EC3E498F8E499F91222538026C3E49E
:102220009AFAE49BFBE920E7E9122253E498F8E4E8
:1022300099F922C3E498F8E499F9122253E498F842
:10224000E499F9C3E49AFAE49BFB22EB20E7CFE997
:1022500020E7E0B90010BB0008E88AF084F8AAF093
:1022600022E4FBC8FA22EB70227B10C833C8C933C2
:10227000C9335007C39AC3DBF280069A50012ADBA8
:10228000EAC833F4C8C933F4C9FA2275F008E4C8BF
:1022900033C8C933C933C99AC99B5004C92AC93B39
:1022A000D5F0ECFBC833F4C8E4C9FA22080808EA00
:1022B000C0E0EBC0E086F0E7A4FA180986F0E7A4D6
:1022C0002AFA180986F0E7A42AFA180986F0E7A482
:1022D0002AFA1986F0E7A4FBE5F02AFA190886F035
:1022E000E7A42BFBE5F03AFA190886F0E7A42BFBEC
:1022F000E5F03AFA18180986F0E7A4C5F02BFBE4DC
:102300003AFA1908E7C5F0C6A426F6E5F03BFBE467
:102310003AFA1886F0E7A4F6E5F00826F6E43B085A
:10232000F6E43A08F6D0E0FBD0E0FA22E4CFC0E0D1
:10233000E4CEC0E0E4CDC0E0E4CCC0E075F020C362
:10234000E633F608E633F608E633F608E633F61821
:102350001818EC33FCED33FDEE33FEEF33FFC3EC26
:102360009709ED9709EE9709EF97191919400FFF93
:10237000EC97FC09ED97FD09EE97FE191906D5F0CB
:10238000BEECF709EDF709EEF709EFF7191919D0C7
:10239000E0FCD0E0FDD0E0FED0E0FF222518C582B1
:1023A000C0E0E51934FFC583C0E0E518C395822479
:1023B000F810AF08858319858218800885831985F0
:1023C0008218D2AFCEF0A3E520F0A37808E608F09B
:1023D000A3DEFAEFF0A3E58124FAF8E608F0A3E61D
:1023E00008F0A3E608F0A30808E608F0A3E608F062
:1023F000A315811581D0E0FED0E0F8158115811577
:1024000081E8C0E0EEC0E022122B21B900030224D3
:102410005DE49004D1789879108002F0A3D8FCD9BB
:10242000FA781A9020867A01BA00028007E493A312
:10243000F608DAF9901468AA82AB83902094789811
:1024400079018015E493A3AC82AD838A828B83F0FB
:10245000A3AA82AB838C828D83D8E9D9E77582A148
:1024600075839C74061228767582B575834874004E
:10247000122876C0D02518C582C0E0E51934FFC502
:1024800083C0E0E518C3958224F310AF0885831953
:102490008582188008858319858218D2AFC8F0A379
:1024A000E9F0A3EAF0A3EBF0A37908E709F0A3D8D9
:1024B000FAECF0A3EDF0A3EEF0A3EFF0A3D0E0F080
:1024C000A3D0E0F0A3D0E0F0A3E520F0A3E5F0F086
:1024D000A322851983851882E0C0E0A3E0F9A3E078
:1024E000FAA3E0FBA37808E0F608A3DFFAE0FCA378
:1024F000E0FDA3E0FEA3E0FFA3E0C0E0A3E0C0E0B6
:10250000A3E0F5D0A3E0F520A3E0A3F5F010AF0819
:102510008583198582188008858319858218D2AF32
:10252000D082D083D0E0F8D0E032E47375F0108E22
:10253000218F22858226858325851882851983E04F
:10254000CEA3E0CF852682852583EBC9EAC8EDCBF3
:10255000ECCAC3E833C8E933C9EA33CAEB33CBC3A7
:10256000EA9EF524EB9FF523B35004AB23AA24EC99
:1025700033CCED33CDD5F0DAAE21AF2222D083D0EB
:1025800082ECC0E0EDC0E0E493A3FCE493A3FDED96
:102590004C600D122698EC24FFFCED34FFFD80EF1B
:1025A000E493A3FCE493A3FDED4C600D122735ECFE
:1025B00024FFFCED34FFFD80EFD0E0FDD0E0FCE433
:1025C00093A3C0E0E493C0E022851983851882E0DC
:1025D000A3FEE0A3F5207808E0A3F608DFFAE0A365
:1025E000FFE0A3C0E0E0A3C0E0E0A3C0E0E0A3C040
:1025F000E0E0A3C0E010AF08858218858319800849
:10260000858218858319D2AFD083D08202287CD0EE
:1026100083D082E9C0E0E493A3C386F0C5F095F0CF
:10262000F908E493A386F0C5F095F0700BE493A34A
:10263000C3994005E9048002A3E475F002A4258251
:10264000F582E5F03583F583D0E0F9E493A3C0E0AB
:10265000E493C0E022C0E074F2122473A2AFE4332A
:10266000FED2AFC2C0901360E0700BE5D1A2E4507F
:102670001D1242618018E5D1A2E3500675D1F71210
:102680004237E5D1A2E4500675D1EF12423DEEA2E9
:10269000E092AF7F010224D2C0E0C3E493960874B5
:1026A00001939618400FE4936670080874019366CE
:1026B0001870007019A3A3C3E4939608740193964D
:1026C00018A3A3400DD0E0D0E0D0E00225B9A3A329
:1026D000A3A3A3A3D0E0227404800474028000CCDE
:1026E000C0E0EDC0E0E518C39CCCAD1950011D1051
:1026F000AF068C188D1980068C188D19D2AF122751
:10270000F8D0E0FDD0E0FC2274028000CCC0E0ED07
:10271000C0E0E518C39CCCAD1950011D10AF068C6C
:10272000188D1980068C188D19D2AF1227D6D0E0DB
:10273000FDD0E0FC22C0E0C0F088F0E493667008B1
:102740000874019366187000A8F0A3A3700BD0F072
:10275000D0E0D0E0D0E00225B9A3A3D0F0D0E022B1
:10276000D083D082CCC0E0E493A360061228381452
:1027700070FAE493A3600612292F1470FAD0E0FCDB
:10278000E493A3C0E0E493C0E022C0E074F212241A
:1027900073758900C2C5901360E0700E7A007B10DB
:1027A0009006B3E0F9123B3580031247417F0102E6
:1027B00024D2C0E0C0D0E8C0E0E9C0E0E5A8D2AFD4
:1027C000C2C7751A00A2E7A2E792AFD0E0F9D0E045
:1027D000F8D0D0D0E032CAC0E0E493A3C582CCC523
:1027E00082C583CDC583F0A3C582CCC582C583CD08
:1027F000C583DAE5D0E0CA22CAC0E0E0A3C582CC36
:10280000C582C583CDC583F0A3C582CCC582C583EF
:10281000CDC583DAE6D0E0CA22C008C3E096F50849
:1028200008A3E096420808A3E096420808A3E096B1
:1028300045087001D3D00822C0E0E493A3D39C5094
:1028400010E493A3C39C400AD0E0D0E0D0E002277C
:102850007DA3A3A3D0E022700908080822601618FF
:102860001818C6C333C608C633C608C633C608C65A
:1028700033C6D5E0EA22C09FF59FE473D09F22D0F3
:1028800083D082C09FE493C0E0740193C0E07402DF
:1028900093F59F222518F58210AF08F51840021510
:1028A000198008F51840021519D2AF8519832274D2
:1028B00004800A74038006740280027401C0E0F48C
:1028C00004122894D0E0122AFC22BB0102E722C0A5
:1028D00082C08389828A83BB0003E08002E493D0B4
:1028E00083D08222C0D0251810AF08F518500205F9
:1028F000198008F51850020519D2AFD0D022601601
:10290000080808C6C313C618C613C618C613C618C7
:10291000C613C6D5E0EA22C3E0C696F608A3E0C611
:1029200096F608A3E0C696F608A3E0C696F622C07F
:10293000E0E493A36C7009D0E0D0E0D0E002277D02
:10294000A3A3D0E022251810AF08F51840021519EE
:102950008008F51840021519D2AF22C3E09608A3EB
:10296000E09608A3E09608A3E096A2D265D03322B1
:10297000E066701008A3E066700A08A3E0667004C1
:1029800008A3E06622E76670100809E766700A0887
:1029900009E76670040809E76622C3E096F008A319
:1029A000E096F008A3E096F008A3E096F022C3E6D4
:1029B00097F60809E697F60809E697F60809E697F4
:1029C000F622C3E4939608740193960874029396D2
:1029D000087403939622E627F60809E637F60809F5
:1029E000E637F60809E637F622700422600D18C6AD
:1029F000C333C608C633C6D5E0F41822E647F60846
:102A000009E647F60809E647F60809E647F622E62A
:102A100057F60809E657F60809E657F60809E65793
:102A2000F622E056F608A3E056F608A3E056F608AC
:102A3000A3E056F622E056F008A3E056F008A3E023
:102A400056F008A3E056F022E026F608A3E036F69A
:102A500008A3E036F608A3E036F622E026F008A345
:102A6000E036F008A3E036F008A3E036F022E4C335
:102A700096F608E496F608E496F608E496F62260E0
:102A80000D08C6A2E713C618C613C6D5E0F322C6C2
:102A9000F4C608C6F4C608C6F4C608C6F4C622C3FF
:102AA000E7960809E7960809E7960809E79622C31A
:102AB000E09608A3E09608A3E09608A3E0962275A6
:102AC000D0007581407518D175190400022408E002
:102AD000F608A3E0F608A3E0F608A3E0F622600CEF
:102AE00008C6C313C618C613C6D5E0F422E6F0081C
:102AF000A3E6F008A3E6F008A3E6F022CAC0E0E6E9
:102B0000F0A308DAFAD0E0FA22E0FAA3E0FBA3E0AF
:102B1000FCA3E0FD22EAF0A3EBF0A3ECF0A3EDF0C0
:102B200022E5C754F84401F5C77901222518F5823A
:102B3000E43519F58322C2AF75D69F020000221238
:102B4000287F44AA0212287FD8AA0212287FE0AB6D
:102B50000212287FF4AB0212287F08AC0212287FF1
:102B60001CAC0212287F40AC0212287F6CAC02120F
:102B7000287F9CAC0212287F43AE0212287F04AF4C
:102B80000212287FABAF0212287F01B00212287F09
:102B900065B00212287FA3B00212287FCDB00212C6
:102BA000287F4BB10212287FA4B10212287F05B200
:102BB0000212287F74B40212287F3EB60212287FC8
:102BC00002B70212287F4CB80212287F2FBB0212D4
:102BD000287F28BE0212287F37BE0212287FC8BE77
:102BE0000212287F85BF0212287FCDBF0212287FE4
:102BF00016C00212287F53C00212287FB7C00212EB
:102C0000287F23C10212287F3FC10212287F73C18F
:102C10000212287FBEC10212287FBBC20212287F87
:102C200072C30212287F01C60212287F46C7021211
:102C3000287FF3C70212287F83C80212287FA7C803
:102C40000212287F59C90212287F26CA0212287F41
:102C5000EFCB0212287F7ECC0212287FBCCC02125E
:102C6000287F33CD0212287F92CE0212287F3FCFD9
:102C70000212287F80CF0212287F98CF0212287F6D
:102C80004AD00212287F10D30212287FA4D4021245
:102C9000287FC8D40212287FE6D40212287FCFD51D
:102CA0000212287F8CD90212287F00800312287F0D
:102CB00012800312287F6A800312287FD0800312BB
:102CC000287F5A810312287F1D820312287F658284
:102CD0000312287F91820312287FD1820312287F5A
:102CE00038830312287FAD830312287FC683031223
:102CF000287FEC830312287F0B840312287F4984EA
:102D00000312287F9E840312287FC5840312287F24
:102D100022850312287FE9850312287F8286031209
:102D2000287F05870312287FCD870312287F168806
:102D30000312287F32880312287F64880312287FB9
:102D4000128A0312287FDE8A0312287F038B031264
:102D5000287F308B0312287F5B8B0312287F6A8BBE
:102D60000312287F758B0312287F208C0312287F83
:102D7000878C0312287F0A8D0312287F128D03127D
:102D8000287F9A8D0312287F028E0312287F418E9E
:102D90000312287F82900312287F69910312287FF3
:102DA0009C910312287F5E920312287F1A930312CC
:102DB000287F4C930312287FB2930312287FD79366
:102DC0000312287FE8930312287F5B940312287F65
:102DD000F3940312287F4C950312287F2A9603123E
:102DE000287F4F960312287F5A970312287F7897DF
:102DF0000312287F8B970312287FE3970312287F03
:102E0000F2970312287F7A980312287FBB98031247
:102E1000287FC8980312287FD1980312287FDC9A54
:102E20000312287F3A9C0312287F4A9C0312287FB2
:102E3000909D0312287FF79D0312287F339F031272
:102E4000287F759F0312287FB19F0312287FD9A086
:102E50000312287F4DA30312287F61A30312287F4A
:102E60006BA30312287F75A30312287F7FA303128D
:102E7000287F89A30312287FA2A30312287FACA373
:102E80000312287FB6A30312287FC0A30312287F52
:102E9000CAA30312287FF2A30312287F40A40312BF
:102EA000287F4AA40312287F55A40312287F79A4FF
:102EB0000312287F9DA40312287F0DA50312287FEB
:102EC00059A50312287F75A50312287FDBA50312DD
:102ED000287F22A60312287F6EA60312287FD9A678
:102EE0000312287F89A70312287F5CA90312287F79
:102EF000CAA90312287F07AB0312287F2DAB031248
:102F0000287FA0AC0312287F43B00312287F3DB274
:102F10000312287F1DB40312287FB6B40312287F42
:102F2000EAB60312287F8DB70312287FDFB703129A
:102F3000287F63B80312287F7BB80312287FB8BAB2
:102F40000312287FA2BB0312287F01BD0312287F32
:102F500060BD0312287FF9BD0312287FCBBF031287
:102F6000287F0DC10312287F2CC10312287F81C145
:102F70000312287F82C20312287FAAC20312287F6D
:102F80000DC30312287F05C40312287F81C40312D6
:102F9000287FABC50312287F16C60312287F54C7AB
:102FA0000312287FB6C90312287FE7C90312287FBE
:102FB00092CC0312287FE4CC0312287FA2CD031207
:102FC000287F5ECE0312287FC2CE0312287F83CFD4
:102FD0000312287F25D00312287F8AD00312287F6E
:102FE000C9D00312287FFAD00312287F64D20312BB
:102FF000287F0A810112287F4C810112287F4F848B
:103000000112287F8E840112287FDA840112287F22
:10301000E6850112287F4A860112287F8A860112DE
:10302000287FD8870112287F088B0112287F558CB2
:103030000112287FB3970112287F49980112287F37
:10304000469B0112287F829C0112287FE59C011279
:10305000287F139E0112287F679F0112287F50A0AE
:103060000112287FD0A20112287FCDA40112287F4F
:103070005EA50112287F3AA60112287FD2A601126E
:10308000287FDCA60112287F0AA70112287FBFA78C
:103090000112287F9DA80112287F74A90112287FA0
:1030A00001AA0112287F17AA0112287F78AA01120B
:1030B000287FA1AA0112287FCEAA0112287FFFAC87
:1030C0000112287FDEAD0112287F22AE0112287F77
:1030D0008DAE0112287F4CAF0112287F7EAF011206
:1030E000287FC5AF0112287FF8AF0112287F4DB0AD
:1030F0000112287FA2B00112287FA7B00112287FF9
:10310000FBB00112287F43B10112287F47B20112A0
:10311000287FACB20112287F08B30112287F79B34F
:103120000112287F6EB60112287F75B70112287F21
:10313000F8B80112287FE7BB0112287FA7BC011253
:10314000287FF0BE0112287F93BF0112287FD1BFD4
:103150000112287FA2C10112287FB5C10112287F68
:10316000BEC10112287FC7C10112287FDCC1011234
:10317000287FFBC10112287F2BC40112287F80C445
:103180000112287F8AC40112287F94C40112287F6B
:10319000F0C40112287F45C50112287F6DC60112B7
:1031A000287FD5C60112287F37C80112287F88C81A
:1031B0000112287F34C90112287F52CA0112287FC8
:1031C000FDCA0112287F17CC0112287F3ECD0112C3
:1031D000287F40CE0112287F57CE0112287F94CE3F
:1031E0000112287F9ECE0112287FA8CE0112287FCF
:1031F000B3CE0112287FD1CE0112287F13CF011246
:10320000287F70CF0112287F95CF0112287FAFCF82
:103210000112287F2ED00112287F6BD00112287F47
:103220009DD10112287FF0D10112287F0AD301120B
:10323000287F40D30112287FD4D30112287F4FD496
:103240000112287FC3D50112287FF6D60112287FEC
:10325000A8D70112287F6FD80112287F14D9011234
:10326000287F82D90112287F37DA0112287F8BDA72
:103270000112287FF9DA0112287FC4DB0112287FAE
:10328000E7DB0112287FB1DC0112287FD5DC0112B7
:10329000287FF7DC0112287F58DD0112287F98DF94
:1032A0000112287F82E00112287F2DE10112287F80
:1032B00052E30112287FA0E30112287FE3E3011209
:1032C000287F3BE40112287F99E40112287FC6E49D
:1032D0000112287FEAE40112287F1DE50112287FF0
:1032E00047E50112287F8EE50112287FEDE50112E6
:1032F000287F49E60112287F46E70112287FAEE8C1
:103300000112287FECE80112287F15E90112287FBD
:10331000AFE90112287FF9E90112287F1DEA0112A5
:10332000287F72EA0112287F8DEA0112287F44EB80
:103330000112287F7DEB0112287FD5EB0112287F37
:103340002BEC0112287F2CEF0112287F5FEF011276
:10335000287F1DF00112287F1AF10112287FA3F1A6
:103360000112287FBAA00512287FF2A00512287F3B
:1033700013A10512287F55A10512287FB7A10512B8
:10338000287FC1A10512287FD1A10512287F08A29C
:103390000512287FCAA50512287F8BA70512287F52
:1033A000ADA90512287F6CAA0512287F39AB05123A
:1033B000287F56800412287F99800412287F598123
:1033C0000412287F78820412287F9F830412287FAA
:1033D0005A850412287FCD850412287F988604120E
:1033E000287FA9870412287F10880412287F4C8820
:1033F0000412287FAB880412287FE4880412287FF7
:1034000039890412287FC2890412287F678A04122E
:10341000287F388B0412287F128C0412287F9C8C02
:103420000412287FC28C0412287FEF8C0412287F9C
:10343000298D0412287F298E0412287F398E0412C8
:10344000287F898E0412287F968E0412287FAB8EE7
:103450000412287FB48E0412287F0E8F0412287F56
:10346000708F0412287FBA8F0412287FD58F041220
:10347000287FFC8F0412287F19900412287F259042
:103480000412287FCE910412287FE7910412287F2E
:103490006D920412287F80920412287F9292041267
:1034A000287F3E930412287FA9940412287F6096F7
:1034B0000412287FE6960412287FE8960412287FDB
:1034C00050970412287F6E970412287F04980412E4
:1034D000287F41980412287F44980412287F6F980F
:1034E0000412287FCC980412287FF0980412287FB9
:1034F0000E990412287F5C990412287FB59A041251
:10350000287F0D9B0412287F5A9B0412287FE19B81
:103510000412287F099C0412287F3F9C0412287FF4
:103520004E9C0412287FAC9C0412287F1D9D04121F
:10353000287F5A9D0412287F959D0412287FC09DE4
:103540000412287FDA9D0412287FF49D0412287F3C
:10355000C89E0412287FD29E0412287F0E9F041258
:10356000287F1E9F0412287F279F0412287F879F91
:103570000412287F9B9F0412287FA5A00412287F95
:10358000B8A00412287FCFA00412287FE4A0041260
:10359000287F89A10412287F05A20412287FA8A2EF
:1035A0000412287FB4A20412287FFAA30412287FF1
:1035B00016A40412287F6EA40412287FAAA4041261
:1035C000287FC4A40412287F26A50412287FC5A53D
:1035D0000412287F10A60412287F5CA80412287FFA
:1035E00003A90412287F9FA90412287FC5AB0412E7
:1035F000287FDDAB0412287FE0AB0412287FECAB00
:103600000412287F00AC0412287F08AC0412287F23
:1036100048AC0412287F41AD0412287FC4AD0412C7
:10362000287F46AE0412287FC0AE0412287F92AFD6
:103630000412287FB4AF0412287F50B00412287FF0
:103640005CB00412287F87B00412287F8AB004126D
:10365000287FB7B00412287FCCB00412287F3BB17A
:103660000412287F9EB20412287FB5B30412287F6B
:1036700040B40412287F7DB50412287F4FB604128F
:10368000287F80B60412287FACB60412287FB5B616
:103690000412287FE4B60412287F94B70412287F0E
:1036A0004EB80412287FC2B80412287F5EB90412F3
:1036B000287FE6B90412287F1CBA0412287F61BA59
:1036C0000412287F96BA0412287FE4F10112287FA1
:1036D00033F20112287F6BF20112287FD7F2011218
:1036E000287F27F30112287FABF30112287FF3F51F
:1036F0000112287FE4F70112287F93FB0112287F33
:1037000037FC0112287F72FC0112287F90FC011205
:10371000287FF0FC0112287F18FD0112287F48FD48
:103720000112287F79FD0112287FB0FD0112287F48
:1037300001FE0112287F4DFE0112287FE7AB051222
:10374000287F63AC0512287F89AC0512287FC1ACA5
:103750000512287F1BAE0512287F37AE0512287F81
:103760007CAE0512287F0BAF0512287F64AF0512CF
:10377000287F44B00512287F14B10512287F5BB161
:103780000512287FBCB10512287F4CB20512287F94
:10379000A2B20512287FEBB20512287F8AB3051268
:1037A000287F88B40512287FCCB40512287F1AB56B
:1037B0000512287F3CB50512287FE3B50512287F46
:1037C00090B60512287F01FA0512287F66FA0512C5
:1037D000287F12FB0512287F4BFB0512287FABF0D8
:1037E0000312287F54F10312287F6EF20312287F00
:1037F000F1F20312287F29F30312287FF6F5031252
:10380000287FA9F70312287F64F80312287FD5F8D0
:103810000312287FF5FB0312287F8BFD0312287FFC
:103820009F9E0612287FC79E0612287FBB9F061206
:10383000287FD0DC0512287F55DD0512287F6CDD3E
:103840000512287FE1DD0512287F3FDE0512287F63
:1038500068DE0512287FE5DE0512287F88DF051265
:10386000287FEDDF0512287F51E00512287F72E0E6
:103870000512287FA3E00512287FC1E00512287FEA
:10388000E8E00512287F18E10512287F5EE10512A5
:10389000287FC4E10512287FC7940512287F7695FA
:1038A0000512287F96950512287FB6950512287F68
:1038B000CA950512287F2A960512287F5A96051266
:1038C000287FD7970512287F80980512287F629954
:1038D0000512287FB1990512287FF5990512287FD6
:1038E0005A9A0512287FC69A0512287FE79A051270
:1038F000287F6A9B0512287F1F9D0512287F8F9DB8
:103900000512287F359F0512287F06A00512287F03
:103910004CA00512287FA6A00512287F0B96061240
:10392000287F15960612287F36960612287FB4F156
:103930000412287FC9F30412287FFFF40412287FA1
:10394000E6F60412287F5DA30212287F0DF8041208
:10395000287F4DF80412287F97F80412287F56F923
:103960000412287FC9F90412287FCBF90412287F9A
:10397000CDF90412287FCFF90412287FECF9041244
:10398000287F0CFA0412287F36FA0412287F52FA94
:103990000412287FD6FA0412287F28FB0412287FFD
:1039A000A3FB0412287FBFFC0412287F75A9021212
:1039B000287FFEBA0412287F24BB0412287F99BEF8
:1039C0000412287FF5BE0412287F49BF0412287F05
:1039D0006EBF0412287F8FBF0412287FD9BF041244
:1039E000287F11C00412287F30C10412287F51C1E2
:1039F0000412287F80C10412287FC3C10412287FCB
:103A000056C20412287F72C20412287FACC204126C
:103A1000287F04C40412287F86C40412287F7CC532
:103A20000412287F57C60412287F89C60412287FF3
:103A3000DCC60412287F40C70412287FA6C70412E0
:103A4000287F0BC80412287F7CC80412287F8CC9E9
:103A50000412287F97CA0412287F68CB0412287F9B
:103A60009DCB0412287FF4CB0412287FB0CC041223
:103A7000287FDECC0412287F69CE0412287FE1CE95
:103A80000412287F14CF0412287F50CF0412287FFD
:103A900069CF0412287F23D00412287F02D1041298
:103AA000287FB6D10412287F4BD20412287FDAD2A5
:103AB0000412287F5DD30412287F00D40412287FCB
:103AC000CBD40412287F9BD50412287F4FD6041232
:103AD000287F8DD00512287FD9D00512287F47D1A5
:103AE0000512287F68D10512287F7FD10512287F13
:103AF0002FD20512287F38D20512287F8BD20512CB
:103B0000287FB4D20512287FC9D20512287F32D36C
:103B10000512287FC3D30512287FFFD30512287F03
:103B20004BD40512287FB2D40512287FEBD405129E
:103B3000287F71D50512287FB0D50512287FF1D5D1
:103B40000512287F28D60512287F3AD60512287F2D
:103B50004CD60512287F7FD60512287FBFD60512C6
:103B6000287FE8D60512287F9FE70512287FE2E824
:103B70000512287F08E90512287F19E90512287F18
:103B800032EB0512287F51EB0512287F5898061258
:103B9000287F8E980612287FD9980612287F279AA8
:103BA0000612287F00800512287F4B810512287F8E
:103BB00087810512287F3E830512287F67830512BF
:103BC000287FFF850512287F3F860512287FE08722
:103BD0000512287F7A880512287FE2880512287F3F
:103BE0006F890512287FA7890512287FE7890512AA
:103BF000287F7A8B0512287F198D0512287F688F00
:103C00000512287F968F0512287FC28F0512287F04
:103C1000CB8F0512287F26900512287FBC900512B5
:103C2000287FE5930512287F6A940512287FC2A792
:103C30000612287FD8A70612287FE2A70612287F3F
:103C400032A80612287F5AF10512287F73F1051257
:103C5000287F18F20512287F58F20512287F71F28A
:103C60000512287FAAF20512287FF7F20512287F95
:103C700029F30512287F6BF30512287F6EF50512D4
:103C8000287FD8F50512287FCBFE0312287F20FF5E
:103C90000312287F79FF0312287F73A60612287F5C
:103CA000C6A60612287F08A70612287F18A70612A4
:103CB000287FD7D20312287F2FD30312287FE1D386
:103CC0000312287FF7D40312287FE3D50312287F3D
:103CD000BBD60312287FD0D60312287F1AD703122F
:103CE000287F70D70312287FDCD70312287FEFD7F5
:103CF0000312287F47D80312287FC0D80312287FD9
:103D00005EDB0312287F73DC0312287FCEDC0312F4
:103D1000287F22DD0312287F3EDF0312287FC8DFC1
:103D20000312287FAFE00312287FEFE00312287F01
:103D30000EE10312287F59E10312287F6FE103127D
:103D4000287F7CE10312287FB5E10312287FC7E1B9
:103D50000312287FC1E20312287FCCE20312287FDE
:103D600023E30312287F7BE30312287FD8E30312A7
:103D7000287F08E50312287F30E50312287FADE78E
:103D80000312287FD5E70312287F69E80312287FF2
:103D9000E5E80312287FB6E90312287FF2E903124F
:103DA000287F5EEA0312287F3DEB0312287F76EB23
:103DB0000312287F80EB0312287F83EB0312287FF6
:103DC0008DEB0312287FA9EB0312287F27EC031247
:103DD000287F60EC0312287F7CEC0312287FA8EC7C
:103DE0000312287FE3EC0312287FFEEC0312287FE6
:103DF00009ED0312287F4AED0312287F5DED0312BF
:103E0000287F78ED0312287FA8ED0312287FC5EDE7
:103E10000312287F0EEE0312287F56EE0312287F2E
:103E200059EF0312287F3BA30612287F4CA30612EA
:103E3000287FD5A30612287F07C90512287F56C9F7
:103E40000512287F13CB0512287FF1CC0512287F9D
:103E500035CD0512287F2ACE0512287F5BCF0512AB
:103E6000287F7DCF0512287FD9CF0512287F5DD00E
:103E70000512287F694E0012287F8B4E0012287F82
:103E8000DB4F0012287F24500012287F7950001247
:103E9000287FF5500012287F5E510012287FA5511F
:103EA0000012287F1E520012287FC9520012287F5C
:103EB00051530012287F92530012287FF2570012AC
:103EC000287F165A0012287F4F5A0012287F8E5AD8
:103ED0000012287FB55B0012287FC15E0012287F88
:103EE0006E5F0012287F2B610012287F756200121E
:103EF000287F79630012287FEC630012287FBB645F
:103F00000012287F44650012287F54650012287F24
:103F100008660012287F36670012287F9C6900120D
:103F2000287F4F6C0012287F2D6D0012287F5B6E5A
:103F30000012287FE0710012287FF0710012287FA4
:103F400027730012287FC6730012287FD1740012D5
:103F5000287F62750012287F91760012287F0F77E4
:103F60000012287FF1D60412287FAED70412287FD2
:103F70002BD80412287F3AD80412287FC3D8041201
:103F8000287F1AD90412287F25DA0412287F4EDAF6
:103F90000412287FF6DA0412287F49DB0412287FF6
:103FA000B4DB0412287F13DC0412287F18DF04120C
:103FB000287FC8DF0412287F37E00412287FD1E170
:103FC0000412287F89E20412287F26E30412287F46
:103FD00087E30412287F01E40412287F08E5041215
:103FE000287FF2E50412287F38E60412287F71E664
:103FF0000412287F85E60412287FCEE60412287F6B
:1040000052E70412287FC8E80412287F9CEA0412B1
:10401000287FD3EB0412287F12ED0412287F27EEAD
:104020000412287FD4EE0412287F45EF0412287F63
:104030003FF00412287FAAD90212287F19DA02124F
:10404000287F67DA0212287FB1DA0212287F0BDBA1
:104050000212287F63DB0212287FA4DB0212287F72
:1040600059DC0212287FAEDC0212287F37DE0212F2
:10407000287FABDE0212287FB0DF0212287FD6E055
:104080000212287F02E10212287F10E20212287F2A
:1040900021E20212287F37E20212287FBEE20212DA
:1040A000287FE1E20212287FB1E30212287FD9E3E0
:1040B0000212287FF0E30212287F0AE40212287F0E
:1040C00045E40212287F71E40212287F97E402126D
:1040D000287FAEE40212287F9FE50212287F01E6C6
:1040E0000212287F93E70212287F3DE80212287F00
:1040F00061E80212287FA0E80212287FC6E80212B7
:10410000287F0AEA0212287F39EA0212287FDEEAB3
:104110000212287F1AEB0212287F62EB0212287F1C
:1041200002EC0212287F6CEC0212287F50ED021282
:10413000287F33EF0212287F06F00212287F5AF1FF
:104140000212287FC6F20212287F69F40212287F29
:1041500077F40212287F87F50212287F34F60212C4
:10416000287F87F60212287F9CF60212287F93F799
:104170000212287FABF80212287F10F90212287F62
:10418000DA8A0612287F158B0612287FDE8B06122C
:10419000287F448C0612287FB58C0612287F498D13
:1041A0000612287F139D0612287F2EA40612287F50
:1041B0003FA40612287FDFA40612287FF6FF021212
:1041C000287FE07F0012287FF9A40612287F09A526
:1041D0000612287F1EA50612287FAFA50612287F8B
:1041E00037A20612287FBCA20612287F22A306123D
:1041F000287FF37F0012287FD9FF0512287FE9FF6F
:104200000512287FECFF0512287FEFFF0512287F9B
:10421000F87F0012287F8A9A0612287FAC9A06122D
:10422000287F1A9C0612287F9E9C0612287F9EA833
:104230000612287FA7A80612287FB0A80612287F9A
:10424000BEA80612287F16D70512287F82D705122E
:10425000287F49D80512287F55D90512287F40DBD1
:104260000512287F9BDB0512287FF0DB0512287FD3
:1042700001DC0512287F13DC0512287F7DDC051286
:10428000287F91DC0512287F9CDC0512287FAADCA0
:104290000512287FBCDC0512287FC5F90212287F91
:1042A000EDF90212287F0AFD0212287F5FFD02123B
:1042B000287FA1FD0212287FB5FD0212287FCEFDC6
:1042C0000212287FE6FE0212287FC2FF0212287F18
:1042D000DCFF0212287F07FE0512287F2BFE051245
:1042E000287F44FE0512287F83FE0512287FB6FE34
:1042F0000512287FE6FE0512287FF0FE0512287FB2
:1043000058FF0512287F5BFF0512287F65FF051205
:10431000287F72FF0512287FE98D0612287F118EF3
:104320000612287F528E0612287F708E0612287F72
:104330008B8E0612287FF38E0612287FFF8E0612C0
:10434000287F5E8F0612287F8A8F0612287F998F1A
:104350000612287FBD8F0612287F7E900612287FC6
:104360008B900612287F9C900612287F60A8061268
:10437000287F78A80612287FBCE20512287F29E44E
:104380000512287F2FE40512287F46E40512287FB6
:1043900067E40512287F7DE40512287F91E4051269
:1043A000287F10E50512287F75E50512287FFDE5B9
:1043B0000512287F76E60512287F4FE70512287F31
:1043C0005FE70512287F6EE70512287F29A70612EE
:1043D000287F4DA70612287F75A70612287F9DA764
:1043E0000612287F9C930612287FC3930612287F0B
:1043F000E4930612287F4B940612287FCA90061277
:10440000287FE3900612287FFA900612287F0391F6
:104410000612287F21910612287F2B910612287FF1
:1044200035910612287F48910612287FD6910612F0
:10443000287F45920612287F73920612287FC49225
:104440000612287F15930612287F30930612287FC4
:104450003A930612287F4B930612287F91930612F7
:10446000287F7CFF0512287FCDFF0512287FDDB64F
:104470000512287F09B70512287F27B70512287F64
:104480003AB70512287F55B70512287FB4B7051231
:10449000287FE2B70512287F00BC0512287F36BDB1
:1044A0000512287F68BD0512287FD0BD0512287F20
:1044B0004DBF0512287F75BF0512287F8ABF0512E0
:1044C000287F9ABF0512287FDABF0512287F26C0F1
:1044D0000512287F36C00512287FEC9F0612287F20
:1044E000FC9F0612287F1AA00612287F35A006120C
:1044F000287F5CA00612287F7DA00612287F97A047
:104500000612287FCFA00612287FF2A00612287F6D
:10451000BFA50612287F05A60612287FD88306129B
:10452000287FDF830612287F35850612287F658560
:104530000612287F95850612287FC8850612287FD7
:10454000DA850612287F16860612287F7C860612D8
:10455000287FB8860612287FFF860612287F2C87C0
:104560000612287F58870612287F42FE0412287FF1
:1045700079FE0412287FA1FF0412287FA4FF0412F1
:10458000287FA7FF0412287F24A10612287F96A166
:104590000612287FD4A10612287F15A20612287FB2
:1045A000AC770012287FB2770012287FFF770012C5
:1045B000287F237A0012287F5B7A0012287FC77A2F
:1045C0000012287F947B0012287FD97B0012287F5D
:1045D0000C7C0012287F967C0012287FAE7C001293
:1045E000287F517E0012287F497F0012287FA77FF5
:1045F0000012287F64C00512287F7AC00512287F28
:104600002CC10512287F27C20512287F1FC305125F
:10461000287FB7C30512287FF6C30512287F6EC412
:104620000512287FD0C40512287FE0C40512287F18
:1046300007C50512287F59C50512287FECC605124B
:10464000287FF1C60512287F13C70512287FE5F5DC
:104650000512287F03F60512287F47F60512287FEA
:104660006DF60512287F94F60512287FACF6051228
:10467000287FC4F60512287FDCF60512287F82F712
:104680000512287FC0F70512287FCAF70512287F78
:10469000E3F70512287FF1F80512287F0CF90512BF
:1046A000287F15F90512287F1EF90512287F27F9A2
:1046B0000512287F31F90512287F95F90512287F08
:1046C000A8EC0512287FCFF00512287FEBF0051229
:1046D000287FF0F00512287F00800612287F1680C0
:1046E0000612287FB5810612287F00820612287FD5
:1046F0006B820612287F78830612287FA783061212
:10470000287FB9830612287F85FE0112287FAD8796
:104710000612287F09880612287F49880612287FFA
:1047200051890612287F69890612287F7E89061220
:10473000287FAA890612287FE1890612287FF1893D
:104740000612287F078A0612287F2C8A0612287FE5
:10475000B78A0612287FD1FF0412287F24A30212F1
:10476000287FC8A20212287F96A20212287FFCA1ED
:104770000212287FABA00212287F2DA00212287FF0
:10478000639F0212287F4B9E0212287FEF9D021228
:10479000287FC99D0212287F059D0212287F489B11
:1047A0000212287FE49A0212287FB59A0212287F0B
:1047B000B29A0212287F85990212287F6C98021201
:1047C000287F21970212287F48960212287FC495DD
:1047D0000212287FCB940212287F28940212287F8D
:1047E0006F930212287F2D930212287F4DA7021289
:1047F000287F22A70212287FC7A60212287F32A58F
:104800000212287FB9A40212287F95920212287FF3
:1048100054920212287FF7910212287FC49102124B
:10482000287F7DA40212287F58910212287F2391AD
:104830000212287FC4900212287F93900212287FD0
:1048400052A40212287FA1FD0412287F478D021274
:10485000287F7C8C0212287F318C0212287F258CC5
:104860000212287F848B0212287F488A0212287F36
:1048700083870212287F0F850212287FCD840212BF
:10488000287F97830212287F2D830212287F5B8264
:104890000212287F17820212287F6C800212287F62
:1048A00000800212287F32800212287F2EA402127A
:1048B000287F3EF70400000080FB8F000100D7082E
:1048C00087000100D60824000200C614250002005B
:1048D000C81426000200CA1427000200CC142800C5
:1048E0000100CE1429000100CF1484000400D0146C
:1048F00086000100D4142A000100D5142B00010009
:10490000D6142C000100DA142D000800BE082E0079
:104910000100DB142F000100DC1430000100DD1465
:1049200031000100DE1432000100C608330001002E
:10493000C70834000100DF1436000100C808380041
:104940000100E01439000100D91483000200F214C0
:1049500063000100D30864000100D7146500010062
:10496000D8146D000100D40871000800B608660074
:104970000100F11443000100E21444000200E314BA
:1049800045000100E51446000200E6144700080057
:10499000CB0848000100E8144B000100E9140400B2
:1049A0000100F414A1000100F61437000100F51411
:1049B00088000100D8083C000100C9083D00010042
:1049C000E11449000200EA1467000100D5084D0017
:1049D0000200EC144E000100EE144F000200EF1430
:1049E0003E000100CA080000000000000001363649
:1049F000010100010201000103010001040106069A
:104A000005020000070100340801000F090401013C
:104A10000D0100FF0E08000017020000190100FF41
:104A20001A0100011B0100FE1C0100081D0200000C
:104A30001F01000120010001210200002301000FDD
:104A4000240200002601000127010008280200FFBF
:104A50002A0100072B0102402C0100002D0100015A
:104A60002E0100012F0100FF30010B1C3108000056
:104A70003A0100083B01000F3C01000101037103F2
:104A800001030103010301030103220302030103E4
:104A900010030003000300030003000300030003EE
:104AA000420300032403060300030003040312036C
:104AB0002503230325032303040304030003000346
:104AC00000034403000300032303000365032100E4
:104AD0003503810300030503000300030003000303
:104AE00025032303030071003001600011007000F2
:104AF0003102200350048000100061000000140007
:104B0000630073007200620043000000130006009F
:104B1000000000000400120000000000000000007F
:104B200004000400370037003C024400000000008D
:104B30000000000065000000350081000000050055
:104B400000008300000003047104020460041104E7
:104B5000700402040204010402041004610400044D
:104B60001404630473047204620443040004130411
:104B700006040004000404041204000400040004F9
:104B80000004510464000004000400044404000410
:104B9000000400040004650400043504810464007A
:104BA00005040004830400040101710101010101F5
:104BB00011010101310101010101800110016101B7
:104BC0003B001400630173017201620143010001A3
:104BD000130106013D01350004011201000100012D
:104BE0000001000104010401330133013C014401CF
:104BF000320136000001000165010001350081012C
:104C000000010501820183010001030271023001EC
:104C1000600211027002010202020202800210020E
:104C200061023A00410063027302720262024302AF
:104C30000002130238000002000204021202000205
:104C400000020002000204020402370037003C02A6
:104C5000440200023900000200026502000235022F
:104C60008102000205028202830200020000A33FCB
:104C70001300133F0100A33F0200953E03009B3E3B
:104C80000400A13E0500A73E0600B33E3000D73E1B
:104C90003100D13E3200E33E3300E93E3500EF3EC5
:104CA0003400F53E3600FB3E1100073F14000D3F77
:104CB0001500C53E1F00CB3EFFFF0000360001007F
:104CC000060000000F0000000000000000000000CF
:104CD000000003FFFF00000403FFFF0000FFFF0FC1
:104CE000F4010005C4040320000100000B000000D3
:104CF000000000000003010F00013730066D30088E
:104D000067300B853010A72F0A9730023D30055BC6
:104D1000300743300C1F300D2B3064AF2DFF0000E7
:104D200007ECFDFDFDECDCDCCCBCACAC9C9C8C7CD5
:104D30007C6C6C5C5C5C4C4C3C3C2C2C1C1C03EA7E
:104D4000F5E5D5D5C5B5A595958585757565655583
:104D500055454535352525151505F3342335F934E5
:104D6000FF341D3511350B3529352F353535413596
:104D70000535ED34E73400160F00000B150B02006B
:104D800002220F3300000E01030507090B0D0F006F
:104D9000020406080A0C0D5A6967426565416C6C8D
:104DA00069616E63653039EF3501360736B7340D0A
:104DB00036B134BD345B3679367F3661366D366751
:104DC00036F133EB3327342D342134D933003C40D2
:104DD000423A3F3F392F473000011916181616186E
:104DE000230300303017181921301B1D1F303030BD
:104DF00016181920231A1C1E3000034D4C4651185A
:104E00001A2505020C0E020B040B0A0708000F17E7
:104E1000353B35733647354D354336133619362510
:104E2000361F36020402010101010902FD33033479
:104E3000F733333400BE040AE803000009341B349E
:104E40000E003C007F0000000000E8033C0005105D
:104E50000C0A03030C0900040028FF1E1E09050CA0
:104E6000081504040110080803C082C0839007AD30
:104E7000E4F0A3F07CD57D047A227B0712459712DB
:104E80002DB512489D122DBB026CD074F312239CD9
:104E900074F512294589098A088B0AE9705F740242
:104EA0006508703E90073D7408F0750C00780C1290
:104EB00028BBECF50C780C1228BBEBF50C780C1227
:104EC00028BB9014D01226D79014D4E0F97CCB7D67
:104ED000089014F2126CE1122DDF74071228E4021C
:104EE0004F9B740165086003024F9E90073D740854
:104EF000F07B00AA0AA90A122E21024F9B740165B9
:104F0000096009740265096003024F9EEA60067435
:104F1000036508704090073D7402124FBF122B09C1
:104F2000122DCD900745E0A2E34010E9700D9007E7
:104F3000B1E004F064047003124FC9740365087093
:104F40005A9007B2E0F8740128F0E8C39405404B8A
:104F5000124FC98046740165087043740165099059
:104F6000073D702C740AF07401122B2CE4F07402CB
:104F7000122B2C7403F004122B2CE4F0A3F0A3F0FA
:104F8000A3F07408122B2CE4125F4F1230498025D5
:104F9000740A124FBF122B09122E03E9601790807A
:104FA000771226D77A017B0090073AE0F9123C5B32
:104FB00074041228E4740B1228E47F050225C9F05A
:104FC0009014D4E0F99014D0229014D0E4F0A3749B
:104FD000F8F0A374FFF0A37407F02274F612239C78
:104FE000E9FFEAFE7AD1F9123B118A828B83E582CE
:104FF0004583702A7A027B00123AF3EA4B700E7AEC
:10500000107B0090073AE0F9123B3580148A828BBE
:105010008374D1F0EFA3F0EEF9123AFF8003EFA30F
:10502000F002521974F712239C890890069C12759D
:10503000E780288E828F83A3A312626760168E8218
:105040008F83A3A3A3E0F5838882A3126267FAA9E2
:1050500008123E7D8E828F831276C9FFEE4F70D389
:105060009006B3E0FAA908123E7D12315790070C62
:105070001257A11231510274CC74F112239C890A87
:105080008C08750900750B00740F122B2C125F45EC
:105090007411122B2C1257CA804AE50E125146F594
:1050A0000CA3E0F50DE50BC333FEE433FFEA2EF568
:1050B00082EB3FF583E0650C7004A3E0650D701989
:1050C000E509C333FEE433FFEC2EF582ED3FF583B3
:1050D000E50CF0A3E50DF00509050EE50EC39508F6
:1050E00040B8050BE50BC3950A5005750E0080EB23
:1050F000A909026BFE74F412239C890B7D00740CC9
:10510000122B2C125F4580010DEDC3950B503275AB
:105110000A008002050AE50AC39C50ECEDC333FE89
:10512000E433FFEA2EF582EB3F125156F509E50A0A
:1051300012514665087004A3E0650970D7790180B3
:10514000027900026988C333FEE433FFE82EF5825A
:10515000E93FF583E022F583E0F508A3E02274F649
:1051600012239C1252007003A3E06D701775084360
:1051700075090778081228B7EEFA123FA9740212CF
:1051800028E4801F75080275098078081228B78CFA
:10519000088D0978081228B71251EC123FCD74041B
:1051A0001228E4807474F612239C1252007003A338
:1051B000E06D701775085075090778081228B7EE6A
:1051C000FA123FAF74021228E4801F7508037509B4
:1051D0008078081228B78C088D0978081228B71231
:1051E00051EC123FCD74041228E4802D1251FAEFD5
:1051F000125F64FD7C801265F522EE240EF582229A
:10520000126529FAA3E0F9EA2400FCE439FD9007CD
:105210000CE06C2274021228E47F020225C974F6A5
:1052200012239C74FE122945EAFEEBFF8518828545
:105230001983E4F0A3125A0E12653BE0FCA3E0FBD5
:10524000ECFA88828983A3A3E0F975090075080048
:10525000600574FF697005750882804390070CE053
:105260006A7003A3E06B7020851882851983AA8277
:10527000AB83123709E9F50985188285198312690C
:1052800093701C75088380179008D6E06004640151
:1052900070057508818008E06402700375088085D8
:1052A00018828519831257CAA908EEFAEFFB123F3C
:1052B000B5E5096011851882851983126993600626
:1052C000126CDB123B9B02521474F212239CEAFE16
:1052D000EBFF750A00750B0012533D123157EA655A
:1052E000087003EB6509701212371BE914F50A798F
:1052F000017A797B071237218003750B8012748E37
:10530000F50C780C1228BB750C79750D07780C120A
:1053100028B7780A1228BB78081228B7E50BF508D9
:1053200078081228BB1263E0F582EF12710B7A0540
:105330007B80123FBB74071228E4026126127613A9
:10534000125F49888289831276F8F508E439F509F5
:105350002274F612239CE9FE7F00802E8A828B83C2
:10536000125158F9E5082400E439F509EF33F8E45F
:1053700033F9EC28F582ED39F583E508F0A3E5096A
:10538000F0EA2402FAEB3400FB0FEFC39E40CD029B
:10539000521974E812239C74FB1229458A168B1744
:1053A000851882851983E4F07403122B2CE4F0A392
:1053B000F004122B2CE4F012731EF50AA3E0F50B97
:1053C000850A82F5831276F4FEE439FF850A828528
:1053D0000B83A3A3E0FA850A82850B83A3A3A3E032
:1053E000F9EAF508E439F509E50A2404F50AE50BBC
:1053F0003400F50BEEFAEFFB1231F3E964016016AD
:10540000EEFAEFFB1231F3E9703D90070CE06E709D
:1054100003A3E06F6031125BA51228BBE4F508F529
:105420000978081228B778081228BB90070C1226B2
:10543000DB75088078081228BB1257A7123FBB748F
:10544000071228E40257971257D08810602EC333F2
:10545000FAE433FB123B957403122B2C1257A17400
:1054600003122B2C12699360137403122B2C125706
:10547000C2A910123EAD8A0A8B0B80037510001270
:1054800057D0880F602AC333FAE433FB123B95747C
:1054900001122B2C1257A17401122B2C126993604C
:1054A0000F7401122B2C1257C2A90F123EAD8003AC
:1054B000750F0090069C805D850A82850B83A3A3EF
:1054C000A3A3A3A3A3A3E4F0A3F0AA0AAB0B8514A0
:1054D00082851583A3A31257E0126267F9123AFF7F
:1054E000851282851383E0C0E0851882851983E0E8
:1054F000F8747928F582740712760BD0E012699758
:1055000004F0E511A2E05007AA12AB13123B9B85F1
:105510001482851583E0F514A3E0F515E51445150F
:105520007003025704851482851583A3A312626752
:1055300060DD851482851583A3A3A3A3A3A3A3A3DE
:10554000E0A2E050CA851482851583A3A3A3A31209
:105550006993851482851583A3A3601F126267FA7D
:105560007901851482851583A3A3A3A312626C120B
:10557000252A8A128B13751101800F1257E0A3A3FD
:10558000E0F512A3E0F513751100E5124513700361
:10559000025502851282851383A3E065087004A377
:1055A000E06509600F74FF6508700474FF650960A9
:1055B00003025502851282851383A3A3A3A3A3A389
:1055C000A31226DB851282851383A3A3A3A3A3A31F
:1055D000E0FC7405122B2C126CE1A910123E8F74A2
:1055E000021228E4E9703C851282851383A3A3A3E9
:1055F000A3A3A3A3A3A3A31226DB851282851383EF
:10560000A3A3A3A3A3A3A3A3A3E0FC7403122B2C23
:10561000126CE1A90F123E8F74021228E4E97003A4
:10562000025502E50F2510C333240AFA7B00123A13
:10563000F38A0A8B0BEA450B70030254E08A828BD3
:105640008374D2F0851682851783A3A3125F458ADF
:10565000828B83A3A3125F688A828B83A3A3A3A3F5
:10566000E5101276FEE50FF0E510603DEA2405FA3C
:10567000EB3400FBE50A240AF8E50B3400F98A82D2
:105680008B83125F687403122B2C1257E51228B318
:10569000E510C333FCE433FD8A828B83126CE11284
:1056A0003ACF74031228E4800D8A828B83A3A3A3CC
:1056B000A3A3E4F0A3F0E50F70030254B8E510C310
:1056C00033F8E433F9E50A28F8E50B39F9E8240A58
:1056D000FAE93400FB850A82850B83A3A3A3A3A365
:1056E000A3A3A31257A17401122B2C1257E5122861
:1056F000B3E50FC333FCE433FD123ACF7403122831
:10570000E40254CA851882851983E06027125BA5DC
:105710001228BB75087975090778081228B7740331
:10572000122B2C125BAF1228BB90070C1226DB75D4
:1057300008008029EEFAEFFB1231F3E9702F125BBB
:10574000A51228BB75087975090778081228B7755E
:10575000080078081228BB90070C1226DB78081284
:1057600028BB1257A7123FBB74071228E474031218
:105770002B2C126993600B7403122B2C126CE11208
:105780003B9B7401122B2C126993600B7401122B3A
:105790002C126CE1123B9B74051228E47F10022549
:1057A000C9EAF0A3EBF022E5162402FCE517340069
:1057B000FDE516240FF582E517125F64F97A067B82
:1057C00080221257CAAA0AAB0B22E0FCA3E0FD22FA
:1057D000850A82850B83E0F8A385820A85830B22E4
:1057E00012626CA322E0F50CA3E0F50D750E0078B3
:1057F0000C2274F112239C74F41229458A088B0937
:10580000ECFEEDFF740B122B2C7403F0122B2CAA60
:1058100082AB83124597123151EAFCEBFD740312FF
:105820002B2CAA82AB83124591E9600A1259DE60E3
:1058300010E06401600B8518828519837484025915
:10584000938E828F83A3A3A3A3A3A3A3A3E0601338
:10585000F460101259DE7016EE2414127491600375
:10586000F4700B8518828519837482025993E508B8
:10587000240CF582E50912749464217002A3E0609F
:105880000302596A851882851983748C125A0E6432
:105890000360030259547401122B2CAC82AD8312A5
:1058A000610612480DE96003025954123E118A0A3A
:1058B0008B0BEA450B70030259948E0C8F0D750EFD
:1058C00000780C1228B37C157D00123ACF740312B5
:1058D00028E4850882850983A3A3E50A2415FCE54D
:1058E0000B3400FD74091227F81270F1127494C081
:1058F000E0E50A241EF582E50B12760BD0E0125F7C
:1059000057C0E0E50A241FF582E50B12760BD0E0C4
:10591000F0E50A2420F582E50B12760B7405F0EE13
:10592000240BFEEF3400FFEEFAEFFB1237B77D00D9
:105930007C007900EEFAEFFB123F7390807712261D
:10594000D77A007B1090073AE0F9123C5B7404129E
:1059500028E480781259D11228BB1259E712483135
:1059600074011228E4E9702C80141259D11228BB5A
:105970001259E712482B74011228E4E9700D8518BA
:1059800082851983E4F0123DE1800985188285192A
:10599000837488F01270F11259D61228BB74011268
:1059A0002B2C85820A85830B780A1228B7E50824F8
:1059B0000CF582E5091261154480F50B780A12286E
:1059C000B71264A4123F6774051228E4740C026BCA
:1059D000FBEE126C04EF125F64F50A780A22125B88
:1059E00090125F64640322EE240BFCEF3400FD8E02
:1059F000828F83A3A3A3A3A3A3A3A3A3126D1E8E2D
:105A0000828F83A3A3A3A3A3A3A3A3E0F922F012ED
:105A10005B90125F6422C082C08374F312294585B3
:105A20001882851983E4F004122B2C1257A17403F9
:105A3000122B2CAA82AB83122CE385188285198342
:105A4000AA82AB83122D1F740D1228E4026CD0744D
:105A5000F612239C126525FAA3E0F9EAF890074BA9
:105A6000E058F508A3E059F509E5084509601C78F8
:105A7000081228B790070C1226DB12748EFD7C00EA
:105A80001265F1123FC774041228E402521974F42B
:105A900012239C74FF122945EAFEEBFF85188285CC
:105AA0001983E4F09008CAE07003025B8BEE240BCC
:105AB00012749164017003025B8B8E828F83A3A3A7
:105AC000125F45EE2415127491687003A3E06960BB
:105AD00003025B8B125B90125F42E8FAE9FB88825B
:105AE0008983A3A3A3A3A3A3A3A3E0FC88828983A0
:105AF000A3A3A3A3A3A3A3A3A3E0F9EC2400F50805
:105B0000E439F509EC45096010EC9471E99408500A
:105B1000089008D6E06402700A851882851983749B
:105B2000808037122D5B8A0A8B0BA80AA90BE849E3
:105B3000602088828983A3A3A3A3E014C3940250A6
:105B400011E82412125B97E82414125B97123DE1CE
:105B500080098518828519837481F01251FAEF1239
:105B60005BAC1228BB7401122B2C8582088583093B
:105B700078081228B775081F75098078081228B7A9
:105B80001263D5123F6774051228E4740102698517
:105B9000EE2413F582EF22F582E9127619E508F07A
:105BA000A3E509F022E5161251FBE517127619E07C
:105BB000F50878082274EA12239C74DB1229458ABE
:105BC000148B15751200751300126261F50E85189D
:105BD00082851983AC82AD837A007B00799C122E7A
:105BE000337A047900122D31EAF50C851882851973
:105BF00083E0250CF0F8E50EC3984003025DFAE05F
:105C0000C3950EF509C394044003750903E50975AE
:105C1000F01AA4FAABF0123B958A128B13EA4513E3
:105C20007003025DFD750D00AE12AF13850E080204
:105C30005CBC125E51123ADB850A82850B83A3A3FA
:105C4000A3A3E07039850A82850B831269937012D1
:105C500012610F1272EBEE2418F582EF12760BE44C
:105C60008016125E60F0900563E014C0E0EE241828
:105C7000F582EF12760BD0E0125E99E4803B90053E
:105C800063E004C0E0EE2418F582EF12760BD0E05A
:105C9000125E91C39403EE4003025D58126110122C
:105CA0006C0C125E9164017003025D65EE241512A6
:105CB0005E63F0EE2416125E63125E6CE50DC39512
:105CC000094003025D8AE508C3950C4003025D6F3D
:105CD00085080AAA0A7B00122D978A0A8B0B0508F1
:105CE000900550125E78124597850A82850B8312C3
:105CF0005F45125E431273A4125EA6850A82850B6D
:105D000083A3A3A3A3A3A3A3A3A3A3E0C0E0EE2420
:105D100019F582EF12760BD0E0F07401122B2CE40F
:105D2000F0850A82850B83125F457402122B2C12B8
:105D30005F687401122B2CAA82AB83122D0DE964CB
:105D4000016003025C327404122B2CAC82AD83120E
:105D50005E57124597025C38125E61125E916403D1
:105D60006003025CAC125E4A12760BE4025CB2E5A0
:105D70000CC3950E40057508008016E50EC3950C02
:105D8000F508800D125E60125E6CE50DC39509503A
:105D90006C740E122B2CAC82AD8385080AAA0A7B88
:105DA000007987122E3305087418122B2C125E7896
:105DB000124597125E51123ADBEE2412F8EF3400CE
:105DC000F9740E122B2C126CE188828983EAF0A3FD
:105DD000EB125E997403125EA6741D122B2CE0C0A8
:105DE000E0EE2419F582EF12760BD0E0126C4070D1
:105DF0009312610F12760BE4808D750900750A000D
:105E0000780A1228BB78121228B778091228BBE545
:105E10000EF50978091228BB7405122B2CE0FD7CC5
:105E2000001270F912400374051228E4E5124513BC
:105E30006007AA12AB13123B9B74251228E47F0E55
:105E40000225C9EE2412F582EF22EE2415F582EF29
:105E5000227C087D0079FFEE240AFAEF3400FB2251
:105E6000EE2414F582EF127619740122F0EE241A52
:105E7000FEEF3400FF050D22125F498E828F83E80A
:105E8000F0A3E9F07C647D05EE2402FAEF3400FB18
:105E900022127639A3A3A3E022F0EE2415125EB6F7
:105EA000241612761622F0EE2417125EB62418126B
:105EB000761674FFF022F582EF12761D7402F0EE72
:105EC0002274F612239C74F91229458A088B091250
:105ED0007778123AE7851882851983122B15125F9D
:105EE00030C0E07404122B2CD0E01275EDA3E0FA60
:105EF0007405122B2C7401F07406122B2C7401F013
:105F0000900716F090071F0412764DA3125F45907C
:105F10000717125F68EA900720125F579007151263
:105F20005F4F122DD3E96003122DD9740702521668
:105F3000EE2404FEEF3400FF8E828F83E022126C89
:105F400003E9127619125F4922E0F8A3E0F9221260
:105F5000672EAA82AB8322F0E508240F125F60222D
:105F6000F582E5091271C222E8F0A3E9F02274F289
:105F700012239C74FF1229457508007E007F0012D1
:105F800030798A0A8B0B1230798A0C8B0DA80CA9F8
:105F90000D80050508125F3EE84970F79008D6E0CD
:105FA0006007640160030260831230798A0C8B0DF4
:105FB000A80CA90D8003125F3EE8496037888289EA
:105FC00083126CE1900550E06A7003A3E06B600EF1
:105FD000126C03E912760B126CE1EA4B70D88882DE
:105FE0008983125F45900550E0687003A3E06970F3
:105FF000030260837A167B00123B958A0C8B0DAEF0
:106000000CAF0DEE4F607C900550125F458E828F75
:1060100083125F68900545E08E828F83A3A3F01200
:1060200031DBE98E828F83A3A3A3A3A3F09014D5C1
:1060300012762DF07C647D05126106124597851855
:1060400082851983AA82AB837941124657851882CB
:10605000851983E0600890070C125F45800478FE84
:1060600079FF8E828F83A3A3A3A3A3A3A3125F6848
:1060700012610F12760BE50AF0A3E50BF08E0A8F82
:106080000B0508900720E0F8E508C39850047A0053
:106090008022E508C398FAC3940640027A05790085
:1060A000800DE50A126C04E50B126115F50B09E988
:1060B000C39840EE75090078091228BB780A1228A7
:1060C000B7EAF50978091228BB900720E0F50978AE
:1060D000091228BBAD087C007A177B07900715E0F2
:1060E000F9123FFD74051228E49008D6E0600464BC
:1060F00001700BEE4F6007EEFAEFFB123B9B122D87
:10610000D97401025337EE240BFAEF3400FB22EE70
:10611000126C04EF221261192212761DE0F50AA317
:10612000E022EEFAEFFB7F060225C974EC12239CF5
:1061300074FF1229458A0A8B0B7E008E0E8E0F1279
:106140006261FF851882851983AC82AD837A007BFA
:1061500000799D122E33851882851983E0F8EFC3EC
:10616000984003026207E0C39FFEC3940B40027E87
:106170000AEE75F007A4FAABF0123B958A088B097A
:106180008A0E8B0FEA450F607C750C00801785081E
:1061900082850983A3A3A3A3A37403F0E5082407BE
:1061A0001275A5050CE50CC39E505CAC08AD0985C5
:1061B0000C108F12E5102512FAE43400FB798B12D3
:1061C0002E33850882850983A3A3A3A3A3E01460CB
:1061D0000814601314601F80B5850882850983A3A5
:1061E000A3A3A3A3E480B4850882850983A3A3A302
:1061F000A3A3740180A5850882850983A3A3A3A313
:10620000A3740280967E0075080078081228BB7877
:106210000E1228B7EEF50878081228BBEFF50878BB
:10622000081228BB7405122B2CE0FD7C00E50A2423
:1062300002FAE50B3400FBE50A240FF582E50B12A8
:10624000710B12400974051228E4E50E450F600732
:10625000AA0EAB0F123B9B74011228E47F0C02259F
:10626000C912764612761912626CE022E0F8A3E0B9
:10627000F58388822274EA12239C74FE1229458ACF
:10628000148B15750A00750B00126261F5088518EC
:1062900082851983AC82AD837A007B0079A3124892
:1062A0002585080C851882851983125F45C3E50C86
:1062B00098E499507F851882851983E0C3950CFE78
:1062C000A3E09400FFC3EE9404EF940040067E0325
:1062D0007F008004EE4F605CEEFAEFFBEA75F0158C
:1062E000A4FAA8F075F015EBA428FB123B958A0CD4
:1062F0008B0D8A0A8B0BEA450B6039750900750E08
:1063000000850E10C3E5109EE49F502DAC0CAD0D22
:10631000850E12850810E5122510FAE43400FB7989
:10632000A2124825E50C2415F50CE50D3400F50DF9
:10633000050E80CD75098B7E00750C00780C122837
:10634000BB780A1228B7EEF50C780C1228BB780837
:106350001228BB7405122B2CE0FDAC091270F91247
:10636000400F74051228E4E50A450B6007AA0AAB42
:106370000B123B9B7402025E3B74F612239C74FF6B
:10638000122945EAFEEBFF125B901274C4A3A3A38B
:10639000A3A3A3A3A3E0F9122DF7E9851882851919
:1063A00083F075080078081228BB7401122B2C8525
:1063B000820885830978081228B775083575098021
:1063C00078081228B71263D5123F6774051228E4C3
:1063D000740102521679011263E0FAEF3400FB22D5
:1063E000EE2402FCEF3400FDEE240F2274F412239D
:1063F0009C74FA1229458A088B091273B9FAEFFBCB
:10640000122CE9E96013123151EAFCEBFDEEFAEFD0
:10641000FB124591E96401700A7401122B2CE4F01F
:10642000A380097401122B2CEEF0A3EF126C1BA3B6
:10643000A3A3A3A3A3E0F8A2E650087403122B2C95
:106440007401F0E8A2E750087404122B2C7401F0D8
:106450007405122B2CE4F004122B2CAA82AB8312AD
:106460002E27E9851882851983F07A007B00123186
:1064700075750A00780A1228BB7401122B2C8582CC
:106480000A85830B780A1228B7750A34750B807851
:106490000A1228B71264A4123F6774051228E47424
:1064A000060269857901E5082402FCE5093400FD4E
:1064B000E508240FFAE5093400FB2274F612239C48
:1064C00074FF122945126525F509A3E0F508A9090D
:1064D000122DE5E9851882851983F09008D6E070C1
:1064E0000B740165087005A9091240C3EE240B1254
:1064F0007491702E75080078081228BB7401122B55
:106500002C85820885830978081228B775083675A6
:10651000098078081228B71263D5123F67740512F4
:1065200028E40263D012652922EAFEEBFFEE241371
:10653000F582EF1271C212653BE022F8A3E0F98800
:1065400082898322C082C0839008D6E07003124003
:10655000C9026CD074F412239C74EF122945EAFE30
:10656000EBFF12533D90070CE065087004A3E06553
:1065700009705885188285198385820A85830B786E
:106580000A1228B7750A11750B00780A1228B77C11
:10659000007D007A817B00123C1F74041228E4E91C
:1065A0007029750A00780A1228BB7401122B2C85F9
:1065B000820A85830B780A1228B7AC08AD091265E8
:1065C000F1123FC174031228E48021750A11750B82
:1065D00080780A1228B778081228B712748EFD7CCA
:1065E000841265F1123FCD74041228E4741102691B
:1065F000851265F522EE2402FAEF3400FBEE240F3B
:10660000F582EF1271C2F92274F112239C74EB121D
:106610002945126525FCA3E0FBEC2400F508E43BCA
:10662000F50990070CE065087004A3E065096003B4
:106630000266D388828983A3A3E09410500F8882D6
:106640008983A3A3E0851882851983800885188231
:106650008519837410F0E0C0E07404122B2CD0E094
:106660001274A5A3A3A982AA83890C8A0D750E00B2
:10667000780C1228B37407122B2CE0FC7D007408F0
:10668000122B2CAA82AB83123ACF74031228E47423
:1066900004122B2C85820A85830B780A1228B77581
:1066A0000A11750B00780A1228B77C007D007A81E8
:1066B0007B00123C1974041228E47404122B2CE0A1
:1066C0009007436005E0D2E48003E0C2E412672E45
:1066D000E480088518828519837484F0E0C0E07432
:1066E00001122B2CD0E0F07402122B2CE508F07470
:1066F00003122B2CE508F01251FAEF125BAC1228B2
:10670000BB7402122B2C8582088583097808122815
:10671000B775081475098078081228B779031263D1
:10672000D7123F6774051228E47415026BFBF085DD
:1067300018828519832274F412239C74E01229456F
:106740008A088B09851882851983AC82AD83123F34
:10675000559008D6E0640270337402122B2CAE827E
:10676000AF83123151EEFCEFFD124591E9601D122D
:1067700031578A0A8B0BA80AA90B851882851983C1
:10678000E0687003A3E069700302698312330D743B
:1067900002122B2C126CD7123223E964017003020F
:1067A00069837418122B2CAA82AB83123163740292
:1067B000122B2CAC82AD837418122B2CAA82AB83C3
:1067C000124591E9603212315D8A0A8B0BA80AA941
:1067D0000B851882851983E0687003A3E06960184F
:1067E000851882851983125F45900546125F687A85
:1067F000467B05794B12465D9008D6E06007640140
:1068000060030268A9127603C082C0831231578ADE
:10681000088B09D083D082E065087004A3E0650985
:10682000605C7402122B2CAA82AB83122D5B8A0847
:106830008B09A808A909E849602688828983A3A34F
:10684000A3A3E06401600D88828983A3A3A3A3E0CE
:106850006402700C7402122B2CAA82AB83122D6777
:106860009005E412699360169008CAE06401700E06
:10687000126CDB9005E5E0F583888212252A12313F
:10688000578A088B09A808A909851882851983E009
:10689000687003A3E06960117402122B2C126CD78C
:1068A000122D3DE96003123DE17402122B2C126C93
:1068B000D71232FB7900126CDB122F71740B122B82
:1068C0002CE4126997F8A3E0F9740C122B2C125FD8
:1068D00068740B122B2CAA82AB83122D0DE9604B2E
:1068E0007C087D0079007418122B2CAA82AB8312CD
:1068F0003ADB740E122B2CAC82AD837418122B2C45
:10690000AA82AB83124591E960217402122B2CAC50
:1069100082AD83740E122B2CAA82AB83122CE374EB
:106920000B122B2CAA82AB83122D1F7402122B2C5C
:10693000AC82AD83740E122B2CAA82AB83122CE393
:10694000740B122B2CAA82AB83122D13E9603474C2
:106950000C122B2C125F45851882851983E0687014
:1069600003A3E069601D851882851983125F457451
:106970000C122B2C125F68740B122B2CAA82AB8387
:10698000122D1F74201228E47F040225C9F582E825
:10699000127619126E532212672EE02274F112231E
:1069A0009C74F6122945EAFEEBFF7508009007AFCC
:1069B00012699370537A377B00123B959007AFEAC8
:1069C000F0A3EB1271C860197C377D007900123A90
:1069D000DBEEFCEFFD9007AF126CE1123F25E97092
:1069E0000B8518828519837488026B581274982459
:1069F0002EF582E8125E66F07C317D3F9004D31262
:106A00006CE1124891026BF9E0C8242E126C09F077
:106A1000EEFCEFFD127110123F25E9700C85188213
:106A20008519837488F0750801750A79750B0778E4
:106A30000A1228B7126CF11226DB1274982428F57A
:106A400082E8127494FC126D24127498126C04E89B
:106A500012710B123E8974041228E4126C12126C2B
:106A6000212431F582E812749460431271ADFAE486
:106A700033FB123B959007AFE02432126C36602254
:106A8000750C79750D07750E00780C1228B312710C
:106A9000ADFCE433FD126D0F123ACF74031228E4FB
:106AA000800C8518828519837488F0750801780A2E
:106AB0001228B7126CE51226DB1274982411F582A5
:106AC000E8127494FC126D06127498242BF582E877
:106AD00012710B123E8974041228E4127498243443
:106AE000126C212434F582E812749460351271A47A
:106AF000FAE433FB123B959007AFE02435126C3675
:106B00006045750C79750D07750E00780C1228B369
:106B10001271A4FCE433FD126CFD123ACF7403121F
:106B200028E4E508A2E04028126C12F582E812740D
:106B30009470089007AF12717560157B007A007928
:106B400000123F2B026BF98518828519837488F037
:106B50008518828519837486F07409122B2C7402AF
:106B6000126C1B12716F122B2C125F688E828F8336
:106B7000A3125BAF1228BB7401122B2C85820885EF
:106B8000830978081228B7750820750980780812DB
:106B900028B779017406122B2CAC82AD83EEFAEF84
:106BA000FB123F6774051228E41271527048740991
:106BB000122B2C7402F0127167122B2C1271CF124F
:106BC00028BB7401122B2C85820885830978081252
:106BD00028B775082075098078081228B7790174DC
:106BE00006122B2CAC82AD839007AF126CE1123FE2
:106BF0006774051228E4123F1F740A1228E47F0705
:106C00000225C9E82414F58222F582E81276197467
:106C100002229007AF12712C2431221275F1A3A326
:106C200022F582E8127619126C2CC822E9F090073E
:106C3000AFE0F8A3E022F8A3E0126C47EAF0A3EB80
:106C40001274BE126E53223400F98882898322C0E6
:106C500082C0839007AF1269936075E0C824351233
:106C6000698D6006126CFD123B9B127498243212DF
:106C7000698D6006126D0F123B9B127498241212DC
:106C8000698D6009126CE5126CE1123B9B127498DD
:106C9000241512698D6006126D24123B9B127498A4
:106CA000242912698D6009126CF1126CE1123B9B70
